:020000040000FA
:1000000000040020D90A00006D070000B90A0000B2
:1000100077070000810700008B0700000000000048
:10002000000000000000000000000000FD0A0000C9
:1000300095070000000000009F070000A9070000CE
:10004000B3070000BD070000C7070000D10700008C
:10005000DB070000E5070000EF070000F9070000DC
:10006000030800000D080000170800002108000028
:100070002B080000350800003F0800004908000078
:10008000530800005D0800006708000071080000C8
:100090007B080000850800008F0800009908000018
:1000A000A3080000AD080000B7080000C108000068
:1000B000CB080000D5080000DF080000E9080000B8
:1000C000F3080000FD080000070900001109000006
:1000D0001B090000250900002F0900003909000054
:1000E000430900004D0900005709000061090000A4
:1000F0006B090000750900007F09000089090000F4
:10010000930900001FB500F003F88DE80F001FBD34
:1001100000F0D8BC40F6FC7108684FF01022401C7B
:1001200008D00868401C09D00868401C04D0086842
:1001300000F037BA9069F5E79069F9E7704770B554
:100140000B46010B184400F6FF70040B4FF0805073
:100150000022090303692403406943431D1B104621
:1001600000F048FA29462046BDE8704000F042BA47
:10017000F0B54FF6FF734FF4B4751A466E1E11E0DA
:10018000A94201D3344600E00C46091B30F8027B3B
:10019000641E3B441A44F9D19CB204EB134394B25D
:1001A00004EB12420029EBD198B200EB134002EBB2
:1001B000124140EA0140F0BDF34992B00446D1E952
:1001C0000001CDE91001FF224021684600F020FC2B
:1001D00094E80F008DE80F00684610A902E004C8FB
:1001E00041F8042D8842FAD110216846FFF7C0FF7C
:1001F0001090AA208DF8440000F099F9FFF78AFFCB
:1002000040F6FC7420684FF01025401C0FD0206889
:1002100010226946803000F078F92068401C08D030
:100220002068082210A900F070F900F061F9A869AF
:10023000EEE7A869F5E74FF080500369406940F6A2
:10024000FC71434308684FF01022401C06D0086838
:1002500000F58050834203D2092070479069F7E788
:100260000868401C04D00868401C03D00020704778
:100270009069F9E70420704770B504460068C34DE3
:10028000072876D2DFE800F033041929631E250021
:10029000D4E9026564682946304600F062F92A46CE
:1002A0002146304600F031F9AA002146304600F0E0
:1002B00083FB002800D0032070BD00F035FC4FF414
:1002C000805007E0201D00F040F90028F4D100F034
:1002D0002BFC60682860002070BD241D94E8070096
:1002E000920000F069FB0028F6D00E2070BDFFF7E9
:1002F000A2FF0028FAD1D4E901034FF0805100EBAE
:10030000830208694D69684382420ED840F6F8704E
:1003100005684FF010226D1C09D0056805EB8305B8
:100320000B6949694B439D4203D9092070BD55694A
:10033000F4E70168491C03D00068401C02D003E0C8
:100340005069FAE70F2070BD2046FFF735FFFFF731
:1003500072FF0028F7D1201D00F0F7F80028F2D135
:1003600060680028F0D100F0E2F8FFF7D3FE00F05B
:10037000BFF8072070BD10B50C46182802D0012028
:10038000086010BD2068FFF777FF206010BD41684E
:10039000054609B1012700E0002740F6F8742068FF
:1003A0004FF01026401C2BD02068AA68920000F065
:1003B00003FB38B3A86881002068401C27D0206860
:1003C000FFF7BDFED7B12068401C22D026684FF051
:1003D0008050AC686D68016942695143A9420DD9EA
:1003E000016940694143A14208D92146304600F0E5
:1003F000B8F822462946304600F087F800F078F831
:100400007069D2E700F093F8FFF784FEF6E77069B1
:10041000D6E77669DBE740F6FC7420684FF01026DB
:10042000401C23D02068401C0CD02068401C1FD0EA
:100430002568206805F18005401C1BD027683879A5
:10044000AA2819D040F6F8700168491C42D001680A
:10045000491C45D00168491C3ED001680968491C07
:100460003ED00168491C39D000683EE0B069DAE747
:10047000B569DEE7B769E2E710212846FFF778FEA5
:100480003968814222D12068401C05D0D4F8001080
:1004900001F18002C03107E0B169F9E730B108CA63
:1004A00051F8040D984201D1012000E000208A4259
:1004B000F4D158B1286810B1042803D0FEE72846CB
:1004C000FFF765FF3149686808600EE0FFF722FE1C
:1004D00000F00EF87169BBE77169BFE7706904E06D
:1004E0004FF480500168491C01D000F0F7FAFEE794
:1004F000BFF34F8F26480168264A01F4E06111439B
:100500000160BFF34F8F00BFFDE72DE9F0411746B3
:100510000D460646002406E03046296800F054F8EF
:10052000641C2D1D361DBC42F6D3BDE8F08140F69B
:10053000FC700168491C04D0D0F800004FF48051D1
:10054000FDE54FF010208069F8E74FF080510A690F
:10055000496900684A43824201D810207047002050
:10056000704770B50C4605464FF4806608E0284693
:1005700000F017F8B44205D3A4F5806405F5805562
:10058000002CF4D170BD00004C0B000000000020D6
:100590000CED00E00400FA05144801680029FCD0C5
:1005A0007047134A0221116010490B68002BFCD0E0
:1005B0000F4B1B1D186008680028FCD0002010603D
:1005C00008680028FCD07047094B10B501221A605A
:1005D000064A1468002CFCD0016010680028FCD08A
:1005E0000020186010680028FCD010BD00E4014015
:1005F00004E5014070B50C46054600F083F840B9AB
:1006000000F096F828B900F09DF810B900F0A4F8B1
:1006100028B121462846BDE8704000F007B82146C1
:100620002846BDE8704000F037B800007FB50022D2
:1006300000920192029203920A0B000B6946012379
:1006400002440AE0440900F01F0651F8245003FA5E
:1006500006F6354341F82450401C8242F2D80D4939
:100660000868009A10430860081D0168019A114348
:10067000016000F047F800280AD0064910310868E8
:10068000029A10430860091D0868039A1043086025
:100690007FBD00000006004030B50F4C002200BFB7
:1006A00004EB0213D3F800582DB9D3F8045815B948
:1006B000D3F808581DB1521C082AF1D330BD082ABE
:1006C000FCD204EB0212C2F80008C3F8041802209E
:1006D000C3F8080830BD000000E001404FF0805032
:1006E000D0F83001082801D0002070470120704761
:1006F0004FF08050D0F830010D2801D00020704715
:10070000012070474FF08050D0F83001062803D008
:10071000401C01D000207047012070474FF08050EE
:10072000D0F83001102801D0002070470120704718
:100730004FF08050D0F830010E2801D000207047D3
:10074000012070474FF08050D0F830010A2801D0C6
:1007500000207047012070474FF08050D0F83001E2
:100760000F2801D0002070470120704708208F49D2
:1007700009680958084710208C4909680958084732
:1007800014208A49096809580847182087490968C8
:100790000958084730208549096809580847382012
:1007A00082490968095808473C2080490968095866
:1007B000084740207D4909680958084744207B497B
:1007C00009680958084748207849096809580847BE
:1007D0004C20764909680958084750207349096830
:1007E0000958084754207149096809580847582092
:1007F0006E490968095808475C206C49096809581E
:100800000847602069490968095808476420674912
:100810000968095808476820644909680958084761
:100820006C20624909680958084770205F490968C7
:100830000958084774205D49096809580847782015
:100840005A490968095808477C20584909680958D5
:1008500008478020554909680958084784205349AA
:100860000968095808478820504909680958084705
:100870008C204E4909680958084790204B4909685F
:100880000958084794204949096809580847982099
:1008900046490968095808479C204449096809588D
:1008A0000847A0204149096809580847A4203F4942
:1008B000096809580847A8203C49096809580847A9
:1008C000AC203A49096809580847B02037490968F7
:1008D00009580847B4203549096809580847B8201D
:1008E0003249096809580847BC2030490968095845
:1008F0000847C0202D49096809580847C4202B49DA
:10090000096809580847C82028490968095808474C
:10091000CC202649096809580847D020234909688E
:1009200009580847D4202149096809580847D820A0
:100930001E49096809580847DC201C4909680958FC
:100940000847E0201949096809580847E420174971
:10095000096809580847E8201449096809580847F0
:10096000EC201249096809580847F0200F49096826
:1009700009580847F4200D49096809580847F82024
:100980000A49096809580847FC20084909680958B4
:1009900008475FF480700549096809580847000056
:1009A00003480449024A034B70470000000000203E
:1009B000580B0000580B000040EA010310B59B07DC
:1009C0000FD1042A0DD310C808C9121F9C42F8D0B9
:1009D00020BA19BA884201D9012010BD4FF0FF306A
:1009E00010BD1AB1D30703D0521C07E0002010BD80
:1009F00010F8013B11F8014B1B1B07D110F8013B0C
:100A000011F8014B1B1B01D1921EF1D1184610BDEC
:100A100002F0FF0343EA032242EA024200F005B873
:100A20007047704770474FF000020429C0F01280F1
:100A300010F0030C00F01B80CCF1040CBCF1020F91
:100A400018BF00F8012BA8BF20F8022BA1EB0C0166
:100A500000F00DB85FEAC17C24BF00F8012B00F85C
:100A6000012B48BF00F8012B70474FF0000200B582
:100A7000134694469646203922BFA0E80C50A0E8C1
:100A80000C50B1F12001BFF4F7AF090728BFA0E86F
:100A90000C5048BF0CC05DF804EB890028BF40F83B
:100AA000042B08BF704748BF20F8022B11F0804F7D
:100AB00018BF00F8012B7047014B1B68DB68184713
:100AC0000000002009480A497047FFF7FBFFFFF7C5
:100AD00019FB00BD20BFFDE7064B1847064A106012
:100AE000016881F30888406800470000580B000047
:100AF000580B000017040000000000201EF0040F37
:100B00000CBFEFF30881EFF30981886902380078A0
:100B1000182803D100E00000074A1047074A12686E
:100B20002C3212681047000000B5054B1B68054ABF
:100B30009B58984700BD000077030000000000208C
:100B4000480B00000400000000100000000000003E
:080B500000FFFFFF0090D0033D
:1010000030100020116C0100BD880000636B0100EE
:10101000BD880000BD880000BD8800000000000001
:101020000000000000000000000000009D6C0100B6
:10103000BD88000000000000BD880000BD880000E1
:10104000056D01000B6D0100BD880000BD8800002A
:10105000BD880000BD880000BD880000BD8800007C
:10106000116D0100BD880000BD880000176D0100F2
:10107000BD8800001D6D0100236D0100296D010078
:10108000BD880000BD880000BD880000BD8800004C
:10109000BD880000BD880000BD880000BD8800003C
:1010A000BD8800002F6D0100BD880000BD880000D4
:1010B000BD880000BD880000BD880000BD8800001C
:1010C000BD880000BD880000BD880000BD8800000C
:1010D000BD880000BD880000BD880000BD880000FC
:1010E000BD880000BD880000BD880000BD880000EC
:1010F000BD880000BD880000BD880000BD880000DC
:10110000BD880000BD88000000F002F815F06FFDFA
:101110000AA090E8000C82448344AAF10107DA4552
:1011200001D115F064FDAFF2090EBAE80F0013F01B
:10113000010F18BFFB1A43F001031847A0A10100DB
:10114000C0A101000A4410F8014B14F00F0508BFBC
:1011500010F8015B240908BF10F8014B6D1E05D083
:1011600010F8013B6D1E01F8013BF9D1641E03D05C
:10117000641E01F8015BFBD19142E4D3704700008B
:101180000023002400250026103A28BF78C1FBD890
:10119000520728BF30C148BF0B6070471FB500F031
:1011A00003F88DE80F001FBD15F01EBD70B51B4C78
:1011B00005460B202070A01C00F0ADF85920A0803F
:1011C00029462046BDE8704006F030BE06F039BE24
:1011D00070B50C461249097829B1A0F160015E2969
:1011E00008D3012013E0602804D06A2802D043F21B
:1011F00001000CE020CC0B4E94E80E0006EB8000C2
:10120000A0F58050241FD0F8806E2846B04720609B
:1012100070BD0120704706207047000008000020C4
:1012200020000020C0AE01003249884201D20120D6
:1012300070470020704770B50446A0F500002E4EA0
:10124000B0F1786F02D23444A4F5000429488442F6
:1012500001D2012500E0002500F043F848B125B98E
:10126000B44204D32548006808E0012070BD002086
:1012700070BD002DF9D1B442F9D321488442F6D291
:10128000F3E710B50446A0F50000B0F1786F03D283
:1012900019480444A4F5000400F023F84FF08041FD
:1012A00030B11648006804E08C4204D2012003E00B
:1012B00013488442F8D2002080F0010010BD10B520
:1012C00020B1FFF7DEFF08B1012010BD002010BDE6
:1012D00010B520B1FFF7AFFF08B1012010BD00200D
:1012E00010BD084808490068884201D101207047B4
:1012F0000020704700C001000000002024000020F2
:101300000800002034000020BEBAFECA10B5FFF766
:101310004DFF002010BDEA2101807047FFF756BF46
:101320000020704702487047FFF752BF7047704770
:1013300003F9004230B504461038FE4D07280CD2A0
:10134000DFE800F0040C060C0C0C0C00FFDF05E0DD
:101350002878112802D0FFDF00E0FFDF2C7030BDBD
:1013600070B519F0B9FA04460DF050FD201AC5B257
:1013700006200BF04BFE044606200BF04FFE201A11
:10138000C1B2EC480078122809D000221144C9B239
:10139000132806D000200844281AC0B270BD0122CC
:1013A000F4E70120F7E71CB5E248417B49080CD07F
:1013B000D0F80E100091408AADF8040068460AF09B
:1013C000A2F9BDE81C4006F0B8BBDA480E300AF0BE
:1013D00080F9F6E77CB505460C460846FFF72BFF7B
:1013E00008B110207CBD2088ADF800008DF80250B7
:1013F000A0788DF80300E0788DF8040068460AF0C4
:10140000E0FD06F09AFB7CBD10B50AF0AEFBBDE82E
:10141000104006F092BB30B50446A1F120000D4605
:101420000A2847D2DFE800F005070C1920253237DB
:101430003C41FFDF3FE0207820283CD1FFDF3AE04D
:101440002078242837D0252835D0232833D0B94810
:10145000007812282FD0FFDF2DE0207822282AD014
:10146000232828D8FFDF26E02078222823D0FFDF9A
:1014700021E0207822281ED024281CD026281AD02B
:10148000272818D0292816D0FFDF14E02078252837
:1014900011D0FFDF0FE0207825280CD0FFDF0AE015
:1014A0002078252807D0FFDF05E02078282802D003
:1014B000FFDF00E0FFDF257030BD70B514460D463C
:1014C0000646FFF7B8FE60B90DB1A54201D90C2060
:1014D00070BD002409E000BF56F82400FFF7ABFE02
:1014E00008B1102070BD641CE4B2AC42F4D30020FB
:1014F00070BD10B50278540809D0012243F20223CE
:10150000012C07D0022C0DD0032C13D10FE00020AA
:10151000087005E080790324B4EB901F0AD10A70AB
:10152000002010BD8079B2EB901F03D1F7E78079DE
:101530008009F4D0184610BD08B500208DF80000D1
:101540007C48817D49B1C07D02280FD003280FD08F
:10155000FFDF00BF9DF8000008BD764869460D30EA
:1015600001F087F90028F5D0FFDFF3E7032000E062
:1015700001208DF80000EDE738B50C4605466946B8
:1015800001F077F900280DD19DF80010207861F363
:101590004700207055F8010FC4F80100A888A4F88E
:1015A0000500002038BD38B51378C0B1022816D028
:1015B00061A46D46246800944C7905EB941424785A
:1015C00064F34703137003280ED003F0FE0010707D
:1015D0000868C2F801008888A2F8050038BD23F029
:1015E000FE0313700228EED1D8B240F00100EEE7FE
:1015F00002210BF05FBD38B50C460978222901D2D3
:10160000082038BDADF800008DF8022068460AF0C9
:10161000AAF806F092FA050003D121212046FFF72F
:10162000FAFE284638BD1CB500208DF80000CDF824
:101630000100ADF805003F48807D022801D001205F
:1016400000E000208DF8070068460AF001F9002844
:1016500000D0FFDF1CBD70B58AB00D46040005D078
:10166000FFF736FE20B110200AB070BD0820FBE75E
:101670002078C10704D1A9881F2901D20920F3E7E6
:1016800080073AD4FFF76CFE38B12178C1F3C1006E
:10169000012804D0032802D004E01320E4E7254801
:1016A000007BC8B1C8074FF001064FF0000502D01B
:1016B0008DF8196001E08DF81950FFF73DFF8DF8A6
:1016C000000020786946C0F3C1008DF80100607801
:1016D0008DF80250C20801D00720C5E778B1C207D3
:1016E00001D08DF80260820705D59DF8022042F0F6
:1016F00002028DF80220400703D50620B4E78DF8DA
:101700000260002022780B18C2F38002DA7001EB2D
:10171000800263689360401CA368C0B21361022812
:10172000F0D3A07B0028E8D1E07B0028E5D1207C25
:10173000002803E0D80100200302FF01DDD1607C16
:101740000028DAD1A07CC006D7D104F10E0001F048
:1017500084F88DF8180068460AF0D9F806F0EDF91B
:10176000002881D18DF81C608DF81D50A089ADF83E
:101770001E00ADF8205007A80AF041F906F0DDF987
:1017800000288BD12078C00701D0152000E013205D
:10179000FFF7D0FD002067E71CB50C460021009143
:1017A00001918DF8000038B12046FFF744FD08B1E3
:1017B00010201CBD2068019068460AF0CEF906F0A2
:1017C000BCF91CBD032801D307207047FE4B53F81A
:1017D0002030104618472DE9FF470220FB4E8DF8B8
:1017E00004000027708BADF80600B84643F20209EA
:1017F0004CE001A80BF0C9FB050006D0708BA8B324
:10180000A6F81A80ADF806803EE0039CA07F010791
:101810002DD504F124000090A28EBDF808002146C9
:1018200004F1360301F044FD050005D04D452AD0F2
:10183000112D3CD0FFDF3AE0A07F20F00801E07FCF
:10184000420862F3C711A177810861F30000E077D5
:1018500094F8210000F01F0084F820002078282848
:1018600026D129212046FFF7D6FD21E014E04007CC
:101870000AD5BDF8080004F10E0101F004F80500D6
:101880000DD04D4510D100257F1CFFB202200BF07A
:10189000BDFB401CB842ACD8052D12D008E0A07F9B
:1018A00020F00400A07703E0112D00D0FFDF002519
:1018B000BDF806007083052D05D0284604B0BDE8AC
:1018C000F087A6F81A800020F8E72DE9FE4F040003
:1018D00000D1FFDF2078DFF8F48220F00F00801CB9
:1018E00020F0F0007030207060680178491F1929DD
:1018F0002FD2DFE801F0EF2E2E2E51EE2E0DEEEE60
:101900003EED2E2E2E6AED2EEC2EED2EEBEDED00A3
:10191000B0F805603046FFF76BFE0546304609F02B
:101920009AFAC0B16068C07985F83E002121284646
:10193000FFF771FD304603F0D1FA304604F08AFC1F
:10194000A87F20F01000A877FFF745FF002800D0FF
:10195000FFDFBDE8FE8F207820F0F00020302070FF
:101960000320207266806068C079607206F0DFFA3A
:10197000DCE7C5882846FFF73BFE00B9FFDF60685B
:101980000079012800D0FFDF6068017A03B02846A3
:10199000BDE8F04F09F005BBC088FFF729FE050040
:1019A00000D1FFDF06F0C3FA606800892881606813
:1019B0004089688160688089A8810020A875FFF748
:1019C0000AFF0028C5D0FFDFC3E7007928B102284D
:1019D000BFD03C28BDD0FFDFBBE7002606F0A7FA4A
:1019E00065684FF0FF09B5F806A0287A2D1D08B9E3
:1019F00098F80190484606F041F8070000D1FFDF53
:101A00000022022150460BF04CFB040000D1FFDF06
:101A100022212046FFF7FFFC287900B90226A07F8B
:101A200002AA66F30100A077288B2081688B608171
:101A3000A88BA08184F822908DF80860032150467D
:101A40000BF02FFB00B9FFDFB888ADF80400B878C1
:101A50008DF8060001AA052150460BF022FB00B9C3
:101A6000FFDFB888ADF80000F8788DF802006A460C
:101A7000042150460BF015FB00B9FFDF062105F1EC
:101A8000120000F00BFF30B36879800700D5FFDF4C
:101A90006979E07D61F34700E075D5F80600A06143
:101AA0006889A083062105F10C0000F0F7FEE0B183
:101AB00098F80D104A08617862F347016170D8F810
:101AC0000E10C4F80210B8F8120017E029E041E047
:101AD0003AE021E02EE0E07D20F0FE00801CE07581
:101AE000D5F81200A061E88ADBE7607820F0FE00FC
:101AF000801C6070E868C4F80200288AE080022E2A
:101B000001D0FFDF25E798F80000122800D0FFDFA2
:101B10001120FFF70FFC1CE72046BDE8FE4F01F047
:101B2000CCBD06F004FA98F8181041F0040188F8CA
:101B300018100EE798F80000132809D01528E1D1F5
:101B40005FF01600FFF7F6FBBDE8FE4F06F0EFB9B9
:101B50001420F7E798F80010122903D198F8010033
:101B600000F071FE1120EDE72DE9F0470646007800
:101B70004FF000080009DFF854A091460C46474694
:101B800001287CD002287BD007280BD00A2830D02F
:101B9000FFDF00BFA9F8007014B1A4F800806780CF
:101BA00000208CE6756804F108004FF0020C2A78DA
:101BB0004FF6FF71172A7CD011DC102A3CD009DCCB
:101BC000052A65D0092A03E034B00100D8010020BD
:101BD0000DD10FE0142A36D0152A08D1C0E0192AF9
:101BE0001DD01B2A66D01C2A65D01D2A7DD04A46EE
:101BF00021464EE1EE884FF012081027F4B330462C
:101C0000FFF7F6FC050000D1FFDFA68029892181BE
:101C1000298961816989A181A989E181BAE74FF0A8
:101C20001C080A2754B3A888A080706880792072A5
:101C30007068C0796072ADE74FF01B081427ECB1F3
:101C400003202072B9E029793C29A3D018274FF04E
:101C500010082D1D94B16988A180298B6182298B80
:101C60002182698BA182A98BE1826B790246A91D31
:101C70001846FFF798FC2879002802E005E0B4E058
:101C8000CEE087D184F80FC084E7A9F8007087E719
:101C90002C274FF01D08002CF7D00646A18015F820
:101CA0000E0F318860F30001318015F80A094008F1
:101CB00002E086E042E068E060F341013180A87A0A
:101CC000B21C800860F382013180A87AC00860F3FA
:101CD000C3013180A87A0011401C60F3041101F0A7
:101CE0007F0030806878A91C00E05AE0FFF75BFCB9
:101CF000287D06F1090205F11501FFF754FC287B48
:101D000000F0DBFD3074687B00F0D7FD7074E87E76
:101D1000B074687AF074287F3075A87B7075288A53
:101D2000F082DAF80400B06130882A7A20F060008E
:101D30003080A28405F11D01B0692FE00A274FF021
:101D40002108002CA1D0A888A0807068807920721A
:101D50007068C07960729AF8181021F004015CE094
:101D60000B274FF02208002C8FD0E888A0807068E5
:101D7000007920727068007A00F09FFD60727068D0
:101D8000407A00F09AFDA07204E730274FF0250852
:101D9000002CD7D0A18071682822496816F078FC01
:101DA000F8E60E274FF02708002CCBD0A1807068F2
:101DB000D0F80610A1604089A08170688088A0805A
:101DC000E8E614274FF01B08002CBBD0A1807068F8
:101DD0000079012806D001202072DAE90110C4E957
:101DE0000310D7E684F808C0D4E6307A012801D081
:101DF000FFDFCFE610274FF01F08002CA2D070881D
:101E0000A08070892081B0896081F089A081308AAA
:101E1000E0819AF8181021F001018AF81810B9E64B
:101E2000307AA8B3012834D0022832D0032801D058
:101E3000FFDFAFE609274FF01108002C94D075881A
:101E40002846FFF7D5FB90F822A0A580707A207273
:101E5000042128460BF040F9052128460BF03CF9F7
:101E6000002128460BF038F9012128460BF034F9FF
:101E7000032128460BF030F9022128460BF02CF9FB
:101E8000062128460BF028F9504600F0DCFC81E6DC
:101E9000FFE73046BDE8F04701F01CBD00B5032860
:101EA00000D0FFDF00BD70B514460D00064600D11E
:101EB000FFDF207820F00F01891C21F0F0001030A6
:101EC00020702878012801D0FFDF70BD3046FFF771
:101ED0008FFB060000D1FFDF0320B07506F027F866
:101EE0002868A0606868E06028892082F848017E40
:101EF00041F00101017670BD7CB505460C460846EF
:101F0000FFF799F908B110207CBD203D082D41D282
:101F1000DFE805F0044022262E404038002103204F
:101F20000DF0EDF908B111207CBDD4F8020000904D
:101F3000E088ADF80400684609F0A9FF05F0FDFD52
:101F4000040028D100220823114603200DF05CF97B
:101F5000032820D0FFDF1EE0206801F0CBFE05E063
:101F6000207800F0010009F0A7FB10E0044612E021
:101F70002088ADF800006088ADF80200684609F0DE
:101F8000F8FF04E0207800F001000AF09FF805F067
:101F9000D4FDEBE7072420467CBD7FB505460C4603
:101FA0000846FFF76EF910B1102004B070BD202D67
:101FB00005D0222D13D0272D11D00720F5E720883A
:101FC000ADF8000001A9684609F023FC05F0B5FD55
:101FD0000299C4F802109DF80C10A171E5E70620E3
:101FE000E3E7BB480D30704708B51C220021B84814
:101FF00016F06EFB1120FFF79DF9B54968460E31CA
:1020000005F028FFB2489DF80020417B62F34701AC
:1020100021F001014173002181754FF461718182CA
:102020000221C175FFF7BFF900B1FFDF00F054FCDA
:1020300001F015FB08BD10B50C46402200212046DA
:1020400016F046FBA07F20F00300A0772020207030
:102050000020A07584F8230010BD70472DE9FC41D5
:102060000746FFF7E8F810B11020BDE8FC81984E54
:1020700006F10D01D6F80D000090B6F81150ADF83C
:102080000450F47C8DF806403846FFF775FA0028B6
:10209000EBD1FFF788F90028E7D0009946F80D1F2B
:1020A000B580B471E1E710B50446FFF7EAF808B16E
:1020B000102010BD864886492246407B0E314008DC
:1020C000FFF771FA002010BDFEB50D4604004FF079
:1020D000000712D00822FFF7F0F9002812D10026DD
:1020E00009E000BF54F826006946FFF702FA00280D
:1020F00008D1761CF6B2AE42F4D309F031FA10B131
:1021000043F20320FEBD724E3773FCB100271AE084
:1021100054F8270002A9FFF7ECF900B1FFDF9DF8A2
:1021200008008DF8000054F8270050F8011FCDF882
:1021300001108088ADF80500684609F036FA00B154
:10214000FFDF7F1CFFB2AF42E2D335730020FEBD3C
:102150002DE9F0478CB01546894604001DD00F4686
:1021600008222946FFF7A9F9002810D1002612E01D
:1021700054F826006946103000F07BFB002806D199
:102180003FB157F82600FFF756F810B110200CB0F9
:1021900007E5761CF6B2AE42EAD30026A5F10108A7
:1021A0001CE000BF06F1010A0AF0FF0712E000BFC1
:1021B00054F82600017C4A0854F827100B7CB2EB37
:1021C000530F05D106221130113116F050FA58B1D3
:1021D0007F1CFFB2AF42EBD30AF0FF064645E1DBBE
:1021E0004E4624B1012003E043F20520CFE7002052
:1021F0008DF828000AA809F0F8F910B909F003FAD7
:1022000010B143F20420C2E764B300270DF11708B0
:1022100026E000BF54F827006946103000F029FB83
:1022200000B1FFDF54F82700102250F8111FCDF83D
:1022300001108088ADF8050054F827100DF1070053
:1022400016F026FA96B156F827101022404616F0DE
:102250001FFA684609F08EF900B1FFDF7F1CFFB25C
:10226000AF42D7D3FFF7DFF9002090E7404601F0F7
:1022700035FDEEE730B587B0044600F0B4FC30B968
:1022800006200AF0C3FE10B1062007B030BD20467C
:10229000FEF7D1FF18B96068FFF71AF808B11020EF
:1022A000F3E760884AF2B81188420BD8084D2878C5
:1022B000132801D30820E8E7207828B1012809D0A5
:1022C000022807D00720E0E7FFF76DF81AE00000CA
:1022D000D80100206078022804D0032802D043F2FD
:1022E0000220D2E7E875C1B200200190ADF80800E5
:1022F00002292ED0032929D0FFDF01A809F003FA13
:1023000005F01BFC0028C0D1606801F0DAFC2078E1
:1023100058B101208DF804000DF1050001F0DEFC3C
:1023200001A809F0BCFE00B1FFDF2078A875FFF717
:102330007AF9608878B1A88280B2ADF8000068466A
:1023400009F04AF900B1FFDF00209EE78DF809008F
:10235000D3E74020FAE74FF46170ECE710B504468C
:10236000FEF78FFF20B9606838B1FEF7A8FF08B10B
:10237000102010BD606801F0B1FCF948818A6180CD
:10238000C17D6170807D2070002010BD2DE9F0417D
:1023900007460E4603250846FEF79AFFF0BB38466F
:1023A000FFF726F9040005D02078222805D208205E
:1023B000BDE8F08143F20200FAE7A17F01F00300DB
:1023C000022802D0FFDF2846F2E7A07D032803D1D0
:1023D000E348007EC00701D006B30DE01EB14807F8
:1023E00020D4002100E00121384608F0BDFD0500A1
:1023F000E9D1A075002EE6D03146384600F043FA08
:1024000005461128DFD1A07F4107DCD4316844F8AC
:102410000E1F7168616040F0040000E004E0207469
:102420000025D0E71125CEE71020C1E770B50C4696
:102430000546FFF7DDF8010005D022462846BDE835
:102440007040FFF7D8B843F2020070BD10B5401ECF
:10245000C0B209F0F7F8BDE8104005F06EBB70B5EA
:1024600004460D460846FEF7E6FE18B92868FEF752
:1024700008FF08B1102070BDB94E3078112804D083
:10248000132800D33CB1082070BD29462046FFF731
:10249000E2F870B170BD0024132801D0142807D1D0
:1024A000A8881F2801D2092070BD1320FEF742FF23
:1024B0002046D5E90012C6E9011270BD1CB5A84836
:1024C0000078132801D208201CBD00208DF80000E0
:1024D000684609F094FA05F030FB0028F4D1112089
:1024E000FEF728FF00201CBD2DE9F04FDFF870B289
:1024F000824695B09BF80000994615460C46132875
:1025000003D3FFF7DBFF00281FD12046FEF793FE21
:1025100078BB2846FEF78FFE58BB20784FF00107A6
:10252000C0074FF0000102D08DF8487001E08DF82F
:10253000481020788846C0F3C1008DF8000060780C
:102540008DF80910C10803D0072015B0BDE8F08F41
:1025500080B1C10701D08DF80970810705D59DF8BC
:10256000091041F002018DF80910400704D506203A
:10257000EBE718E08DF8097000206E4606EB80014D
:102580006268CA60401CA268C0B28A610328F5D3A1
:102590002078C0F3C100012821D003281FD0504665
:1025A000FEF749FE08B11020CFE79AF80000400876
:1025B00008D0012809D0022807D0032805D043F20B
:1025C0000220C2E78DF8028001E08DF802705046CB
:1025D00050F8011FCDF803108088ADF80700FEF712
:1025E000ABFF8DF801000020424606EB40012B882E
:1025F0008B846B884B85AB880B86EB88CB86401C25
:102600008A87C0B2A1F842200328EED3A089ADF892
:102610004A0004F10E0000F020F98DF84C009BF800
:1026200000005D46112801D008208EE706200AF040
:10263000F5FC68B32078C0F3C100012801D003285D
:1026400003D1287B00283FF47FAFFEF789FE0228E4
:1026500001D2132079E72078800788D46E784C4621
:102660000227484605F00AFA80B1407880B1394621
:10267000204605F000FD85F80190684609F07AFAD9
:1026800005F05BFA070005D06E705EE705205CE799
:1026900012205AE7687805F0F1F9040000D1FFDF55
:1026A000607800B9FFDF6078401E60701220FEF78E
:1026B00041FE384649E770B5294D2878122801D0E7
:1026C000082070BD09F058FB05F037FA040005D169
:1026D000687800F0B8F81120FEF72CFE204670BD97
:1026E00070B5064615460C460846FEF7CAFD18B9F1
:1026F0002846FEF7C6FD08B1102070BD2A462146C7
:10270000304609F08DFC05F018FA0028F5D1217843
:102710007F29F2D1052070BD7CB505460C460846E0
:10272000FEF789FD08B110207CBD2846FEF760FF4A
:1027300020B10078222804D208207CBD43F2020098
:102740007CBD0748007E400701D511207CBD217863
:10275000C80802D16078C20804D007207CBD000000
:10276000D8010020890801D1800801D00620F5E7B2
:10277000ADF8005020788DF8020060788DF80300E5
:102780000220ADF80400684609F078F805F0D5F9A4
:10279000E4E70122FFF716B80022FFF713B870B57F
:1027A00005460C460846FEF76CFD08B1102070BDCA
:1027B0002146284609F07BF8BDE8704005F0BDB918
:1027C000FEB506460D4614461046FEF734FD08B128
:1027D0001020FEBD002000908DF802600190029054
:1027E000ADF8005020788DF80300606801902089D2
:1027F000ADF808006089ADF80A00684609F064F891
:1028000005F09BF9FEBD0EB58DF802000020ADF875
:102810000010ADF808008DF803000190ADF80A0033
:10282000684609F051F805F088F90EBD1080088857
:10283000508048889080C88810818888D080002087
:1028400050819081704710B505F018F9040000D14F
:10285000FFDF6078401C607010BD0CB51CA2D2E98F
:102860000012CDE900120079694601EB50100078A2
:102870000CBD0278520804D0012A02D043F2022093
:102880007047FEF736BE1FB56A46FFF7CFFF6846B2
:1028900009F0B5FA05F051F904B010BD10B50023E8
:1028A0001A4603E0845C2343521CD2B28A42F9D315
:1028B0000BB1002010BD012010BD00B528B10128CA
:1028C00004D0022802D0FFDFFEE7FF2000BD000099
:1028D0000706050403020100C648002101604160AB
:1028E00070472DE9FF4792B09A461E9F04461AB1E1
:1028F000072016B0BDE8F08701258DF842504FF44F
:10290000C050ADF84000002210A9284603F068FF2F
:102910000028EED18DF842504FF428500026ADF833
:1029200040001C2231466846079615F0D1FE9DF8FE
:102930001C000DF11C0920F00F00401C20F0F000DD
:1029400010308DF81C0020788DF81D0061789DF8FE
:102950001E000DF1400861F3420040F001008DF8C7
:102960001E009DF8000008AA40F002008DF800004B
:102970002089ADF83000ADF832606089ADF83400E0
:10298000CDF82C9060680E900AA9CDF82880684692
:1029900003F01BFD0028ACD16068FEF790FC40B14D
:1029A0006068FEF795FC20B9607800F0030002280B
:1029B00001D0012000E000208E4C08AA0AA9A071D5
:1029C000BDF8200020808DF8425042F60120ADF87D
:1029D00040009DF81E0020F00600801C20F0010041
:1029E0008DF81E000220ADF83000ADF8340013A8B9
:1029F0000E90684603F0E9FC00288AD1BDF820005B
:102A00006080BAF1000F05D007F058FEF0BB07F068
:102A100055FED8BB17B1012F42D049E08DF8425086
:102A200042F6A620ADF840001C2200216846079619
:102A300015F04EFE9DF81C00ADF8345020F00F004C
:102A4000401C20F0F00010308DF81C009DF81D0097
:102A500008AA20F0FF008DF81D009DF81E000AA9AD
:102A600020F0060040F00100801C8DF81E009DF84B
:102A700000008DF8445040F002008DF8000011A8CD
:102A8000CDE90A89ADF830500E9000E00EE06846BE
:102A900003F09BFC0028B0D1BDF82000A08008E026
:102AA00007F00CFE10B907F009FE08B1032020E77B
:102AB000A68000201DE701B582B00220ADF800001D
:102AC0004C4802AB6A464088002104F085F8BDF806
:102AD0000010022900D003200EBD1CB5002100917A
:102AE0000221ADF800100190FEF7CBFB08B11020D9
:102AF0001CBD40486A4641884FF6FF7004F0B4FAA6
:102B0000BDF800100229F3D003201CBDFEB5394CDE
:102B100006461546A0790F46C00705D00846FEF7C1
:102B20008AFB18B11020FEBD0F20FEBDF82D33D852
:102B30003046FEF780FB18BB208801A903F048F956
:102B40000028F2D130788DF80500208801A904F022
:102B500021F80028E9D100909DF800009DF80510AB
:102B600040F002008DF80000090703D040F0080093
:102B70008DF800002088694603F0A9FF0028D4D111
:102B8000ADF8085020883B4602AA002104F024F842
:102B9000BDF80810A942C8D00C20FEBD7CB5054682
:102BA0000020009001900888ADF800000C462846EF
:102BB0000195FEF784FB18B92046FEF762FB08B1C9
:102BC00010207CBD15B1BDF8000050B109486A461F
:102BD00001884FF6FF7004F047FABDF8001021801D
:102BE0007CBD0C207CBD03488088002800D00120DB
:102BF000704700000E0000204FF0E0214FF400402D
:102C0000C1F88001BFF34F8FBFF36F8F00F020B882
:102C100010B5044600F01CF8002C09D0114A1148E8
:102C200011491432114B012C03D0022C06D0FFDFC6
:102C300010BD022404601160200604E00324046037
:102C400011604FF40000186010BD00B5FFDF00BD3B
:102C5000044800210160016004494FF02070091D03
:102C60000860704700F500406802002004F501404C
:102C700014F0ECB814F09CB815F04ABF14F096B8F4
:102C8000314901200860704770B50D2000F03DF813
:102C90002E4C0020C4F800010125C4F804530D2077
:102CA00000F044F825604FF0E0216014C1F8000105
:102CB00070BD10B50D2000F028F8244801214160B6
:102CC0000021C0F80011BDE810400D2000F02EB822
:102CD0001E49D1F80001012808D11B48001D0068D9
:102CE0000022C0B2C1F800210CF0A4B9704710B5A1
:102CF000164800BFD0F800110029FBD0FFF7E8FF0D
:102D0000BDE810400D2000F011B800280DDB00F0E8
:102D10001F02012191404009800000F1E020C0F82D
:102D20008011BFF34F8FBFF36F8F7047002809DB0F
:102D300000F01F02012191404009800000F1E020D5
:102D4000C0F880127047000004D5004000D0004059
:102D50008F4909680160002070478D490860002094
:102D6000704701218A0720B1012804D042F20400F3
:102D70007047916700E0D1670020704785490120C6
:102D8000086042F20600704708B50423814A19071B
:102D9000103230B1C1F80433106840F00100106007
:102DA0000BE0106820F001001060C1F8083300202B
:102DB000C1F80801784800680090002008BD011F94
:102DC0000B2909D8734910310A6822F01E0242EA21
:102DD000400008600020704742F205007047000183
:102DE00000F18040C0F8041900207047000100F194
:102DF0008040C0F8081900207047000100F18040B1
:102E0000D0F80009086000207047012801D9072088
:102E10007047624A52F8200002680A4302600020AC
:102E20007047012801D9072070475C4A52F82000FA
:102E300002688A43026000207047012801D90720F8
:102E40007047564A52F8200000680860002070471A
:102E5000020053494FF0000003D0012A01D007209F
:102E600070470A60704708B54FF40072510510B101
:102E7000C1F8042308E0C1F808230020C1F82401A8
:102E800045481C3000680090002008BD08B580222D
:102E9000D10510B1C1F8042308E0C1F808230020CF
:102EA000C1F81C013C48143000680090002008BDA7
:102EB00008B54FF48072910510B1C1F8042308E001
:102EC000C1F808230020C1F82001334818300068F9
:102ED0000090002008BD2E493831096801600020AB
:102EE000704770B54FF080450024C5F8084115F0D3
:102EF000B6FD28B1C5F82441C5F81C41C5F82041EC
:102F00004FF0E0210120C1F8000170BD2DE9F04132
:102F10004FF080440027D4F808013E463D4600B1FA
:102F20000120804615F09BFD88B1D4F8240108B13A
:102F3000012700E00027D4F81C0108B1012600E0B9
:102F40000026D4F8200108B1012500E000255FEA41
:102F500008004FF0000804D0C4F8088101200BF0ED
:102F6000C1FF27B1C4F8248109200BF0BBFF26B1B3
:102F7000C4F81C810A200BF0B5FF25B1C4F82081EC
:102F80000B200BF0AFFFBDE8F04113F0E5BE0000F1
:102F900000040040000500400801004090B001001E
:102FA000780500400348044A0168914201D100219C
:102FB0000160704734000020BEBAFECA70B50C46EE
:102FC000054605F0D4FF21462846BDE8704007F0CD
:102FD000B8B8000070B50D46044615F033FD30B1A9
:102FE00004482044FC2802D82560002070BD102031
:102FF00070BD00000018FEBF7047704770477047F3
:103000002CFFFFFFDBE5B15100C00100EA00FFFF2C
:103010007A00000000127A00DD98CF16404938503F
:103020006C6D482DB1FB0B3072DE4DD410B50446EB
:10303000FEF701F908B1102010BD2078C0F302108E
:10304000042807D86078072804D3A178102901D86C
:10305000814201D2072010BDE078410706D42179D2
:103060004A0703D4000701D4080701D5062010BD84
:10307000002010BD10B513785C08837F64F3C7137C
:10308000837713789C08C37F64F30003C3771078B9
:10309000C309487863F34100487013781C090B7822
:1030A00064F347130B701378DB0863F30000487078
:1030B0005078487110BD10B5C4780B7864F30003E4
:1030C0000B70C478640864F341030B70C478A408DF
:1030D00064F382030B70C478E40864F3C3030B70D9
:1030E0000379117863F30001117003795B0863F3CE
:1030F0004101117003799B0863F38201117000791B
:10310000C00860F3C301117010BD70B514460D46C0
:10311000064604F009FF80B10178182221F00F0162
:10312000891C21F0F001A03100F8081B214615F0A0
:10313000AFFABDE8704004F0FABE29463046BDE85B
:1031400070401322FEF757BA2DE9F047064608A84B
:10315000904690E8300489461F46142200212846F4
:1031600015F0B6FA0021CAF80010B8F1000F03D02C
:10317000B9F1000F03D114E03878C00711D02068EE
:10318000FEF77FF8C0BBB8F1000F07D120681230FE
:1031900028602068143068602068A8602168CAF838
:1031A00000103878800724D56068FEF788F818BBCF
:1031B000B9F1000F21D0FEF714FF0168C6F86811BD
:1031C0008188A6F86C11807986F86E0101F019FAF1
:1031D000FE4FEF60626862B196F8680106F269110D
:1031E00040081032FEF7DFF910223946606815F00A
:1031F0004FFA0020BDE8F08706E0606820B1E86083
:103200006068C6F86401F4E71020F3E730B50546BE
:1032100008780C4620F00F00401C20F0F00110311F
:1032200021700020607095F8230030B104280FD081
:10323000052811D0062814D0FFDF20780121B1EB3A
:10324000101F04D295F8200000F01F00607030BD00
:1032500021F0F000203002E021F0F000303020704A
:10326000EBE721F0F0004030F9E7F0B591B002272C
:1032700015460C4606463A46ADF80870082103ABE1
:1032800007F0FCFC0490002810D004208DF8040006
:103290008DF80170E034099605948DF818500AA94C
:1032A00068460BF002FC00B1FFDF012011B0F0BD59
:1032B00010B588B00C460A99ADF80000CBB118687B
:1032C000CDF80200D3F80400CDF80600ADF80A20CE
:1032D000102203A815F0DCF9684608F006FE04F099
:1032E0002CFC002803D1A17F41F01001A17708B088
:1032F00010BD0020CDF80200E6E72DE9F84F0746A3
:10330000808A0D4680B28246FEF772F9044638780C
:10331000DFF8B88200264FF00209A8F120080F2834
:103320007ED2DFE800F07DCBC5082D5C6BA4E2F017
:10333000EFBF49BFBF003146504609F0BBFE050054
:1033400000D1FFDF98F85C10C90702D0D8F8600000
:103350000BE0032105F11D000BF04AFED5F81D001E
:103360009B49B0FBF1F201FB1200C5F81D00786823
:103370006867B868A8672078252800D0FFDF97E045
:103380003146504609F096FE060000D1FFDF307846
:10339000810702D52178252904D040F00100307042
:1033A000BDE8F88F85F80090307F287106F11D0088
:1033B0002D36C5E90206F3E73146504609F07AFE9C
:1033C000040000D1FFDF2078C10604D50720287053
:1033D0003D346C60E4E740F008002070E0E7E07FF7
:1033E000000700D5FFDF387CBA8800F0010301B088
:1033F0005046BDE8F04F082107F033BD04B9FFDFA8
:10340000796821B1102204F1240015F041F9282136
:103410002046FEF700F8002304F124001A4600E0DD
:103420001BE1009021465046FFF742FF112807D0CC
:1034300029212046FDF7EFFF387A84F82000AFE716
:10344000A07F000700D5FFDF14F81E0F40F0080032
:103450002070E682A661E661C109607861F34100EF
:10346000014660F382016170387AE07098E7314676
:10347000504609F01FFE040000D1FFDF022104F1D5
:1034800085000BF0B5FD0420287004F5B470686069
:10349000B4F8850028824D4810387C346C61C5E949
:1034A00002807DE73146504609F004FE00B9FFDF97
:1034B0003A4621465046BDE8F84F26E604B9FFDFFC
:1034C0002078212886D93879012803D1E07F40F07F
:1034D0000800E0773A4621465046FFF716FE2046A0
:1034E000BDE8F84F2321FDF796BF3A79AA8005F190
:1034F00008030821504607F0C1FBE86020B1052011
:1035000028704DE7A6E011E03146504609F0D2FDA3
:10351000040000D1FFDF04F1620102231022081F22
:1035200009F064FC06703979417039E7314650463C
:1035300009F0C0FD050000D1FFDF95F8840000F020
:10354000030001285BD1E07F10F001021CD195F847
:10355000A000C00714D0D5F8601189B195F8833068
:10356000087C63F387000874A17FCB09D5F860114C
:1035700063F341000874D5F8601162F30000087429
:1035800095F88800C0072CD0D5F85C0148B395F8B1
:103590008330017C63F387010174A07FC309D5F8F0
:1035A0005C0163F341010174D5F85C0162F3000131
:1035B0000174B2B1D5F85C01102204F12401883500
:1035C00015F066F8287840F0010003E014020020AE
:1035D00040420F0005F8180B287820F0010005F88C
:1035E000A00995F8A000800709D595F87C00D5F8CA
:1035F0006421400805F17D011032FDF7D4FF8DF8FC
:10360000009095F884006A4600F003008DF80100F0
:1036100095F888108DF8021095F8A0008DF8030039
:103620002146504600F0D6FF2078252805D02128D5
:1036300007D0FFDF2078222803D922212046FDF77A
:10364000EAFE3146504609F047FD00283FF4B3AE8C
:10365000FFDFA5E678684670A2E6FFDFA0E670B55A
:10366000FE4C002584F85C5025660BF0EAF904F165
:103670001001204604F014FC84F8305070BD70B581
:103680000D46FDF7B5FF040000D1FFDF4FF4B8721F
:103690000021284615F01CF82434022105F1E00031
:1036A0002C610BF0CFF9002800D0FFDF70BD0A4677
:1036B000014602F1E0000BF0E6B970B5054640683E
:1036C000012186B002780D2A05D00E2A02D0FFDF34
:1036D00006B070BD01726868C6883046FDF788FF85
:1036E000040000D1FFDFA07F20F01000A077207839
:1036F000212806D06868017A09B1007938B104F050
:1037000016FCFEF768F80028E2D0FFDFE0E704F0DF
:103710000EFCA07F000623D5E07FC00705D094F8FB
:10372000200000F01F00102818D0052084F8230086
:1037300020780025292815D02428E2D131460220FE
:103740000BF0BEFD22212046FDF765FE29463046DE
:1037500009F0C2FC0028D4D0FFDFD2E70620E5E75D
:103760000420E3E72946304609F0A4FC050000D117
:10377000FFDF25212046FDF74EFE03208DF80000D7
:10378000694605F1E0000BF075F90228B9D0002870
:10379000B7D0FFDFB5E72DE9F04F87B09B469046E5
:1037A0008A468146FDF724FF040034D02078222881
:1037B00031D323282FD0E07F00072CD40027012607
:1037C0003946484609F076FC0546694600F029FF6F
:1037D000009800B9FFDF00983DB1E0350561207821
:1037E000222804D0242802D005E0076103E0252127
:1037F0002046FDF710FE009801A94670C0F82490FD
:10380000A0F80480C0E902AB0BF04FF9022802D007
:10381000002800D0FFDF07B0BDE8F08F70B586B09C
:103820000546FDF7E5FE0078222814D90021284638
:1038300009F040FC04002CD1FFDF2AE0B4F85E0060
:1038400004F1620630440178427829B121462846C5
:10385000FFF70BFDB0B93BE7ADF80420082128467F
:1038600002AB07F00BFA03900028F4D005208DF886
:103870000000694604F1E0000BF0FCF8022801D0DA
:1038800000B1FFDF02231022314604F15E0009F08F
:10389000E3FAB4F860000028D0D119E710B586B07B
:1038A0000446FDF7A5FE0078222811D90021204604
:1038B00009F000FC040000D1FFDF06208DF80000B5
:1038C000694604F1E0000BF0D5F8002800D0FFDFD6
:1038D00006B010BD2DE9F84F05460C4600270078CC
:1038E000904601093E4604F1080B4FF00109BA4623
:1038F00002297DD0072902D00A2907D117E068687C
:1039000001780D2903D00E2901D0FFDF4BE11A27E2
:103910000A26002C6DD0C088A080FDF769FE050046
:1039200000D1FFDF59462846FFF770FC3BE10CB1A0
:10393000A88BA080287A0B287ED006DC01287CD0BA
:10394000022808D0032804D132E00D2876D00E28B2
:1039500075D0FFDF27E11E270926002CDAD0A088CA
:10396000FDF746FE5FEA000900D1FFDF287B00F08B
:1039700003000128207A18D020F001002072297B52
:10398000890861F341002072297BC90861F3820034
:103990002072297B090961F3C300207299F81E0087
:1039A00040F0400189F81E10FDE040F00100E5E71D
:1039B00013270D26002CADD0A088FDF719FE8146F7
:1039C0005146A08809F076FB050000D1FFDFA86F03
:1039D000817801F003010129217A56D021F00101FB
:1039E00021728278920862F341012172827801E0AB
:1039F000CFE08AE0D20862F3820121728278120954
:103A000062F3C3012172027862F3061121724278D7
:103A100062F3C711217284F809A0C178A1724279BA
:103A2000E17A62F30001E1724279520862F34101E6
:103A3000E1724279920803E02AE06DE050E065E02F
:103A400062F38201E1724279D20862F3C301E1724A
:103A50000279217B62F30001217301E0F40100206F
:103A60000279520862F3410121730279920862F3EC
:103A7000820121730079C00860F3C301217399F8B2
:103A8000000023282BD92621C6E041F00101A7E739
:103A900018271026CCB3A088FDF7AAFD0090CB46CE
:103AA0005146A08809F006FB5FEA000900D1FFDF5C
:103AB000E868A06099F8000040F0040189F800105F
:103AC00099F80100800708D584F80CB000980078B8
:103AD000232868D9272100989FE084F80CA062E091
:103AE00015270F268CB1A088FDF782FD824606229D
:103AF0005946E86807F04FF884F80E909AF80000ED
:103B0000232850D92721504687E03EE01627092672
:103B1000DCB3287B207246E0287B19270E26A4B34D
:103B2000C4F808A0A4F80CA0012807D0022808D0E7
:103B300003280CD004280AD0FFDF15E084F8089091
:103B400001E002202072607A20F003000BE0697B24
:103B5000042801F00F0141F080012172F3D1607A55
:103B600020F00300401C6072A088FDF741FD05466F
:103B70000078212817D0232800D0FFDF5146A088E5
:103B800009F0AAFA2221284647E0FFE7A8F80060DA
:103B90000EE00CB16888A080287A10B3012809D003
:103BA00002283DD0FFDFA8F800600CB127806680B6
:103BB00000200FE415270F26002CE7D0A088FDF782
:103BC00017FD5146A08809F075FA050000D1FFDF06
:103BD000D5F81D000622594606F0DDFF84F80EA038
:103BE000E1E717270926002CD0D0A088FDF700FDBB
:103BF00081465146A08809F05DFA050000D1FFDF3B
:103C00006878800701D5022000E00120207299F831
:103C100000002328C7D927214846FDF7FCFBC2E74F
:103C200019270E26002CB1D0A088FDF7E1FC5FEA31
:103C3000000900D1FFDFC4F808A0A4F80CA084F8A4
:103C400008A0A07A40F00300A07299F81E10C909DC
:103C500061F38200A07299F81F2099F81E1012EAF1
:103C6000D11F05D099F8201001F01F01102925D08F
:103C700020F00800A07299F81F10607A61F3C30069
:103C80006072697A01F0030101298CD140F00400CF
:103C90006072E97A607B61F300006073AA7A217B2D
:103CA00062F300012173EA7A520862F34100607303
:103CB000A87A400860F34101217374E740F00800DE
:103CC000D8E710B5FE4C30B10146102204F12000B7
:103CD00014F0DEFC012084F8300010BD10B504465D
:103CE00000F08FFCF64920461022BDE8104020313C
:103CF00014F0CEBC70B5F24D06004FF0000413D0A6
:103D0000FDF799FA08B110240CE00621304606F0C0
:103D100029FF411C05D028665FF0010085F85C0092
:103D200000E00724204670BD0020F7E7007810F07F
:103D30000F0204D0012A05D0022A0CD110E000099C
:103D400009D10AE00009012807D0022805D003287C
:103D500003D0042801D00720704708700020704766
:103D60000620704705282AD2DFE800F003070F1766
:103D70001F00087820F0FF001EE0087820F00F00F8
:103D8000401C20F0F000103016E0087820F00F0002
:103D9000401C20F0F00020300EE0087820F00F00EA
:103DA000401C20F0F000303006E0087820F00F00D2
:103DB000401C20F0F00040300870002070470720C1
:103DC00070472DE9F043814687B00E464FF000085A
:103DD0000846FDF77DFA88B94846FDF709FC05005D
:103DE00003D02878222811D104E043F2020007B062
:103DF000BDE8F08326B9A87F400601D41020F6E77D
:103E0000A87FC10601D4000702D50EB10820EEE755
:103E1000E87F000701D50D20E9E76EB13046FFF7D6
:103E200005F95FEA0008E2D1FEF7DDFE20B9F0787F
:103E3000800701D50620DAE700273946484609F011
:103E400039F9040006D139460022484609F029F91B
:103E500004000CD026B1014632462846FFF70AF985
:103E60006946204600F0DDFB009818B901E0042007
:103E7000BDE7FFDF0099022004F1E0024870C1F8BD
:103E800024904A610F8136B30871201D8861207823
:103E9000400908776078C0F340004877307800F038
:103EA0000102887F62F301008877AA7FD20962F35A
:103EB00082008877EA7F62F3C3008877627862F3D2
:103EC00004108877B078C87701F12102304620319C
:103ED000FFF7F1F803E0032008710520087625219B
:103EE0002846FDF798FAA87F01A920F04000A8779E
:103EF00000980AF0DAFD022801D000B1FFDF404649
:103F000075E72DE9FF4F14466E4A88468FB09946F3
:103F100007CA0AAB002683E807000F98FDF768FB85
:103F2000050005D02878262805D0082013B073E4B2
:103F300043F20200FAE701277CBB4FF0000B594621
:103F40000F9809F0B7F8040000D1FFDF4046B8F140
:103F5000850F27D008DC88B181281CD082281DD08D
:103F6000B8F1830F09D11BE086281DD088281DD009
:103F700089281DD0B8F18A0F1CD00F2020710F287E
:103F80001AD003F0D1FFC8B1201D8DF81070059034
:103F90002079A8B1E4E00120F0E70DE00220EDE790
:103FA0000320EBE70520E9E70620E7E70820E5E73F
:103FB0000920E3E70A20E1E70720B7E71120B5E78A
:103FC000D4E91D8798F80200B978C0F3C000C1F3A6
:103FD000C00108405FEA000A30D04846FDF72BF9DF
:103FE00088BBD9F80C00FDF726F960BBD9F81C0096
:103FF000FDF721F938BBD9F80C00A060D9F81C00F6
:10400000E06060787A7842EA500100BF61F34100D5
:104010006070B978C0B200EA111161F300006070FD
:1040200084F81CB005F11700A061681C606198F865
:10403000020000F00300012806D03EE060787A78A4
:1040400002EA5001E2E716E0B87800F00300012828
:1040500033D198F80410387901408DF8341098F86D
:1040600005007A7910408DF83800014325D0484684
:10407000FDF7E1F808B1102058E704F5AE7204F13D
:104080008C03CDF80090CDE9013201210DAB5246F1
:104090002046FFF759F800288FD109F1100004F5E8
:1040A000B07304F1A4028DE80D0059460EAB5246E0
:1040B0002046FFF749F80028DED16078800703E04A
:1040C000F401002040B001002AD498F80200B97829
:1040D000C0F38000C1F38001084321D039780AAAD7
:1040E00098F8000032F811204300DA4012F003067D
:1040F00005D0012E0BD0022E0BD0032E07D0BAF123
:10410000000F0DD0012806D0042804D008E00226B4
:10411000F5E70126F3E7012901D0042900D104269F
:10412000A87F40F08000A877E97F6AF30001E97773
:104130006078800707D50320A071BAF1000F0FD176
:104140008DF80CB02BE00220022E18D0012E18D0D2
:10415000042E2AD084F806B0A87F20F08000A8772B
:1041600025212846FDF757F904A904F1E0000AF0DB
:1041700081FC10B1022800D0FFDF0020D6E6A0713C
:10418000DEE7A0710D22002104F1200014F0A0FA56
:10419000207840F00200207001208DF80C0003AA66
:1041A00029460F9800F016FADAE70120A071D7E748
:1041B0002DE9F04387B09046894604460025FDF777
:1041C00017FA070004D03878272804D008200EE614
:1041D00043F202000BE60021204608F06BFF0400CA
:1041E00000D1FFDFA6795FEA090005D0012821D0C0
:1041F000B9F1020F26D110E0B8F1000F22D1012E43
:1042000005D0022E05D0032E05D0FFDF2EE00C25B1
:104210002CE001252AE0022528E04046FDF70BF8B6
:10422000B0B9032E0ED11022414604F11D0014F046
:104230002FFA1BE0012E02D0022E03D104E0B8F1C8
:10424000000F13D00720D2E54046FCF7F4FF08B179
:104250001020CCE51022002104F11D0014F038FAE2
:104260000621404606F07EFCC4F81D00207825217A
:1042700040F0020020703846FDF7CDF82078C107E5
:1042800013D020F00100207002208DF8000004F10E
:104290001D0002908DF804506946C3300AF0EAFB15
:1042A000022803D010B1FFDF00E0257700209EE553
:1042B00030B587B00D460446FDF79AF960B100218C
:1042C000204608F0F7FE04000CD02846FCF7B3FFA8
:1042D00028B1102007B030BD43F20200FAE7207881
:1042E000400701D40820F5E7294604F13D002022CB
:1042F000054614F0CDF9207840F010002070010739
:104300000FD520F00800207007208DF800006946C6
:1043100004F1E00001950AF0ADFB022801D000B1E4
:10432000FFDF0020D6E72DE9F0410D460746FDF7F7
:104330005FF918B10078272819D103E043F2020091
:10434000BDE8F08101260021384608F0B3FE0400E4
:1043500000D1FFDFA079022809D16078C00706D01C
:104360002A4621463846FEF780FF10B10EE00820AD
:10437000E6E7B4F860000E280AD204F162010223D5
:104380001022081F08F032FD067045700020D7E7A4
:104390001120D5E770B5064614460D460846FCF7D1
:1043A0004AFF18B92046FCF76CFF08B1102070BD19
:1043B000A6F57F40FF380ED03046FDF719F938B129
:1043C000417822464B08811C1846FDF7ECF807E0BF
:1043D00043F2020070BD2046FDF765FE0028F9D1CA
:1043E0001021E01D0AF004FEE21D294604F1170029
:1043F00000F027F9002070BD2DE9F04104468AB095
:1044000015460E4600270846FCF762FF18B92846F5
:10441000FCF75EFF10B110200AB091E72046FDF7CF
:10442000E7F85FEA000804D098F80000272810D1C8
:1044300002E043F20200EFE70021204608F03AFED6
:10444000040000D1FFDF2078400702D560788007A4
:1044500001D40820E0E7D4E91D10497801B18DB1FD
:10446000407800B176B1ADB1EA1D06A8E16800F070
:10447000E8F8102206A905F1170014F0F8F818B1B1
:10448000042707E00720C7E71022E91D04F12D00EB
:1044900014F0FEF82EB11022F11D04F11D0014F0ED
:1044A000F7F82078252140F0020020704046FCF704
:1044B000B2FF2078C10715D020F001002070022043
:1044C0008DF8000004F11D000290103003908DF86B
:1044D00004706946B3300AF0CDFA022803D010B157
:1044E000FFDF00E02777002096E7F8B515460E4677
:1044F0000746FDF77DF8040004D02078222804D078
:104500000820F8BD43F20200F8BD3046FCF793FEE8
:1045100018B92846FCF78FFE08B11020F8BD0095A9
:104520003288B31C21463846FEF7C2FE112815D04A
:104530000028F3D1297C4A08A17F62F3C711A17733
:104540002A7CE17F62F30001E177297C890884F805
:104550002010A17F21F04001A177F8BDA17F0907BC
:10456000FBD4D6F80200C4F83600D6F80600C4F82A
:104570003A003088A0861022294604F1240014F065
:1045800087F8287C4108E07F61F34100E077297CCF
:1045900061F38200E077287C800884F82100A07F06
:1045A00040F00800A0770020D3E770B50D46FDF776
:1045B0001FF8040005D02846FCF763FE20B1102048
:1045C00070BD43F2020070BD29462046FEF71EFE74
:1045D000002070BD70B51546064603F0A5FC04002A
:1045E00000D1FFDF207820F00F00801C20F0F000C9
:1045F0002030207066802868A060BDE8704003F01D
:1046000096BC10B5134C94F83000002808D104F182
:104610002001A1F110000AF06FFA012084F83000A7
:1046200010BD10B190F8B9202AB10A4890F83500B1
:1046300018B1002003E0B83001E0064834300860CB
:10464000704708B50023009313460A4608F031FF6F
:1046500008BD0000F4010020F0B5007B059F1E4658
:1046600014460D46012800D0FFDF0C2030803A2090
:104670003880002C08D0287A032806D0287B01280F
:1046800000D0FFDF17206081F0BDA889FBE72DE98E
:10469000F04786B0144691F80C900E9A0D46B9F189
:1046A000010F0BD01021007B2E8A8846052807D0E9
:1046B000062833D0FFDF06B0BDE8F0870221F2E71D
:1046C000E8890C2100EB400001EB4000188033200A
:1046D0001080002CEFD0E889608100271AE0009656
:1046E000688808F1020301AA696900F090FF06EBEF
:1046F0000800801C07EB470186B204EB4102BDF8BD
:10470000040090810DF1060140460E320AF06AFA6B
:104710007F1CBFB26089B842E1D8CCE7342010805A
:10472000E889B9F1010F11D0122148430E301880E9
:10473000002CC0D0E88960814846B9F1010F00D053
:104740000220207300270DF1040A1FE00621ECE788
:104750000096688808F1020301AA696900F057FF12
:1047600006EB0800801C86B2B9F1010F12D007EBEE
:10477000C70004EB4000BDF80410C18110220AF10B
:104780000201103013F084FF7F1CBFB26089B84271
:10479000DED890E707EB470104EB4102BDF80400C7
:1047A000D0810AF10201404610320AF01BFAEBE711
:1047B0002DE9F0470E4688B090F80CC096F80C80B2
:1047C000378AF5890C20109902F10C044FF0000A89
:1047D000BCF1030F08D0BCF1040F3FD0BCF1070FB0
:1047E0007ED0FFDF08B067E705EB850C00EB4C00DF
:1047F000188031200880002AF4D0A8F1060000F0CB
:10480000FF09558126E01622002101A813F060FF60
:1048100000977088434601AA716900F0F8FEBDF860
:1048200004002080BDF80600E080BDF8080020816B
:10483000A21C0DF10A0148460AF0D4F9B9F1000FA3
:1048400000D018B184F804A0A4F802A007EB080077
:1048500087B20A346D1EADB2D5D2C3E705EB850C25
:1048600000EB4C00188032200880002ABAD0A8F152
:10487000050000F0FF09558137E000977088434636
:1048800001AA716900F0C3FE9DF80600BDF804108E
:10489000E1802179420860F3000162F3410182085E
:1048A00062F38201C20862F3C301020962F30411D8
:1048B000420962F34511820962F386112171C00930
:1048C0006071BDF80700208122460DF109014846BC
:1048D0000AF088F918B184F802A0A4F800A000E05A
:1048E00007E007EB080087B20A346D1EADB2C4D2F0
:1048F00078E7A8F1020084B205FB08F000F10E0C85
:10490000A3F800C035230B80002AA6D055819481DE
:10491000009783B270880E32716900F078FE61E70B
:104920002DE9F84F1E460A9D0C4681462AB1607A51
:1049300000F58070D080E089108199F80C000C2778
:104940004FF000084FF00E0A0D2872D2DFE800F099
:104950009D070E1B272F374554697272720021463E
:1049600048460095FFF778FEBDE8F88F207B91461A
:10497000082802D0032800D0FFDF3780302009E06C
:10498000A9F80A80F0E7207B9146042800D0FFDFD9
:10499000378031202880B9F1000FF1D1E4E7207B86
:1049A0009146042800D0FFDF37803220F2E7207BD9
:1049B0009146022800D0FFDF37803320EAE7207BD2
:1049C0001746022800D0FFDF3420A6F800A0288078
:1049D000002FC9D0A7F80A80C6E7207B1746042815
:1049E00000D0FFDF3520A6F800A02880002FBBD024
:1049F0004046A7F80A8012E0207B1746052802D01F
:104A0000062800D0FFDF1020308036202880002FBD
:104A1000AAD0E0897881A7F80E80B9F80E00B88195
:104A2000A2E7207B9146072800D0FFDF37803720A0
:104A3000B0E72AE04FF0120018804FF0380017005E
:104A4000288091D0E0897881A7F80E80A7F810809F
:104A500099F80C000A2805D00B2809D00C280DD095
:104A6000FFDF81E7207B0A2800D0FFDF01200AE07A
:104A7000207B0B2800D0FFDF042004E0207B0C28E3
:104A800000D0FFDF052038736EE7FFDF6CE770B5FD
:104A90000C460546FCF7ACFD20B10078222804D274
:104AA000082070BD43F2020070BD0521284608F0C1
:104AB00001FB206008B1002070BD032070BD30B440
:104AC0004880087820F00F00C01C20F0F0009030E3
:104AD00001F8080B1DCA81E81D0030BC03F027BA9D
:104AE0002DE9FF4784B00027824602970798904639
:104AF00089463C46092528B907A95046FFF7C7FF54
:104B000000285CD10798123003F027FF401D20F0E9
:104B10000306B9F1000F05D00798017B79BB052585
:104B2000046806E098F80000092812D00D2822D069
:104B3000FFDF07980121123003F041FFADF80C00B0
:104B4000024602AB2946504606F098F8070017D0F7
:104B50001EE00799032548680028EAD0497B42886F
:104B600071439142E5D98AB2B3B2011D08F02AF926
:104B700004460780DDE7079C04250834D9E721E0D7
:104B80000CB1208810B1032D18D01BE0A01C02909E
:104B900007983A461230C8F80400A8F802A003A902
:104BA0004046029B03F018FFC8B10A2815D2DFE87F
:104BB00000F007091414100B0D141412132011E641
:104BC00000200FE611200DE608200BE643F203005B
:104BD00008E6072006E60D2004E6032002E6BDF8FD
:104BE0000C002346CDE900702A465046079900F094
:104BF0001EFD5FB9032D09D10798B3B2417B44680C
:104C000071438AB2211D204608F0F0F8B9F1000F77
:104C1000D6D0079981F80C90D2E72DE9FE4F914646
:104C20001A881C468A468046FAB102AB494606F00D
:104C300025F8050019D04046A61C278808F07FFB00
:104C4000072100913B463246294607F0A1FF208804
:104C50002346CDE900504A465146404600F0E7FC65
:104C6000002020800120BDE8FE8F0020FBE710B56A
:104C700086B01C46AAB104238DF800301388ADF825
:104C800008305288ADF80A208A788DF80E200988FD
:104C9000ADF80C1000236A462146FFF721FF06B04D
:104CA00010BD1020FBE770B50D46052108F002FA93
:104CB000040000D1FFDF294604F11200BDE8704076
:104CC00003F066BE2DE9F8430D468046002603F04A
:104CD0002BF904462878102878D2DFE800F0773BDB
:104CE0003453313112313131083131313131287998
:104CF000001FC0B2022801D0102810D114BBFFDF62
:104D000035E004B9FFDF0521404608F0D3F9007B08
:104D1000032806D004280BD0072828D0FFDF072659
:104D200055E02879801FC0B2022820D050B1F6E7A4
:104D30002879401FC0B2022819D0102817D0EEE7FA
:104D400004B9FFDF13E004B9FFDF287901280ED191
:104D5000172137E00521404608F0ACF9070000D1E3
:104D6000FFDF07F11201404603F0EFFD2CB12A46A8
:104D700021464046FFF7A3FE29E013214046FDF7F8
:104D800055FB24E004B9FFDF0521404608F092F905
:104D9000060000D1FFDF694606F1120003F0DFFDD7
:104DA000060000D0FFDFA988172901D2172200E0F2
:104DB0000A46BDF80000824202D9014602E005E041
:104DC0001729C5D3404600F042FCD0E7FFDF30464C
:104DD000BDE8F883401D20F0030219B102FB01F089
:104DE000001D00E000201044704713B5009848B142
:104DF0000024684607F090FF002C02D1F74A009982
:104E000011601CBD01240020F4E72DE9F0470C4699
:104E1000154624220021204613F05AFC05B9FFDF75
:104E2000A87860732888DFF8B4A3401D20F0030140
:104E3000AF788946DAF8000007F08CFF060000D151
:104E4000FFDF4FF000082660A6F8008077B109FB6D
:104E500007F1091D0AD0DAF8000007F07BFF060011
:104E600000D1FFDF6660C6F8008001E0C4F804806E
:104E7000298804F11200BDE8F04703F057BD2DE981
:104E8000F047804601F112000D46814603F065FDB2
:104E9000401DD24F20F003026E7B1446296838680B
:104EA00007F083FF3EB104FB06F2121D03D06968D0
:104EB000386807F07AFF052008F0A8F804460520B6
:104EC00008F0ACF8201A012802D1386807F037FF43
:104ED00049464046BDE8F04703F03EBD70B5054683
:104EE000052108F0E7F8040000D1FFDF04F112010A
:104EF0002846BDE8704003F028BD2DE9F04F91B081
:104F00004FF0000BADF834B0ADF804B047880C4654
:104F1000054692460521384608F0CCF8060000D137
:104F2000FFDF24B1A780A4F806B0A4F808B0297860
:104F300009220B20B2EB111F7ED12A7A04F1100155
:104F400038274FF00C084FF001090391102A74D252
:104F5000DFE802F073F3F2F18008D3898EA03DDC24
:104F6000F4EFB7B7307B022800D0FFDFA88908EB49
:104F7000C001ADF804103021ADF83410002C25D05C
:104F80006081B5F80E9000271DE004EBC708317C66
:104F900088F80E10F189A8F80C10CDF800906888F8
:104FA000042304AA296900F032FBBDF81010A8F808
:104FB000101009F10400BDF812107F1C1FFA80F9CF
:104FC000A8F81210BFB26089B842DED80EE1307B7B
:104FD000022800D0FFDFE98908EBC100ADF804002A
:104FE0003020ADF83400287B0A90001FC0B20F902B
:104FF000002CEBD06181B5F81090002726E000BFAF
:10500000CDF800906888696903AA0A9B00F0FFFA4E
:105010000A9804EBC70848441FFA80F908F10C020B
:1050200004A90F9809F0DEFD18B188F80EB0A8F8B1
:105030000CB0BDF80C1001E0D4E0D1E0A8F81010DD
:10504000BDF80E107F1CA8F81210BFB26089B842DC
:10505000D6D8CBE00DA8009001AB224629463046B9
:10506000FFF715FBC2E0307B082805D0FFDF03E027
:10507000307B082800D0FFDFE8891030ADF804004D
:105080003620ADF83400002C3FD0A9896181F18928
:10509000A18127E0307B092800D0FFDFA88900F13B
:1050A0000C01ADF804103721ADF83410002C2CD0D1
:1050B0006081E8890090AB89688804F10C02296955
:1050C00056E0E8893921103080B2ADF80400ADF81F
:1050D0003410002C74D0A9896181287A0E280AD056
:1050E00002212173E989E181288A0090EB8968888F
:1050F0006969039A3CE00121F3E70DA8009001AB38
:10510000224629463046FFF753FB6FE0307B0A28E2
:1051100000D0FFDF1220ADF80400ADF834704CB3BE
:10512000A9896181A4F810B0A4F80EB084F80C909D
:105130005CE020E002E031E039E042E0307B0B2827
:1051400000D0FFDF288AADF834701230ADF80400CB
:1051500084B104212173A9896181E989E181298AC6
:105160002182688A00902B8A688804F1120269699A
:1051700000F04DFA3AE0307B0C2800D0FFDF12201F
:10518000ADF80400ADF834703CB305212173A4F8E8
:105190000AB0A4F80EB0A4F810B027E00DA8009053
:1051A00001AB224629463046FFF756FA1EE00DA80D
:1051B000009001AB224629463046FFF7B1FB15E0CF
:1051C00034E03B21ADF80400ADF8341074B3A4F81A
:1051D0000690A4F808B084F80AB007E01800002090
:1051E000FFDF03E0297A012917D0FFDFBDF80400B3
:1051F000AAF800006CB1BDF834002080BDF80400AE
:105200006080BDF83400392803D03C2801D086F8EE
:105210000CB011B00020BDE8F08F3C21ADF80400C7
:10522000ADF8341014B1697AA172DFE7AAF8000072
:10523000EFE72DE9F84356880F46804615460521CD
:10524000304607F037FF040000D1FFDF123400942E
:105250003B46414630466A6803F0F3FCB8E570B55A
:105260000D46052107F026FF040000D1FFDF294687
:1052700004F11200BDE8704003F07CBB70B50D4630
:10528000052107F017FF040000D1FFDF294604F1D4
:105290001200BDE8704003F09ABB70B505460521C9
:1052A00007F008FF040000D1FFDF04F108032146E6
:1052B0002846BDE870400422AFE470B505460521DC
:1052C00007F0F8FE040000D1FFDF214628462368DE
:1052D000BDE870400522A0E470B50646052107F040
:1052E000E9FE040000D1FFDF04F1120003F035FBFA
:1052F000401D20F0030511E0011D00880322431822
:1053000021463046FFF789FC00280DD0607BABB208
:10531000684382B26068011D07F09EFD6068002846
:1053200002D041880029E7D170BD70B50E46054610
:1053300002F0FAFD040000D1FFDF01202072667246
:105340006580207820F00F00C01C20F0F000303085
:105350002070BDE8704002F0EABD2DE9F0438BB04B
:105360000D461446814606A9FFF791FB002814D18B
:105370004FF6FF7601274FF420588CB103208DF8AB
:1053800000001020ADF8100007A8059007AA2046DD
:1053900004A909F046FC78B107200BB0BDE8F08302
:1053A0000820ADF808508DF80E708DF80000ADF8AB
:1053B0000A60ADF80C800CE00698A1780174218891
:1053C000C1818DF80E70ADF80850ADF80C80ADF8C5
:1053D0000A606A4602214846069BFFF781FBDCE72C
:1053E00008B501228DF8022042F60202ADF8002035
:1053F0000A4603236946FFF73AFC08BD08B50122B7
:105400008DF8022042F60302ADF800200A4604237C
:105410006946FFF72CFC08BD00B587B079B10222C0
:105420008DF800200A88ADF808204988ADF80A10E8
:1054300000236A460521FFF753FB07B000BD10208B
:10544000FBE709B1072312E40720704770B588B065
:105450000D461446064606A9FFF719FB00280ED193
:105460007CB10620ADF808508DF80000ADF80A4078
:10547000069B6A460821DC813046FFF731FB08B005
:1054800070BD05208DF80000ADF80850F0E700B5BC
:1054900087B059B107238DF80030ADF8082003918B
:1054A00000236A460921FFF71BFBC6E71020C4E76B
:1054B00070B5064688B00C4600250846FBF7BBFED3
:1054C000F0B906A93046FFF7E2FA0028D7D10698CE
:1054D0000121123003F073FA2178062921D2DFE886
:1054E00001F0200505160318801E80B2C01E82B28E
:1054F000E08808B1A3681BB1904203D90C20BEE735
:105500001020BCE7042904D0A08850B901E006208F
:10551000B5E7012913D0022905D004291CD005299B
:105520002AD00720ABE709208DF800006088ADF88D
:105530000800E088ADF80A00A068039023E00A2084
:105540008DF800006088ADF80800E088ADF80A002A
:10555000A0680A25039016E00B208DF800006088F3
:10556000ADF80800A088ADF80A00E088ADF80C009E
:10557000A0680B25049006E00C208DF800006078F0
:105580008DF808000C256A4629463046069BFFF731
:10559000A7FA74E700B587B00D228DF80020ADF8AA
:1055A000081000236A461946FFF79AFA45E700B546
:1055B00087B071B102228DF800200A88ADF808206A
:1055C0004988ADF80A1000236A460621FFF788FAD9
:1055D00033E7102031E770B586B0064601200D464E
:1055E000ADF808108DF80000014600236A463046E9
:1055F000FFF776FA040008D12946304601F006FB91
:105600000021304601F020FB204606B070BDF8B501
:105610001D4616460F46069C07F07FFEE41DA1B20C
:1056200000912B463246394607F07EFAF8BD30B479
:105630001146DDE902423CB1032903D0002330BC0E
:1056400005F00FBC0123FAE71A8030BC704770B533
:105650000C460546FFF727FB2146284601F0E5FAF0
:105660002846BDE87040012101F0EEBA18B18178FA
:10567000012938D101E010207047018842F601125B
:10568000881A914231D018DC42F60102A1EB0200E7
:1056900091422AD00CDC41B3B1F5C05F25D06FF444
:1056A000C050081821D0A0F57060FF381BD11CE055
:1056B00001281AD002280AD117E0B0F5807F14D053
:1056C00008DC012811D002280FD003280DD0FF28B4
:1056D00009D10AE0B0F5817F07D0A0F580700338CA
:1056E00003D0012801D0002070470F2070470A28FE
:1056F0001FD008DC0A2818D2DFE800F0191B1F1F92
:10570000171F231D1F21102815D008DC0B2812D0CD
:105710000C2810D00D2816D00F2806D10DE0112826
:105720000BD084280BD087280FD00320704700208F
:10573000704705207047072070470F2070470420EE
:105740007047062070470C20704743F202007047F4
:1057500038B50C46050041D06946FEF7E7FA002847
:1057600019D19DF80010607861F3020060706946FD
:10577000681CFEF7DBFA00280DD19DF80010607858
:1057800061F3C5006070A978C1F34101012903D01C
:10579000022905D0072038BD217821F0200102E040
:1057A000217841F020012170410704D0A978C9086F
:1057B00061F386106070607810F0380F07D0A97818
:1057C000090961F3C710607010F0380F02D16078DA
:1057D000400603D5207840F040002070002038BDFE
:1057E00070B504460020088015466068FFF7B0FFDA
:1057F000002816D12089A189884211D86068807854
:10580000C0070AD0B1F5007F0AD840F20120B1FBF1
:10581000F0F200FB1210288007E0B1F5FF7F01D9FC
:105820000C2070BD01F201212980002070BD10B54F
:105830000478137864F3000313700478640864F345
:10584000410313700478A40864F38203137004788E
:10585000E40864F3C30313700478240964F30413A5
:1058600013700478640964F3451313700078800999
:1058700060F38613137031B10878C10701D1800736
:1058800001D5012000E0002060F3C713137010BDA4
:105890004278530702D002F0070306E012F0380FF7
:1058A00002D0C2F3C20300E001234A7863F302028C
:1058B0004A70407810F0380F02D0C0F3C20005E003
:1058C000430702D000F0070000E0012060F3C502AA
:1058D0004A7070472DE9F04F95B00D00824613D005
:1058E00012220021284612F0F3FE4FF6FF7B05AA94
:1058F0000121584604F02DFF0024264637464FF478
:1059000020586FF4205972E0102015B0BDE8F08FD8
:105910009DF81E0001280AD1BDF81C1041450BD08E
:1059200011EB09000AD001280CD002280CD0042C5D
:105930000ED0052C0FD10DE0012400E00224BDF8AB
:105940001A6008E0032406E00424BDF81A7002E09F
:10595000052400E00624BDF81A10514547D12C74E7
:10596000BEB34FF0000810AA4FF0070ACDE902823B
:10597000CDE900A80DF13C091023CDF81090424666
:105980003146584604F0B1FF08BBBDF83C002A463A
:10599000C0B210A909F026F9C8B9AE81CFB1CDE9DE
:1059A00000A80DF1080C0AAE40468CE84102132312
:1059B00000223946584604F098FF40B9BDF83C0033
:1059C000F11CC01EC0B22A1D09F00CF910B1032051
:1059D0009BE70AE0BDF82900E881062C05D19DF877
:1059E0001E00A872BDF81C00288100208DE705A8C4
:1059F00004F0BBFE00288BD0FFF779FE85E72DE988
:105A0000F0471C46DDE90887DDF8289015460E00B2
:105A1000824600D1FFDF022D01D0012100E00021EC
:105A200006F1140003F056FD064602463B462946A1
:105A3000504605F023F9C8F8000040B90CB12088A1
:105A400018B145B11120BDE8F087A41C3C60A9F84D
:105A500000600020F7E71320F5E7F0B41446DDE915
:105A600004528DB1002314B1022C09D101E00123AD
:105A700006E00D7CEE0703D025F0010501230D742F
:105A80002146F0BC05F0EDB91A80F0BC70472DE955
:105A9000FE4F91461A881C468A468046FAB102ABF0
:105AA000494605F0EBF8050019D04046A61C2788AA
:105AB00007F045FC072100913B463246294607F096
:105AC00067F820882346CDE900504A4651464046B3
:105AD000FFF7C3FF002020800120BDE8FE8F0020DB
:105AE000FBE72DE9F04786B082460EA8904690E885
:105AF000B000894604AA05A903A88DE807001E4640
:105B00002A4621465046FFF77AFF039901B1012149
:105B10003970002818D1FA4904F1140204AB086066
:105B2000039805998DE8070042464946504604F01F
:105B30008AF8A8B1092811D2DFE800F0050805109D
:105B4000100A0C0C0E00002006B07CE71120FBE7C9
:105B50000720F9E70820F7E70D20F5E70320F3E732
:105B6000BDF810100398CDE9000133462A462146BE
:105B70005046FFF772FFE6E72DE9F04389B016467D
:105B8000DDE910870D4681461C461422002103A83A
:105B900012F09EFD012002218DF810108DF80C00EE
:105BA0008DF81170ADF8146064B1A278D20709D0F5
:105BB0008DF81600E088ADF81A00A088ADF818003E
:105BC000A068079008A80095CDE90110424603A9F6
:105BD00048466B68FFF785FF09B0BDE8F083F0B574
:105BE0008BB000240646069407940727089405A85E
:105BF0000994019400970294CDE903400D461023C7
:105C00002246304604F071FE78B90AA806A901942C
:105C100000970294CDE90310BDF814300022294604
:105C2000304604F002FC002801D0FFF760FD0BB005
:105C3000F0BD04F093BA2DE9FC410C4680460026E5
:105C400002F072F9054620780D287DD2DFE800F0D9
:105C5000BC0713B325BD49496383AF959B00A84892
:105C6000006820B1417841F010014170ADE040463C
:105C700002F08AF9A9E00421404607F01BFA070068
:105C800000D1FFDF07F11401404603F0B7FBA5BBCD
:105C900013214046FCF7CAFB97E00421404607F079
:105CA00009FA070000D1FFDFE088ADF8000000200E
:105CB000B8819DF80000010704D5C00602D5A08870
:105CC000B88105E09DF8010040067ED5A088F881E6
:105CD00005B9FFDF22462946404601F0C5FC0226F1
:105CE00073E0E188ADF800109DF8011009060FD5AA
:105CF000072803D006280AD00AE024E00421404601
:105D000007F0D8F9060000D1FFDFA088F081022655
:105D1000CDB9FFDF17E00421404607F0CBF90700BB
:105D200000D1FFDF07F1140004F04FFA90F0010FEB
:105D300002D1E079000648D5387C022640F0020006
:105D4000387405B9FFDF00E03EE0224629464046B0
:105D500001F08AFC39E00421404607F0ABF9017CF0
:105D6000002D01F00206C1F340016171017C21F0B8
:105D700002010174E7D1FFDFE5E702260121404679
:105D800002F034F921E00421404607F093F905467A
:105D9000606800902089ADF8040001226946404601
:105DA00002F045F9287C20F0020028740DE0002D57
:105DB000C9D1FFDFC7E7022600214046FFF75EFAA0
:105DC000002DC0D1FFDFBEE7FFDF3046BDE8FC811C
:105DD0003EB50C0009D001466B4601AA002004F034
:105DE0000AFE20B1FFF783FC3EBD10203EBD00201F
:105DF0002080A0709DF8050002A900F00700FDF7C3
:105E0000B1FF50B99DF8080020709DF8050002A967
:105E1000C0F3C200FDF7A6FF08B103203EBD9DF808
:105E2000080060709DF80500C109A07861F30410B6
:105E3000A0709DF80510890961F3C300A0709DF85A
:105E40000410890601D5022100E0012161F342001E
:105E50009DF8001061F30000A07000203EBD70B5F9
:105E6000144606460D4651EA040005D075B10846B1
:105E7000FBF725FA78B901E0072070BD29463046C6
:105E800004F023FE10B1BDE8704030E454B1204668
:105E9000FBF715FA08B1102070BD21463046BDE869
:105EA000704095E7002070BD2DE9FC5F0C469046E0
:105EB0000546002701780822007A3E46B2EB111F02
:105EC0007ED104F10A0100910A31821E4FF0020ACC
:105ED00004F1080B0191092A73D2DFE802F0ECDF2C
:105EE00005F427277AA9CD006888042107F0E2F895
:105EF000060000D1FFDFB08920B152270726C2E09B
:105F00005802002051271026002C7DD06888A080E0
:105F10000120A071A88900220099FFF7A0FF0028A6
:105F200073D1A8892081288AE081D1E0B5F8129048
:105F3000072824D1E87B000621D5512709F1140058
:105F400086B2002CE1D0A88900220099FFF787FFD4
:105F500000285AD16888A08084F806A0A8892081EA
:105F60000120A073288A2082A4F81290A88A0090A9
:105F700068884B46A969019A01F052FBA8E05027B6
:105F800009F1120086B2002C3ED0A88900225946A1
:105F9000FFF765FF002838D16888A080A889E080D5
:105FA000287A072813D002202073288AE081E87B12
:105FB000C0096073A4F81090A88A0090688801E076
:105FC00083E080E04B4604F11202A969D4E7012086
:105FD000EAE7B5F81290512709F1140086B2002CB7
:105FE00066D06888042107F065F883466888A08039
:105FF000A88900220099FFF732FF00286ED184F8AB
:1060000006A0A889208101E052E067E00420A07387
:10601000288A2082A4F81290A88A009068884B46AB
:10602000A969019A01F0FCFAA989ABF80E104FE0BA
:106030006888FBF7DDFA07466888042107F03AF81C
:10604000064607B9FFDF06B9FFDF687BC00702D04D
:106050005127142601E0502712264CB36888A080EF
:10606000502F06D084F806A0287B594601F0E8FAA4
:106070002EE0287BA11DF9E7FE49A88949898142C4
:1060800005D1542706269CB16888A08020E05327BC
:106090000BE06888A080A889E08019E06888042166
:1060A00007F008F800B9FFDF55270826002CF0D1CB
:1060B000A8F8006011E056270726002CF8D0688861
:1060C000A080002013E0FFDF02E0012808D0FFDFFE
:1060D000A8F800600CB1278066800020BDE8FC9F16
:1060E00057270726002CE3D06888A080687AA07123
:1060F000EEE7401D20F0030009B14143091D01EB0B
:106100004000704713B5DB4A00201071009848B179
:106110000024684606F000FE002C02D1D64A009901
:1061200011601CBD01240020F4E770B50D46144633
:10613000064686B05C220021284612F0C9FA04B94E
:10614000FFDFA0786874A2782188284601F0A3FABE
:106150000020A881E881228805F11401304603F06F
:1061600031F96A460121304604F0F3FA1AE000BF23
:106170009DF80300000715D5BDF806103046FFF75F
:106180002EFD9DF80300BDF8061040F010008DF8BC
:106190000300BDF80300ADF81400FF233046059A54
:1061A00004F058FC684604F0E0FA0028E0D006B09D
:1061B00070BD10B50C4601F1140003F03BF9014627
:1061C000627C2046BDE8104001F09ABA30B5044622
:1061D000A84891B04FF6FF75C18905AA284604F07A
:1061E000B8FA30E09DF81E00A0422AD001282AD13A
:1061F000BDF81C00B0F5205F03D042F601018842D3
:1062000021D1002002AB0AAA0CA9019083E8070063
:1062100007200090BDF81A1010230022284604F031
:1062200064FB38B9BDF828000BAAC0B20CA908F06D
:10623000D9FC10B1032011B030BD9DF82E00A04252
:1062400001D10020F7E705A804F08FFA0028C9D093
:106250000520F0E770B50546042106F02BFF040089
:1062600000D1FFDF04F114010C46284603F0C6F804
:1062700021462846BDE8704003F0C7B870B58AB023
:106280000C460646FBF7B4F9050014D028782228FE
:1062900027D30CB1A08890B101208DF80C00032009
:1062A0008DF8100000208DF8110054B1A088ADF8D1
:1062B0001800206807E043F202000AB070BD092010
:1062C000FBE7ADF8180005900421304606F0F2FE19
:1062D000040000D1FFDF04F1140003F0C2F800074E
:1062E00001D40820E9E701F01FFE60B108A80221EF
:1062F0000094CDE9011095F8232003A93046636886
:10630000FFF7EFFBD9E71120D7E72DE9F04FB2F8FF
:1063100002A0834689B0154689465046FBF768F9C6
:1063200007460421504606F0C5FE002604460596A1
:106330004FF002080696ADF81C6007B9FFDF04B9FC
:10634000FFDF4146504604F0B8FE50B907AA06A93F
:1063500005A88DE807004246214650466368FFF7CE
:106360004EFB444807AB0660DDE9051204F114005A
:10637000CDF80090CDE90320CDE9013197F8232035
:10638000594650466B6803F0B5F806000AD0022E55
:1063900004D0032E14D0042E00D0FFDF09B0304605
:1063A000BDE8F08FBDF81C000028F7D00599CDE9B5
:1063B00000104246214650466368FFF74EFBEDE76A
:1063C000687840F008006870E8E72DE9F04F99B070
:1063D00004464FF000082748ADF81C80ADF8208037
:1063E000ADF82480A0F80880ADF81480ADF81880CE
:1063F000ADF82C80ADF82880007916460D4647464A
:10640000012808D0022806D0032804D0042802D08E
:10641000082019B0C4E72046FAF70DFF70BB2846E4
:10642000FAF709FF50BB6068FAF752FF30BB6068AB
:1064300048B160892189884202D8B1F5007F01D92D
:106440000C20E6E780460EAA06A92846FFF7C8F901
:106450000028DED168688078C0F34100022808D1A6
:106460009DF8190010F0380F03D02869FAF727FFBC
:1064700020B904E0580200201C00002022E005A9F9
:106480002069FFF765F90028C3D1206948B1607819
:1064900080079DF8150000F0380001D5F0B300E04A
:1064A000E0BB9DF8140080060ED59DF8150010F095
:1064B000380F03D06068FAF702FF18B96068FAF77E
:1064C00007FF08B11020A4E70AA96069FFF740F9A7
:1064D00000289ED1606940B19DF8290000F00701B5
:1064E00001293CD110F0380F39D00BA9A069FFF772
:1064F0002FF900288DD19DF8280080062FD49DF813
:106500002C0080062BD4A06950B19DF82D0000F01E
:106510000701012923D110F0380F00E01FE01ED041
:10652000E06818B10078D0B11C2818D20FAA611CFD
:106530002046FFF77CF90121384661F30F2082469F
:106540008DF85210B94642F603000F46ADF85000E0
:106550000DF13F0218A9286808F063FB08B1072075
:1065600057E79DF8600015A9CDF80090C01CCDE953
:10657000019100F0FF0B00230BF20122514614A8F9
:1065800004F012F8F0BBBDF854000C90FE482A89C4
:1065900029690092CDE901106B89BDF8382028687F
:1065A000069904F001F801007ED120784FF0020A2C
:1065B000C10601D480062BD5CDF80C90606950B986
:1065C0000AA906A8FFF764F99DF8290020F0070042
:1065D000401C8DF829009DF8280008A940F0C8004B
:1065E0008DF828008DF8527042F60210ADF8500078
:1065F00003AACDF800A0CDE90121002340F2032237
:1066000014A800E01EE00A9903F0CEFF01004BD170
:10661000DD484D4608385B460089ADF83D000FA8BF
:10662000CDE90290CDF80490CDF810904FF0070915
:106630000022CDF80090BDF854104FF6FF7003F023
:10664000F4FE10B1FFF753F8E3E69DF83C000006B6
:1066500024D52946012060F30F218DF852704FF4A4
:1066600024500395ADF8500062789DF80C0000238B
:1066700062F300008DF80C006278CDF800A052089B
:1066800062F341008DF80C0003AACDE9012540F228
:10669000032214A803F088FF010005D1606888B3C5
:1066A0002069A8B905A900E084E006A8FFF7F0F882
:1066B0006078800706D49DF8150020F038008DF82A
:1066C000150005E09DF8140040F040008DF814001E
:1066D0008DF8527042F60110ADF85000208940F25A
:1066E0000121B0FBF1F201FB1202606809ABCDF8A9
:1066F0000080CDE90103002314A8059903F054FF9D
:10670000010057D12078C00728D00395A06950B95F
:106710000BA906A8FFF7BCF89DF82D0020F0070094
:10672000401C8DF82D009DF82C008DF8527040F023
:1067300040008DF82C0042F60310ADF8500007A978
:1067400003AACDF800A0CDE90121002340F20322E5
:1067500014A80B9903F028FF01002BD1E06868B35F
:106760002946012060F30F218DF8527042F6041083
:10677000ADF85000E068002302788DF8582040788A
:106780008DF85900E06816AA4088ADF85A00E06814
:1067900000798DF85C00E068C088ADF85D00CDF848
:1067A0000090CDE901254FF4027214A803F0FCFE1D
:1067B000010003D00C9800F0CFFF2AE672480321B5
:1067C0000838017156B100893080BDF8240070800E
:1067D000BDF82000B080BDF81C00F080002018E655
:1067E00070B501258AB016460B46012802D0022852
:1067F00016D104E08DF80E504FF4205003E08DF8D0
:106800000E5042F60100ADF80C005BB10024601C94
:1068100060F30F2404AA08A9184608F002FA18B178
:1068200007204AE5102048E504A99DF82020564895
:10683000CDE90021801E02900023214603A802F228
:10684000012203F0B1FE10B1FEF751FF35E54E48CD
:1068500008380EB1C1883180057100202DE5F0B5F2
:1068600093B0074601268DF83E6041F60100ADF871
:106870003C0012AA0FA93046FFF7B2FF002849D109
:10688000414C0025083CEFB31C22002102A811F066
:106890001FFF9DF808008DF83E6040F020008DF845
:1068A000080042F60520ADF83C000E959DF83A0030
:1068B000119520F00600801C8DF83A009DF83800F4
:1068C0006A4620F0FF008DF838009DF8390009A9CC
:1068D00020F0FF008DF839000420ADF82C00ADF851
:1068E00030000EA80A9011A80D900FA80990ADF8DD
:1068F0002E5002A8FFF769FD00280BD1BDF800005B
:10690000608100E008E0BDF80400A081401CE08147
:106910002571002013B0F0BD6581A581BDF8480048
:10692000F4E72DE9F74F1849A0B00024083917946F
:106930000A79A146012A04D0022A02D0082023B0F5
:106940002EE5CA88824201D00620F8E721988A46BF
:10695000824201D10720F2E70120214660F30F2196
:10696000ADF848004FF6FF780691ADF84A808DF8F3
:106970006E0042F6020B8DF872401CA9ADF86CB0A7
:10698000ADF87040139101E060020020ADF8508036
:1069900012A803F019FF00252E462F460DAB072243
:1069A00012A9404603F013FF78B10A285DD195B3D0
:1069B0008EB3ADF86450ADF866609DF85E008DF85A
:1069C000144019AC012864D06BE09DF83A001FB365
:1069D000012859D1BDF8381059451FD118A809A967
:1069E00001940294CDE9031007200090BDF8361001
:1069F00010230022404603F078FFB0BBBDF86000D2
:106A0000042801D006284AD1BDF8241021988142DB
:106A10003AD10F2093E73AE0012835D1BDF838008C
:106A2000B0F5205F03D042F6010188422CD1BAF8BC
:106A30000600BDF83610884201D1012700E000278A
:106A400005B19EB1219881421ED118A809AA0194CE
:106A50000294CDE90320072000900D461023002268
:106A6000404603F042FF00B902E02DE04E460BE045
:106A7000BDF86000022801D0102810D1C0B217AABA
:106A800009A908F0AFF850B9BDF8369086E705209F
:106A900055E705A917A8221D08F0C3F808B103207F
:106AA0004DE79DF814000023001DC2B28DF814209C
:106AB00022980092CDE901401BA8069903F074FDCD
:106AC00010B902228AF80420FEF711FE37E710B54C
:106AD0000B46401E88B084B205AA00211846FEF776
:106AE000A6FE00200DF1080C06AA05A901908CE86D
:106AF0000700072000900123002221464FF6FF7077
:106B000003F093FC0446BDF81800012800D0FFDF15
:106B10002046FEF7ECFD08B010BDF0B5F94F044675
:106B200087B038790E46032804D0042802D0082004
:106B300007B0F0BD04AA03A92046FEF751FE0500E8
:106B4000F6D160688078C0F3410002280AD19DF830
:106B50000D0010F0380F05D02069FAF7B0FB08B12E
:106B60001020E5E7208905AA21698DE807006389DF
:106B7000BDF810202068039903F016FD10B1FEF750
:106B8000B6FDD5E716B1BDF8140030800420387189
:106B90002846CDE7F8B50C0006460CD001464FF666
:106BA000FF7500236A46284603F025FF28B100BF81
:106BB000FEF79DFDF8BD1020F8BD69462046FEF7A2
:106BC000C7FD0028F8D1A078314600F0010328461F
:106BD000009A03F03FFFEBE730B587B01446002280
:106BE0000DF1080C05AD01928CE82C0007220092F3
:106BF0000A46014623884FF6FF7003F016FCBDF8E5
:106C000014102180FEF773FD07B030BD70B50D463E
:106C1000042106F04FFA040000D1FFDF294604F1F9
:106C20001400BDE8704002F015BC70B50D4604219B
:106C300006F040FA040000D1FFDF294604F11400F9
:106C4000BDE8704002F029BC70B50D46042106F085
:106C500031FA040000D1FFDF294604F11400BDE839
:106C6000704002F041BC70B50546042106F022FADE
:106C7000040000D1FFDF214628462368BDE87040AC
:106C80000122FEF704BF70B50646042106F012FA91
:106C9000040000D1FFDF04F1140002F0CBFB401D23
:106CA00020F0030511E0011D008800224318214651
:106CB0003046FEF7ECFE00280DD0607CABB2684396
:106CC00082B2A068011D06F0C7F8A068002802D0B3
:106CD00041880029E7D170BD70B50546042106F052
:106CE000E9F9040000D1FFDF214628466368BDE8CA
:106CF00070400222FEF7CBBE70B50E46054601F08D
:106D000013F9040000D1FFDF012020726672658054
:106D1000207820F00F00001D20F0F000403020709F
:106D2000BDE8704001F003B910B50446012900D058
:106D3000FFDF2046BDE810400121FEF79FBA2DE994
:106D4000F04F97B04FF0000983460C46ADF8149011
:106D5000C8460846FAF76FFAC8B9E06830B1A068CB
:106D6000A8B10188ADF81410A0F800905846FAF7C1
:106D70003FFC070043F2020A5FD03878222874D320
:106D80000421584606F096F9050005D103E01020CD
:106D900017B0BDE8F08FFFDF05F1140002F04AFBE9
:106DA000401D20F00306A078012803D0022801D05E
:106DB0000720EDE7218807AA584603F0CAFC30BB3C
:106DC00007A803F0D2FC10BB07A803F0CEFC48B91B
:106DD0009DF82600012805D1BDF82400A0F5245116
:106DE000023902D04FF45050D2E7E068B0B1CDE99B
:106DF00002900720009005AACDF804900492A28882
:106E00002188BDF81430584603F00FFB10B1FEF78F
:106E10006EFCBDE7A168BDF8140008809DF81F0056
:106E2000C00602D543F20140B2E70B9828B19DF8A5
:106E3000200010F0380F03D101E05046A8E7FFDF33
:106E40009DF820003049C0F3C200084497F8231091
:106E500010F8010C884201D90F2099E70B98A1780E
:106E60000078012903D0800717D4082090E7C007D5
:106E7000FBD0002702208DF84000A86898B1697CFB
:106E80004288714391420ED98AB2B3B2011D05F016
:106E900099FF8046A0F8009005E0012703208DF8B7
:106EA0004000D5F800802088ADF844000FA8009578
:106EB000CDE901704346072210A95846FEF711FE9E
:106EC000002891D19DF83C0050B9A078012807D145
:106ED000687CB3B2704382B2A868011D05F086FFDA
:106EE000002055E770B5064615460C460846FEF7E5
:106EF000BDFB00280AD12A4621463046BDE8704035
:106F00006EE40000580200204AB0010070BD08E5A0
:106F100070B51E4614460D0009D044B1616831B108
:106F200038B1FC49C988814203D0072070BD1020C8
:106F300070BD2068FEF79AFB0028F9D13246214641
:106F40002846BDE87040FFF740BA70B515460C0002
:106F500006D038B1EF490989814203D0072070BDBE
:106F6000102070BD2068FEF781FB0028F9D129466A
:106F70002046BDE87040D0E570B5064686B00D46A7
:106F800014461046FAF77DF9D0BB6068FAF7A0F90D
:106F9000B0BBA6F57F40FF3803D03046FAF728FB98
:106FA00080B128466946FEF795FC00280CD19DF873
:106FB00010100F2008293DD2DFE801F00806060670
:106FC000060A0A0843F2020006B070BD0320FBE780
:106FD0009DF80210012908D1BDF80010B1F5C05F7D
:106FE000F2D06FF4C052D142EED09DF806100129C4
:106FF0000DD1BDF80410A1F52851062907D200E0F3
:1070000029E0DFE801F0030304030303DCE79DF854
:107010000A1001290FD1BDF80810B1F5245FD3D0B3
:10702000A1F60211B1F50051CED00129CCD0022930
:1070300001D1C9E7FFDF606878B9002305AA2946B6
:10704000304603F0D8FC10B1FEF751FBBCE79DF8C9
:107050001400800601D41020B6E761882246284635
:107060006368FFF7B9FDAFE72DE9F043814687B0CC
:10707000884614461046FAF704F918B1102007B0F4
:10708000BDE8F083002306AA4146484603F0B3FC5E
:1070900018B100BFFEF72BFBF1E79DF81800C00602
:1070A00002D543F20140EAE70025072705A801952C
:1070B00000970295CDE9035062884FF6FF73414671
:1070C000484603F012FC060013D16068FAF7D9F8BD
:1070D00060B960680195CDE9025000970495238856
:1070E00062884146484603F000FC0646BDF814009D
:1070F00020803046CEE739B1864B0A889B899A4278
:1071000002D843F20300704719E610B588B0002397
:1071100000930193029303937E4C0423ADF8143043
:1071200063893BB1A4898C4201D2914204D943F2D4
:107130000300F0E40620EEE4ADF81010ADF80030E6
:1071400002218DF8021005A9029104A90391ADF85E
:1071500012206946FFF7F3FDDDE42DE9FC47814687
:107160000D460846FAF767F888BB4846FAF740FA32
:107170005FEA00080AD098F80000222829D30421E9
:10718000484605F097FF070005D103E043F20200EF
:10719000BDE8FC87FFDF07F1140002F062F9064644
:1071A0002878012803D0022804D00720F0E7B00790
:1071B0000FD502E016F01C0F0BD0A8792C1DC007CC
:1071C00009D0E08838B1A068FAF735F818B1102076
:1071D000DEE70820DCE721882A780720B1F5847FE4
:1071E00035D01EDC40F20315A1F20313A94226D0CC
:1071F0000EDCB1F5807FCBD003DCF9B1012926D1BB
:10720000C6E7A1F58073013BC2D0012B1FD113E06B
:10721000012BBDD0022B1AD0032BB9D0042B16D1D1
:1072200012E0A1F20912082A11D2DFE802F00B04E1
:10723000041010101004ABE7022AA9D007E0012ABD
:10724000A6D004E0320700E0F206002AA0DACDB2B0
:1072500000F06AFE50B198F82300CDE90005FA89E4
:10726000234639464846FEF787FC91E711208FE711
:107270002DE9F04F8BB01F4615460C46834600267D
:10728000FAF7B6F928B10078222805D208200BB009
:107290007FE543F20200FAE7B80801D00720F6E7DD
:1072A000032F00D100274FF6FF79CCB1022D72D306
:1072B0002046FAF70DF830B904EB0508A8F10100F3
:1072C000FAF706F808B11020E1E7AD1E38F8028C95
:1072D000AAB22146484603F070FC40455BD1ADB2EE
:1072E0000C49B80702D58889401C00E001201FFA2C
:1072F00080F8F80701D08F8900E04F4605AA414683
:10730000584603F026FA4FF0070A4FF00009D4B3AD
:1073100020460AE058020020408810283BD8361D3D
:10732000304486B2AE4236D2A01902884245F3D329
:1073300051E000BF9DF8170002074CD594B304EB51
:107340000608361DB8F80230B6B2102B23D89A19A9
:10735000AA4220D8B8F8002091421CD1C0061CD502
:10736000CDE900A90DF1080C0AAAA11948468CE83C
:107370000700B8F800100022584603F056F820B174
:10738000FEF7B5F983E726E005E0B8F80200BDF89E
:107390002810884201D00B2079E7B8F80200304469
:1073A00086B207E0FFE7C00604D55846FEF717FC93
:1073B000002889D19DF81700BDF81A1020F01000A0
:1073C0008DF81700BDF81700ADF80000FF235846F0
:1073D000009A03F03FFB05A803F0C7F918B9BDF800
:1073E0001A10B942A6D90421584605F063FE0400DC
:1073F00000D1FFDFA2895AB1CDE900A94D46002393
:1074000021465846FEF7B8FB0028BBD1A5813EE7D0
:1074100000203CE72DE9FF4F8BB01E4617000D46BC
:107420004FF0000412D0B00802D007200FB0B0E433
:10743000032E00D100265DB10846F9F740FF28B9B8
:107440003888691E0844F9F73AFF08B11020EDE7C3
:10745000C74AB00701D5D18900E00121F0074FF6F6
:10746000FF7802D0D089401E00E0404686B206AACE
:107470000B9803F06EF94FF000094FF0070B0DF178
:10748000140A38E09DF81B00000734D5CDF80490AD
:10749000CDF800B0CDF80890CDE9039A434600221C
:1074A0000B9803F022FA60BB05B3BDF814103A88BC
:1074B00021442819091D8A4230D3BDF81E2020F826
:1074C000022BBDF8142020F8022BCDE900B9CDE93C
:1074D0000290CDF810A0BDF81E10BDF814300022A7
:1074E0000B9803F002FA08B103209FE7BDF81400DF
:1074F0002044001D84B206A803F037F920B10A2801
:1075000006D0FEF7F4F891E7BDF81E10B142B9D9E4
:1075100034B17DB13888A11C884203D20C2085E7A4
:10752000052083E722462946404603F046FB0146F4
:1075300028190180A41C3C80002077E710B5044680
:10754000F9F79FFE08B1102010BD8948C08920803E
:10755000002010BDF0B58BB00D4606461422002168
:1075600003A811F0B5F801208DF80C008DF810007B
:1075700000208DF81100ADF814503046FAF738F8B5
:1075800048B10078222812D30421304605F092FD3C
:10759000040005D103E043F202000BB0F0BDFFDFB1
:1075A00004F11400074601F05CFF800601D40820B6
:1075B000F3E7207C022140F00100207409A8009428
:1075C000CDE90110072203A930466368FEF789FA66
:1075D00020B1217C21F001012174DEE729463046EB
:1075E000FDF73DFE08A9384601F027FF00B1FFDF97
:1075F000BDF82040172C01D2172000E02046A842F9
:1076000001D92C4602E0172C00D21724214630461F
:10761000FFF70BFB21463046FDF745FB0020BCE79A
:10762000F8B51D4616460F46069C05F076FEE41D8D
:10763000A1B200912B463246394605F075FAF8BDE5
:1076400070B50C4605460E220021204611F040F888
:10765000002020802DB1012D01D0FFDF70BD06205C
:1076600000E00520A07170BD10B548800878134671
:1076700020F00F00001D20F0F00080300C46087054
:107680001422194604F1080011F002F800F04FFC32
:107690003748046010BD2DE9F047DFF8D890491D48
:1076A000064621F0030117460C46D9F8000005F004
:1076B00051FB050000D1FFDF4FF000083560A5F851
:1076C00000802146D9F8000005F044FB050000D1F8
:1076D000FFDF7560A5F800807FB104FB07F1091D8D
:1076E0000BD0D9F8000005F035FB040000D1FFDF16
:1076F000B460C4F80080BDE8F087C6F80880FAE7F7
:107700002DE9F0411746491D21F00302194D0646A7
:1077100001681446286805F048FB2246716828680D
:1077200005F043FB3FB104FB07F2121D03D0B16823
:10773000286805F03AFB042005F068FC04460420A4
:1077400005F06CFC201A012804D12868BDE8F0413E
:1077500005F0F5BABDE8F08110B50C4602F0C8FF9F
:1077600000B1FFDF2046BDE81040FDF7C0BF0000BC
:10777000580200201C0000202DE9FF5F8B46FF49C6
:1077800082461446D1E90101CDE902010BF1030261
:1077900022F0030201A84FF49071019205F0BCFAA7
:1077A000F74E002C02D1F749019A8A6001990144F1
:1077B0000191B57E05F1010504D1E8B207F0AAF9FF
:1077C00000B1FFDF019800EB0510C01C20F00301A1
:1077D000019144B9327A00200870B08B80B202F077
:1077E000E4FD00B1FFDF0198F169084401902146F2
:1077F00001A800F02AFF80460198C01C20F0030079
:107800000190337A727A04B10020002105F06DFBFB
:10781000019908440190214601A800F057FFD8487B
:1078200000273D4690F801900CE0284600F0F0FE5D
:10783000064681788088FDF7CDFA71786D1C00FBD3
:107840000177EDB24D45F0D10198C01C20F0030046
:10785000019004B100203946FDF7C7FA01990027CD
:1078600008440190C6483D4690F801900CE0284637
:1078700000F0CEFE0646C1788088FEF73AFC7178AB
:107880006D1C00FB0177EDB24D45F0D10198C01C95
:1078900020F00300019004B100203946FEF732FCCD
:1078A000019908440190B74800214278084603F046
:1078B000B4FA214601A800F076FE0198C01D20F020
:1078C00007000190DAF80010814204D3A0EB0B010D
:1078D000B1F5803F04DB4FF00408CAF8000004E073
:1078E000CAF80000B8F1000F03D0404604B0BDE86C
:1078F000F09F4CBBFAF778FBA14C207E0090607E95
:10790000012823D0002318B300229D4800210C3009
:10791000FAF7E7FF00B1FFDFE07EFEF7A0FF00B15E
:10792000FFDF97484FF4F6720021303010F0D0FEA0
:1079300093480421303080F8E91180F8EA110621DB
:1079400080F8EB11032101710020CFE70123DAE772
:1079500002AADAE770B58A4C06463034207804EB88
:107960004015E078083598B9A01990F8E80100288A
:107970000FD0A0780F2800D3FFDF20220021284657
:1079800010F0A6FE687866F3020068700120E070CF
:10799000284670BD2DE9F04105460C4600270078C9
:1079A000052190463E46B1EB101F00D0FFDF287A3C
:1079B00050B101280ED0FFDFA8F800600CB127807D
:1079C00066800020BDE8F0810127092674B168882F
:1079D000A08008E00227142644B16888A0802869A6
:1079E000E060A88A2082287B2072E5E7A8F8006082
:1079F000E7E730B5624C012000212070617003225E
:107A00002272607260762176A17221730521A182B3
:107A10001F21E18260735CA121610A21A176E076D9
:107A2000584D4FF4B060E0616868C11C21F003015B
:107A3000814200D0FFDF6868606030BD30B5514CD6
:107A40001568636808339D4202D20420136030BD7C
:107A50004B4B5D785A6802EBC502107051700320E1
:107A6000D080172090800120D07090705878401CF2
:107A70005870606808306060002030BD70B5064600
:107A80003F480024457807E0204600F0C1FD01781A
:107A9000B14204D0641CE4B2AC42F5D1002070BD08
:107AA000F7B5064608780C46F0B1FFF7E7FF054644
:107AB000202E06D0212E19D0222E17D0232E13D1FE
:107AC0000FE000F0B0FD0DB1697800E00021401A30
:107AD00081B2A0780144FF2906D828B1A08828B92E
:107AE00002E06088172801D20720FEBD65B9207822
:107AF00002AA0121FFF7A2FF0028F6D12078FFF7A4
:107B0000BDFF050000D1FFDF202E08D0212E0ED0B2
:107B1000222E0FD0232E07D0FFDF0020FEBDA0783D
:107B20006870A088E880F8E76088A880F5E7A0780A
:107B3000A870F2E7A078E870EFE71E2845D011DCC6
:107B40001B284DD2DFE800F02F4C344C4C3B3B3728
:107B500039434C4C3D4C4C4C4C45414C4C4C4C4CA2
:107B60004C4C49003A282ED012DC282838DD292830
:107B700036D02A2834D0302832D126E050B0010047
:107B800094020020200000206E524635780000004C
:107B90003B380B2824D2DFE800F0231023232323D3
:107BA000230823231E000020704743F2040070477F
:107BB00043F202007047042070470D2070470F20E9
:107BC0007047082070471120704707207047132026
:107BD0007047062070470920704743F2070070473E
:107BE0000320704708B5007800F001008DF8000010
:107BF000684604F04CFAFFF7A0FF08BD0EB5017807
:107C000001F001018DF80010417801F001018DF8BB
:107C100001100178C1F340018DF802104178C1F3E1
:107C200040018DF80310017889088DF8041041781F
:107C300089088DF8051081788DF80610C1788DF8C7
:107C4000071000798DF80800684603F06AFDFFF719
:107C500074FF0EBD072070472DE9F84FDFF8F88359
:107C6000FE4C002621E0012000F065FD0120FFF719
:107C700071FE05464FF4907949464746D8F808000A
:107C800005F068F8686000B9FFDF686803F047FB3B
:107C9000A8B12846F9F719FE284600F052FD20B990
:107CA0004A466968B86805F080F894F9E901042843
:107CB000D9DA022005F0AAF907460025A7E04FF41B
:107CC00090726968D8F8080005F06FF8F1E7B8F825
:107CD00002104046491C89B2A8F80210B94201D3EB
:107CE000002141800221B8F8020005F0E3F90028E4
:107CF00065D0B8F80200694604F085F9FFF71DFF6A
:107D000000B1FFDF9DF8000078B1B8F8020005F07F
:107D100016FB5FEA000900D1FFDF484604F097FD3B
:107D200018B1B8F8020003F0B6F9B8F8020005F08F
:107D3000F4FA5FEA000900D1FFDF484604F07FFD56
:107D4000E8BB0321B8F8020005F0B4F95FEA000BC4
:107D500048D1FFDF46E000BFDBF80C0010B100782F
:107D6000FF2849D0022000F0E6FC0220FFF7F2FDD8
:107D70008246484604F06FFECAF8040000B9FFDFEF
:107D8000DAF8040004F038FF002100900170B8F820
:107D900002105046AAF8021003F0AAF8484604F070
:107DA0002DFF00B9FFDF504600F0CBFC18B99AF860
:107DB0000100000704D50098CBF80C0012E024E085
:107DC000DBF80C0038B10178491C11F0FF0101709B
:107DD00008D1FFDF06E000221146484600F0E1FB33
:107DE00000B9FFDF94F9EA01022805DBB8F80200C8
:107DF00003F059F80028AFD194F9E901042804DB15
:107E0000484604F060FF00B101266D1CEDB2BD4292
:107E100004D294F9EA010228BFF659AF002E7FF48C
:107E200020AFBDE8F84F032000F085BC10B58A4CA8
:107E3000E06008682061AFF2DF1010F0BDFE6070F6
:107E400010BD864800213038017083480170844994
:107E50004160704770B505464FF080500C46D0F831
:107E6000A410491C05D1D0F8A810C9430904090C75
:107E70000BD050F8A01F01F001012970416821606A
:107E80008068A080287830B970BD0621204607F0B0
:107E9000AFF801202870607940F0C000607170BDBB
:107EA00070B54FF080540D46D4F88010491C0BD1AA
:107EB000D4F88410491C07D1D4F88810491C03D188
:107EC000D4F88C10491C0CD0D4F880100160D4F880
:107ED00084104160D4F888108160D4F88C10C1609F
:107EE00002E0102107F084F8D4F89000401C0BD178
:107EF000D4F89400401C07D1D4F89800401C03D15A
:107F0000D4F89C00401C09D054F8900F2860606899
:107F10006860A068A860E068E86070BD2846BDE8B9
:107F20007040102107F064B84C48007912E570B534
:107F30004A4CE07830B3207804EB4010407A00F0EF
:107F40000700204490F9E801002800DCFFDF2078DA
:107F5000002504EB4010407A00F00700011991F869
:107F6000E801401E81F8E8012078401CC0B2207072
:107F70000F2800D12570A078401CA07006F0A2FF49
:107F8000E57070BDFFDF70BD3EB50546032105F00D
:107F900091F80446284605F0C0F9054604B9FFDF0C
:107FA000E06818B10078FF2800D1FFDF01AA694618
:107FB000284600F0F6FA60B9FFDF0AE0002202A9C5
:107FC000284600F0EEFA00B9FFDF9DF8080000B186
:107FD000FFDF9DF80000411E8DF80010EED2E06832
:107FE0000199884201D10020E0603EBD70B5054690
:107FF000A0F57F400C46FF3800D1FFDF012C01D0F7
:10800000FFDF70BDFFF790FF040000D1FFDF207895
:1080100020F00F00401D20F0F000503020706580EF
:108020000020207201202073BDE870407FE72DE919
:10803000F04116460D460746FFF776FF040000D1D3
:10804000FFDF207820F00F00401D20F0F0005030BE
:1080500020706780012005E020000020C40200207D
:10806000B0100020207228682061A888A0822673A2
:10807000BDE8F0415BE73EB5FFF700FD040000D12D
:10808000FFDFA18803208DF800008DF80100081D96
:10809000091DADF80200ADF80410E08840F2E2419D
:1080A00048430290684603F0D3FF00B1FFDF02A807
:1080B00003F0E2FF002800D0FFDF3EBD2DE9F05FB6
:1080C000FE4F8046387808B1082010E44046F9F7A2
:1080D000D8F808B110200AE4F94D287808B9FFF75C
:1080E00088FC2C7A464600F09EFAA04207D2201A5D
:1080F000C1B232460020FFF7A1FC0028E5D1796823
:10810000BB46C91C21F0030179600027EC483E46BC
:10811000B946BA463C46457807E0204600F078FA72
:108120004078641C0644E4B27F1CAC42F5D1E44DB7
:108130000AEB870000EBC600297A00EB890000EB10
:10814000C100697A5C4600EB8100DBF80410012273
:10815000461831464046FFF70FFB070012D00020BB
:10816000FFF78CFC06000BD006F10B00616820F0D5
:108170000300884200D0FFDF6878401E68706660A8
:108180003846A2E7002231464046FFF7F5FA00B133
:10819000FFDFD8F8000060604FF6FF7060800120BC
:1081A0002070002091E72DE9F0410446C3481746AE
:1081B0000E46007808B1082004E40846F9F73BF8B9
:1081C00008B11020F8E7BE4D287808B9FFF711FC78
:1081D000601E1E2807D8012C22D13078FE281FD817
:1081E000A8760020E8E7A4F120001F2805D8E0B217
:1081F0003A463146BDE8F04152E4A4F140001F2860
:1082000005D831462046BDE8F04100F0C2BAA4F1DD
:10821000A0001F2804D80020A02C03D0A12C06D039
:108220000720C9E7317801F00101E976C4E7316838
:108230000922F82901D38B0701D01046BCE76B7BDC
:1082400003F00303012B04D1EB8AD7339CB28C4299
:10825000F3D8E961B0E72DE9F04781460E460846BC
:10826000F9F70FF848B94846F9F729F828B909F19C
:10827000030020F00301494502D01020BDE8F0873B
:108280008F484FF0000A3030817869B141788046DC
:1082900000EB41140834378832460021204600F0B4
:1082A0005EFA050004D027E0A6F800A00520E5E767
:1082B000B9F1000F24D03088B84201D90C251FE055
:1082C000607800F00705284600F035FA08EB05074E
:1082D000324697F8E8014946401C87F8E8012046F5
:1082E00007F5F47700F03BFA05463878401E387001
:1082F000032000F020FA2DB10C2D01D0A6F800A02B
:108300002846BBE760786D4E00F00701012923D0B5
:1083100002290CD0032934D0FFDF98F80110404621
:10832000491CC9B288F801100F2935D036E06168C0
:1083300021B1000702D46088FFF726FE98F8EA0111
:108340004746012802D1707810F052FC97F9EA01F3
:108350000428E2DBFFDFE0E7616821B14FF49072AF
:10836000B06804F022FD98F8E9014746032802D1DD
:10837000707810F03DFC97F9E9010428CDDBFFDFB0
:10838000CBE7C00602D56088FFF7FEFD98F9EB0148
:108390000628C2DBFFDFC0E780F801A08178491E14
:1083A0008170617801F0070101EB080090F8E81195
:1083B000491C80F8E811A3E770B50D460446F8F7AC
:1083C0003AFF18B92846F8F75CFF08B1102070BDD5
:1083D00029462046BDE8704006F0D4BB70B505467E
:1083E00006F0F3FBC4B22846F8F769FF08B1102085
:1083F00070BD35B128782C7018B1A04201D007208B
:1084000070BD2046FDF7E2FE052805D106F0E1FB30
:10841000012801D0002070BD0F2070BD70B504464A
:1084200015460E460846F8F706FF18B92846F8F72D
:1084300028FF08B1102070BD022C03D0102C01D0F1
:10844000092070BD2A463146204606F0CBFB0028A5
:10845000F7D0052070BD70B514460D460646F8F7F6
:10846000EAFE38B92846F8F70CFF18B92046F8F7A5
:1084700026FF08B1102070BD22462946304606F07E
:10848000D0FB0028F7D0072070BD3EB50446F8F7B2
:10849000F8FE08B110203EBD684603F0C1F8FFF7B2
:1084A0004CFB0028F7D19DF805002070BDF80600B0
:1084B0006080BDF80800A08000203EBD20000020A4
:1084C0009402002070B505460C460846F8F7F7FE02
:1084D00020B93CB12068F8F7D4FE08B1102070BD77
:1084E000A08828B121462846BDE87040FDF7C6BEE9
:1084F000092070BD70B504460D460846F8F79BFE8E
:1085000030B9601E1E2812D82846F8F794FE08B12C
:10851000102070BD032C08D2DF4800EB840050F817
:10852000041C2846BDE870400847072070BDA4F130
:1085300020001F2805D829462046BDE87040F9F7DD
:10854000DBBCF22CF1D12868F8F7C2FE0028DFD19D
:10855000284603F0B5FDBDE87040FFF7EEBA70B5F0
:1085600004460D460846F8F78CFE30B9601E1E28FA
:108570000DD82846F8F75FFE08B1102070BD012C19
:1085800001D0022C01D1062070BD072070BDA4F1DE
:1085900020001F28F9D829462046BDE87040F9F789
:1085A000FCBC04F01BB97CB50446BC48807A00F0E2
:1085B000010539BB02F0ACFA0DB1226800E00022DF
:1085C000B7484178C06802F0A7FFB5481030C078BE
:1085D0008DF8000010B1012802D004E0012000E075
:1085E00000208DF80000684603F081F8AA4824387E
:1085F0000068019001A803F0B3FC012003F066FDC0
:1086000003F068FD002D02D02068283020607CBD7A
:1086100030B5A24D04466878A04200D8FFDF6868F4
:1086200000EBC40030BD70B59C4800252C46467850
:1086300007E02046FFF7ECFF4078641C2844C5B2F1
:10864000E4B2B442F5D1284670BD2DE9F0410546AB
:1086500092484FF00008027A407A00EB420002B1E3
:1086600001221618FF2E01D94FF013082868C01CEC
:1086700020F003022A6051EA080116D18748F3B2BC
:108680000421203006F098FD002418E0BCB1012C34
:1086900015D0022C15D0032C0FD0FFDFA74200D03D
:1086A000FFDF641CE4B2042CF0D3286806EBC6019B
:1086B00000EB8100286040467EE57A4802E07A4877
:1086C00000E07A4806F090FD0746E7E72DE9F0471D
:1086D000064672484FF000088A464746454690F8DD
:1086E000019015E02846FFF793FF040000D1FFDF5B
:1086F000607803223844C7B2A0881346001D81B2B7
:1087000080B204F055FD62786D1C00FB0288EDB26A
:108710004D45E7D13068C01C20F003003060BAF14D
:10872000000F00D000204246394604F04FFD31686A
:1087300008443060A2E55949303108710020C87002
:10874000704756493031CA782AB10A7801EB421194
:108750000831814201D001207047002070472DE987
:10876000F04106460078154600F00F040020108006
:10877000601E0F46052800D3FFDF47482A461838F9
:1087800000EB8400394650F8043C3046BDE8F04127
:1087900018472DE9F041414E0C46402806D04128AB
:1087A0001CD0422824D0432804D11CE025786078CE
:1087B000A84201D90720FFE4FF2D08D812F08CF859
:1087C000074606F023FB381A801EA84201DA122061
:1087D000F2E420883081A078B0720FE0BDE8F0416B
:1087E000084600F00DB808780228E3D8307605E096
:1087F00008780228DED80028DCD070760020DBE480
:1088000038B50446407800F00300012803D0022860
:108810000BD0072038BD606858B1F8F759FDD0B9C2
:108820006068F8F74CFD20B915E06068F8F703FDC3
:1088300088B969462046FBF779FA0028EAD16078C2
:1088400000F00300022808D19DF8000028B16068FC
:10885000F8F735FD08B1102038BD6189F8290DD829
:10886000208988420AD8607800F003020B48012A68
:1088700006D1D731C26989B28A4201D2092038BDF6
:1088800094E80E0000F10C0585E80E000AB90021FD
:108890008182002038BD000074B0010094020020E5
:1088A000200000209D1E0000BD2F000007E90000F1
:1088B0000E4A12680C498A420AD118470B4A1268BC
:1088C000094B9A4204D101B506F02CFDBDE80140E8
:1088D000074909680958084706480749054A064BE9
:1088E0007047000000000000BEBAFECA340000203D
:1088F000040000203010002030100020F8B5DDE921
:10890000065461B10F461E4604F019FDE41DA1B2E4
:1089100000912B463246394604F03AF9F8BD101959
:108920002A4619460FF0B4FE2846F8BD70B50D462C
:108930000446102200210FF0CBFE25811720608114
:10894000A07B40F00A00A07370BD4FF6FF720A8052
:108950000146002006F0B4BC704700897047827B56
:10896000D30701D1920703D4808908800020704783
:1089700005207047827B920700D5818170470146B0
:108980000020098841F6FE52114200D001207047B4
:1089900000B50346807BC00701D0052000BD59818A
:1089A0001846FFF7ECFFC00703D0987B40F00400A7
:1089B0009873987B40F001009873002000BD827B83
:1089C000520700D509B14089704717207047827B54
:1089D00061F3C302827370472DE9FC5F0E460446C3
:1089E00001789646012000FA01F14DF6FF5201EAA6
:1089F000020962684FF6FF7B1188594502D10920B0
:108A0000BDE8FC9FB9F1000F05D041F6FE552942A3
:108A100001D00120F4E741EA090111801D0014D0C2
:108A200000232B7094F800C0052103221F464FF04D
:108A3000020ABCF10E0F76D2DFE80CF0FA09252FFE
:108A400047646B77479193B5D2D90420D8E7616822
:108A500020898B7B9B0767D517284AD30B898342D4
:108A600047D38989172901D3814242D185F800A0D3
:108A7000A5F801003280616888816068817B21F0FF
:108A800002018173C7E0042028702089A5F8010045
:108A90006089A5F803003180BDE0208A3188C01DBF
:108AA0001FFA80F8414524D3062028702089A5F8B4
:108AB00001006089A5F80300A089A5F80500072139
:108AC000208ACDE90001636941E00CF0FF0008282D
:108AD00010D0082028702089A5F801006089A5F829
:108AE000030031806A1D694604F10C0006F099F814
:108AF00010B15FE01020EDE730889DF800100844C9
:108B0000308088E00A2028702089A5F80100328092
:108B100045E00C2028702089A5F801006089A5F89F
:108B2000030031803BE083E065E02189338800EB7E
:108B300041021FFA82F843453CD3B8F1050F39D3FF
:108B40000E222A700BEA4101CDE90010E36860882B
:108B50002A467146FFF7D2FEA6F800805BE040206F
:108B6000287061893288C91C03201FFA81F84245A8
:108B700020D329782A4621F03F011231297021891A
:108B8000A5F801106189CDE9001060887146E3689D
:108B9000FFF7B4FEA6F80080287840063BD4616851
:108BA0002089888037E0A0893288401D1FFA80F82C
:108BB000424501D204273DE0162028702089A5F8FF
:108BC00001006089A5F80300A089CDE90001608853
:108BD0002A4671462369FFF791FEA6F80080DEE77A
:108BE00018202870207A6870A6F800A013E0616849
:108BF0000A88920401D405271CE0C9882289914281
:108C000001D0062716E01E21297030806068018897
:108C100021F400510180B9F1000F0BD000226188CE
:108C20007823104606F0F0FA61682078887006E034
:108C3000338003276068018821EA090101803846F2
:108C4000DEE62DE9FF5F834618780E9C17460D007F
:108C500000F03F064FEAD01C1AD0F00701D0192EC1
:108C600001D9012100E000212046FFF7A8FEA8421B
:108C70000ED32088A0F57F41FF3909D0187840062F
:108C800002D4BCF1000F05D0082004B0BDE8F09F6D
:108C90000720FAE700208DF800008DF80100691E1A
:108CA000A81E4FF0010C4FF0050A4FF002098AB2DE
:108CB000202E76D2DFE806F08C10755E7569758D12
:108CC000759D75B775BC75CA75D675E3757575F301
:108CD00075F175F075EF758C052D79D18DF80090D3
:108CE000A0788DF804005888ADF8060018798DF842
:108CF0000100587800F03F000C2829D00ADCA0F1D0
:108D00000200092864D2DFE800F0126315631A63D9
:108D10001D632000122824D004DC0E281BD010284C
:108D2000DBD11BE016281FD01828D6D11FE02078F1
:108D3000800701E020784007002849DAEEE020783B
:108D40000007F9E72078C006F6E720788006F3E709
:108D500020784006F0E720780006EDE72088C0057F
:108D6000EAE720884005E7E720880005E4E7208857
:108D7000C004E1E7207880072AD5032D28D10320FD
:108D80008DF80000B3F8010082E0217849071FD573
:108D9000062D1DD381B25878012803D0022817D19F
:108DA00002E0C8E0022000E0102004228DF800203C
:108DB0005A788DF80420801CB1FBF0F2ADF8062043
:108DC00092B242438A4203D10397ADF80890A5E0DE
:108DD0007AE02078000777D588B281088DF800A066
:108DE000ADF80410B0EB810F6ED10297ADF806C05C
:108DF00094E02178C90667D5022D65D381B206209B
:108E00008DF80000587802285ED300BFB1FBF0F265
:108E10008DF80400ADF8062092B242438A4253D145
:108E2000ADF8089079E0207880064DD5072003E062
:108E3000207840067DD508208DF80000A088ADF888
:108E40000400ADF80620ADF808C066E02078000602
:108E50006FD50920ADF804208DF80000ADF806C0EC
:108E600002975BE02188C90563D5022D61D381B2E9
:108E70000A208DF80000587804285AD3C6E72088C5
:108E8000400556D5012D54D10B208DF80000A08847
:108E9000ADF8040042E021E026E016E0FFE720887C
:108EA000000546D5052D44D30C208DF80000A08880
:108EB000ADF80400B3F803006D1FADF80850ADF82D
:108EC0000600ADF80AA028E033E02088C00430D5C1
:108ED000012D2ED10D208DF800001FE02088800488
:108EE00027D4B3F80100E080A17B0320090720D537
:108EF000032D1ED31B2E18D00F218DF800102188B2
:108F000041F40051A4F80010B3F80110ADF80410BA
:108F1000ED1EADF80650ADF80800039769465846B7
:108F2000FBF7D0FE050008D013E00E218DF80010ED
:108F3000EAE707250DE008250BE01B2E09D01D2EC2
:108F400007D05946002006F0BBF9208800F40050F5
:108F50002080A07B400708D52046FFF710FDC00702
:108F600003D1A07B20F00400A07328468DE61FB536
:108F7000002806D101208DF8000088B26946FBF771
:108F8000A1FE1FBDF8B5DDE9065461B10F461E46CE
:108F900004F0D5F9E41DA1B200912B4632463946C2
:108FA00003F0F6FDF8BD10192A4619460FF070FBC4
:108FB0002846F8BD2DE9FF4F8DB09B46DDE91B57D4
:108FC000DDF87CA00C46082B05D0E06901F002F921
:108FD00050B11020D2E02888092140F010002880EC
:108FE0008AF80010022617E0E16901208871E26921
:108FF0004FF420519180E1698872E06942F60101E5
:109000000181E069002181732888112140F020004E
:1090100028808AF80010042638780A900A203870D0
:109020004FF0020904F118004D460C9001F0CCFB02
:10903000B04681E0BBF1100F0ED1022D0CD0A9EB90
:109040000800801C80B20221CDE9001005AB524619
:109050001E990D98FFF796FFBDF816101A988142D9
:1090600003D9FA4800790F9004E003D10A9808B1B7
:1090700038702FE04FF00201CDE900190DF1160311
:1090800052461E990D98FFF77DFF1D980088401BE2
:10909000801B83B2C6F1FF00984200D203461E999E
:1090A0000BA8D9B15FF00002DDF878C0CDE903204C
:1090B00009EB060189B2CDE901C10F980090BDF816
:1090C000161000220D9801F010FC387070B1C0B27B
:1090D000832807D0BDF8160020833AE00AEB090187
:1090E0008A19E1E7022011B0BDE8F08FBDF82C002D
:1090F000811901F0FF08022D0DD09AF80120424598
:1091000006D1BDF82010814207D0B8F1FF0F04D07E
:109110009AF801801FE08AF80180CC480068017845
:10912000052902D1BDF81610818009EB08001FFA4D
:1091300080F905EB080085B2DDE90C1005AB0F9A4C
:1091400001F045FB28B91D980088411B4145BFF639
:1091500071AF022D13D0BBF1100F0CD1A9EB080099
:10916000801C81B20220CDE9000105AB52461E9958
:109170000D98FFF707FF1D9805800020387000202C
:10918000B1E72DE9F8438446089E0027B06B88B309
:10919000491F8CB2F18FA1F57F45FF3D05D04518E1
:1091A000AD882944891D8DB200E000252919B6F843
:1091B0003C80083141451ED8284433F8011F20F86F
:1091C000021B598820F8021B914620F8024B80466A
:1091D000604604F0A2F80C2100912346424649461D
:1091E00003F0A2FCF587B16B00202944A41D2144A3
:1091F000088003E001E0092700E083273846BDE846
:10920000F88310B50B88848F9C420CD9846BE018CE
:10921000048844B1848824F40044A41D23440B80B2
:109220001060002010BD0A2010BD2DE9F0478AB063
:109230000025904689468246ADF8185007274BE036
:10924000059806888088000446D4A8F8006007A81E
:10925000019500970295CDE903504FF40073002269
:109260003146504601F041FB04003CD1BDF81800E6
:10927000ADF82000059804888188B44216D10A040C
:1092800014D401950295039521F4004100970495AB
:1092900041F4804342882146504601F0C6F804005C
:1092A0000BD10598818841F40041818005AA08A965
:1092B0004846FFF7A6FF0400DCD00097059802950A
:1092C0000195039504950188BDF81C300022504695
:1092D00001F0ABF80A2C06D105AA06A94846FFF70B
:1092E00090FF0400ACD0ADF8185004E005988188D8
:1092F00021F40041818005AA06A94846FFF781FFB5
:109300000028F3D00A2C03D020460AB0BDE8F0872D
:109310000020FAE710B50C46896B86B051B10C21DC
:109320008DF80010A18FADF80810A16B019169466E
:10933000FCF781FC00204FF6FF71A063E187A08756
:1093400006B010BD2DE9F0410D460746896B00209F
:10935000069E1446002911D0012B0FD13246294612
:109360003846FFF762FF002808D1002C06D03246AD
:1093700029463846BDE8F04100F03BBFBDE8F0812A
:109380002DE9FC411446DDE9087C0E46DDE90A15AD
:10939000521DBCF800E092B2964502D20720BDE80B
:1093A000FC81ACF8002017222A70A5F80160A5F80E
:1093B00003300522CDE900423B462A46FFF7E2FD95
:1093C0000020ECE770B50C461546482200212046E7
:1093D0000FF07EF904F1080044F81C0F00204FF64E
:1093E000FF71E06161842084A5841720E08494F8F3
:1093F0002A0040F00A0084F82A0070BD4FF6FF7280
:109400000A800146012005F05BBF30B585B00C46EF
:109410000546FFF77FFFA18E284629B101218DF86F
:1094200000106946FCF707FC0020E06220636063DF
:1094300005B030BDB0F84000704790F84620920764
:1094400006D44088088000207047000038000020C3
:109450000620F9E790F846209207F5D5A0F84410C9
:10946000F2E70146002009880A0700D5012011F023
:10947000F00F01D040F00200CA0501D540F0040011
:109480008A0501D540F008004A0501D540F01000DA
:109490000905D9D540F02000D6E700B5034690F87D
:1094A0004600C00701D0062000BDA3F842101846B0
:1094B000FFF7D7FF10F03E0F05D093F8460040F0BD
:1094C000040083F8460013F8460F40F001001870BE
:1094D000002000BD90F84620520700D511B1B0F829
:1094E0004200B1E71720AFE710F8462F61F3C3023F
:1094F0000270A9E72DE9FF4F9DB00E002A9DDDE91E
:109500002D342878DDE92B7B00F03F084FEAD01C92
:1095100024D05FEAC87002D0B8F1190F01D9012137
:1095200000E000212046FFF7D5FFB04216D328788F
:1095300040060DD4B8F11E0F0DD0208810F47F6FB7
:109540000CD1398851B1A0F57F41FF3906D002E036
:10955000B8F1120F02D1BCF1000F02D0042021B0EB
:10956000C2E5F9491F984FF0000A08718DF818A05C
:109570008DF83CA00FAA0A6099460622701F5B1C5A
:1095800004F1180CADF81CA0ADF850A0CDF85CC0EB
:10959000B8F11F0F7ED2DFE808F07D7D107D237DBE
:1095A000AE7DF77DF67DF57DF47DF77DF37D7D7DE8
:1095B000F27DF17D7D7D7D7DF00094F84610B5F85B
:1095C0000100890767D5032E65D14FF40061ADF81E
:1095D0005010608003218DF83C10ADF84000DBE2B4
:1095E000052EF1D1B5F801002083ADF81C00B5F8C7
:1095F0000310618300286FD088426DD80020A072CC
:1096000020814FF6FF702084179801F0DDF80520C7
:1096100089F8000002200390804609AB1F9A179931
:109620001D9801F0D4F820B15EE000BF8DF818005D
:10963000F3E29DF82A00012804D0022089F80100F5
:10964000102003E0012089F801000220159000227B
:1096500002A90AA805F0E5FAE8BB9DF808001599EB
:1096600081423ED13A88801CA2EB0801814238DB5E
:1096700003990220CDE900010DF126034A4659461F
:109680001D98FFF77FFC039808F10208801C81B247
:1096900018AA01E0A0E2B1E0039102A90AA805F02E
:1096A000C0FA03999DF80800CDE9000118AB4A46BD
:1096B00059461D98FFF766FC9DF8080009AB08EBBA
:1096C00000011FFA81F803991F9A084480B20390A1
:1096D00017991D9801E004E091E001F078F8002866
:1096E000B5D0B8F1020F03D10A208DF8180050E26E
:1096F000A7F800804DE200210391072E7ED3B5F834
:1097000001002083ADF81C00B5F803206283002817
:1097100075D0904273D84FF0010884F80A80B5F8EC
:10972000050020810020A073E06900F053FD80B99E
:10973000E16942F6010081F80680E2694FF42051A8
:109740009180E16981F80A80E1690881E16900207E
:109750008873F01F208420984FF007086062A4F8F7
:109760002280179801F030F889F8008001208046A7
:1097700004900020ADF826002AE01AE2A0E134E1CE
:10978000E4E013E2A7E07FE049E000BFB8F1010F99
:1097900015D0E0698079012803D1BDF82400ADF827
:1097A0000E0004990420CDE9000103AB4A46594656
:1097B0001D98FFF7E7FB0498001D80B20490BDF8E8
:1097C0002600ADF80C00ADF80E0005981FFA80F8E1
:1097D00009AB1F9A17991D9800F0F9FF28B939882D
:1097E00008F1040005908142D0D2B8F1010F3FF496
:1097F0001BAFE0698079012806D101E092E01DE00D
:10980000BDF82400ADF80E0004990420CDE9000154
:1098100003AB4A4659461D98FFF7B4FB68E7072E8D
:1098200001D0152E7ED1B5F801102183ADF81C10A2
:10983000B5F80320628309B1914201D90120F5E610
:109840000121A17200212181A173052E07D0C0B290
:10985000691DE26905F0C6F900287FF4E5AE4FF610
:10986000FF70208406AA14A90020CDF814908DE87A
:109870008708434621461F9A1D98FFF79BFB8246A7
:10988000208BADF81C0084E10120032ECAD14021B9
:10989000ADF85010B5F801102183ADF81C1009AADD
:1098A000BBF1000F00D00023CDE90203CDF804B0D6
:1098B0001F980492009038880022401E83B21D98A1
:1098C00001F013F88DF8180068BB0B2089F8000030
:1098D000BDF8240036E04FF0010C052EA2D1802007
:1098E000ADF85000B5F801102183B5F803002084CD
:1098F000ADF81C10B0F5007F01D9072096E640F4C2
:109900007C4222840BA8BBF1000F00D00023CDE9DC
:109910000330CDE901BC1F9800903888401E83B207
:109920001D9801E096E004E000F0DFFF8DF81800DC
:1099300018B18328A7D10220C0E00D2189F80010BA
:10994000BDF82C00401C23E1380000204FF0030834
:10995000032E04D2287840067CD5002018E1B5F803
:109960000110ADF81C102878400602D58DF83C2077
:1099700002E007208DF83C00209B4FF0000B019384
:109980001F980090F01ECDE9028BCDF810B083B285
:109990000A905A461D9800F048FD8DF818008DF881
:1099A0003CB0297849060DD52088C00506D5208B06
:1099B000BDF81C10884201D1C4F824B058468DF877
:1099C00018B0E5E0832801D14FF0020A4FF480700F
:1099D000ADF85000BDF81C0020830A982084209820
:1099E0006062A4F822801321CFE0052E32D3B5F8AF
:1099F0000110ADF81C10A28F6AB3A2F57F43FE3BA5
:109A00002AD008228DF83C20DDF880C04FF00008F5
:109A10000523CDE90238CDF804C0CDF810801F9A97
:109A200080B240F400430092B5F803201D9800F086
:109A3000FCFC8DF83C804FF400718DF81800ADF8F7
:109A40005010832812D008B3A18FA1F57F40FE38B3
:109A500009D0E2E0DCE0FFE70B228DF83C204FF676
:109A6000FE72A287D0E7A4F83C80D6E02B46009493
:109A70003146209A1D98FFF784FB8DF8180008B135
:109A800083284BD1BDF81C00208354E72B4600945B
:109A90003146209A1D98FFF774FB8DF81800E8BB3B
:109AA000E18FA06BCDF80C900844831D8DE88808E9
:109AB0004388828801881D98FFF762FC824668E02F
:109AC00095F80180022E70D15FEA080002D0B8F14B
:109AD000010F6AD109208DF83C0007A800908DF88D
:109AE00040804346002221461D98FFF72BFC8DF84D
:109AF00042004FF0000B8DF843B050B9B8F1010FA0
:109B000012D0B8F1000F04D1A18FA1F57F40FF382A
:109B10000AD0A08F40B18DF83CB000E039E04FF49E
:109B20008060ADF850000DE00FA91D98FCF783F898
:109B300082468DF83CB04FF48060ADF85000BAF129
:109B4000020F06D0FD480068C07928B18DF81800D2
:109B500027E0A4F8188044E0BAF1000F03D0812078
:109B60008DF818003DE007A80090434601222146E9
:109B70001D98FFF7E7FB8DF8180021461D98FFF7A9
:109B8000C9FB9DF8180020B9192189F8001001209F
:109B900038809DF83C0020B10FA91D98FCF74BF8C8
:109BA0008246BAF1000F35D01BE018E08DF818207E
:109BB00033E02078000712D5012E10D10A208DF84D
:109BC0003C00E088ADF8400001201D9905F078FBCD
:109BD0000820ADF85000C0E62878400618D54FF0B0
:109BE000040A2088BDF8501008432080BDF85000BA
:109BF00080050BD5A18FA1F57F40FE3806D12098B6
:109C0000E0622A982063A6864FF0030A5046A6E435
:109C100004200BE59DF8180078B1012089F80000B8
:109C2000297889F80110BDF81C10A9F802109DF8D8
:109C3000181089F80410052038802088BDF85010CD
:109C400088432080E2E72DE9FF4F8846087895B0E9
:109C5000012181404FF20900249C0140ADF8201001
:109C60002088DDF88890A0F57F424FF0000AFF3A87
:109C700006D039B1000705D5012019B0BDE8F08F35
:109C80000820FAE7239E4FF0000B0EA886F800B0DC
:109C900018995D460988ADF83410A8498DF81CB0B4
:109CA000179A0A718DF838B0086098F800000128FA
:109CB0003BD0022809D003286FD1307820F03F0034
:109CC0001D303070B8F80400E08098F800100320D0
:109CD000022904D1317821F03F011B31317094F811
:109CE0004610090759D505ABB9F1000F13D0002173
:109CF00002AA82E80B000720CDE90009BDF8340074
:109D0000B8F80410C01E83B20022159800F0EDFDD3
:109D10000028D1D101E0F11CEAE7B8F80400A6F868
:109D20000100BDF81400C01C04E198F805108DF87E
:109D30001C1098F80400012806D04FF4007A02287D
:109D40002CD00328B8D16CE12188B8F8080011F4B0
:109D50000061ADF8201020D017281CD3B4F84010B3
:109D6000814218D3B4F84410172901D3814212D18B
:109D7000317821F03F01C91C3170A6F801000321A0
:109D8000ADF83410A4F8440094F8460020F0020026
:109D900084F8460065E105257EE177E1208808F139
:109DA000080700F4FE60ADF8200010F0F00F1BD0A3
:109DB00010F0C00F03D03888228B9042EBD199B9B4
:109DC000B878C00710D0B9680720CDE902B1CDF846
:109DD00004B00090CDF810B0FB88BA883988159887
:109DE00000F023FB0028D6D12398BDF82010401C9A
:109DF00080294ED006DC10290DD020290BD0402917
:109E000087D124E0B1F5807F6ED051457ED0B1F589
:109E1000806F97D1DEE0C80601D5082000E0102051
:109E200082460DA907AA0520CDE902218DF8380048
:109E3000ADF83CB0CDE9049608A93888CDE9000119
:109E40005346072221461598FFF7B4F8A8E09DF87D
:109E50001C2001214FF00A0A002A9BD105ABB9F161
:109E6000000F00D00020CDE902100720CDE9000945
:109E7000BDF834000493401E83B2218B0022159854
:109E800000F033FD8DF81C000B203070BDF814007D
:109E900020E09DF81C2001214FF00C0A002A22D15D
:109EA00013ABB9F1000F00D00020CDE9021007205C
:109EB000CDE900090493BDF83400228C401E83B222
:109EC000218B159800F011FD8DF81C000D203070CD
:109ED000BDF84C00401CADF8340005208DF838006A
:109EE000208BADF83C00BCE03888218B88427FF4A1
:109EF00052AF9DF81C004FF0120A00281CD1606A76
:109F0000A8B1B878C0073FF446AF00E018E0BA68DF
:109F10000720CDE902B2CDF804B00090CDF810B022
:109F2000FB88BA88159800F080FA8DF81C00132081
:109F300030700120ADF8340093E0000038000020BC
:109F40003988208B8142D2D19DF81C004FF0160A2F
:109F50000028A06B08D0E0B34FF6FF7000215F46E9
:109F6000ADF808B0019027E068B1B978C907BED153
:109F7000E18F0DAB0844821D03968DE80C024388E7
:109F80008288018809E0B878C007BCD0BA680DABF8
:109F900003968DE80C02BB88FA881598FFF7F0F954
:109FA00005005ED0072D72D076E0019005AA02A9C7
:109FB0002046FFF726F90146E28FBDF808008242ED
:109FC00001D00029F1D0E08FA16B084407800198EF
:109FD000E08746E09DF81C004FF0180A40B1208B46
:109FE000C8B13888208321461598FFF793F938E0E7
:109FF00004F118000090237E012221461598FFF7F6
:10A00000A1F98DF81C000028EDD119203070012035
:10A01000ADF83400E7E7052521461598FFF77AF9F2
:10A020003AE0208800F40070ADF8200050452DD1B2
:10A03000A08FA0F57F41FE3901D006252CE0D8F88D
:10A0400008004FF0160A48B1A063B8F80C10A187B9
:10A050004FF6FF71E187A0F800B002E04FF6FF7005
:10A06000A087BDF8200030F47F611AD07823002249
:10A070000120159905F0C8F898F800002071208893
:10A08000BDF82010084320800EE000E0072520885E
:10A09000BDF8201088432080208810F47F6F1CD0EA
:10A0A0003AE02188814321809DF8380020B10EA933
:10A0B0001598FBF7C0FD05469DF81C000028EBD065
:10A0C00086F801A001203070208B70809DF81C0064
:10A0D00030710520ADF83400DEE7A18EE1B11898AB
:10A0E0000DAB0088ADF834002398CDE90304CDE929
:10A0F0000139206B0090E36A179A1598FFF7FAF977
:10A10000054601208DF838000EA91598FBF793FD40
:10A1100000B10546A4F834B094F8460040070AD5CB
:10A120002046FFF79EF910F03E0F04D114F8460FB9
:10A1300020F0040020701898BDF8341001802846E3
:10A140009BE500B585B0012806D102208DF80000FE
:10A1500088B26946FBF76FFD05B000BD10B5384CFD
:10A160000B782268012B02D0022B2AD111E0137840
:10A170000BB1052B01D10423137023688A889A80C0
:10A180002268CB88D38022680B8913814989518149
:10A190000DE08B8893802268CB88D38022680B895E
:10A1A00013814B8953818B899381096911612168DE
:10A1B000FBF741FD226800210228117003D000281E
:10A1C00000D0812010BD832010BD806B002800D0FE
:10A1D000012070478178012909D10088B0F5205FFE
:10A1E00003D042F60101884201D1002070470720C8
:10A1F0007047F0B587B0002415460E460746ADF807
:10A20000184011E005980088288005980194811D68
:10A21000CDE9024107210494009183884288018896
:10A22000384600F002F930B905AA06A93046FEF713
:10A23000E8FF0028E6D00A2800D1002007B0F0BDD2
:10A240003800002010B58B7883B102789A4205D18E
:10A250000B885BB102E08B79091D4BB18B789A4278
:10A26000F9D1B0F801300C88A342F4D1002010BD20
:10A27000812010BD072826D012B1012A27D103E082
:10A28000497801F0070102E04978C1F3C2010529CC
:10A290001DD2DFE801F00318080C12000AB10320F8
:10A2A00070470220704704280DD250B10DE00528F8
:10A2B00009D2801E022808D303E0062803D0032811
:10A2C00003D005207047002070470F207047812081
:10A2D0007047C0B282060BD4000607D5F648807AD4
:10A2E0004143C01D01EBD00080B270470846704763
:10A2F0000020704770B513880B800B781C0625D59D
:10A30000ED4CA47A844204D843F010000870002079
:10A3100070BD956800F0070605EBD0052D78F54077
:10A3200065F304130B701378D17803F0030341EA4B
:10A33000032140F20123B1FBF3F503FB15119268F1
:10A34000E41D00FB012000EBD40070BD906870BDDF
:10A3500037B51446BDF804101180117841F004019E
:10A3600011709DF804100A061ED5D34AA368C1F3E4
:10A370000011927A824208D8FE2811D1D21DD2084B
:10A38000494218460EF0A4F90AE003EBD00200F0AF
:10A390000703012510789D40A84399400843107099
:10A3A000207820F0100020703EBD2DE9F0410746D6
:10A3B000C81C0E4620F00300B04202D08620BDE843
:10A3C000F081BD4D002034462E60AF802881AA72F6
:10A3D000E8801AE0E988491CE980810614D4E17814
:10A3E00000F0030041EA002040F20121B0FBF1F24D
:10A3F00001FB12012068FFF76CFF2989084480B235
:10A400002881381A3044A0600C3420784107E1D408
:10A410000020D4E7A84801220189C08800EB400051
:10A4200002EB8000084480B270472DE9FF4F89B0ED
:10A430001646DDE9168A0F46994623F4404508463C
:10A4400000F053FB040002D02078400703D4012021
:10A450000DB0BDE8F08F099802F0F6FD029020786B
:10A46000000606D59448817A0298814201D8872057
:10A47000EEE7224601A90298FFF73CFF8346002041
:10A480008DF80C004046B8F1070F1AD00122214682
:10A49000FFF7F0FE0028DBD12078400611D502201E
:10A4A0008DF80C00ADF81070BDF80400ADF8120086
:10A4B000ADF814601898ADF81650CDF81CA0ADF8A2
:10A4C00018005FEA094004D500252E46A84601275A
:10A4D0000CE02178E07801F0030140EA012040F22D
:10A4E0000121B0FBF1F2804601FB12875FEA49408F
:10A4F00009D5B84507D1A178207901F0030140EAD8
:10A500000120B04201D3BE4201D90720A0E7A8191B
:10A510001FFA80F9B94501D90D2099E79DF80C0083
:10A5200028B103A90998FBF784FB002890D1B8450E
:10A5300007D1A0784FEA192161F30100A07084F8D7
:10A5400004901A9800B105801998514650EA0A0003
:10A5500028D0199830B10BEB06002A4619990EF055
:10A5600097F80FE00BEB06082E460F46189D09984A
:10A5700002F0D3FEED1DA9B20091334642463946A2
:10A5800002F0D2FA224601A90298FFF7B3FE9DF825
:10A590000400224620F010008DF80400DDE90110CF
:10A5A000FFF7D6FE002053E72DE9FF4FDFF80891B3
:10A5B000824685B0B9F80610D9F8000001EB4101D8
:10A5C00000EB810440F20120B2FBF0F1174600FBE2
:10A5D0001175DDE9138B4E4629460698FFF779FE83
:10A5E0000346FFF717FF1844B1880C30884202D9A0
:10A5F000842009B02DE70698C6B2300603D5B00610
:10A6000001D50620F5E7B9F80620521C92B2A9F848
:10A610000620BBF1000F01D0ABF80020B00602D538
:10A62000C4F808800AE0B9F808201A4492B2A9F8E0
:10A630000820D9F80000891A0844A0602246FE20AC
:10A640000699FFF785FEE77025712078390A61F3D6
:10A6500001002A0AA17840F0040062F30101A17010
:10A6600020709AF802006071BAF80000E0800025BE
:10A670002573300602D599F80A7000E00127B0066C
:10A6800001D54FF000084E4600244FF007090FE0B7
:10A69000CDE902580195CDF800900495F188204647
:10A6A000129B089AFFF7C1FE0028A2D1641CE4B2F5
:10A6B000BC42EDD300209CE7B004002000B5FFF7BA
:10A6C000A9FEFE490C308A88904201D9842000BD41
:10A6D000CA88086802EB420300EB8300521C03782F
:10A6E00023F004030370CA8000210173084600BDF3
:10A6F0002DE9F047804600F0F8F9070005D0002664
:10A700004446EE4D40F2012916E00120BDE8F087F5
:10A71000204600F0EAF90278C17802F0030241EA2B
:10A720000222B2FBF9F309FB13210068FFF7D1FD08
:10A730003044641C86B2A4B2E988601E8142E7DC22
:10A74000A8F10100E8802889801B2881002038704A
:10A75000DCE710B5144631B1491E218002F074FCCB
:10A76000A070002010BD012010BD70B50446D34874
:10A77000C188036801E0401C20802088884207D2FD
:10A7800000EB400213EB820202D015786D07F2D580
:10A7900080B2884216D2AAB15079A072D0882081A6
:10A7A0009178107901F0030140EA0120A081A0789E
:10A7B000E11CFFF79FFD20612088401C2080E08085
:10A7C000002070BD0A2070BD0121018270472DE973
:10A7D000FF4F85B04FF6FF798246A3F80090486896
:10A7E0001E460D4680788DF80E0048680088ADF84A
:10A7F0000C0000208DF81200088A0C88A04200D3BB
:10A8000004462C824DE03878400708D4641C288A1E
:10A81000A4B2401C288208F10100C0B242E0288A9C
:10A82000401C2882781D6968FFF70CFDB8BB318891
:10A83000494501D1601E30803088A0EB080030808F
:10A840006888A04234D3B978387901F0030140EA2E
:10A85000012803A9781DFFF7F5FC00BB29894945AC
:10A860002AD0002239460798FFF704FDB8B9298994
:10A87000414514D1E8680290B8680190B5F80AB073
:10A88000504602F04AFD84460BF1070080B200906A
:10A89000DDE901214346604602F010F960B1641C15
:10A8A000A4B200208046204600F01FF90700AAD17C
:10A8B000641E2C820A209CE674807879B071F88836
:10A8C000B0803978F87801F0030140EA0120708106
:10A8D000A6F80C80504602F0B7FB3A4606F1080194
:10A8E000FFF708FD3061002083E62DE9FF4F87B0B8
:10A8F00080461C469146DDF860B0DDF854A008980B
:10A9000000F0F3F8050002D02878400702D40120B7
:10A910000BB09EE5404602F097FB2978090605D565
:10A920006649897A814201D88720F1E7C9F309068F
:10A930002A4601A9FFF7DEFC0746149807281CD019
:10A9400000222946FFF796FC0028E1D1287840062E
:10A9500013D501208DF808000898ADF80C00BDF85B
:10A960000400ADF80E00ADF81060ADF8124002A979
:10A970004046FBF75EF90028CAD12978E87801F053
:10A98000030140EA0121AA78287902F0030240EA93
:10A9900002204E4507D0B1F5007F04D9611E8142E7
:10A9A00001DD0B20B4E7864201D90720B0E7801B08
:10A9B00085B2A54200D92546BBF1000F01D0ABF806
:10A9C0000050179818B1B9192A460DF061FEBAF176
:10A9D000000F0ED03E442F4640465446169D02F0CE
:10A9E000AEFCED1DA9B200913B463246214602F075
:10A9F000CFF800208CE72DE9F04107461D461646AA
:10AA0000084600F072F8040002D02078400701D414
:10AA10000120D4E4384602F017FB2178090605D559
:10AA20002649897A814201D88720C8E422463146E6
:10AA3000FFF760FC65B12178E07801F0030140EA9E
:10AA40000120B0F5007F01D8012000E0002028702F
:10AA50000020B4E42DE9F04107461D46164608469D
:10AA600000F043F8040002D02078400701D4012010
:10AA7000A5E4384602F0E8FA2178090605D50F4921
:10AA8000897A814201D8872099E422463146FFF72E
:10AA90005FFCFF2D17D02178E07801F0030240EA37
:10AAA000022040F20122B0FBF2F302FB130015B9C1
:10AAB00000F2012080B2E070000A01E0B004002042
:10AAC00060F301012170002079E410B50C4600F01C
:10AAD0000CF810B10178490701D4012010BDC188DC
:10AAE00021804079A070002010BD0849CA888242A8
:10AAF00009D340B1096800EB40006FF00B0202EB94
:10AB0000800008447047002070470000B004002017
:10AB100010B504F08CFDF8F76FF804F029FCBDE8DF
:10AB2000104004F0BBBC0E4A202801D24FF0A042D6
:10AB3000012300F01F00834011B1C2F80C357047AB
:10AB4000C2F8083570470649202801D24FF0A041CD
:10AB500000F01F0001228240C1F818257047000054
:10AB60000003005070B50346002002466FF02F0529
:10AB70000EE09C5CA4F130060A2E02D34FF0FF30A9
:10AB800070BD00EB800005EB4000521C2044D2B2A7
:10AB90008A42EED370BD30B50A230BE0B0FBF3F46C
:10ABA00003FB1404B0FBF3F08D183034521E05F88B
:10ABB000014CD2B2002AF1D130BD30B500234FF69E
:10ABC000FF7510E0040A44EA002084B2C85C6040CB
:10ABD000C0F30314604005EA00344440E0B25B1C5B
:10ABE00084EA40109BB29342ECD330BD70B514465A
:10ABF0000B880122A240134207D113430B8001238B
:10AC00000922011D02F0F2F8047070BD2DE9F84F21
:10AC10008946DDE90A7B09789A469046490726D499
:10AC200002F08DFB040000D1FFDF3E1D2046B1B2D3
:10AC300001F0E0FC050000D1FFDF204629466A460E
:10AC400001F02CFF0098B6B2A0F80370A0F805A0A0
:10AC5000284601F0D1FF017868F306016BF3C711B4
:10AC600001702046314601F008FD00B9FFDF09EB15
:10AC70000801087E401C0876BDE8F88F2DE9F84FE2
:10AC80000E46984692460746032102F013FA044600
:10AC9000808CDFF8E094002518B199F80000B042EC
:10ACA00024D1384602F04BFB070000D1FFDF0AF148
:10ACB0000401384689B201F09DFC050016D03846E3
:10ACC00029466A4601F0EAFE0098002120F8021B9E
:10ACD00000F8011BC8F800000221009807F09BF95A
:10ACE000D8F80000001DC8F8000021E099F8000025
:10ACF000B04216D104F1220734F8301F012000FAC7
:10AD000006F811EA080F00D0FFDF2088012340EA8F
:10AD1000080020800922391D384602F082F80670AA
:10AD200006E0324604F1300104F12200FFF75EFF35
:10AD3000092189F8001028469EE7FEB514460D4605
:10AD40000622064602AB1146FFF798FF002812D0F4
:10AD5000029B132000211870A87858700220588098
:10AD60009C800620CDE90001024605232946304695
:10AD7000FFF74CFF0120FEBD10B50446032102F091
:10AD800099F90146028A2046BDE81040D5E72DE931
:10AD9000FE43814650781646884640B1FFDF316851
:10ADA000C8F804107168C8F80810BDE8FE83B778C9
:10ADB000022417B1022F13D0FFDF251D2A4602AB54
:10ADC00007214846FFF75AFF0028E8D002980121E2
:10ADD000022F0170317841704480878002D005E0F5
:10ADE0000624EAE7B188C180F18801810024CDE919
:10ADF00000540523072241464846FFF707FF88F81D
:10AE00000440D2E710B50446032102F053F901468D
:10AE1000021D2046BDE81040B9E7D64A00200921AE
:10AE20001170704770B50C4615463422002120463B
:10AE30000DF04EFC012060700922002104F1180081
:10AE40000DF046FC05B9FFDF2978207861F3010099
:10AE5000207070BD70470020704700B5FFDF0020F4
:10AE600000BD2DE9FC410C461E46174680460321D5
:10AE700002F020F90546092C0AD2DFE804F00505A6
:10AE80000505050509090700042303E0062301E081
:10AE9000FFDF0023CDE90076224629464046FFF732
:10AEA000B5FEBDE8FC8138B50546A0F57F40FF380A
:10AEB0001CD0284602F031FA040000D1FFDF204602
:10AEC00001F0C9FD002810D001466A46204601F075
:10AED000E5FD00980321B0F80540284602F0EAF8A5
:10AEE000052C03D1007908B1002038BD012038BD00
:10AEF000F8B50446408802F010FA050000D1FFDFE3
:10AF00006A462846616800F0E3F801460098091F88
:10AF10008BB230F8032F0280428842800188994228
:10AF20000CD1042A0BD0052A19D0062A06D1636851
:10AF300064880A46011D2046F8F72DFCF8BD001D67
:10AF40000E460546014622463046FAF772F90828B1
:10AF5000F4D1224629463046FBF7D7F9F8BD224600
:10AF6000001D00F0C5F8F8BD70B50D46064603217A
:10AF700002F0A0F8040004D02078000704D40820D0
:10AF800070BD43F2020070BD2A4621463046FFF7ED
:10AF9000D4FE00B92582207820F00800207000201F
:10AFA00070BD2DE9F04F0E4691B08046032102F0AE
:10AFB00081F80446404602F0C2F907460020079097
:10AFC00008900990ADF830000A9002900390049028
:10AFD00004B9FFDF0DF10809FFB9FFDF1DE03846B6
:10AFE0000BA9002201F0FAFB9DF82C0000F07F0570
:10AFF000092D00D3FFDF6019017E491E01769DF8FF
:10B000002C00000609D52A460CA907A8FFF7EEFD7B
:10B0100019F80510491C09F80510761EF6B2DED2A3
:10B0200004F13000534D04F1220BDFF84CA104F180
:10B030002607069010E05846069900F04BF80646A1
:10B040002870092800D3FFDF5AF8261040468847A9
:10B05000608CC05DB04202D0A08C0028EBD10920EA
:10B060002870454D4E4624350EE00CA907A800F087
:10B0700031F80446375D55F8240000B9FFDF55F874
:10B080002420394640469047BDF81E000028ECD1E8
:10B0900011B0BDE8F08F10B5032102F00BF80400E9
:10B0A00000D1FFDF0922002104F118000DF010FB90
:10B0B000207840F00400207010BD10B50C4603212C
:10B0C00001F0F8FF2044007E002800D0012010BDD0
:10B0D00001F0E4BC10B50C4601230922011D01F06A
:10B0E000BBFE00782188012282409143218010BD5F
:10B0F00070B50E46044686B015465088032101F00F
:10B10000D9FF014600208DF80000042E09D3627893
:10B11000002A06D02278012A03D0122A03D0132A4B
:10B1200003D106B070BD0C2E09D003900490607856
:10B130008DF80C00688803AAFFF729FEF1E708786C
:10B14000012240F008000870607888708DF80020B7
:10B15000A088ADF80200E088ADF804002089ADF8C1
:10B1600006006089ADF8080068882A466946F6F747
:10B170009AFED6E74000002098B001002DE9FC4778
:10B180000C460646694600F021F900286DD14FF0C3
:10B19000010A07F010F8B04267D0214630460AF0A5
:10B1A000EDF800285ED1019D95F8E000483518B90A
:10B1B000287F08B1012000E00020814695F83F007B
:10B1C0004FF00008B8B195F84000800713D584F817
:10B1D000018084F800A084F80480A4F8056095F844
:10B1E0004110E171B5F842102181B5F84410618138
:10B1F00085F83F8036E0304602F0A1F8070000D124
:10B20000FFDF384601F0C4FA40B184F801800F2115
:10B210002170E680208184F804A023E0304602F00B
:10B220007CF8070000D1FFDFB9F1000F1DD03846D0
:10B2300001F005FBC8B10198D0F8F0004188B14297
:10B2400001D180F80080304605F069F984F801806A
:10B250000C21217084F80480A4F80560697FE171F5
:10B2600085F81C800120BDE8FC870020FBE770B555
:10B27000044606F079FFB0B12078172811D1207963
:10B2800001280ED1E088062101F014FF040008D047
:10B29000208805F044F92088062101F01DFF00B147
:10B2A000FFDF012070BD4F4D28780028FAD000261E
:10B2B00066701420207020223146201D0DF008FAFF
:10B2C000022020712E70ECE72DE9FC4104460F4668
:10B2D000062001F09BFE00260546B046074417E015
:10B2E0002088401C80B22080B84202D34046A4F897
:10B2F000008080B2A84204D3B84202D20020BDE848
:10B30000FC81694600F062F80028F8D0761CF6B29D
:10B31000B742E5D84FF6FF7020801220EFE72DE905
:10B32000FF47060000D1FFDF2E4802211030814682
:10B33000FFF7CAFF00B1FFDF2A4D06202F8A01F078
:10B3400065FE04464FF00008288AA04203D130462B
:10B35000FFF78DFF02E03146FFF710FF18B3A87D1D
:10B36000C0071CD130781B2819D1B088ADF8000077
:10B3700002A900F02BF800B1FFDF039810F8381F86
:10B380008DF8021040788DF80300ADF8048002219A
:10B39000684600F032F80028D6D0FFDFD4E701205D
:10B3A00004B0BDE8F08702214846FFF78DFF10B9D1
:10B3B000288AB842C8D1304605F02AFC0028EED1D0
:10B3C00030460AF00AFC0028E9D1E9E710B50C463E
:10B3D000062101F06FFE606010B10020207010BDEA
:10B3E000022010BDBC0400200846FB49097B11B1B6
:10B3F000416808F0AFBB012070472DE9F04385B0EC
:10B40000884604460088694600F0FBFE00282CD1DF
:10B410000198012690F80C5190F8551048301E29DB
:10B4200000D13DB1002746300821814600F061FE81
:10B4300010B107E00127F6E70B21484600F059FE5E
:10B4400000B98FB103AB02AA2146684600F0F9FEAD
:10B4500007000AD19DF80000019948B101F5BC74BC
:10B46000667000264DB906E01A2005B0BDE8F083ED
:10B4700001F1FC04F4E7207808B13A2711E00496C2
:10B4800084F800809DF80800A0709DF80C20E27000
:10B490008DF810008DF811209DF8000004AA06F028
:10B4A000E9FB66703846E0E770B505F0A9F805F0ED
:10B4B000DEFEC94C4FF6FF760025E6812682C7A046
:10B4C0002570C849C74B026800790E3B01F8015B43
:10B4D000C3F80F20D874C3480AF07AF805F04BF986
:10B4E000A07405F048F9E07403206070A0701B2080
:10B4F000A4F80300A4F8050040F6A660A060BA48CE
:10B5000005704680B748801F0570B7483030057019
:10B510004680A575257370BD70B5B24C15460E3CBE
:10B520006060217004F0FAFF00F077FEFFF7BCFFC7
:10B530000AF0C6F9207808F024FAAB48283806F05B
:10B540007EFF2178606809F0B9FF207805F022F9C4
:10B55000294620780AF0F1FABDE8704005F087BE70
:10B5600010B500F0EDFD08B10C2010BD05F0BAFEDD
:10B57000002010BD10B50446007818B1012801D094
:10B58000122010BD00F0D1FD20B105F057FF08B129
:10B590000C2010BD207800F0A5FDE21D04F117037A
:10B5A000611CBDE8104005F0F5BE10B5044600F082
:10B5B000C7FD08B10C2010BD207818B1012801D0BA
:10B5C000122010BD00F08EFD611C05F065FE08B173
:10B5D000002010BD072010BD10B5008805F032FF17
:10B5E00008B1002010BD302010BD10B5044600F099
:10B5F0009CFD08B10C2010BD207800F0010005F082
:10B6000019FF002010BD10B500F08FFD20B105F02E
:10B6100015FF08B10C2010BD05F0FEFE002010BD86
:10B620000B218170EA21A0F803106E490E39496898
:10B630000A7842718A88C28049880181012141705B
:10B64000002070471CB5002412F1080F15D00CDC47
:10B6500012F1280F11D012F1140F0ED012F1100FA9
:10B660000BD012F10C0F0CD107E012F1040F04D033
:10B670001AB1032A01D0042A03D1012804D00228D8
:10B6800006D0122420461CBD104606F0A3FEF9E7A2
:10B6900008461446694600F0B4FD08B10224F1E7FB
:10B6A000019880F83F400024ECE710B513460122D2
:10B6B00006F0B0F9002010BD10B5044608F0A3FB59
:10B6C000052804D0204608F0A2FB002010BD0C2065
:10B6D00010BD10B50446002000F03DFD28B1214604
:10B6E000002004F08EFF002010BD0C2010BD10B50E
:10B6F000044608F09BF920B1207807F041F80020BB
:10B7000010BD0C2010BD10B50446012000F023FD33
:10B7100028B12146012004F074FF002010BD0C2048
:10B7200010BD38B504464FF6FF70ADF80000A079A3
:10B73000E179884206D0112904D2112802D2207A58
:10B74000072801D9122038BD08F05DFB48B9002157
:10B750006846FFF7B9FD20B1204603F0B0FF002096
:10B7600038BD0C2038BD2DE9FC41817804461A29EA
:10B7700025D00EDC162939D2DFE801F03838383808
:10B780003821383838383838383838383838382167
:10B7900021212A292AD00BDCA1F11E010C2925D256
:10B7A000DFE801F024242424242424242424240D48
:10B7B0003A3904291AD2DFE801F019021902208867
:10B7C000B0F5706F12D20127694600F01AFD78B10A
:10B7D0000220BDE8FC810000BC040020FFFFFFFF49
:10B7E0001F00000052000020FC0400201220F0E79F
:10B7F000019D68462E46EC35ED3600F000FD08B19F
:10B80000287808B10C20E4E72F70A0783070002071
:10B81000DFE77CB50C4605460088694600F0F1FC80
:10B82000002220B162602272628002207CBD0199F8
:10B830000846483181F84820C3686360037C23725E
:10B840002B88638091F84830002BF3D100207CBD19
:10B8500010B5044600F069FC20B105F0EFFD08B119
:10B860000C2010BD207800F03DFCE279611C05F051
:10B87000F9FE08B1002010BD022010BD10B504462D
:10B88000808828B1012803D0022801D0122010BDE1
:10B89000E07800F036FD40B1A07800F032FD20B134
:10B8A0002046BDE810400121A7E5112010BD1CB5C0
:10B8B0000C46694600F0A5FC002804D10198B0F8B8
:10B8C0004800208000201CBD1CB504468078032859
:10B8D00005D0012817D0022815D012201CBD2088C1
:10B8E000694600F08EFC08B102201CBD606828B1DA
:10B8F000DDE90001224600F01EFD1CBDDDE900016E
:10B9000000F00AFD1CBD204600F050FD1CBD10B526
:10B9100086B0044600F09EFD002803D100F005FC2F
:10B9200010B10C2006B010BD022104F1100000F08F
:10B93000DAFDA0788DF80800A0788DF80000607816
:10B940008DF8030020788DF80200207E8DF8040029
:10B95000A078C0070AD0E078012810D088B1002074
:10B960008DF80100A06803902069049002A808F0F7
:10B9700069F80028D6D1684606F007FFD2E7022012
:10B98000EEE70120ECE70278012A01D0BAB118E015
:10B9900042783AB1012A05D0022A12D189B18188B0
:10B9A00079B100E059B1418849B1808838B101EBE3
:10B9B0008101490000EB8000B1EB002F01D2002093
:10B9C00070471220704710B504460078012809D04E
:10B9D00008F019FA052803D007F096FF002800D0D8
:10B9E0000C2010BD06F0E7FD38B106F0F9FDA18886
:10B9F0006088BDE8104008F03AB8122010BD10B5BC
:10BA000004460121FFF7BFFF002803D12046BDE80F
:10BA10001040D8E710BD2DE9F0411D461046DDE984
:10BA200006478B1F40F67A42089E93421CD8831F1C
:10BA3000934219D8814217D8B5F5FA7F14D2A4F1F0
:10BA40000A01121F91420FD806F07FF96D1C68435E
:10BA500040F2712140004C43B0EB041F04D2B742C6
:10BA600002D80120BDE8F0810020FBE72DE9FE436C
:10BA7000457A044668076CD0E8086AD1022D68D080
:10BA800004F079FE25EA0000400702D194F848004E
:10BA900010B11120BDE8FE83012D5AD1FF270121ED
:10BAA000A06900F0B2FCE8B3A84600263546BD42C6
:10BAB0002FD004EB85018869C968884249D80644BB
:10BAC00004EB45008146C18EB0F84230828F8DE88C
:10BAD0000E00038E428D818C0020FFF79CFF08B37F
:10BAE000BDB1B9F82410B9F82200814231D1B9F8BA
:10BAF0002A10B9F8280081422BD1B9F83010B9F8D2
:10BB00002E00814225D1B9F83610B9F834008142AF
:10BB10001FD16D1CEDB24545C9D3E068B04218D3C2
:10BB2000207800E003E020B1012812D104E03020A9
:10BB3000B0E7A0780028F7D1607828B1012803D0B9
:10BB4000022801D0032804D194F84C0008B107283A
:10BB500001D912209EE700209CE70178C90702D096
:10BB6000406809F0F9BF09F0C2BF10B505F068F8E8
:10BB7000002010BD2DE9F0438DB00546AFF2A43191
:10BB8000D1E90086407A810702D540F00100687251
:10BB90002846FFF76BFF00280CD100F0C6FA40B929
:10BBA000FE4F387828B906F006FBA0F57F41FF3933
:10BBB00002D00C200DB059E4032105F1180000F06B
:10BBC00092FCF7480890F7480990F54808AA3030E9
:10BBD0000A9006210BA801F03FFA04003FD0002193
:10BBE00005F072FEB9780091B9467B78B7F8052068
:10BBF000B7F80310208801F019FB00B1FFDF21889E
:10BC000004F1120000F0B3FAE7A004F1160700688F
:10BC10000590032105A803F0C4F9002005A90A5CDA
:10BC20003A54401CC0B20328F9D3688D06F08DF851
:10BC30006060288E2081E88E6081687A00F06BFA5F
:10BC40000746D9F808102046E16207F080FF3B461E
:10BC50001A462046616807F07DFF10B106E0092012
:10BC6000A8E799F80C0008B109267AE084F83C703E
:10BC700084F83D70204607F0A7FAC84A21461232E0
:10BC8000002005F0F7FF002784F84E7084F84F700D
:10BC9000C4F80C8026744FF0010884F8F8808DF801
:10BCA00000704146684603F07CF99DF8000000F002
:10BCB0000701C0F3C1021144C0F3401008448DF8DD
:10BCC0000000401D84F82000092802D2083084F8C2
:10BCD00020000121204605F0F7FD687806F076FC8B
:10BCE000A9782878EA1C06F045FC48B106F078FCF3
:10BCF000A9782878EA1C06F0BDFC060002D030E0E6
:10BD000012262EE0A87800F0EDF90246EB1C214641
:10BD1000032006F0D7FC060023D101231A46214652
:10BD2000FFF762FB06F0E1FC06001AD18DF80870FF
:10BD3000687AC00705D0E8680390A86904908DF878
:10BD4000088002A807F07EFE064695F84C0006F033
:10BD50000CFC36B9B5F84A10204607F02EFE060056
:10BD600008D0208804F0DBFB2088062101F0B4F91C
:10BD700000B1FFDF30461DE738B58848007878B954
:10BD800008F041F8052805D006F015FAA0F57F4126
:10BD9000FF3905D0684607F09AFE040002D00CE097
:10BDA0000C2038BD0098008804F0B9FB00980621EB
:10BDB000008801F091F900B1FFDF204638BD10B5D1
:10BDC00004460020228886B0A2F57F41FF3907D0C3
:10BDD00003A9104600F015FA08B10220A2E5049864
:10BDE0002189A38962898DE80E00E388A288618891
:10BDF000FFF711FE08B1002094E5302092E570B500
:10BE00000546FFF7DCFF00280ED12888062101F047
:10BE100051F9040007D000F0E6F920B1D4F8F000A1
:10BE2000007830B901E0022070BDD4F82801007814
:10BE300008B13A2070BDA88805F087FF0646014684
:10BE4000052005F086FF54F8F01FC8802168002007
:10BE500088602068C6602168E8880882216828898F
:10BE600048823146082005F074FF54F8F019024664
:10BE7000C888824201D3B04201D3122070BD288805
:10BE80004880D4F8F01002200870002070BD3EB544
:10BE9000044605F08DFDB8B142480125801DA0F192
:10BEA0000E0205702368C2F80F3023790021D37485
:10BEB00001706946062001F08AF800B1FFDF68468C
:10BEC00001F063F810B10EE012203EBDBDF8044051
:10BED000029880F8F850684601F057F818B9BDF894
:10BEE0000400A042F4D100203EBD70B50546008894
:10BEF000062101F0DFF8040007D000F074F920B14A
:10BF0000D4F8F000007830B901E0022070BDD4F818
:10BF10002801007808B13A2070BD002104F18E009C
:10BF200000F0E7F8012801D01A2070BD54F8F00F96
:10BF3000D5F8021010224160D5F806108160206803
:10BF400069898181206805F10C010E300CF0A0FB9D
:10BF5000216803200870216828884880002070BD6F
:10BF60000078C10801D0122070470C498875002064
:10BF700070472DE9FC41054641884BF6803212207E
:10BF800091421DD800291BD02888694600F039F954
:10BF9000002815D1019E341D483607E0BC0400205E
:10BFA000FC0400204C0000201122330027686A881E
:10BFB0003946304605F045FC2068B842EDD10020F6
:10BFC00007E41CB504460088694600F01AF9002809
:10BFD00008D10199A378084691F8242048319A4263
:10BFE00001D10C201CBD7F220A728A720022CA7203
:10BFF000E17880F82510217980F82610A17880F862
:10C00000241010461CBD1CB50C46694600F0F9F81A
:10C01000002804D1019890F86400207000201CBD15
:10C020007CB50D461446694600F0EBF8002805D1B2
:10C03000019890F82400012801D00C207CBD0198C3
:10C0400090F85010297090F85100207000207CBDAD
:10C05000017879B1417869B141881B290AD3818877
:10C060001B2907D3F749026841F8012F808888808F
:10C070000020704712207047006840F2E241884279
:10C0800003D3F0498860002070471220704710B534
:10C09000007800F0010007F056FD002010BD10B53B
:10C0A000044600F042F808B10C2010BD601C05F0F9
:10C0B000C1FA207800F0010006F08DFA002010BDD2
:10C0C00010B5006803F024FB002010BDDD490873A3
:10C0D0000020704710B5082004F03CFBBDE810407C
:10C0E00009F07ABA18B1022801D001207047002067
:10C0F000704700EBD10001F00701007801228A406F
:10C100001040C840704700B5012803D0022801D074
:10C11000FFDFFEE700BDC10701D0012070478007A7
:10C1200001D5022070470020704710B507F06BFE64
:10C13000042803D0052801D0002010BD012010BD27
:10C1400010B5FFF7F2FF20B106F0D5FA08B10120D3
:10C1500010BD002010BD10B5FFF7E7FF28B106F0B5
:10C16000E6FA012801D0002010BD012010BD2DE904
:10C17000FE4300250F4680460A260421404602F071
:10C1800037FF404605F0F2FB062000F03FFF044673
:10C1900015E06946062000F01AFF0AE0BDF8040029
:10C1A000B84206D002980422414612300CF05FFAE1
:10C1B00050B1684600F0E9FE0500EFD0641E002C87
:10C1C00006DD002DE5D005E0404605F0D9FBF5E79A
:10C1D00005B9FFDFD8F8000005F040FB761E01D05E
:10C1E0000028CAD056E490F8E01090F8640020B916
:10C1F00019B1042901D00120704700207047406820
:10C20000F1E710B50C46062100F054FF606010B154
:10C210000020207010BD022010BD08B54FF6FF7041
:10C22000ADF8000006E00621BDF8000000F054FF64
:10C2300000B1FFDF00216846FFF746F80028F2D082
:10C2400008BD2DE9F05F8C78984691460E4607466A
:10C2500014B904F090FA0446F578E5BB04F08BFAC3
:10C26000054649E02046FFF756FF83462846FFF77C
:10C2700052FF8246387853465A467968FFF7B4F839
:10C2800040B14CB345B389F8004088F80050002015
:10C29000BDE8F09FB078F8B9F078E8B9BAF1000FCE
:10C2A00003D0BBF1000F01D11BE0FFDFBBF1040F96
:10C2B00019D000BFBAF1040F15D0BBF1080F12D08E
:10C2C000BAF1080F0FD058465146D3450FD908464A
:10C2D000FFF719FF01E00FE011E000F016F98543C8
:10C2E0000AE0FFDFE6E758465146D345EFD3FFF7B4
:10C2F0000AFF00F00AF984430CB1002DB2D10920E5
:10C30000C6E710B5040005D004F035FA844301D027
:10C31000002010BD012010BD086C50B1002241F872
:10C32000402F0120CA71897988404749086010462A
:10C3300070470C207047F8B5054650890C4628B167
:10C34000B0F5004F02D2D078112801D31220F8BDE9
:10C35000216C04F1480629B194F84610884201D0B6
:10C360000C20F8BD012184F84710D17884F84610DC
:10C37000516821645189A4F8441010897085002106
:10C3800084F8471010886946FFF791FA0028E8D131
:10C39000708DBDF80010081A00B2002804DD214697
:10C3A0002846FFF7B9FFDBE70020F8BD10B50446CB
:10C3B0008078012803D107F026FD042806D1A07853
:10C3C000022805D107F01FFD052801D00C2010BD63
:10C3D000208968B9608958B9606830B1E17811295D
:10C3E00006D2BDE8104006F0EBB9E078112801D381
:10C3F000122010BD06F0F5F90028FAD1E1780120ED
:10C40000884011490860002010BD104A90420BD8A6
:10C41000012902D0042903D008E040F2537101E061
:10C4200040F6C411884201D20020704701207047B5
:10C430000749A0F6C410884201D3002070470120AC
:10C4400070470000BC04002008F501408FFD700219
:10C45000CCF3700270B5044600780025012804D0A2
:10C4600018B1022801D0032839D1607828B10128F9
:10C4700003D0022801D0032831D1607E48B9A078CA
:10C4800001282CD104F077F90146A07830EA0101A7
:10C4900001D0112070BDC00706D0E07801232269C9
:10C4A000A16800F03AF80546A078800706D5E07844
:10C4B00002232269A16800F030F80543A078400704
:10C4C00006D5E07804232269A16800F026F8054328
:10C4D0000DB1284670BD207E08B1072801D9122071
:10C4E00070BD002070BD30B50022164D0AE000BFBF
:10C4F00050F822402B469C4200D8234640F8223078
:10C50000521CD2B28A42F3D330BD00B5012803D009
:10C51000022801D0FFDFFEE700BD10B50C4618B1C0
:10C52000012801D0122010BD19461046FFF76DFFFB
:10C5300028B12046FFF77CFF08B1002010BD302055
:10C5400010BD00000024F40030B5048824F4004538
:10C5500029448DB24FF4004195420AD2521B92B247
:10C560001B339A4201D2A14307E004F4004129435E
:10C5700003E0AA1A92B2A1431143018030BD0844DE
:10C58000083050434A31084480B2704770B51D46A8
:10C5900016460B46044629463046049AFFF7EFFF3D
:10C5A0000646B34200D2FFDF2822002120460CF0CD
:10C5B0008FF84FF6FF70A082283EB0B2657760809A
:10C5C000B0F5004F00D9FFDF618805F13C008142E2
:10C5D00000D2FFDF60880835401B343880B22080ED
:10C5E0001B2800D21B2020800020A07770BD816115
:10C5F000886170472DE9F05F0D46C188044600F15F
:10C600002809008921F4004620F4004800F065FB69
:10C6100010B10020BDE8F09F4FF0000A4FF0010B71
:10C62000B0450CD9617FA8EB0600401A0838854256
:10C6300019DC09EB06000021058041801AE06088C2
:10C64000617F801B471A083F0DD41B2F00DAFFDFE4
:10C65000BD4201DC294600E0B9B2681A0204120C9E
:10C6600004D0424502DD84F817A0D2E709EB0600AA
:10C670000180428084F817B0CCE770B5044600F121
:10C680002802C088E37D20F400402BB110440288CA
:10C69000438813448B4201D2002070BD00258A429A
:10C6A00002D30180458008E0891A0904090C418001
:10C6B00003D0A01D00F021FB08E0637F0088083351
:10C6C000184481B26288A01DFFF73EFFE575012086
:10C6D00070BD70B5034600F12804C588808820F439
:10C6E00000462644A84202D10020188270BD9889D5
:10C6F0003588A84206D3401B75882D1A2044ADB258
:10C70000C01E05E02C1AA5B25C7F20443044401DB9
:10C710000C88AC4200D90D809C8924B1002414708F
:10C720000988198270BD0124F9E770B5044600F14B
:10C730002801808820F400404518208A002826D04F
:10C74000A189084480B2A08129886A881144814265
:10C7500000D2FFDF2888698800260844A189884222
:10C7600013D1A06908B1807F2871698819B1201D93
:10C7700000F0C3FA08E0637F28880833184481B2C8
:10C780006288201DFFF7E0FEA6812682012070BD91
:10C790002DE9F04141898788044600F128050026EB
:10C7A000B94218D004F10A0821F400402844418815
:10C7B00019B1404600F0A1FA08E0637F0088083311
:10C7C000184481B262884046FFF7BEFE761C61893C
:10C7D000B6B2B942E8D13046BDE8F0812DE9F0416A
:10C7E00004460B462789B4F80A80A688283027F427
:10C7F000004101440D46B74201D10020ECE70AB1E7
:10C80000481D106023B1627F691D18460BF040FF80
:10C810002E88698804F1080021B18A1996B200F0C7
:10C820006CFA06E0637F62880833991989B2FFF7D2
:10C830008BFE474501D1208960813046CCE7818855
:10C84000C088884201D1012070470020704781884C
:10C850000089884201D1012070470020704770B5DF
:10C86000C388858800F1280425F4004223F40041A0
:10C8700014449D421CD08389058A5E1925886388EB
:10C88000EC18A64212D313B18B420FD310E0437FB2
:10C8900008325C192244408892B2801A80B2233355
:10C8A000984201D211B903E08A4201D0012070BD43
:10C8B000002070BD2DE9F0478846C18804460089F4
:10C8C00021F4004604F1280720F4004507EB06098F
:10C8D00000F003FA002178BBB54204D9627FA81B9F
:10C8E000801A002503E06088627F801B801A083868
:10C8F00023D4E28962B1B9F80020B9F802303BB123
:10C90000E81A2177404518DBE0893844801A09E0AD
:10C91000801A217740450ADB607FE1890830304486
:10C9200039440844C01EA4F81280BDE8F08745458C
:10C9300003DB01202077E7E7FFE761820020F4E7CF
:10C940002DE9F74F044600F12805C088884620F4F9
:10C95000004A608A05EB0A0608B1404502D2002071
:10C96000BDE8FE8FE08978B13788B6F8029007EB12
:10C970000901884200D0FFDF207F4FF0000B50EA12
:10C98000090106D088B33BE00027A07FB94630718B
:10C99000F2E7E18959B1607F2944083050440844E6
:10C9A000B4F81F1020F8031D94F821108170E2895B
:10C9B00007EB080002EB0801E1813080A6F802B025
:10C9C00002985F4650B1637F30880833184481B2C3
:10C9D0006288A01DFFF7B8FDE78121E0607FE18953
:10C9E00008305044294408442DE0FFE7E089B4F8BA
:10C9F0001F102844C01B20F8031D94F821108170DB
:10CA000009EB0800E28981B202EB0800E08137807F
:10CA100071800298A0B1A01D00F06FF9A4F80EB0CB
:10CA2000A07F401CA077A07D08B1E088A08284F898
:10CA300016B000BFA4F812B084F817B001208FE739
:10CA4000E0892844C01B30F8031DA4F81F1080782B
:10CA500084F82100EEE730B5C488818800F128020F
:10CA600021F4004313448288858AAA4212D0A1424D
:10CA700010D0818971B9826972B11046FFF7E7FE63
:10CA800050B91089283220F40040104419790079F7
:10CA9000884201D1002030BD184630BD00F1280386
:10CAA000407F08300844C01E1060088808B9DB1EAB
:10CAB000136008884988084480B270472DE9F04126
:10CAC00000F12806407F1C4608309046431808882D
:10CAD0004D88069ADB1EA0B1C01C80B2904214D9CA
:10CAE000801AA04200DB204687B298183A46414699
:10CAF0000BF0BDFD002816D1E01B84B2B844002025
:10CB000005E0ED1CADB2F61EE8E7101A80B201197F
:10CB1000A94206D8304422464146BDE8F0410BF018
:10CB2000A6BD4FF0FF3057E62DE9F04100F1280493
:10CB3000407F1E46083090464318002508884F88DD
:10CB4000069ADB1E90B1C01C80B2904212D9801AA6
:10CB5000B04200DB304685B299182A4640460BF0B9
:10CB600097FD701B86B2A844002005E0FF1CBFB2F1
:10CB7000E41EEAE7101A80B28119B94206D82118DA
:10CB8000324640460BF084FDA81985B2284623E6BC
:10CB90002DE9F04100F12804407F1E460830904600
:10CBA0004318002508884F88069ADB1E90B1C01CE8
:10CBB00080B2904212D9801AB04200DB304685B272
:10CBC00098182A4641460BF063FD701B86B2A844B4
:10CBD000002005E0FF1CBFB2E41EEAE7101A80B295
:10CBE0008119B94206D82044324641460BF050FD27
:10CBF000A81985B22846EFE5401D704710B5C388D7
:10CC00008288044600F1280122F4004008449A4238
:10CC100007D0A18929B9218A19B9A188A28A91428C
:10CC200001D1002010BD0288418831B1201D00F0E3
:10CC300064F800202082012010BD637F083398181B
:10CC400081B26288201DFFF77FFCF2E70021C181DD
:10CC500001774182C1758175704703881380C2894D
:10CC600042B1C28822F4004300F128021A440A604B
:10CC7000C08970470020704710B50446808AA0F52F
:10CC80007F41FF3900D0FFDFE088A082E08900B15A
:10CC90000120A07510BD4FF6FF71818200218175C2
:10CCA000704710B50446808AA0F57F41FF3900D156
:10CCB000FFDFA07D28B9A088A18A814201D1002090
:10CCC00010BD012010BD8188828A914201D1807DF2
:10CCD00008B1002070470120704720F4004221F481
:10CCE00000439A4207D100F4004001F40041884219
:10CCF00001D0012070470020704770B505880646B6
:10CD00000C4625F40040A04200D2FFDF4FF4004063
:10CD1000A8432043308070BD70B50C00054609D093
:10CD2000082C00D2FFDF1DB1A1B2286800F044F842
:10CD3000201D70BD0DB100202860002070BD0021B5
:10CD4000026803E093881268194489B2002AF9D175
:10CD500000F032B870B500260D460446082900D20E
:10CD6000FFDF206808B91EE0044620688188A942D8
:10CD700002D001680029F7D181880646A94201D175
:10CD800000680DE005F1080293B20022994209D330
:10CD90002844491B02608180216809682160016084
:10CDA000206000E00026304670BD00230B608A80C2
:10CDB00002680A600160704700234360021D018120
:10CDC00002607047F0B50F460188408815460C1880
:10CDD0001E46AC4200D3641B3044A84200D9FFDF9A
:10CDE000A019A84200D9FFDF3819F0BD2DE9F041A4
:10CDF000884606460188408815460C181F46AC42F6
:10CE000000D3641B3844A84200D9FFDFE019A842D0
:10CE100000D9FFDF70883844708008EB0400BDE85B
:10CE2000F0812DE9F041054600881E461746841B17
:10CE30008846BC4200D33C442C8068883044B842C9
:10CE400000D9FFDFA019B84200D9FFDF688830445D
:10CE5000688008EB0400E2E72DE9F04106881D46F2
:10CE60000446701980B2174688462080B84201D324
:10CE7000C01B20806088A84200D2FFDF7019B84232
:10CE800000D9FFDF6088401B608008EB0600C6E722
:10CE90002DE9F041C44D04469046A8780E46A042C4
:10CEA00000D8FFDF05EB8607786A50F8240000B150
:10CEB000FFDFB868002816D0304600F03CF9014684
:10CEC000B868FFF747FF05000CD0786A072E40F8D6
:10CED000245000D3FFDFB5484246294650F826309B
:10CEE000204698472846BDE8F0812DE9F8431F46C3
:10CEF000CC19904689460546FF2C00D9FFDFB8457E
:10CF000000D9FFDFE4B200952DB30026E81C20F025
:10CF10000300A84200D0FFDF4146DFF88C8268465C
:10CF200088F8001088F8019088F8024088F80340DB
:10CF300088F8044088F8054088F80670314600F00B
:10CF400003F900210F4642460098C01C20F0030060
:10CF5000009016B10EE00126D8E702EB810358627B
:10CF6000002005E0D3F824C04CF82070401CC0B26B
:10CF7000A042F7D30098491C00EB8400C9B200908E
:10CF80000729E1D3401BBDE8F88370B50446F4F7E8
:10CF900078F908B1102070BD8348257861888279BE
:10CFA00000EB85000EE0436A53F8213043B14A1C80
:10CFB0006280A180406A50F82100A060002070BD0E
:10CFC000491C89B28A42EED86180052070BD70B5D7
:10CFD00005460C460846F4F754F908B1102070BD18
:10CFE000072D01D3072070BD25700020608070BD23
:10CFF0000EB56946FFF7EBFF00B1FFDF6846FFF7AC
:10D00000C4FF08B100200EBD01200EBD10B50446BE
:10D01000072800D3FFDF6448005D10BD3EB505461C
:10D0200000246946FFF7D3FF18B1FFDF01E0641C5D
:10D03000E4B26846FFF7A9FF0028F8D02846FFF7BA
:10D04000E5FF001BC0B23EBD57498978814201D936
:10D05000C0B27047FF2070472DE9F041062909D181
:10D06000514C00273B464FF6FF7604EB810514F840
:10D0700001C00CE0002036E7DC19D5F824E0A4B2AA
:10D080005EF824E0BEF1000F04D05B1C9BB29C450F
:10D09000F2D8344604802046B442EBD0BDE8F041DB
:10D0A000F6E6A0F57F43FF3B01D0072901D300201E
:10D0B0007047EDE6A0F57F42FF3A0BD0072909D271
:10D0C000394A9378834205D902EB8101496A51F8C4
:10D0D00020007047002070472DE9F04104460D46BE
:10D0E000A4F57F4143F20200FF3902D0072D01D39E
:10D0F0000720F8E62C494FF000088A78A242F8D9B8
:10D1000001EB8506726A52F82470002FF1D027488F
:10D1100039461C3050F8252020469047716A284631
:10D1200041F8248000F007F802463946B068FFF75E
:10D130003CFE0020D7E61D49383131F810004FF68B
:10D14000FC71C01C084070472DE9F843164E884614
:10D15000054600242868C01C20F0030028602046F3
:10D16000FFF7E9FF315D4843B8F1000F01D000221D
:10D1700000E02A680146009232B100274FEA0D0014
:10D18000FFF7CAFD1FB106E001270020F8E706EB14
:10D190008401009A8A602968641C0844E4B228600B
:10D1A000072CD7D3EFE600003C050020E0B00100DB
:10D1B00070B50E461D46114600F0D5F804462946C6
:10D1C000304600F0D9F82044001D70BD2DE9F04133
:10D1D00090460D4604004FF0000610D00027E01CDA
:10D1E00020F00300A04200D0FFDFE5B1414600205F
:10D1F000FFF792FD0C3000EB850617B113E0012715
:10D20000EDE7624F04F10C00AA003C6025726060FB
:10D2100000EB85002060002160680BF059FA414660
:10D220003868FFF779FD3046BDE8F0812DE9FF4F02
:10D23000564C804681B020689A46934600B9FFDF7D
:10D240002068027A424503D9416851F8280020B18C
:10D2500043F2020005B0BDE8F08F5146029800F09D
:10D2600082F886B258460E9900F086F885B2701999
:10D27000001D87B22068A14639460068FFF76AFDA5
:10D2800004001FD0678025802946201D0E9D07467B
:10D290005A4601230095FFF779F920883146384432
:10D2A0000123029ACDF800A0FFF770F92088C11978
:10D2B0003846FFF79CF9D9F800004168002041F892
:10D2C0002840C7E70420C5E770B5304C0546206804
:10D2D00000B9FFDF2068017AA9420ED9426852F8EE
:10D2E000251051B1002342F825304A880068FFF725
:10D2F0005CFD216800200A7A08E043F2020070BD5C
:10D300004B6853F8203033B9401CC0B28242F7D882
:10D310000868FFF714FD002070BD70B51B4E054670
:10D320000024306800B9FFDF3068017AA94204D9CF
:10D33000406850F8250000B1041D204670BD70B54E
:10D34000124E05460024306800B9FFDF3068017ACC
:10D35000A94206D9406850F8251011B131F8040BE4
:10D360004418204670BD10B50A460121FFF707F9A1
:10D37000C01C20F0030010BD10B50A460121FFF7C4
:10D38000FEF8C01C20F0030010BD00005800002073
:10D3900070B50446C2F1100528190BF079F915F0A3
:10D3A000FF0109D0491ECAB28020A0542046BDE822
:10D3B000704000210BF08CB970BD30B505E05B1EEC
:10D3C000DBB2CC5CD55C6C40C454002BF7D130BDD3
:10D3D00010B5002409E00B78521E44EA430300F81C
:10D3E000013B11F8013BD2B2DC09002AF3D110BD98
:10D3F0002DE9F04389B00646DDE910591C46174671
:10D400005FEA0108084621D03246FA4900F0F4F9F3
:10D41000102231462846FFF7DBFFF07B000606D5D9
:10D42000F44A2946102310320846FFF7C6FF10229F
:10D4300029464846FFF7CCFFE87B000606D5ED4AB3
:10D440004946102310320846FFF7B7FF102200218B
:10D4500030460BF03DF90CE0103CA4B23919102312
:10D4600032466846FFF7A9FF32466946404600F05B
:10D47000C3F9102CF0D818D0E2B239466846FFF74D
:10D4800087FF10234A46694604A8FFF796FF10233A
:10D49000324604A96846FFF790FF32466946404687
:10D4A00000F0AAF909B0BDE8F08310232A463946F6
:10D4B000EAE770B59CB01E460546134620980C4618
:10D4C0008DF80800202219460DF109000BF0E0F854
:10D4D000202221460DF129000BF0DAF817A913A834
:10D4E000CDE90001412302AA31462846FFF780FF1B
:10D4F0001CB070BD2DE9FF4F9FB014AEDDE92D5477
:10D5000010AFBC49CDE90076202320311AA8FFF7DF
:10D510006FFF4FF000088DF808804FF001098DF87B
:10D52000099054F8010FCDF80A00A088ADF80E005C
:10D5300014F8010C1022C0F340008DF8100055F8CB
:10D54000010FCDF81100A888ADF8150015F8010CF1
:10D550002C99C0F340008DF8170006A882460BF006
:10D5600097F80AA88346102222990BF091F8A14857
:10D570003523083802AA40688DF83C80CDE9007652
:10D580000E901AA91F98FFF733FF8DF808808DF8C9
:10D5900009902068CDF80A00A088ADF80E0014F8B4
:10D5A000010C1022C0F340008DF810002868CDF85F
:10D5B0001100A888ADF8150015F8010C2C99C0F3DE
:10D5C00040008DF8170050460BF062F858461022C4
:10D5D00022990BF05DF887483523083802AA406885
:10D5E0008DF83C90CDE900760E901AA92098FFF7AF
:10D5F000FFFE23B0BDE8F08FF0B59BB00C460546AA
:10D60000DDE922101E461746DDE92032D0F801C0C0
:10D61000CDF808C0B0F805C0ADF80CC00078C0F374
:10D6200040008DF80E00D1F80100CDF80F00B1F8E0
:10D630000500ADF8130008781946C0F340008DF8D6
:10D6400015001088ADF8160090788DF818000DF1CF
:10D65000190010220BF01CF80DF1290010223146A0
:10D660000BF016F80DF13900102239460BF010F8C6
:10D6700017A913A8CDE90001412302AA2146284693
:10D68000FFF7B6FE1BB0F0BDF0B5A3B017460D46D0
:10D6900004461E46102202A828990AF0F9FF06A89F
:10D6A000202239460AF0F4FF0EA8202229460AF06B
:10D6B000EFFF1EA91AA8CDE90001502302AA3146A6
:10D6C00016A8FFF795FE1698206023B0F0BDF0B5C0
:10D6D00089B00446DDE90E060F463178109DC1F38E
:10D6E00040018DF8001029789446C1F340018DF86F
:10D6F00001101968CDF802109988ADF806109979D3
:10D700008DF808100168CDF809108188ADF80D106A
:10D7100080798DF80F0010236A46614604A8FFF750
:10D720004CFE224604A9384600F066F8D5F8010000
:10D730000090B5F80500ADF80400D6F80100CDF86A
:10D740000600B6F80500ADF80A000020039010238B
:10D750006A46214604A8FFF730FE224604A938464F
:10D7600000F04AF809B0F0BD7FB51C680D46009482
:10D770005968019111680291516802460391694606
:10D78000284600F039F87FBD10B588B0044610680F
:10D7900004905068059000200B46069007906A465A
:10D7A00004A9184600F028F8BDF80000208008B051
:10D7B00010BD1FB51288ADF800200C461988ADF8D1
:10D7C0000210002101910291024603916946204610
:10D7D00000F012F81FBD7FB5064B14460546083B06
:10D7E0009A1C6846FFF7E5FF224669462846FFF780
:10D7F000CBFF7FBD2EB10100FDF757BF70B50446CA
:10D8000000780E46012813D0052802D0092813D12C
:10D810000EE0A06861690578022001F051FD052D38
:10D820000AD0782300220220616901F0EDFC03E0B8
:10D830000220616901F044FD31462046BDE8704098
:10D8400001F086B810B500F12D03C2799C78411D16
:10D85000144064F30102C271D2070DD04A795C7999
:10D8600022404A710A791B791A400A718278C97874
:10D870008A4200D9817010BD00224A71F5E74178D3
:10D88000012900D00C21017070472DE9F04F93B0B1
:10D890004FF0000B0C690D468DF820B00978012679
:10D8A0000C2017464FF00D084FF0110A4FF00809F1
:10D8B0001B2975D2DFE811F01B00C20205031D030E
:10D8C0005B036E03A003B503F6031704600493041F
:10D8D000A004EB042A05340552055C05EF05320669
:10D8E000350664068006F9061D07E606EB0614B148
:10D8F00020781D282AD0D5F808805FEA08004FD08C
:10D9000001208DF82000686A02220D908DF82420F5
:10D910000A208DF82500A8690A90A8880028EED072
:10D9200098F8001091B10F2910D27DD2DFE801F0F4
:10D930007C1349D9FCFBFAF9F8F738089CF6F50096
:10D9400002282DD124B120780C2801D00026EEE346
:10D950008DF82020C9E10220696A01F0B1FCA88895
:10D960000728EED1204600F0EEFF022809D020461D
:10D9700000F0E9FF032807D9204600F0E4FF07285C
:10D9800002D20120207004E0002CB8D020780128B9
:10D99000D7D198F80400C11F0A2902D30A2061E0F8
:10D9A000C2E1A070D8F80010E162B8F80410218636
:10D9B00098F8060084F832000120287003202070B7
:10D9C00044E00728BDD1002C99D020780D28B8D18B
:10D9D00098F8031094F82F20C1F3C000C2F3C002DE
:10D9E000104201D0062000E00720890707D198F8EF
:10D9F00005100142D2D198F806100142CED194F818
:10DA0000312098F8051020EA02021142C6D194F89C
:10DA1000322098F8061090430142BFD198F80400D4
:10DA2000C11F0A29BAD200E006E2617D81427CD89A
:10DA3000D8F800106160B8F80410218198F8060049
:10DA4000A072012028700E20207003208DF8200085
:10DA5000686A0D9004F12D000990601D0A900F3046
:10DA60000B901DE12875FDE3412891D1204600F07F
:10DA70006AFF042802D1E078C00704D1204600F0F4
:10DA800062FF0F2884D1A88CD5F80CB080B2402654
:10DA9000D4F81C80FFF741FC334642465946CDF886
:10DAA0000090FFF741F80B208DF82000686A0D9078
:10DAB000E0690990002108A8FFF7A0FE207804285B
:10DAC00006D0A07D38B1012805D0032806D049E34F
:10DAD00005202070CDE184F800A037E712202070E7
:10DAE000EDE11128C1D1204600F02DFF042802D11C
:10DAF000E078C0070FD0204600F025FF062805D1AA
:10DB0000E078C00707D1A07D022804D0204600F0AD
:10DB10001AFF1128A9D1102208E0C7E07EE070E1C9
:10DB20004FE122E101E1E7E014E0AEE108F101019B
:10DB300004F13C000AF0ACFD607801287ED0122090
:10DB40002070E078C00760D0A07D0028C8D00128F0
:10DB5000C6D05AE0112888D1204600F0F4FE0828EB
:10DB600004D0204600F0EFFE13288BD104F16C00A6
:10DB7000102208F1010106460AF08AFD20780828E3
:10DB80000DD014202070E178C8070DD0A07D0228A8
:10DB90000AD06278022A04D00328A1D035E00920F7
:10DBA000F0E708B1012837D1C80713D0A07D0228BB
:10DBB0001DD000200090D4E9062133460EA8FFF7BF
:10DBC00078FC10220EA904F13C000AF050FDC8B107
:10DBD000042047E7D4E90912201D8DE8070004F16D
:10DBE0002C0332460EA8616BFFF771FDE9E7606B0D
:10DBF000C1F34401491E0068C84000F0010040F034
:10DC00008000D7E72078092806D185F800908DF8A4
:10DC1000209037E32870F0E30920FBE711289AD120
:10DC2000204600F090FE0A2802D1E078C00704D117
:10DC3000204600F088FE15288DD100E090E104F127
:10DC40003C00102208F1010106460AF021FD20786F
:10DC50000A2816D016202070D4E90932606B611DA5
:10DC60008DE80F0004F15C0304F16C0247310EA84B
:10DC7000FFF7C2FC10220EA930460AF0F8FC18B1DA
:10DC8000FAE20B20207075E22046FFF7DBFDA17859
:10DC9000206AC1F11002084400210AF019FD28E3AE
:10DCA000394608A8FFF7AAFD06463FE20228B6D18A
:10DCB000204600F048FE042804D3204600F043FE2E
:10DCC000082809D3204600F03EFE0E282CD320461B
:10DCD00000F039FE122827D2A07D02289FD1696A60
:10DCE00000F024FE0E208DF82000686A0D9098F850
:10DCF00001008DF82400F3E3022890D1204600F0C3
:10DD000022FE002810D0204600F01DFE0128F9D088
:10DD1000204600F018FE0C28F4D004208DF82400D2
:10DD200098F801008DF8250060E21128FCD1002C44
:10DD3000FAD020781728F7D16178606A022912D0CA
:10DD40005FF0000101EB4101182606EBC101102232
:10DD5000405808F101010AF09BFC0220696A00F0BA
:10DD6000E5FD2670F2E50121ECE70B28DCD1002C63
:10DD7000DAD020781828D7D16078616A02281CD0C0
:10DD80005FF0000000EB4002102000EBC2000958D9
:10DD9000B8F8010008806078616A02280FD000207E
:10DDA00000EB4002142000EBC2000958404650F836
:10DDB000032F0A604068486039E00120E2E7012053
:10DDC000EEE71128B0D1002CAED020781928ABD1C5
:10DDD0006178606A022912D05FF0000101EB410115
:10DDE0001C2202EBC1011022405808F101010AF087
:10DDF0004FFC0220696A00F099FD1A20B5E001216C
:10DE0000ECE7082890D1002C8ED020781A288BD1EE
:10DE1000606A98F80120017862F347010170616A35
:10DE2000D8F8022041F8012FB8F8060088800220B7
:10DE3000696A00F07BFD8FE2072013E6387801283D
:10DE400094D1182204F1140079680AF021FCE079D9
:10DE5000C10894F82F0001EAD001E07861F30000D6
:10DE6000E070217D002973D12178032909D0C007F2
:10DE700025D0032028708DF82090686A0D904120ED
:10DE800006E3607DA178884201D90620EAE50226F2
:10DE90002671E179204621F0E001E171617A21F0FB
:10DEA000F0016172A17A21F0F001A172FFF7CAFCC2
:10DEB0002E708DF82090686A0D900720E8E204200B
:10DEC000A8E6387805289DD18DF82000686A0D9065
:10DED000B8680A900720ADF824000A988DF830B091
:10DEE0006168016021898180A17A8171042020709C
:10DEF000F6E23978052985D18DF82010696A0D91EF
:10DF0000391D09AE0EC986E80E004121ADF8241076
:10DF10008DF830B01070A88CD7F80C8080B24026F5
:10DF2000A769FFF70CFA33463A464146CDF8009010
:10DF3000FEF72EFE002108A8FFF760FCE07820F035
:10DF40003E00801CE0702078052802D00F200CE0F5
:10DF50004BE1A07D20B1012802D0032802D003E1CB
:10DF60000720BCE584F80090F0E42070EEE4102176
:10DF700004F15C0001F03CF8606BB0BBA07D18B10F
:10DF8000012801D00520FEE006202870F7486063D4
:10DF9000A063C1E23878022895D1387908B1287594
:10DFA000B5E3A07D022802D0032805D022E0B8689E
:10DFB0000028F5D060631CE06078012806D0A079C5
:10DFC00094F82E10012805D0E84806E0A17994F8CD
:10DFD0002E00F7E7B8680028E2D06063E078C00759
:10DFE00001D0012902D0E14803E003E0F8680028ED
:10DFF000D6D0A06306200DE68DF82090696A0D91B9
:10E00000E1784846C90709D06178022903D1A17D8A
:10E0100029B1012903D0A17D032900D00720287050
:10E0200032E138780528BBD1207807281ED084F843
:10E0300000A005208DF82000686A0D90B8680A904D
:10E04000ADF824A08DF830B003210170E178CA0743
:10E050000FD0A27D022A1AD000210091D4E9061225
:10E0600004F15C03401CFFF724FA69E384F8009094
:10E07000DFE7D4E90923211D8DE80E0004F12C030C
:10E0800004F15C02401C616BFFF721FB58E3626BFB
:10E09000C1F34401491E1268CA4002F0010141F077
:10E0A0008001DAE738780528BDD18DF82000686A4C
:10E0B0000D90B8680A90ADF824A08DF830B0042116
:10E0C00000F8011B102204F15C010AF0E1FA0021C2
:10E0D00008A8FFF793FB2078092801D0132044E714
:10E0E0000A20207098E5E078C10743D0A17D01297E
:10E0F00002D0022928D039E0617808A8012917D078
:10E1000004F16C010091D4E9061204F15C03001DD6
:10E11000FFF7BAFA0A2028705FF003068DF8208016
:10E12000686A0D90002108A8FFF768FBDEE2C4E2F0
:10E1300004F15C010091D4E9062104F16C03001D97
:10E14000FFF7A2FA0026E9E7C0F3440114290DD233
:10E150004FF0006101EBB0104FEAB060E070607802
:10E16000012801D01020BAE40620FEE660780128DC
:10E170003FF4B3AC0A204DE5E178C90708D0A17D92
:10E18000012903D10B202870042030E028702EE0F4
:10E190000E2028706078616B012818D004F15C03B0
:10E1A00004F16C020EA8FFF7DFFA2046FFF74AFBE6
:10E1B000A0780EAEC0F11002304400210AF088FAB7
:10E1C00006208DF82000686A09960D909AE004F107
:10E1D0006C0304F15C020EA8FFF7C6FAE8E7397891
:10E1E000022903D139790029D0D029758FE28DF821
:10E1F0002000686A0D9053E538780728F6D1D4E9F5
:10E2000009216078012808D004F16C00CDE90002F2
:10E21000029105D104F16C0304E004F15C00F5E720
:10E2200004F15C0304F14C007A680646216AFFF7AA
:10E2300061F96078012821D1A178206AC1F110022A
:10E24000084400210AF044FAD4E90923606B04F180
:10E250002D018DE80F0004F15C0304F16C023146DE
:10E260000EA800E055E2FFF7C7F910220EA904F14D
:10E270003C000AF0FCF908B10B20AAE485F8008004
:10E280008DF82090686A0D908DF824A008E5387804
:10E290000528ABD18DF82000686A0D90B8680A9007
:10E2A000ADF824A08DF830B080F8008061780129A5
:10E2B0001BD0D4E9092304F12D01A66B0DF104084C
:10E2C000009688E80E0004F16C0304F15C0204F18E
:10E2D0004C01401CFFF790F9002108A8FFF78EFAC7
:10E2E0006078012805D015203FE6D4E90932611D88
:10E2F000E3E70E20287006208DF82000686ACDF82C
:10E3000024B00D90A0788DF82800C9E4387803284F
:10E31000BFD1E079C0076FD00F202870072066E7D3
:10E32000387804286AD11422391D04F114000AF047
:10E33000AFF9616A208CA1F80900616AA078C87100
:10E34000E179626A01F003011172616A627A0A730B
:10E35000616AA07A81F8240016205BE485F800A0A9
:10E360008DF82090696A50460D9191E02EB1010020
:10E370003878052842D1B868A8616178606A0229B6
:10E3800001D0012100E0002101EB4101142606EB40
:10E39000C1014058082100F02BFE6178606A022913
:10E3A00001D0012100E0002101EB410106EBC10198
:10E3B000425802A8E169FFF70EFA6078626A022803
:10E3C00001D0012000E0002000EB4001102000EB14
:10E3D000C1000223105802A90932FEF7EEFF626A5B
:10E3E000FD4B0EA80932A169FFF7E3F96178606A75
:10E3F000022904D0012103E043E18DE0BFE00021C8
:10E4000001EB4101182606EBC101A27840580EA984
:10E410000AF03EF96178606A022901D0012100E02A
:10E42000002101EB410106EBC1014158A0780B1816
:10E43000C0F11002002118460AF04AF905208DF8B3
:10E440002000686A0D90A8690A90ADF824A08DF8A4
:10E4500030B0062101706278616A022A01D001227F
:10E4600000E0002202EB420206EBC202401C895887
:10E4700010220AF00DF9002108A8FFF7BFF91220B9
:10E48000C5F818B028708DF82090686A0D900B20A0
:10E490008DF8240004E43878052870D18DF8200028
:10E4A000686A0D90B8680A900B20ADF824000A98AD
:10E4B000072101706178626A022901D0012100E020
:10E4C000002101EB4103102101EBC30151580988E0
:10E4D000A0F801106178626A022902D0012101E0EE
:10E4E0002EE1002101EB4103142101EBC30151583E
:10E4F0000A6840F8032F4968416059E019202870E4
:10E5000001208DF8300076E6162028708DF830B0A6
:10E51000002108A8FFF772F9032616E114202870DD
:10E52000AEE6387805282AD18DF82000686A0D906B
:10E53000B8680A90ADF824A08DF830B080F800904B
:10E540006278616A4E46022A01D0012200E0002270
:10E5500002EB42021C2303EBC202401C895810222A
:10E560000AF096F8002108A8FFF748F9152028704E
:10E570008DF82060686A0D908DF824603BE67FE09E
:10E58000387805287CD18DF82000686A0D90B8682D
:10E590000A90ADF824900921017061690978490851
:10E5A0004170616951F8012FC0F802208988C1804B
:10E5B00020781C28A8D1A1E7E078C00702D04FF04E
:10E5C000060C01E04FF0070C607802280AD000BF6B
:10E5D0004FF0000000EB040101F1090105D04FF0FC
:10E5E000010004E04FF00100F4E74FF000000B7869
:10E5F000204413EA0C030B7010F8092F02EA0C02F6
:10E60000027004D14FF01B0C84F800C0CAB394F818
:10E6100001C0BCF1010F00D093B990F800C05FEACF
:10E62000CC7804D02CF001060670102606E05FEAD4
:10E630008C7805D52CF00206067013262E70032662
:10E6400094F801C0BCF1020F00D092B991F800C05B
:10E650005FEACC7804D02CF001060E70172106E09A
:10E660005FEA8C7805D52CF002060E701921217016
:10E6700000260078D0BBCAB3C3BB1C20207035E095
:10E6800012E002E03878062841D11A2018E42078F8
:10E6900001283CD00C283AD02046FFF7F0F809209A
:10E6A0008DF82000686A0D9031E03878052805D093
:10E6B0000620387003261820287046E005218DF8C2
:10E6C0002010686A0D90B8680A900220ADF8240006
:10E6D00001208DF830000A980170297D417039467B
:10E6E00008A8FFF78BF8064618202870012E0ED0D8
:10E6F0002BE001208DF82000686A0D9003208DF832
:10E700002400287D8DF8250085F814B012E0287DBE
:10E7100080B11D202070172028708DF82090686A25
:10E720000D9002208DF82400394608A8FFF766F8FE
:10E7300006460AE00CB1FE2020709DF8200020B1B2
:10E74000002108A8FFF75AF80EE413B03046BDE8E0
:10E75000F08F2DE9F04387B00C464E6900218DF80B
:10E76000041001202578034602274FF007094FF0D7
:10E77000050C85B1012D54D0022D3AD1FE20307008
:10E780008DF80030606A059003208DF80400207E2B
:10E790008DF8050064E02179012926D002292ED0C8
:10E7A000032929D0042924D1B17D022921D131782E
:10E7B0000D1F042D04D30A3D032D01D31D2918D1AB
:10E7C0002189022915D300BF8DF804702370208998
:10E7D0009DF80410884201E026B1010018D20820FB
:10E7E0008DF80000606A059057E070780128EBD042
:10E7F000052007B0BDE8F0831D203070E4E7717894
:10E800000229F5D131780C29F3D18DF80490DDE798
:10E81000083402F804CB94E80B0082E80B000320D4
:10E82000E7E71578052DE4D18DF800C0656A0595F8
:10E83000956802958DF8101094F80480B8F1010FD6
:10E8400013D0B8F1020F2DD0B8F1030F1CD0B8F1DE
:10E85000040FCED1ADF804700E202870207E6870B1
:10E8600000216846FEF7CAFF0CE0ADF804700B20EB
:10E870002870207E002100F01F0068706846FEF7B7
:10E88000BDFF37700020B4E7ADF804708DF810308C
:10E8900085F800C0207E6870277011466846FEF734
:10E8A000ADFFA6E7ADF804902B70207F6870607F05
:10E8B00000F00100A870A07F00F01F00E870E27F68
:10E8C0002A71C0071CD094F8200000F0070068717E
:10E8D00094F8210000F00700A87100216846FEF7B7
:10E8E0008DFF2868F062A8883086A87986F8320003
:10E8F000A069407870752879B0700D203070C1E73C
:10E90000A9716971E9E700B587B002280CD101202F
:10E910008DF800008DF80400002005918DF80500A9
:10E9200001466846FEF76AFF07B000BD70B50C46A9
:10E93000054600F0C5FC21462846BDE87040782316
:10E94000002200F061BC08B1007870470C207047CD
:10E9500070B50C0005784FF000010CD021702146F5
:10E96000F4F7CBFC69482178405D884201D103204F
:10E9700070BD022070BDF4F7C0FC002070BD0279AC
:10E98000012A05D000220A704B78012B02D003E047
:10E99000042070470A758A6102799300521C027143
:10E9A000C15003207047F0B587B00F4605460124DB
:10E9B000287905EB800050F8046C7078411E02291C
:10E9C0000AD252493A46083901EB8000314650F8E4
:10E9D000043C2846984704460CB1012C11D12879F3
:10E9E000401E10F0FF00287101D00324E0E70A2048
:10E9F0008DF80000706A0590002101966846FFF7C7
:10EA0000A7FF032CD4D007B02046F0BD70B5154643
:10EA10000A46044629461046FFF7C5FF064674B16C
:10EA20002078FE280BD1207C30B1002028702946A8
:10EA300004F10C00FFF7B7FF2046FEF720FF304639
:10EA400070BD704770B50E4604467C22002109F067
:10EA50003FFE0225012E03D0022E04D0052070BDFA
:10EA60000120607000E065702046FEF708FFA57584
:10EA7000002070BD28B1027C1AB10A4600F10C01D9
:10EA8000C4E70120704710B5044686B0022000F0AC
:10EA900017FC2078FE2806D000208DF8000069467B
:10EAA0002046FFF7E7FF06B010BD7CB50E460021FB
:10EAB0008DF804104178012903D0022903D00024E5
:10EAC00005E0046900E044690CB1217C89B16D4620
:10EAD00001462846FFF753FF032809D1324629464D
:10EAE0002046FFF793FF9DF80410002900D0042072
:10EAF0007CBD04F10C05EBE730B40C460146034A3B
:10EB0000204630BC024B0C3AFEF753BE6CB10100FC
:10EB100026B1010070B50D46040012D08DB122015E
:10EB20000021284609F0D4FD10225549284609F055
:10EB3000AFFD534801210838018044804560002022
:10EB400070BD012070BD70B54D4E00240546083ED5
:10EB500010E07068AA7B00EB0410817B914208D121
:10EB6000C17BEA7B914204D10C22294609F07FFD4A
:10EB700030B1641C30888442EBDB4FF0FF3070BD55
:10EB8000204670BD70B50D46060006D02DB1FFF7CA
:10EB9000DAFF002803DB401C14E0102070BD384C65
:10EBA000083C20886288411C914201D9042070BD34
:10EBB0006168102201EB0010314609F069FD2088E0
:10EBC000401C20802870002070BD2D480838008827
:10EBD00070472B4908390888012802D0401E088058
:10EBE0000020704770B514460D0018D0BCB100214C
:10EBF000A170022802D0102811D105E0288870B138
:10EC00000121A170108008E02846FFF79CFF002832
:10EC100005DB401CA070A8892080002070BD012069
:10EC200070BD70B5054614460E000BD00020307044
:10EC3000A878012808D005D91149A1F108010A884E
:10EC400090420AD9012070BD24B12878207028880C
:10EC5000000A5070022008700FE064B14968102269
:10EC600001EB00112046103909F012FD28782073BD
:10EC70002888000A607310203070002070BD0000EA
:10EC8000640000202DE9F041064640004FF00004EA
:10EC900001D570480460B0044FF001054FF0FF3714
:10ECA00007D56D484560C0F80042C0F808736B484E
:10ECB0000460C6F38030C6F3C031884200D0FFDF65
:10ECC00016F4404F12D066484560C0F80873654896
:10ECD0008560C0F80042C0F8087363490C600A1DE3
:10ECE00015608560C0F808730C601560BDE8F041E0
:10ECF00000F09EB870B520240021012320FA01F213
:10ED0000D20720D04AB2002A10DB00BF4FEA5216C9
:10ED10004FEA860602F01F0506F1E02603FA05F524
:10ED2000C6F88051BFF34F8FBFF36F8F0BDB02F03C
:10ED30001F054FEA52124FEA820202F1E02203FA63
:10ED400005F5C2F8805201F10101A142D6D370BD90
:10ED500070B50D4604460021012000F059F800214D
:10ED60000B2000F055F80021082000F051F8042194
:10ED7000204600F04DF804210D2000F049F8042150
:10ED80000E2000F045F804210F2000F041F8042186
:10ED9000C84300F03DF800210C2000F039F80421B0
:10EDA000002000F035F800211E2000F031F8062187
:10EDB000284600F02DF8BDE870400621152000F02F
:10EDC00027B870B5294C0D462060FFF75BFF20681F
:10EDD000FFF790FF06F052FF00F0C5F800F028F8AA
:10EDE000F4F77FF8284600F089F8BDE8704006F097
:10EDF000F5BF10B51D4C2068FFF744FF2068FFF7F2
:10EE000079FF00F015F80020206010BD0A2070473F
:10EE10004907090E002804DB00F1E02080F8001407
:10EE2000704700F00F0000F1E02080F8141D7047DB
:10EE3000104910B50E4808600F4B112003EBC004B9
:10EE40000022C4F81025C4F81425401CC0B21428B0
:10EE5000F4D310BD04E5014000D0004004D50040CB
:10EE600000E0004000F0004000F500407400002089
:10EE70000000FEFF08F5014000F0014070B5264992
:10EE80004A68EAB100231D4601248A68521C8A6040
:10EE90000C2A00D38D600E7A04FA06F24E681642F0
:10EEA0000BD0EFF3108372B64C6894434C6003B9F7
:10EEB00062B689680160002070BD5B1C0C2BE4D336
:10EEC000052070BD144890F90000002809DB00F00F
:10EED0001F02012191404009800000F1E020C0F8AC
:10EEE00000127047EFF3108172B6012282400A4887
:10EEF00043681A43426001B962B6E3E7064900225B
:10EF00004A608A6008707047012181400248406869
:10EF1000084000D001207047780000202DE9F04122
:10EF200015460E460446002700F0DEF8A84215D329
:10EF3000002341200FE000BF94F84220A25CF2546D
:10EF400094F84210491CB1FBF0F200FB12115B1C5B
:10EF500084F84210DBB2AB42EED3012700F0D0F8C8
:10EF60003846BDE8F0816C4910B5002081F84200B8
:10EF700081F84100433181F8420081F8410043317A
:10EF800081F8420081F84100644809F0D6FD6348E9
:10EF9000401C09F0D2FDF3F773FEBDE8104000F00D
:10EFA000AFB80A4601465C48B8E75B48433000F01A
:10EFB0009BB80A46014658484330AFE740210170EC
:10EFC0000020704710B504465348863000F08CF896
:10EFD0002070002010BD0A4601464F4810B586300B
:10EFE000FFF79CFF08B1002010BD42F2070010BDE2
:10EFF00070B50C460646412900D9FFDF4848006835
:10F00000103840B200F052F8C5B20D2000F04EF8B2
:10F01000C0B2854201D8012504E0002502E00DB10F
:10F02000F3F765FE224631463B48FFF777FF00289D
:10F03000F5D070BD2DE9F041384F002506463F1D43
:10F0400057F82540204600F040F808B36D1CEDB29B
:10F05000032DF5D33048433000F037F8002824D092
:10F060002D4800F032F800281FD02B48863000F0E1
:10F070002CF8002819D0F3F71CFE284809F04AFDA7
:10F08000233000D0FFDFBDE8F041244809F059BD2E
:10F0900094F841004121265414F8410F401CB0FB64
:10F0A000F1F201FB12002070D4E75AE7002804DBDC
:10F0B00000F1E02090F8000405E000F00F0000F1FE
:10F0C000E02090F8140D4009704710F8411F4122CC
:10F0D000491CB1FBF2F302FB13114078814201D1CC
:10F0E000012070470020704710F8411F407881428E
:10F0F00001D3081A02E0C0F141000844C0B27047D1
:10F1000010B5064809F006FD002803D1BDE81040FF
:10F11000F3F7BABD10BD00007C050020840000207C
:10F1200004ED00E0F0B57C4B0446002020265A6830
:10F1300004275B780FE000BF00EBC00506EB850CF1
:10F1400012F80CC0A44504D107EB850555598D4232
:10F1500004D0401CC0B28342EED8FF20F0BD2DE9A0
:10F16000F0416D4C054600216278606808E000BF00
:10F1700001EBC10300EB8303AB4203D0491CC9B2CE
:10F180008A42F5D88A4215D901EBC101202202EB4F
:10F190008107C65D00EB810009F0E8FD10B96168E8
:10F1A000FF20C855A068696850F826203046BDE8A1
:10F1B000F0411047BDE8F0812DE9F0411C461546AD
:10F1C0000E460746FF2B00D3FFDFA80700D0FFDF66
:10F1D00051480021C0E901578470C6700170417028
:10F1E000BDE8F04109F0BCBD70B54B4C0646257832
:10F1F000E078854200D3FFDFA06840F825602078E2
:10F20000401C2070284670BD2DE9F05F424D074636
:10F21000FF2428781E4693468A46B84200D8FFDF6E
:10F22000002120234FF004096A78686813E000BFCA
:10F2300001EBC10C03EB8C0810F80880B8F1FF0F4C
:10F240000ED0B84505D109EB8C0C50F80C80D04598
:10F250000BD0491CC9B28A42EAD8FF2C02D00AE07E
:10F260000C46F6E7A9788A4202D1FF20BDE8F09F5C
:10F270001446521C6A7006B9012604EBC40203EB63
:10F28000820109EB8203475440F803A0082303EBF3
:10F2900082030121C15421490C234E4303EB820315
:10F2A00040F822601E49C1505FEA0B0100D00221E4
:10F2B00000EB820009F06CFD00B1FFDF3846D5E7B6
:10F2C00070B5FFF72FFF0546FF2817D0124C05EB4E
:10F2D000C506606800EB860009F0D8FD10B1163055
:10F2E00000D0FFDF2022616802EB8602FF208854F5
:10F2F0006078401EA84200D16070002070BD10B53B
:10F30000FFF710FF044900EBC0004968BDE810405A
:10F3100001EB800009F02ABD4806002090D00300D0
:10F320005FF10000114908784A78401CC0B2904251
:10F3300000D0087070472DE9F0414FF0E0260B4CEB
:10F3400009F09CFC40BF20BF677820786070D6F839
:10F350000052F1F7E7FF854305D1D6F8040210B952
:10F360002078B842ECD00020BDE8F0819400002065
:10F37000454800210170417010218170704770B5BF
:10F38000054616460C460220F3F742FC3E49012092
:10F39000F61E08703D4806603C4808380560001FAE
:10F3A000046070BD10B50220F3F732FC364901202D
:10F3B000087000F051F836494FF40000086010BDA5
:10F3C00010B5314C207888B131494FF40000091D47
:10F3D000086000F04AF8002120B1012060702D483B
:10F3E000006801E061701020A0702170BDE810403D
:10F3F0000020F3F70DBC244810B5017859B1264818
:10F40000D0F8000128B100F030F8002800D0012029
:10F4100010BD022010BD407810BD10B5C824641E78
:10F42000E4B2FFF7E8FF022803D0012800D0002053
:10F4300010BD002CF3D1FFDFF9E7134810B50178B8
:10F4400041B100F012F818B112480068C0B210BD06
:10F45000102010BD807810BD0F480021C0F80011A9
:10F46000C0F80411C0F8081170470B48D0F800111B
:10F4700029B1D0F8041111B1D0F8080108B1002069
:10F480007047012070470000CD00002010F50040BB
:10F4900004F5014000F4004000F000404D48002118
:10F4A00001704170704770B5064614460D46012044
:10F4B000F3F7AEFB48480660001D0460001D0560C0
:10F4C00070BD2DE9F04105460C46424842490126EF
:10F4D0000670091F45EA0240086009F060FA30B979
:10F4E0003D481030016821F0FF01214301603B4C91
:10F4F0000027C4F804713A494FF00078C1F8008041
:10F500005DB1012D00D0FFDFC4F8007226603449E0
:10F51000091FC1F80080BDE8F081C4F800622660D0
:10F52000F9E72C48017871B12D4A4FF00071116054
:10F530002A49D1F8042100211AB12A4A12684270DE
:10F5400000E0417001700020F3F762BB21480178B0
:10F5500041B12248D0F80401002802D021480068B7
:10F56000C0B27047407870472DE9F04700282AD094
:10F570001848007800B9FFDF184DD5F804010028BD
:10F5800021D10227C5F80473174C2068C04340F30B
:10F590000016206840F0100020604FF400484FF043
:10F5A000E029761C04E000BFC9F8808209F066FB00
:10F5B000D5F804010028F7D01EB9206820F010000B
:10F5C0002060C5F80873BDE8F08704490120886011
:10F5D00070470000D000002008F5004000F0004017
:10F5E00008F5014000F4004010ED00E000B50128EE
:10F5F00004D0022805D0FFDF002000BD41F61460D2
:10F6000000BD41F2301000BDFB4808B50021C0F834
:10F610000011C0F80C11C0F81011C0F80411C0F8A6
:10F620001411C0F81811F5480068009008BD2DE9C4
:10F63000F04140220021F24809F04AF800F0E3FED0
:10F6400009F08FF9EF4DEF4E0024EE4F08351036DC
:10F6500028B909F090F910B909F097F908B12422F6
:10F6600006E009F0D2F910B909F0C5F940B140221D
:10F67000FF21384609F02CF82C603460BDE8F08199
:10F680003822F5E7E04800B5016801F00F010329D1
:10F6900005D0006800F00F00042802D0FFDF012031
:10F6A00000BD022000BD00B5012804D0022804D00E
:10F6B000FFDF002000BD282000BD182000BD10B5D0
:10F6C000CF4902681839CE4C0A6342684A63007A0F
:10F6D00081F83800207E50B1207FFBF734FAA07EFD
:10F6E00008B1012100E00021207FFBF71CFA607EB9
:10F6F00000280CD0607FFBF726FAE07E08B10121DC
:10F7000000E00021607FBDE81040FBF70CBA10BD9F
:10F71000BE494860704700F07EBE10B500F07BFE29
:10F72000B94840300168032902D000680B2800D195
:10F73000FFDF10BD70B5012000F047FEB448002483
:10F7400004600126066009F036F9B24D18B1286848
:10F7500040F48060286009F022F928B12868AE4999
:10F7600020F06F000843286009F035F938B1A94846
:10F77000001D016821F47F4141F4B0510160A549A9
:10F78000A6483C3108604FF01020006E411C05D0A7
:10F790009D497C310A6860F317420A609A4940F239
:10F7A0005B6028310860091F40F203100860081FE1
:10F7B0000660954903200860964940F20110EC3933
:10F7C00008608D4E0225C6F800529649944808609C
:10F7D0008A4996480C39944AC0F81015C0F8142587
:10F7E000874806F500761838A0F848401830C462FB
:10F7F00080F83C40012000F0F9FD1020C6F804011B
:10F800004FF0E020C0F8005180484068002802D046
:10F81000BDE87040004770BD08B5FF208DF80000BE
:10F8200075480021C0F810110121016105E000BFF9
:10F830009DF80010491E8DF800109DF8001019B1B8
:10F84000D0F810110029F3D09DF80000002800D155
:10F85000FFDF08BD6A48C17A012916D0022913D1F9
:10F86000417E002910D0827F0121C37F01FA02F27C
:10F8700099400A436B490A6090F820006C4A0021C5
:10F8800002EB8000C0F810157047017EE9E72DE912
:10F89000F041594CD4F804031026C0F30015C4F805
:10F8A00008630220C4F80002554800275D4980F82B
:10F8B0003C705B480860FFF7CDFF5348403000685C
:10F8C00008B1FFF7A9FFC4F8107100F09CFD002DEE
:10F8D00001D0C4F80463D1E6494910B5886B514A98
:10F8E00040F480001060002088630874C862886259
:10F8F00050490860091D0860091D0860091D08605D
:10F9000049494039C1F84001C1F84401C1F84801F2
:10F91000C1F84C01FFF7BBFF012000F056FDBDE828
:10F920001040012000F062BD354A0368183AC2F861
:10F930001A308088D083324801727047304890F87E
:10F94000250070472E4A517010707047F0B505467B
:10F95000840029488B882044C0F820360B78D1F8E1
:10F96000011043EA0121C0F8001605F10800012743
:10F97000284C07FA00F6FC3C52B1012A00D0FFDF08
:10F980002068304320602068AF4038432060F0BDDD
:10F990002068B043F6E71A4981F8210070471A4AF7
:10F9A000C178143211600068174900020C310860F8
:10F9B0007047134981F822007047114890F82200DF
:10F9C000252807D0262807D0272807D00A2807D8B7
:10F9D000042206E0022107E01A2105E0502103E09D
:10F9E000062202EB4001C9B2074A083A11600649F3
:10F9F00044310860704700000010004018110040BA
:10FA0000C4090020000E004010150040D400002062
:10FA1000FC1F00403C170040900000802C00008933
:10FA200000000E0408F501404080004090F00140C5
:10FA3000006000404085004030B5FE49CA7A012A86
:10FA40000BD0022A44D14B7E002B41D0012A06D094
:10FA50004B7FCA7E5AB101240AE00B7EF4E70B7F8C
:10FA60008A7E0AB1012400E00024112201E0002472
:10FA700024221044F04A1060180284F0010240EA87
:10FA8000025040F0031291F82000EC4B03EB80048D
:10FA9000C4F810258A7FEB4C03EB800004EBC20313
:10FAA000E74DC3F81055C3F81405CB7FE64D04EBC2
:10FAB000C301C1F81055C1F81405012000FA02F184
:10FAC00098400143E1480160E1490020C1F84C0140
:10FAD00030BDE0480168032904D00068022801D045
:10FAE000002087E7012085E7DA4801680B2904D068
:10FAF00000680A2801D000207CE701207AE7CD4881
:10FB000000B590F83C00C10710D081070FD5D2484E
:10FB1000D0F8001241F00101C0F80012FFF7E4FF35
:10FB200018B9FFF7D6FF002800D0FFDF00BD40075F
:10FB3000FCD5C948C34908309831C1F81405C448F8
:10FB4000D0F848010128F1D1FFDF00BDB9480146D6
:10FB5000427A91F83C1012B1012A03D006E041F03C
:10FB6000020101E041F0040180F83C10C7E72DE9F3
:10FB7000F041B04C0746884694F83C00C00700D1DD
:10FB8000FFDFB249B5480860B34DD5F8000240F038
:10FB90000100C5F8000294F83C0040F0020084F82F
:10FBA0003C00404606F0D0FBFFF707FF012617B1E7
:10FBB000012F06D00CE0404600F042FCE6722E60B9
:10FBC00006E000F042FC0220E07200F045FC6E60AE
:10FBD0009F48C66498480068BDE8F0412CE72DE9CD
:10FBE000F0479A4E07469D4889463060914C94F8FC
:10FBF0003C0040F0020084F83C00084606F0A4FBFC
:10FC0000FFF7DBFEDFF85082002517B1012F25D06A
:10FC10003BE0484600F014FC607A012805D1D8F892
:10FC2000001241F00801C8F800120120E072A06B38
:10FC300040F48010A0634FF4801030604FF47A716C
:10FC4000B9F1020F08D040F6340000BF49F6EC725B
:10FC50001044B0FBF1F518E00846F7E700F0F5FBBB
:10FC6000607A012805D1D8F8001241F00401C8F8E3
:10FC700000120220E072A06B40F40010A0634FF469
:10FC800000103060292500F0E7FBFFF75FFF0AF066
:10FC9000D9FF0068012805D00020FFF7CDFE2846D7
:10FCA000BDE8F087FFF7F3FD0020F9E72DE9F05FED
:10FCB000DFF89881074669488B461646C8F8000069
:10FCC0005C4D95F83000B04202D0104606F03CFB87
:10FCD000FFF773FEDFF880A100244FF001093FB366
:10FCE000012F3DD0FFDF5448001F046054485549A0
:10FCF000001F9831C1F81005A86B4FF4802140F423
:10FD00000020A863C8F800101022CAF80423490094
:10FD1000C8F80010FFF71AFF4D49C1F84C9046484B
:10FD20000068A04200D3FFDF2046BDE8F05F83E615
:10FD3000304600F085FB022E0FD040F6340000BFA5
:10FD400049F6F8510144584600F096FB04465046E7
:10FD500000F09EFB85F80B90C5E74FF47A70EFE753
:10FD600000F073FB00F078FB49F6BA71584600F0DA
:10FD700083FB04463848001D00F08AFB0220E8722D
:10FD8000B1E72DE9F0412B4C07460E4694F83100BF
:10FD9000002500B9FFDF17B1012F0DD017E094F84F
:10FDA000310094F830100128304602D006F0DAFA1B
:10FDB0000BE006F0F3FA08E094F8310094F8301004
:10FDC0000128304605D006F0F8FAE16A45182846C1
:10FDD00054E406F0D2FAF8E71EE51E49006814392B
:10FDE00020F07F40086005E60146124818221838C6
:10FDF00008F04EBC1A490870FCE516494C390860F9
:10FE00000C4810F83C1F41F00101017077E62DE924
:10FE1000F041084C0546E06AA84200D3FFDF01200C
:10FE20000B4E207465617064034F083F3868A84228
:10FE300019D317E0C40900204C8500400060004041
:10FE40004C81004000F001401011004004F50140D9
:10FE500000800040501500400010004000000404E5
:10FE6000D4000020FFDF0020C6F84401606938603C
:10FE7000BDE8F04100F015BB70B5FF4C064602200E
:10FE800020749625FFF7FEFB024694F8310094F8A3
:10FE9000301001280DD0284606F0C2FAF7496061FB
:10FEA0000020C1F844016169E06A0844F44908602F
:10FEB00070BD3346284606F08EFAEFE7F149086038
:10FEC000F148D0F8001241F04001C0F8001291E56D
:10FED000ED48D0F8001221F04001C0F80012E949C5
:10FEE0000020086086E5E848D0F8001221F01001F3
:10FEF000C0F80012012181617CE5E3480021C0F8CF
:10FF00001C11D0F8001241F01001C0F8001271E588
:10FF1000DD4908B5D1F81C21012A01D0002008BD17
:10FF2000D84A183A126802F07F025242027000204A
:10FF3000C1F81C01D54800680090012008BDF8B543
:10FF4000CD4DCE4E0024287C18B1D6F844010128AE
:10FF500007D00022E97ACC48012904D002290AD02E
:10FF600019E00122F6E7D0F80C11012901D0002494
:10FF700011E008240FE0D0F80C11012906D000216F
:10FF8000C34B1B68012B03D0042402E00221F7E7D6
:10FF900000240C43144314F00B0F05D1D0F81011BA
:10FFA000012906D000210C43BA490978C90702D0BB
:10FFB00025E01021F7E7B349E0310A6812F0FF0F9E
:10FFC00003D0D0F81421012A00D0002285F8322075
:10FFD000096811F0FF0F03D0D0F81801012800D0F4
:10FFE000002085F83300AA481030006885F83400F6
:10FFF000FFF701FA012800D0002085F83500FFF74F
:020000040001F9
:1000000003FB0020C6F84401E00606D5200704D40F
:10001000E87A012801D144F020049F48006800904C
:100020002046F8BD2DE9F0411E4615000F46044656
:1000300000D1FFDF2146904CE8076172667302D061
:10004000012D00D0FFDF47B10220A07225730128E7
:1000500005D0022800D0FFDF3DE40120F5E7E07A7B
:100060000228F9D1BDE8F04100F0EFB92DE9F041E7
:10007000814C0D46A27AA2B1217B8B0703D5830761
:1000800001D543071BD4CB0605D594F8333013B103
:1000900094F835309BB10B0709D594F8243073B927
:1000A00005E07F497D48086000F0ADF929E0490787
:1000B00002D594F8251011B110F0110F02D0FFF7FE
:1000C000E6FB1EE0012A01D0012600E00026607A4E
:1000D00001280ED05FF0000700F095F99621304618
:1000E000FFF74FFE014647B13D358D4203D9002051
:1000F0006EE60127F0E701206072627B3046FFF771
:10010000D5FD012064E62DE9F84F5C4D4FF0010864
:10011000C5F84C80D5F84C715948083000680090FB
:100120005C480078042800D3FFDFFFF793FB524CB4
:100130005B49A06B086054480026A663D0F8001203
:1001400021F00D01C0F8001284F83C60D0F80C01D9
:1001500008B9C5F84080FFF7F2FE05464848001F81
:100160000068E062FFF78EFA84F83000E07ADFF88A
:1001700014B184F83100B246ABF15C0BA6620228E0
:1001800008D1607830B1DBF80010097801402078A0
:1001900088431AD084F824A0374EDFF8E490A807EB
:1001A000A6F1180604D5D9F80000A0623169884785
:1001B000280702D5D9F80000A0627169E06A884773
:1001C00034480078C00703D021E084F82480E3E7B6
:1001D000DBF800105846097801F00F01072914D206
:1001E0000168DA460622A01C093108F040FA40B93D
:1001F000217ADAF800000078B1EBD01F01D101209C
:1002000000E0002084F8250001E084F825A04FF0EC
:10021000000A28460099FFF729FF20B91A49C1F8BA
:1002200010804FF0010AE80702D03068804751E0A3
:10023000A80742D5607E08B107B9FFDF680736D44A
:1002400008F0C9FB70BB08F0B6FB58BB1048503033
:100250000068C0F34257C0F3006300F00F02C0F320
:100260000311C0F30320EBB10AB101B1D0B90848C2
:1002700054300068B0B116E0C4090020008000408E
:100280004485004060150040001000401C110040F3
:1002900000140040D4000020448100400000040409
:1002A00008F5014003E0032F01D245F0040545F3B2
:1002B00080005146401C72680BE015F0280F09D0F1
:1002C000207E08B107B9FFDF45F34011B268504600
:1002D000491C9047E80601D5F0688047E07A02287B
:1002E00018D1207C002815D002280FD0012800D07A
:1002F000FFDFE16A6069884200D8FFDFD4F814109C
:10030000C9F80010BDE8F84F00F0CBB86169E06AA9
:100310000144F5E7BDE8F88F70B56749054602204E
:10032000C8722846FFF788FB644C3D352560644D54
:100330000020C5F84401FFF767F90120A864201DDB
:1003400000682168884200D3FFDF70BD70B50C469D
:100350000546FFF77FFA2846FFF7DEFF002C03D0A3
:1003600058494FF40030086070BD574910B500205F
:10037000C1F80002012005F0E7FF52495348086028
:100380005448514A5249121DC0F81015C0F814259E
:100390004D4A5048143208304F49C0F81015C0F883
:1003A00014254B494B480C31121F1030C0F8101562
:1003B000C0F8142543494FF43810091F086010BDD8
:1003C00040494FF4381008600DE500280DDB00F0BF
:1003D0001F02012191404009800000F1E020C0F897
:1003E0008011BFF34F8FBFF36F8FFCE4002809DB50
:1003F00000F01F02012191404009800000F1E0203F
:10040000C0F88012EFE42C48002141728172C17261
:1004100001210173E7E430B500240546012902D02B
:1004200002290AD0FFDF2D4804432D4804602D48DF
:1004300005432B48001D056030BD4FF08074F2E786
:100440001D4890F9210005F055BF1B48817A01290C
:1004500001D1407BF4E7C6E410B508F0BCFA0028EF
:1004600009D108F0A8FA002805D11D4854300168C8
:1004700041F4C021016010BD0F4A527A012A06D012
:100480004FF47A7201F5FA71B1FBF2F1401AAAE465
:100490000949497A002903D10E491031C1F81405E0
:1004A000A1E40548816B41F48001816305494FF463
:1004B0008000091F086096E4C409002044850040BC
:1004C0000080004008F501400010004000000404D6
:1004D0001011004088F001404481004008011000E4
:1004E000141500400000030210B5434822220021E9
:1004F00008F0EEF840480024017821F01001017066
:10050000012101F088FD3C494FF6FF70263981F842
:100510002240888439490880488010BDE4E700F013
:100520005FB83549016070473449088070473249E7
:1005300026398A8CA2F57F43FF3B02D0002101605F
:1005400008E091F822202C492639012A02D00160C6
:1005500001207047002070472748263810F8221FD6
:10056000012908D001210170244823492639008837
:1005700088840120704700207047204948807047D8
:100580001D491E4B26398A8C5B889A4205D191F809
:10059000222012B1016001207047002070471648E8
:1005A000164A2638818C5288914209D14FF6FF7144
:1005B000818410F8221F19B10021017001207047B9
:1005C000002070470C480D4A2638818C5288914291
:1005D00004D190F8220008B1002070470120704734
:1005E000054926398A8C824205D1002081F82200F3
:1005F0004FF6FF70888470472A0A0020DC00002034
:100600007047534A012338B1012804D11370086898
:10061000906088889081704753700868C2F8020023
:100620008888D08070474A4A10B1012807D00EE070
:10063000507860B1D2F802000860D08804E01078E9
:1006400028B1906808609089888001207047002058
:1006500070473F4910B1012802D005E0487800E01A
:10066000087808B1012070470020704730B58DB080
:100670000C4605460D22002104A808F029F8E07870
:100680008DF81F0020798DF81E0060798DF81D000F
:1006900010222946684607F0FBFF684605F088FBF4
:1006A00020789DF82F1088420CD160789DF82E108C
:1006B000884207D1A0789DF82D10884202D10120F0
:1006C0000DB030BD0020FBE730B50C4605468DB0BF
:1006D0004FF0030104F1030012B1FEF76AFC01E0E0
:1006E000FEF786FC60790D2220F0C00040F040004B
:1006F0006071002104A807F0EBFFE0788DF81F007F
:1007000020798DF81E0060798DF81D001022294691
:10071000684607F0BDFF684605F04AFB9DF82F00CC
:1007200020709DF82E0060709DF82D00A070C7E726
:1007300010B5002904464FF0060102D0FEF739FC3F
:1007400001E0FEF755FC607920F0C000607110BD3B
:10075000E000002030B50B4D04462868E040C0079B
:1007600000D0FFDF01202968A0400843286030BD89
:1007700004480068704703480088C0F30020400028
:10078000401C7047F0000020FE480078002800D090
:100790000C20704710B50446FFF7F6FF00B1FFDFED
:1007A000F848047210BDF7490120C871704730B491
:1007B000F44B4AB95A7A9C7AA24205D190F83D206E
:1007C00090F83C40A2420BD031B15A7A90F83D10DB
:1007D00030BC1046FEF7A1BF9A7A90F83C10F7E7BC
:1007E00030BC704770B50C460546082B01D0194641
:1007F00000E00421104601F0FEF90DB9001D80B2A1
:10080000844200D22046C0B270BD2DE9F047814637
:1008100000F014FC044600F00DFC06464FF4A472F0
:100820001B2194F83D30807CFFF7DCFFD54F054657
:10083000D548B8624A4601212046FFF7B8FFB07C90
:100840004FF00008E0B1D0482230FFF7D6FACE4989
:10085000483181F81880D6E91602C1E90402A1F1F5
:10086000260202F12600B96AFEF71DFE94F83D004B
:1008700000F0D6FB024629460120FEF722FE04E0E6
:10088000B86AFFF7BAFAFEF74CFEB9F1000F02D1D1
:100890004046FFF7F1FA94F83C3000210122084667
:1008A0002434FFF7BFFB2078012801D1FFF725FB97
:1008B00002203870BDE8F0872DE9FC47044600F0BF
:1008C000B9FB054600F0BAFBDFF8B8A207460AF10B
:1008D000240A22460021FFF76AFF6879A94C4FF0ED
:1008E0001B08012608B3012842D0022855D003284E
:1008F0005FD0FFDF616A0823087820F008000870E5
:10090000AA7903EAC202104320F004000870EA79D1
:10091000042303EA8202104320F010000870206BC9
:10092000FBF79DFFC0B3012155E000F091FB0146AC
:100930004FF4A4704FF0000901F05DF91B2800D9B5
:100940004046ADF804005046FFF71AFE30B14FF4B0
:100950008060616A00F075FBEE70CBE76A4601A922
:10096000206B00F05BFB606210B195F83D1019B18F
:100970005046FFF7D6FDBDE79DF8001031B9A0F84D
:10098000009080F80290012101F05AFBBDF804109C
:10099000606A01F0DEFBADE712E0ADF804806A4664
:1009A00001A9206B00F03AFB60620028A2D1FFDFB2
:1009B000A0E75046FFF7E4FD00289BD1FFDF99E751
:1009C000606A0078C043800704D0FFF7FBFD80F029
:1009D000010100E00021606A027842EA0111017021
:1009E000697CD9B14178C9B167482230FFF705FA6F
:1009F000654848300676D5E91412C0E90412A0F122
:100A00002601626AFEF74FFD97F83C0000F008FBF4
:100A10000246FB210020FEF754FD03E0FFF7EDF94D
:100A2000FEF77FFD012297F83D3011460020FFF7C9
:100A3000F9FA2671606A01886182807820752670D3
:100A4000BDE8FC872DE9F0434E4D87B080462878FD
:100A50000E9F1C461646894610B90EB104B107B95F
:100A6000FFDF2F62C5E906640026C5E90E89EE7135
:100A7000AE71EE70AE702E716E71EE812E8200F04E
:100A8000D9FA074600F0DAFA0446FEF753FEFEF7FD
:100A900048FD94F93F00FEF77EFF04F11600FFF7D2
:100AA0009CF904F11200FEF77AFFF87EFEF781FF51
:100AB00094F83C100020FFF792F800285ED0032045
:100AC000FFF798F918223149684607F0E1FD6846BA
:100AD000FFF78AF92088FCF732FC28632088FCF7AE
:100AE0001CFC686394F8470078B9206C68B1788D75
:100AF0003988884209D1B4F8441001220844788525
:100B000094F84600216C0AF04FF907F16001DFF814
:100B1000788091E80E1008F148091F2089E80E102E
:100B2000396FC8F86110796FC8F86510A8724FF472
:100B3000A4721B2194F83D30B87CFFF753FEB97CBA
:100B400001B104210844C0B268721F2800D9FFDF38
:100B50000120FFF7B1FE0E480068032801D00B28E2
:100B600000D1FFDF0848C8F87060C8F874607030C2
:100B70003988418021880180F97E017107B0BDE884
:100B8000F0830000F4000020500A002084B101002E
:100B90005015004010B5FEF77AFEFEF7C2FC00F0DB
:100BA0004DFA044690F82400012801D1FFF79BF983
:100BB00094F8470038B9206C28B1002294F8460018
:100BC00011460AF0F1F8FC4C208A00F05DFA226A26
:100BD000A179A0789047F948417C51B1A0F170010A
:100BE0000A6F8A674A6FCA6701210174207A07F089
:100BF000FFFF0020207010BDEF4810B5017821B133
:100C00000078012800D0FFDF10BDBDE81040C1E72B
:100C100030B5EA494A7C8AB10A7C7AB100221D23A8
:100C2000A1F170040A7442700370A56F4560E56F0E
:100C300085600D7C002DF5D1012030BD002030BD38
:100C4000DE4948747047DC4810B50078022800D0AF
:100C5000FFDFDA490120C871BDE810409AE7D648A5
:100C60000078002800D095E7704770B5D24C054653
:100C700039B9012D05D1E078401CC0B2E0700128DF
:100C80002CD8E1692846884740B3CC486179703850
:100C900031B1012D04D1417811B90178C9061DD5B2
:100CA000A179D9B9012D01D0002070BDC2491231FE
:100CB0000978CA0604D40078C00601D4012000E0F7
:100CC0000020E26A2AB9A2891AB1C90601D4012119
:100CD00000E00021E28910430843E6D0012070BD06
:100CE00010B5B54CE06A00B9FFDFA289D4E90A105B
:100CF000D21C07F0CDFCE06AA06210BD2DE9F047E0
:100D0000064600F097F9AC4D0446A86A47780EB144
:100D1000012E03D1696B05F0A1FB687068784FF074
:100D200000084FF0010938B1012816D002282FD051
:100D3000032844D0FFDFBDE5012E30D0FFF7D0FF00
:100D400039460122686BFBF7FBFD26E084F807803B
:100D500030E000BF84F807902CE0012E08D0FFF7A8
:100D6000BFFF39460022686BFBF7EAFD022EE2D096
:100D7000D4E91601401C41F10001C4E91601E079F3
:100D8000012802D084F8079094E584F8078091E563
:100D9000012E04D0686BFBF759FF022ECBD0D4E9AB
:100DA0001601401C41F10001C4E91601E079012857
:100DB000D0D1CBE7287ABDE8F04707F019BF012E64
:100DC000B9D0686BFBF742FFF4E72DE9F041074625
:100DD00000F030F90446784800260125816A0A7837
:100DE00002F00302012A15D0022A13D0032A03D0ED
:100DF000817941F0040124E0A570028A42F4006286
:100E00000282012000F01DF91DE0E671BDE8F081CD
:100E1000E571FBE74978B1B1028A42F400620282CF
:100E2000C26A002AF2D01B2908D8C07920B1BDE8D7
:100E3000F041802000F028B93D70E7E7817941F06A
:100E400010018171E2E7E0790128E1D1DDE72DE9C8
:100E5000F0410E46804600F0EDF8574D04462878E4
:100E6000012800D0FFDFA078012728B10020A07062
:100E70000146042000F0E5F8696A0878C04380075D
:100E800009D16079C8B9022000F0DBF8686A0078FF
:100E9000C043800711D0686A407810B102206071A9
:100EA00000E0677136EA080604D001210020FFF750
:100EB000DCFE20B1BDE8F0416CE60320EFE7BDE8C1
:100EC000F0410020A1E42DE9F84F8A46814600F068
:100ED000B1F8394C002605468DF8006020780228CC
:100EE00000D0FFDF208AB9F1000F40F400702082AB
:100EF000324865D04179491C4171A87CFEF734FB2A
:100F0000FEF724FB4FF0010868B9A87C58B1A06A2D
:100F1000417841B10078E979C0F3C000884202D13C
:100F200084F8028065E0A06A4178A18121B1606BFC
:100F3000FBF7C0FCE06200E0E662208A40F020009F
:100F40002082E67000F076F8064600F077F8074653
:100F500090F82400012817D1FEF7C5FF3146384626
:100F600000F076FD80B114483A8838304068A0F827
:100F70000621327A80F80821727A80F8092180F8F7
:100F80000481207A07F034FEA06AA9790078C0F3C2
:100F90008000884205D000F07CF8208A40F4807000
:100FA0002082A06AE9790078C0F3C000884212D19B
:100FB0006846FFF70AFF0EE0F4000020C00A002098
:100FC0008179491C8171A87C08B1FEF7FEFA208A5C
:100FD00040F040002082BAF1000F04D149460120C0
:100FE000FFF743FE48B19DF8000010B10020FFF765
:100FF00085FEFFF7CFFDBDE8F88F9DF8000010B12A
:101000000120FFF77BFE0020FFF756FC9DF8000053
:101010000028F0D00220FFF771FEECE7FBF759BB88
:1010200000B5012802D0022802D0FFDF002000BD59
:10103000012000BD37484068483070473548406857
:101040007047344A383AD3890343D38192691047B1
:1010500010B5FFF7F3FF0446FFF7ECFF017B2D4AC5
:10106000212908D0407B212805D094F83C00042891
:1010700000D1082010BD506890F8EA1094F83C00A8
:10108000BDE8104000F03BB8224A0021383A92698E
:10109000104770B5FFF7CEFF0446407900282BD0EB
:1010A000022810D11B4D383D286BFBF73EFB00B9E1
:1010B000FFDFD4E91401401C41F10001C4E914012F
:1010C000287A07F095FD00256571E078012678B152
:1010D000E570FFF764FA00B9FFDF00210820FFF791
:1010E000B0FFD4E91401401C41F10001C4E914012E
:1010F000A079012801D0A67170BDA57170BD00292D
:1011000004D0012803D0012901D00220704701201A
:10111000704700002C0100202DE9F0410F460646E3
:101120000024F64D0FE000BF05EBC40090F853110A
:10113000B14206D10622394600F5AA7007F097FAA7
:1011400038B1641CE4B22878A042EDD81020BDE884
:10115000F0812046FBE72DE9F041E84D0746904637
:101160002C780E46601C2870102C00D3FFDF05EB96
:10117000C4003168C0F85411B188A0F8581180F843
:10118000537180F85A812046E1E770B5054600F0BA
:101190008CFA10281CD1D94C2078401EC0B2207087
:1011A000A84215D004EBC00204EBC50102F5807023
:1011B000D2F85321C1F85321D0F85700C1F8570194
:1011C000207800F072FA102802D0204480F80351F1
:1011D00070BD2DE9F047C94C0646A719A078401EFE
:1011E000C5B2A57097F80381AE422AD004EB051A68
:1011F00004EB06190AF1030109F10300102207F0BC
:1012000047FA0AF1830109F18300102207F040FA3E
:10121000601905EB450290F8031187F8031106EBFE
:10122000460104EB420204EB4101D2F80B31C1F854
:101230000B31B2F80F21A1F80F2190F83B0187F88C
:101240003B0104EBC80090F85A01C00703D14046A7
:10125000BDE8F04799E7BDE8F087A8498A7882425F
:1012600003D9084490F8430170470020704710B537
:1012700040F2D3120021A14807F02AFA0822FF21E8
:101280009F4807F025FA9E480021001F0170417019
:101290004FF46171418010BD70B50D460646FFF7F1
:1012A0003BFF964C102807D004EBC00191F85A116F
:1012B000C90701D0012070BD6178082910D210281B
:1012C00008D004EBC000012180F85A116078401C5E
:1012D0006070EFE7012229463046FFF73CFFF5E753
:1012E000002070BD70B5854D2878401E44B20AE0DC
:1012F00005EBC40090F85A01C00702D0E0B200F03C
:10130000E5F9641E64B2002CF2DA7D490020091F61
:10131000487070BD79498A78824203D901EB001088
:10132000C01C7047002070472DE9F04701251F467B
:1013300091462C460026FFF7EFFE102823D0DFF859
:10134000BC8108EBC00191F85A1101F0010600F0D0
:10135000ACF90346102816D007B13B701846FFF7CA
:10136000D9FF80B198F802104046994203D9C118BC
:1013700091F84B4100E0002408EB030090F83B019A
:10138000012805D0002549EA06002543284062E7E8
:101390000125F8E72DE9F047984691460C460546A9
:1013A000FFF7BAFE0646102805D000F07EF9102897
:1013B00001D012204FE7514FB87808282AD2102EBA
:1013C00005D1002221462846FFF7C5FE0646BC7817
:1013D0001022601CB87007EB0415E81C494600F0A9
:1013E0000CFB05F183001022414600F006FB1021A2
:1013F000404600F0F3FA3C44102184F8430148468B
:1014000004F5967400F0EAFAE07704F8296C0020FD
:10141000E07320E707201EE7384810B58078401EAB
:1014200044B204E0E0B2FFF7D4FE641E64B2002CC4
:10143000F8DA10BD3249091F087070473048001FA4
:101440000078704740B14AF2B811884204D82C495C
:10145000091F488001207047002070472848001F5E
:101460004088704710B5FFF757FE102803D000F0F2
:101470001CF9102800D1082010BD20498A7882422A
:1014800003D901EB001083307047002070471B4BDD
:1014900010B59C7884420FD9184490F8030103EBEF
:1014A000C00090F853310B70D0F854111160B0F8AF
:1014B00058019080012010BD002010BD70B5104B68
:1014C0001B1F1B7873B10D4B9C785CB145182146EE
:1014D0000AB1D81C01E0094883302A46FDF74FFFC6
:1014E000012070BD002070BD10B5FDF796FF18B14A
:1014F000BDE81040FDF7A1BFFF2010BDD20A0020BB
:101500003801002076498A78824209D9084490F847
:10151000030101EBC00090F85A0100F00100704790
:10152000002070472DE9F041002425466C4E29E04B
:1015300006EBC50797F85A01C00721D0284600F0EE
:10154000B4F80346FFF7E6FE01460020102B09D051
:10155000F21892F83BC1BCF1010F02D092F84B2176
:1015600002B10120401E01420AD15E4807F5AA716E
:1015700003552046641C97F85321E4B2FEF7E6F9C0
:101580006D1CEDB23078A842D2D8E0E570B50026E7
:101590003546534C18E0601990F83B2190F8031140
:1015A000012A02D090F84B0160B14E4804EBC10112
:1015B000731C855591F853213046DEB201F5AA71AE
:1015C000FEF7C4F96D1CEDB2A078A842E3D870BD57
:1015D000012273E7424A01EB410102EB410102683B
:1015E000C1F80B218088A1F80F0170472DE9F04167
:1015F000064600243A4D19E02046FFF73EFF03005F
:1016000012D0281990F8430170B904EB440005EB9F
:10161000400707F20B17324639461846FFF754F8D1
:1016200038462146FFF7D6FF641CE4B2A878A042F2
:10163000E2D88CE5014610222B4800F0DEB92A489A
:10164000704727498A78824203D90A1892F84321C1
:101650000AB10020704700EB400001EB400000F2AF
:101660000B1070472DE9F0410E460746154606213E
:10167000304600F0B3F91A4C58B1002004E02118AC
:10168000401C81F83B51C0B2A1788142F7D80120BB
:101690005DE531463846FFF7E5FE082803D02044D3
:1016A00080F83B51F3E7002051E50D4910B50346A2
:1016B00000208A7806E00C1894F803419C4204D07C
:1016C000401CC0B28242F6D8102010BD04494A78AE
:1016D000521E4A7001EBC001002281F85A2154E5E4
:1016E000D20A002038010020A50C002000F00101E2
:1016F000400800F001021144400800F001021144CA
:10170000400800F001021144400800F001021144B9
:10171000400800F001021144400800F001021144A9
:1017200001EB5000704710B504468022002106F0FE
:10173000CFFF0020A071E07120736073E07320740C
:101740006071A076E076FFF713F844F62B1108409D
:1017500084F84600000A84F84700FE2084F87B00E5
:1017600010BD70B5044605884822002106F0B0FF80
:1017700004F134002580012202724272282084F88C
:101780003E00002020646064627470BD30B50024A7
:10179000C485448E4C43B4FBF2F4448642F2107488
:1017A0006343B3FBF2F35B1C9BB2038603FB02F4BF
:1017B000FE4DAC4201D95B1E0386FD4B40F2712405
:1017C000B3FBF2F35B1CC386038D634302EB03138D
:1017D0005B1EB3FBF2F34362036A4B43B3FBF2F1CC
:1017E000016230BD70B50546087C0E4600F01F0052
:1017F00008740020687604463019007BFFF776FFF6
:101800002919641C0875697EE4B208446876052CC1
:10181000F2D3C0B2252800D9FFDF70BD10B5044651
:10182000202800D3FFDFE34830F8140010BD30B5A6
:101830000D460446202800D3FFDFDE4820F8145070
:1018400030BD00230362028540F271235A4301EB4D
:101850000212521EB2FBF1F141627047F0B56FF017
:101860001F02010C02EA90261F25A1F5AA40543858
:101870000DD0A1F5AA40553809D0A1F52850AA38B5
:1018800005D0A1F52A40AA3801D0012000E00020AF
:10189000002213464FEA020482EA0107FF431F4376
:1018A0007F1C0FD006F00107520842EAC73205F04C
:1018B00001075B0876086D08641C43EAC733162CE1
:1018C000EAD3F0BD0020F0BD70B5044648300546AF
:1018D00049B101291CD002292CD0032917D1214656
:1018E000BDE870407EE7FFF71EFF2046FFF739FF97
:1018F0000020A4F8E200202184F8E11084F8E00040
:1019000044F8C80F20636063A06384F8240070BDAE
:101910006168A9480A460844B0FBF1F0E0664BF65E
:101920008030A4F8700063892846FFF72FFF214616
:101930002846D5E7D4F8F0006168438AC268284693
:10194000BDE8704022E7437E0BB1252B01D9122060
:1019500070472AB14B7C2BB1012B05D01F2070475B
:101960000020704700F069BA00F010BA934A01688D
:1019700012681140914A121D1268114301607047AC
:1019800070B500258E498D4C01220B785B1CDBB2B3
:101990000B70202B00D10D700E78236802FA06F62A
:1019A0003342F2D0097803688A405A40026070BD21
:1019B00070B50646007940090ED100252C46305DF1
:1019C000FFF794FE641C2844E4B2C5B2052CF6D39C
:1019D000012D01D9012070BD002070BD10B500237C
:1019E0001A4603E0845C2343521CD2B28A42F9D3E4
:1019F0000BB1002010BD012010BD30B5134606E02C
:101A0000CC18D51A14F8014C5B1E4455DBB2002BE0
:101A1000F6D130BD70B50E468CB0144601461D4659
:101A200010226846FFF7E9FF1022314604A8FFF7AD
:101A3000E4FF684604F0BCF908A94FF010022846FC
:101A40001CB1FFF7DAFF0CB070BD06F021FEFAE71B
:101A500038B505460C466846FEF75AFA002820D0ED
:101A60009DF900002072E17E617294F90A10002253
:101A7000411A00D5494295F825308B4210DCFF2BE6
:101A80000ED0E17A491CC9B2E17295F8263099422C
:101A900002D8A17A7F2903D1A0720020E07201222E
:101AA000104638BD0C2813D00B2811D00D280FD0AC
:101AB0001C280DD01D280BD01E2809D01F2807D0A8
:101AC000202805D0212803D0232801D000207047EA
:101AD0000120704710B5A2F10F030C2948D2DFE8AE
:101AE00001F006080D121518272F32454735E2B3CD
:101AF0003EE0072A3ED0082A3CD039E00C2A39D0F3
:101B00000B2A37D034E00D2A34D031E00C2B31D9F8
:101B10002EE0122A2ED0112A2CD090F83E0020B1AF
:101B2000122A25D31A2A25D922E0162AFAD21FE032
:101B3000032B1FD990F83E00D0B11B2A1AD917E009
:101B4000042A17D014E0012A14D011E01C2A11D065
:101B50001D2A0FD01E2A0DD01F2A0BD0202A09D0F3
:101B6000212A07D0232A05D002E003E0052A01D06C
:101B7000002010BD012010BD2DE9F0410C460546A6
:101B8000C66808F0A3FB00B9FFDFFCB13046E96886
:101B900007F0A6FB002819DD2044401EB0FBF4F737
:101BA00007FB04F1304607F073FB0BE00048E80147
:101BB000005A6202B60C0020FF379C1C9CB1010049
:101BC00040010020E8603846BDE8F0810020FBE7D6
:101BD00070B5044690420BD2101B642800D26420DA
:101BE00025188D4203D8042107F05CFA08B120467D
:101BF00070BD284670BD11F00C0F17D04A074FF486
:101C00001671002A03DA00BF4FF0100201E04FF016
:101C1000400201DA4FF0960101F5BC71A0EB01031F
:101C2000884210D993FBF2F080B27047022902D0AB
:101C300070280AD807E03C2805D93C38C11700EBCA
:101C400091708010F0E70020EEE77038C11700EBCC
:101C50005170C010E8E730B50844DDE90345204481
:101C60001044801C002D04D10BB1042100E00021A0
:101C7000084430BD106888637047012802D00228EC
:101C800000D000207047F8B5CFB20646C1F3072454
:101C90002146384600F011F9F5B2C6F3072620B9FF
:101CA0003146284600F009F940B1274035403D4013
:101CB000444665F3070465F30F2406E025404446D7
:101CC00065F307043E4066F30F24E0B200F056F8D7
:101CD0008DF80000C4F3072000F050F88DF80100E3
:101CE000BDF80000F8BD30B52A242325162A05D1F9
:101CF0000C2807D00D2805D01C2805D071B1162A54
:101D00000CD104E01C7000E01D70012030BD08788B
:101D10000128F7D00028F5D01628F5D0002030BDD6
:101D200010B540F6C4125410012903D0022902D084
:101D3000FFDF02E008B1104610BD204610BD40F2A2
:101D4000E241B0FBF1F080B2704740F2E24148431B
:101D5000704740F2E24110FB01F0704740F2E2416F
:101D6000B0FBF1F0C0B2704740F2E2414843704727
:101D700040F2E241B0FBF1F080B27047810701D53B
:101D800002207047C007FCD001207047F0B50C7DE1
:101D90008B7CCD7C5C404B7D02886B4044EA032405
:101DA000467E62400023D5B2120A95FAA5F592FA52
:101DB000A2F22D0E120E45EA022202EB02125B1C69
:101DC0002244DBB292B2032BEDD362402523B2FB57
:101DD000F3F403FB142301EBD304837603F007072A
:101DE000247B012505FA07F73C4201D0C3761AE0AF
:101DF0005643320C521CD2B2002403191B7D93426D
:101E000013D300230E19367B05FA03F73E4201D0A7
:101E1000521ED2B222B15B1CDBB2082BF4D306E017
:101E200003EBC401C1760020F0BDD21AD2B2641C0B
:101E3000E4B2052CE1D31F20F0BDF0B5837E91F80C
:101E40002040012504FB02322523B2FBF3F403FBFF
:101E5000142201EBD204827602F00703247B05FAF8
:101E600003F31C4201D0C2761DE0437EB2FBF3F4C3
:101E700003FB1422521CD2B20023C418247D9442C6
:101E800013D30024CE18367B05FA04F73E4201D066
:101E9000521ED2B222B1641CE4B2082CF4D306E084
:101EA00004EBC301C1760020F0BD121BD2B25B1C53
:101EB000DBB2052BE1D31F20F0BD012802D00228A0
:101EC00003D004E0012904D001E0022901D0002060
:101ED000704701207047000030B50546007801F0DA
:101EE0000F0220F00F001043287007290BD2DFE803
:101EF00001F00406040604080400062405E00C248E
:101F000003E0222401E00024FFDF6C7030BD007884
:101F100000F00F0070470A6840F8032F898881801D
:101F2000704750F8032F0A608088888070470A68DD
:101F300040F8092F8988818070470278402322F079
:101F4000400203EA81110A43027070470078C0F32F
:101F500080107047027822F0800242EAC1120270BB
:101F6000704770B544780E460546062C00D2FFDF58
:101F7000A41FA4B21F2C00D91F24224605F1090179
:101F8000304606F085FB204670BD0968C0F80F108A
:101F900070470A88A0F8132089784175704710F8B7
:101FA000242F01F01F0122F01F020A430270704724
:101FB000072900D9072110F8242F22F0E00242EA75
:101FC0004112027070470A6840F81F2F09790171A9
:101FD00070474178007810F00F0005D0012807D035
:101FE000022801D0062805D1891F1F2904D901E044
:101FF0000C2901D00020704701207047017801F0C2
:102000000F01042905D14078801F1F2801D8012025
:1020100070470020704700B5027801F0030322F0FA
:1020200003021A430270012905D0022903D00329B3
:1020300003D0FFDF00BD002100E00121417000BDA1
:1020400000B5027801F0030322F003021A43027084
:10205000012905D0022903D0032903D0FFDF00BDE9
:10206000002100E00121417000BD007800F0030074
:102070007047417841B1C078192803D2394A105CC1
:10208000884201D1012070470020704730B50124FB
:102090000546C170192902D23248445C02E0FF298A
:1020A00000D0FFDF6C7030BDC172090A0173704748
