:020000040000FA
:1000000000040020810A000015070000610A0000BA
:100010001F07000029070000330700000000000050
:10002000000000000000000000000000A50A000021
:100030003D070000000000004707000051070000D6
:100040005B070000650700006F07000079070000EC
:10005000830700008D07000097070000A10700003C
:10006000AB070000B5070000BF070000C90700008C
:10007000D3070000DD070000E7070000F1070000DC
:10008000FB070000050800000F0800001908000029
:10009000230800002D080000370800004108000078
:1000A0004B080000550800005F08000069080000C8
:1000B000730800007D080000870800009108000018
:1000C0009B080000A5080000AF080000B908000068
:1000D000C3080000CD080000D7080000E1080000B8
:1000E000EB080000F5080000FF0800000909000007
:1000F000130900001D090000270900003109000054
:100100003B0900001FB500F003F88DE80F001FBD8C
:1001100000F0ACBC40F6FC7108684FF01022401CA7
:1001200008D00868401C09D00868401C04D0086842
:1001300000F037BA9069F5E79069F9E7704770B554
:100140000B46010B184400F6FF70040B4FF0805073
:100150000022090303692403406943431D1B104621
:1001600000F048FA29462046BDE8704000F042BA47
:10017000F0B54FF6FF734FF4B4751A466E1E11E0DA
:10018000A94201D3344600E00C46091B30F8027B3B
:10019000641E3B441A44F9D19CB204EB134394B25D
:1001A00004EB12420029EBD198B200EB134002EBB2
:1001B000124140EA0140F0BDF34992B00446D1E952
:1001C0000001CDE91001FF224021684600F0F4FB58
:1001D00094E80F008DE80F00684610A902E004C8FB
:1001E00041F8042D8842FAD110216846FFF7C0FF7C
:1001F0001090AA208DF8440000F099F9FFF78AFFCB
:1002000040F6FC7420684FF01025401C0FD0206889
:1002100010226946803000F078F92068401C08D030
:100220002068082210A900F070F900F061F9A869AF
:10023000EEE7A869F5E74FF080500369406940F6A2
:10024000FC71434308684FF01022401C06D0086838
:1002500000F58050834203D2092070479069F7E788
:100260000868401C04D00868401C03D00020704778
:100270009069F9E70420704770B504460068C34DE3
:10028000072876D2DFE800F033041929631E250021
:10029000D4E9026564682946304600F062F92A46CE
:1002A0002146304600F031F9AA002146304600F0E0
:1002B00057FB002800D0032070BD00F009FC4FF46C
:1002C000805007E0201D00F040F90028F4D100F034
:1002D000FFFB60682860002070BD241D94E80700C3
:1002E000920000F03DFB0028F6D00E2070BDFFF715
:1002F000A2FF0028FAD1D4E901034FF0805100EBAE
:10030000830208694D69684382420ED840F6F8704E
:1003100005684FF010226D1C09D0056805EB8305B8
:100320000B6949694B439D4203D9092070BD55694A
:10033000F4E70168491C03D00068401C02D003E0C8
:100340005069FAE70F2070BD2046FFF735FFFFF731
:1003500072FF0028F7D1201D00F0F7F80028F2D135
:1003600060680028F0D100F0E2F8FFF7D3FE00F05B
:10037000BFF8072070BD10B50C46182802D0012028
:10038000086010BD2068FFF777FF206010BD41684E
:10039000054609B1012700E0002740F6F8742068FF
:1003A0004FF01026401C2BD02068AA68920000F065
:1003B000D7FA38B3A86881002068401C27D020688D
:1003C000FFF7BDFED7B12068401C22D026684FF051
:1003D0008050AC686D68016942695143A9420DD9EA
:1003E000016940694143A14208D92146304600F0E5
:1003F000B8F822462946304600F087F800F078F831
:100400007069D2E700F093F8FFF784FEF6E77069B1
:10041000D6E77669DBE740F6FC7420684FF01026DB
:10042000401C23D02068401C0CD02068401C1FD0EA
:100430002568206805F18005401C1BD027683879A5
:10044000AA2819D040F6F8700168491C42D001680A
:10045000491C45D00168491C3ED001680968491C07
:100460003ED00168491C39D000683EE0B069DAE747
:10047000B569DEE7B769E2E710212846FFF778FEA5
:100480003968814222D12068401C05D0D4F8001080
:1004900001F18002C03107E0B169F9E730B108CA63
:1004A00051F8040D984201D1012000E000208A4259
:1004B000F4D158B1286810B1042803D0FEE72846CB
:1004C000FFF765FF3149686808600EE0FFF722FE1C
:1004D00000F00EF87169BBE77169BFE7706904E06D
:1004E0004FF480500168491C01D000F0CBFAFEE7C0
:1004F000BFF34F8F26480168264A01F4E06111439B
:100500000160BFF34F8F00BFFDE72DE9F0411746B3
:100510000D460646002406E03046296800F054F8EF
:10052000641C2D1D361DBC42F6D3BDE8F08140F69B
:10053000FC700168491C04D0D0F800004FF48051D1
:10054000FDE54FF010208069F8E74FF080510A690F
:10055000496900684A43824201D810207047002050
:10056000704770B50C4605464FF4806608E0284693
:1005700000F017F8B44205D3A4F5806405F5805562
:10058000002CF4D170BD0000F40A0000000000202F
:100590000CED00E00400FA05144801680029FCD0C5
:1005A0007047134A0221116010490B68002BFCD0E0
:1005B0000F4B1B1D186008680028FCD0002010603D
:1005C00008680028FCD07047094B10B501221A605A
:1005D000064A1468002CFCD0016010680028FCD08A
:1005E0000020186010680028FCD010BD00E4014015
:1005F00004E5014070B50C46054600F073F810B9EB
:1006000000F07EF828B121462846BDE8704000F091
:1006100007B821462846BDE8704000F037B8000012
:100620007FB5002200920192029203920A0B000B06
:100630006946012302440AE0440900F01F0651F80C
:10064000245003FA06F6354341F82450401C8242F8
:10065000F2D80D490868009A10430860081D016827
:10066000019A1143016000F03DF800280AD00649C4
:1006700010310868029A10430860091D0868039A3F
:10068000104308607FBD00000006004030B50F4CED
:10069000002200BF04EB0213D3F800582DB9D3F8A1
:1006A000045815B9D3F808581DB1521C082AF1D3C3
:1006B00030BD082AFCD204EB0212C2F80008C3F8CD
:1006C00004180220C3F8080830BD000000E0014013
:1006D0004FF08050D0F83001082801D0002070473A
:1006E000012070474FF08050D0F83011062905D016
:1006F000D0F83001401C01D0002070470120704725
:100700004FF08050D0F830010A2801D00020704707
:100710000120704708208F490968095808471020B0
:100720008C4909680958084714208A4909680958FA
:100730000847182087490968095808473020854923
:100740000968095808473820824909680958084744
:100750003C20804909680958084740207D490968BC
:100760000958084744207B49096809580847482028
:1007700078490968095808474C207649096809589A
:10078000084750207349096809580847542071499F
:1007900009680958084758206E49096809580847E8
:1007A0005C206C4909680958084760206949096854
:1007B00009580847642067490968095808476820AC
:1007C00064490968095808476C2062490968095852
:1007D000084770205F4909680958084774205D4937
:1007E00009680958084778205A490968095808478C
:1007F0007C205849096809580847802055490968EC
:10080000095808478420534909680958084788202F
:1008100050490968095808478C204E490968095809
:10082000084790204B4909680958084794204949CE
:10083000096809580847982046490968095808472F
:100840009C204449096809580847A0204149096883
:1008500009580847A4203F49096809580847A820B3
:100860003C49096809580847AC203A4909680958C1
:100870000847B0203749096809580847B420354966
:10088000096809580847B8203249096809580847D3
:10089000BC203049096809580847C0202D4909681B
:1008A00009580847C4202B49096809580847C82037
:1008B0002849096809580847CC2026490968095879
:1008C0000847D0202349096809580847D4202149FE
:1008D000096809580847D8201E4909680958084777
:1008E000DC201C49096809580847E02019490968B3
:1008F00009580847E4201749096809580847E820BB
:100900001449096809580847EC2012490968095830
:100910000847F0200F49096809580847F4200D4995
:10092000096809580847F8200A490968095808471A
:10093000FC2008490968095808475FF48070054998
:10094000096809580847000003480449024A034B54
:100950007047000000000020000B0000000B0000AA
:1009600040EA010310B59B070FD1042A0DD310C82C
:1009700008C9121F9C42F8D020BA19BA884201D97E
:10098000012010BD4FF0FF3010BD1AB1D30703D0C6
:10099000521C07E0002010BD10F8013B11F8014B7C
:1009A0001B1B07D110F8013B11F8014B1B1B01D198
:1009B000921EF1D1184610BD02F0FF0343EA032254
:1009C00042EA024200F005B87047704770474FF0A6
:1009D00000020429C0F0128010F0030C00F01B800C
:1009E000CCF1040CBCF1020F18BF00F8012BA8BF1A
:1009F00020F8022BA1EB0C0100F00DB85FEAC17CDE
:100A000024BF00F8012B00F8012B48BF00F8012B90
:100A100070474FF0000200B51346944696462039C1
:100A200022BFA0E80C50A0E80C50B1F12001BFF4A7
:100A3000F7AF090728BFA0E80C5048BF0CC05DF80D
:100A400004EB890028BF40F8042B08BF704748BF5B
:100A500020F8022B11F0804F18BF00F8012B7047CF
:100A6000014B1B68DB6818470000002009480A4951
:100A70007047FFF7FBFFFFF745FB00BD20BFFDE719
:100A8000064B1847064A1060016881F308884068E1
:100A900000470000000B0000000B000017040000DE
:100AA000000000201EF0040F0CBFEFF30881EFF3ED
:100AB0000981886902380078182803D100E0000015
:100AC000074A1047074A12682C3212681047000084
:100AD00000B5054B1B68054A9B58984700BD0000B0
:100AE0007703000000000020F00A0000040000006E
:100AF000001000000000000000FFFFFF0090D00386
:10100000D00C0020598A01006D910000BF890100B9
:101010006D9100006D9100006D91000000000000D6
:10102000000000000000000000000000E58A010050
:101030006D910000000000006D9100006D910000B6
:101040004D8B0100538B01006D9100006D910000EC
:101050006D9100006D9100006D9100006D91000098
:10106000598B01006D9100006D9100005F8B0100B4
:101070006D910000658B01006B8B0100718B01008D
:101080006D9100006D9100006D9100006D91000068
:101090006D9100006D9100006D9100006D91000058
:1010A0006D910000778B01006D9100006D91000043
:1010B0006D9100006D9100006D9100006D91000038
:1010C0006D9100006D9100006D9100006D91000028
:1010D0006D9100006D9100006D9100006D91000018
:1010E0006D9100006D9100006D9100006D91000008
:1010F0006D9100006D9100006D9100006D910000F8
:101100006D9100006D91000000F002F817F093FC63
:101110000AA090E8000C82448344AAF10107DA4552
:1011200001D117F088FCAFF2090EBAE80F0013F0F6
:10113000010F18BFFB1A43F001031847747E01002A
:10114000947E01000A444FF0000C10F8013B13F0AC
:10115000070408BF10F8014B1D1108BF10F8015B10
:10116000641E05D010F8016B641E01F8016BF9D103
:1011700013F0080F1EBF10F8014BAD1C0C1B09D15A
:101180006D1E58BF01F801CBFAD505E014F8016BCC
:1011900001F8016B6D1EF9D59142D6D3704700005E
:1011A0000023002400250026103A28BF78C1FBD870
:1011B000520728BF30C148BF0B6070471FB500F011
:1011C00003F88DE80F001FBD17F032BC70B51B4C43
:1011D00005460A202070A01C00F0D7F85920A080F6
:1011E00029462046BDE8704006F00ABE06F013BE50
:1011F00070B50C461249097829B1A0F160015E2949
:1012000008D3012013E0602804D0692802D043F2FB
:1012100001000CE020CC0B4E94E80E0006EB8000A1
:10122000A0F58050241FD0F8806E2846B04720607B
:1012300070BD0120704706207047000008000020A4
:101240001C000020A08B01003249884201D20120FD
:1012500070470020704770B50446A0F500002E4E80
:10126000B0F1786F02D23444A4F5000429488442D6
:1012700001D2012500E0002500F043F848B125B96E
:10128000B44204D32548006808E0012070BD002066
:1012900070BD002DF9D1B442F9D321488442F6D271
:1012A000F3E710B50446A0F50000B0F1786F03D263
:1012B00019480444A4F5000400F023F84FF08041DD
:1012C00030B11648006804E08C4204D2012003E0EB
:1012D00013488442F8D2002080F0010010BD10B500
:1012E00020B1FFF7DEFF08B1012010BD002010BDC6
:1012F00010B520B1FFF7AFFF08B1012010BD0020ED
:1013000010BD084808490068884201D10120704793
:101310000020704700900100000000202000002005
:101320000800002050000020BEBAFECA10B50446D6
:101330000021012000F037F800210B2000F033F8E5
:101340000021082000F02FF80421192000F02BF8CC
:1013500004210D2000F027F804210E2000F023F8CE
:1013600004210F2000F01FF80421C84300F01BF8EF
:101370000621162000F017F80621152000F013F8BA
:101380002046FFF723FF002010BD40F2031101802B
:101390007047FFF72BBF002070470B487047FFF7DF
:1013A00027BF704770474907090E002804DB00F18A
:1013B000E02080F80014704700F00F0000F1E020FA
:1013C00080F8141D7047000003F9004230B5FF4D4E
:1013D0000446062CA9780ED2DFE804F0030E0E0EA8
:1013E0000509FFDF08E0022906D0FFDF04E003293A
:1013F00002D0FFDF00E0FFDFAC7030BDF34810B576
:10140000407E4108F14800F11A0005D00BF0EDFDD7
:10141000BDE8104006F08CBB0BF0CEFDF8E730B510
:101420000446A1F120000D460A2847D2DFE800F06B
:1014300005070C19202532373C41FFDF3FE02078BB
:1014400020283CD1FFDF3AE0E0488078052836D0FC
:101450002078242833D0252831D023282FD0FFDF2F
:101460002DE0207822282AD0232828D8FFDF26E064
:101470002078222823D0FFDF21E0207822281ED0E8
:1014800024281CD026281AD0272818D0292816D07E
:10149000FFDF14E02078252811D0FFDF0FE020784F
:1014A00025280CD0FFDF0AE02078252807D0FFDFB1
:1014B00005E02078282802D0FFDF00E0FFDF25705C
:1014C00030BD1FB50022ADF800200C88ADF80240F9
:1014D0004B88ADF80430CA88ADF808208988ADF88B
:1014E00006100021ADF80A10ADF80C1080B14FF6CF
:1014F000FF700621844201D1ADF80210834201D170
:10150000ADF80410824203D14FF44860ADF80800F2
:1015100068460BF03BFE06F00BFB04B010BD70B547
:1015200014460D460646FFF796FE60B90DB1A5427A
:1015300001D90C2070BD002409E000BF56F824003A
:10154000FFF789FE08B1102070BD641CE4B2AC4204
:10155000F4D3002070BD2DE9F04105461F469046AA
:101560000E4600240068FFF7C3FE30B9A98828683A
:101570000844401EFFF7BCFE10B11020BDE8F0810A
:1015800028680028A88802D0B84202D850E0002875
:10159000F4D00920F2E72968085DB8B1671CCA5D7C
:1015A000152A2ED03CDC152A3AD2DFE802F0391297
:1015B000222228282A2A3131393939393939393919
:1015C00039392200085D30BB641CA4B2A242F9D8AC
:1015D00033E00228DDD1A01C085C88F80000072851
:1015E00001D2400701D40A20C8E7307840F001005A
:1015F00015E0C143C90707E0012807D010E0062025
:10160000BCE70107A1F180510029F5D01846B5E7E4
:101610003078810701D50B20B0E740F00200307030
:101620002868005D384484B2A888A04202D2B0E79E
:101630004FF4485382B2A242ADD800209EE710B5C5
:101640000278540809D0012243F20223012C07D06A
:10165000022C0DD0032C13D10FE00020087005E000
:1016600080790324B4EB901F0AD10A70002010BDCA
:101670008079B2EB901F03D1F7E780798009F4D02D
:10168000184610BD08B500208DF800004F4890F8AE
:10169000221051B190F8230002280FD003280FD058
:1016A000FFDF00BF9DF8000008BD484869461930BB
:1016B00001F0AEF80028F5D0FFDFF3E7032000E0EB
:1016C00001208DF80000EDE738B50C460546694667
:1016D00001F09EF800280DD19DF80010207861F3EC
:1016E0004700207055F8010FC4F80100A888A4F83D
:1016F0000500002038BD38B51378C0B1022816D0D7
:1017000033A46D46246800944C7905EB9414247836
:1017100064F34703137003280ED003F0FE0010702B
:101720000868C2F801008888A2F8050038BD23F0D7
:10173000FE0313700228EED1D8B240F00100EEE7AC
:1017400002210CF0AFBE38B50C460978222901D22F
:10175000082038BDADF800008DF8022068460BF077
:1017600087FC06F0E5F9050003D121212046FFF7AB
:1017700056FE284638BD1CB500208DF80000CDF877
:101780000100ADF80500114890F82200022801D0B0
:10179000012000E000208DF8070068460BF0D2FC25
:1017A000002800D0FFDF1CBD2DE9FF478CB00025CD
:1017B000BDF8346082461C4690468DF81C50700778
:1017C00003D56068FFF747FD90B903E0940100205E
:1017D0000302FF01FE4F4FF0010997F8220058B1B4
:1017E00097F82300022807D16068FFF781FD18B140
:1017F000102010B0BDE8F087300702D5A0898028FE
:1018000015D8700704D4B8F1000F01D0387E70B13C
:10181000E07DC0F300108DF81B00617D072041B111
:10182000012906D00229E4D00429E2D117E00720DB
:10183000DFE78DF817908DF819908DF815806068A6
:1018400078B107A9FFF7FBFE0028D2D1606850F8F5
:10185000011FCDF80F108088ADF8130005E00620B9
:10186000C7E7CDF80F50ADF81350E07B0028F6D154
:10187000207C0028F3D1607C0028F0D1A07C0028D7
:10188000EDD1E07CC006EAD18DF800A0BDF83400AF
:10189000ADF80200A0680190A0680290CDA0D0E948
:1018A0000010CDE90A10E07C0AA901EB5010007885
:1018B0008DF80C00FFF7E6FE8DF80D009DF81C007A
:1018C0008DF80E008DF818508DF816508DF81A50BE
:1018D00009A968460BF0A9FC06F02AF989E7F0B5DA
:1018E0008FB000248DF830408DF814408DF83440CE
:1018F00006468DF82840019402940394049419B18B
:101900000FC901AD85E80F00B14DA878052801D0B9
:1019100004280CD101986968884200D120B9039845
:10192000E968884203D110B108200FB0F0BD1F272D
:101930003B460DAA05A903A8FFF70DFE0028F4D128
:101940003B460AAA0CA901A8FFF705FE0028ECD126
:101950009DF81400C00701D00A20E6E7A88A4107D5
:1019600008D4A97D31B19DF82810890702D043F22F
:101970000120DAE79DF82810C90709D0400707D4ED
:10198000288818B144F25061884201D90720CCE779
:101990008DF818408DF81960BDF80800ADF81A00F0
:1019A0000198079006A80BF04BFC06F0C1F8002840
:1019B000BBD18DF820408DF82160BDF81000ADF846
:1019C00022000398099008A80BF05CFC06F0B0F820
:1019D0000028AAD101AC2D1D94E80F0085E80F0066
:1019E0000020A2E72DE9FE43040000D1FFDF2078AC
:1019F000774E20F00F00801C20F0F0007030207037
:101A000060680178C91F112929D2DFE801F04BEB8A
:101A10002809EBEB38EA282864EAE928EAEAE80032
:101A200086883046FFF78CFE0546304609F065FF94
:101A3000B8B16068807985F83E0021212846FFF71B
:101A4000EEFC304603F01EFA304604F0DDFB314672
:101A5000012010F051FBA87F20F01000A877BDE80E
:101A6000FE83207820F0F0002030207003202072C8
:101A7000668060688079607206F043FADDE78588E9
:101A80002846FFF75DFE00B9FFDF60688078012817
:101A900000D0FFDF6068817903B02846BDE8F043DD
:101AA0000AF008B886883046FFF74AFE050000D1E4
:101AB000FFDF06F026FA60683146C088288160683A
:101AC0000089688160684089A881012010F014FBBA
:101AD0000020A875C3E7807828B10228BFD03C2831
:101AE000BDD0FFDFBBE706F00CFA6568A879AD1C36
:101AF00000B9FFDFF778B5F80290B046384605F038
:101B0000B7FF060000D1FFDF0022022148460CF09B
:101B1000C0FC040000D1FFDF22212046FFF77FFC3C
:101B2000A17F012060F30101A177298B2181698BBD
:101B30006181A98BA18184F822708DF8080002AA26
:101B4000032148460CF0A5FC00B9FFDFB088ADF8D2
:101B50000400B0788DF8060001AA052148460CF073
:101B600098FC00B9FFDFB088ADF80000F0788DF880
:101B700002006A46042148460CF08BFC00B9FFDFE6
:101B8000062105F1120000F060FE38B36879800785
:101B900000D5FFDF6979E07D61F34700E075D5F896
:101BA0000600A0616889A083062105F10C0000F001
:101BB0004CFE10B398F819104A08617862F3470197
:101BC0006170D8F81A10C4F80210B8F81E001DE0B1
:101BD00094010020070605040302010003E01FE052
:101BE0002AE025E017E0E07D20F0FE00801CE07593
:101BF000D5F81200A061E88AD5E7607820F0FE00F1
:101C0000801C6070E868C4F80200288AE080032025
:101C1000FFF7DCFB23E72046BDE8FE4301F0B6BC3E
:101C200006F06FF916F8240F40F00400307016E744
:101C3000BDE8FE4306F065B9B178052908D004294E
:101C4000E8D106F05EF90220BDE8FE43FFF7BEBB17
:101C500080780028DED0F07800F0C1FD06F051F960
:101C60000320F1E72DE9F047054600780027000939
:101C700091460C463E46012873D0022872D00728B0
:101C800009D00A2824D0FFDFA9F800600CB1278012
:101C900066800020AEE5D5F804C0DFF8BC874FF0C1
:101CA000010A9CF800004FF6FF7113287AD008DC77
:101CB00007280ED00E281FD0112826D0122806D1B2
:101CC00086E015280BD0162859D017286CD021464D
:101CD000FBE012271026BCF804002146B8E01C27C0
:101CE0000A26ECB3BCF80200A08068680079207274
:101CF000686840796072C7E71B27092684B3032010
:101D0000207268684088A080BEE79CF802003C28EA
:101D1000BAD010272C260CF1020C0CB3BCF8020030
:101D2000A080BCF818006082BCF818002082BCF8C3
:101D30001A00A082BCF81C00E0829CF8050004F1A7
:101D400008020CF10601FFF7D6FC9CF804000128FC
:101D50009AD184F80FA00020207608F1040002E058
:101D60000AE06DE077E090E80E00D8F81000C4E9D2
:101D70000930C4E9071287E7A9F8006089E720273E
:101D80001126002CF8D0A180686804F10A0280783E
:101D900020726868807A60726968C878091DFFF7E8
:101DA000AAFC71E729E0FFE721270A26002CE3D0EF
:101DB000BCF80200A08068680079207268684079E9
:101DC000607298F8241021F0040188F824105BE771
:101DD00022270B26002CCFD0BCF80400A080686816
:101DE000807820726868807900F03EFD60726868D3
:101DF000C07900F039FDA07246E726271C26002C8A
:101E0000BAD0A1806868C078607268688079A07272
:101E100008F1040090E80E00D8F81000C4E905307D
:101E2000C4E90312686880783C2803D0432804D0B2
:101E3000FFDF29E784F808A026E70220207223E7C5
:101E4000287A022801D0FFDF1EE7122710266888B3
:101E500000F0E8FC18E7287AB0B3012835D0022852
:101E600033D0032801D0FFDF0EE711270926002C0D
:101E700082D0B5F802804046FFF762FC90F822A0BD
:101E8000A4F80480687A2072042140460CF01CFB00
:101E9000052140460CF018FB002140460CF014FBD5
:101EA000012140460CF010FB032140460CF00CFBD6
:101EB000022140460CF008FB062140460CF004FBD2
:101EC000504600F08CFCDFE6FFE72846BDE8F0470F
:101ED00001F092BC70B5012801D0FFDF70BD8DB25A
:101EE0002846FFF72DFC040000D1FFDF20782128D1
:101EF000F4D006F003F880B1017821F00F01891CBD
:101F000021F0F001103101700221017245800020A2
:101F1000A075BDE8704005F0F4BF21462846BDE835
:101F2000704013220FE42DE9F04116460C00804664
:101F300000D1FFDF307820F00F00801C20F0F0008F
:101F4000103030702078022802D0FFDFBDE8F08129
:101F50004046FFF7F5FB050000D1FFDF61884FF633
:101F6000FF700027814202D1A288824203D08142C1
:101F700001D1A08848B105F0C4FF2068B060606856
:101F8000F06020893082AF75E0E7A87D0128DDD1BF
:101F900078230022414610F005F80220A875D5E705
:101FA00038B520380C4607283AD2DFE800F004069E
:101FB0002C3931251A00062038BD6068FFF78FF9EB
:101FC000A0B9618820886A460BF0C9FA05F0B0FD17
:101FD0000028F1D161680029EED0BDF800200A8008
:101FE00038BD206820B1FFF783F908B1102038BD53
:101FF00020460BF075FB0FE0A07800F0010120886F
:102000000BF0DEFA08E02068BDE8384001F029BE98
:10201000618820880BF03CFABDE8384005F088BDA7
:10202000072038BD70B505460C460846FFF739F95C
:1020300008B1102070BD202D07D0212D0DD0222DEC
:102040000BD0252D09D0072070BD2088A11C0BF0D6
:102050005EF8BDE8704005F06BBD062070BDFE481F
:102060001930704708B528220021FB4809F00DFA05
:102070000120FFF7ABF9F84968461A3105F0D4FEA4
:10208000F5489DF80020417E62F3470121F00101EF
:102090004176002180F822104FF461710184022101
:1020A00080F82310FFF7AAF900B1FFDF00F00CFC65
:1020B00001F03EFA08BD10B50C4640220021204632
:1020C00009F0E3F9A07F20F00300A0772020207022
:1020D0000020A07584F8230010BD70472DE9FC4155
:1020E0000746FFF7B8F810B11020BDE8FC81DA4EC2
:1020F00006F11901D6F819000090B6F81D50ADF898
:102100000450F47F8DF806403846FFF7DDFA0028CA
:10211000EBD1FFF773F90028E7D0009946F8191FB3
:10212000B580B471E1E710B50446FFF7BAF808B11D
:10213000102010BDC848C8492246407E1A314008C8
:10214000FFF7D9FA002010BD3EB504460D460846FB
:10215000FFF7A7F808B110203EBD14B143F2040008
:102160003EBDBD488078052803D0042801D0082052
:102170003EBD694602A809F02BFF2A4669469DF834
:102180000800FFF7B8FA00203EBDFEB50D4604007A
:102190004FF0000711D00822FFF7C1F9002811D134
:1021A000002608E054F826006946FFF748FA0028A0
:1021B00008D1761CF6B2AE42F4D30AF052FE10B14A
:1021C00043F20320FEBDA44E3776FCB100271AE08F
:1021D00054F8270002A9FFF732FA00B1FFDF9DF89B
:1021E00008008DF8000054F8270050F8011FCDF8C2
:1021F00001108088ADF8050068460AF057FE00B16E
:10220000FFDF7F1CFFB2AF42E2D335760020FEBD78
:102210002DE9F0478AB01546894604001DD00F46C7
:1022200008222946FFF77BF9002810D1002612E08A
:1022300054F826006946103000F0EAFA002806D16A
:102240003FB157F82600FFF706F810B110200AB08A
:1022500020E5761CF6B2AE42EAD30026A5F10108CD
:102260001CE000BF06F1010A0AF0FF0712E000BF00
:1022700054F82600017C4A0854F827100B7CB2EB76
:10228000530F05D106221130113109F0A7F858B1CA
:102290007F1CFFB2AF42EBD30AF0FF064645E1DBFD
:1022A0004E4624B1012003E043F20520CFE7002091
:1022B0000AF01BFE10B90AF024FE10B143F204200C
:1022C000C5E75CB300270DF1170825E054F8270097
:1022D0006946103000F09CFA00B1FFDF54F8270087
:1022E000102250F8111FCDF801108088ADF80500BC
:1022F00054F827100DF1070009F09DF896B156F833
:1023000027101022404609F096F868460AF0B3FDFF
:1023100000B1FFDF7F1CFFB2AF42D7D3FFF72BFA2C
:10232000002094E7404601F090FCEEE730B585B020
:102330000446FEF790FF18B96068FEF7D9FF10B1A8
:10234000102005B030BD60884AF2B811884206D826
:102350002078414D28B1012806D0022804D007205A
:10236000EFE7FFF74BF818E06078022804D0032865
:1023700002D043F20220E4E785F82300C1B2002036
:102380000090ADF8040002292CD0032927D0FFDFEC
:1023900068460AF02AFE05F0CBFB0028D1D1606820
:1023A00001F046FC207858B101208DF800000DF1B5
:1023B000010001F04AFC68460BF05FF900B1FFDF55
:1023C000207885F82200FFF7D6F9608860B128846C
:1023D00080B20AF082FD00B1FFDF0020B1E78DF886
:1023E0000500D5E74020FAE74FF46170EFE710B53C
:1023F0000446FEF756FF20B9606838B1FEF76FFF5C
:1024000008B1102010BD606801F01FFC124830F8C0
:10241000201F6180C178617080782070002010BD1D
:102420002DE9F843144689460646FEF73AFFB8B947
:102430004846FEF75DFF98B92046FEF759FF78B988
:10244000054DA878012800D154B13178FF2909D071
:1024500061B143F2040001E094010020BDE8F8837B
:102460001020F8E7012801D00420F4E7CCB30528B8
:1024700011D004280FD06946204600F000FA002849
:10248000E9D1217D49B1012909D0022909D00329C7
:1024900009D00720DFE70820DDE7024604E001223B
:1024A00002E0022200E00322804623461746002075
:1024B0000099FFF779F90028CDD1A0892880A07B69
:1024C000E875BDF80000A882AF75BDF800100907D7
:1024D00001D5A18931B1A1892980C00704D0032089
:1024E00003E006E08021F7E70220FEF76FFF86F8A1
:1024F00000804946BDE8F8430020FFF7F0B92DE918
:10250000FC41F04C06460D46A078022803D0032873
:1025100001D00820E9E516B143F20400E5E5062004
:102520000BF074FF10B9A078032849D00DF0DAFE43
:1025300007460FF039F9381A00F0FF0806200BF0B3
:102540005DFF074606200BF061FF391AA0780428CA
:1025500009D000221144A8EB010111F0FF0F04D0B3
:10256000032804D00DE00122F4E71320BDE528463E
:1025700005F07EFA10B3407810B3284605F065FDEB
:10258000E570FFF77FF809F06EFC01208DF8000080
:102590008DF801008DF802602088ADF80400E07D20
:1025A0008DF8060068460AF036FF05F0C1FA0028EB
:1025B000B0D1A078032805D0042010E0052094E5D0
:1025C000122092E5E07805F053FA040000D1FFDF15
:1025D000607800B9FFDF6078401E60700520FEF76C
:1025E000F5FE002081E51CB510B143F204001CBDCE
:1025F000B44CA078042803D0052801D008201CBDC5
:1026000000208DF8000001218DF801108DF80200E6
:1026100068460AF000FF05F08BFA0028EFD1A07899
:10262000052805D05FF00200FEF7D0FE00201CBD9B
:10263000E07800F0D4F80320F6E72DE9FC4180466D
:102640000D4603260846FEF753FE08B110204CE560
:102650004046FFF775F8040004D02078222804D201
:10266000082042E543F202003FE5A07F00F00307A7
:102670003DB1012F0AD000202946FEF722FF0600B7
:10268000E5D1012F04D0FFDF30462EE50120F3E72E
:10269000A07D2946022801D011B107E0112024E5D0
:1026A000684600F045FA0028D1D16946404609F055
:1026B000E1F90600E8D10120A075E5E770B50C4608
:1026C0000546FFF73DF8010005D022462846BDE843
:1026D0007040FFF738B843F2020070BD10B5012812
:1026E00007D1784B9B78012B00D011B143F2040045
:1026F00010BD0AF024FCBDE8104005F019BA012312
:1027000000F077B800231A46194600F072B870B589
:10271000064615460C460846FEF7C3FD18B928467E
:10272000FEF7BFFD08B1102070BD2A462146304695
:102730000AF0FDFE05F0FCF90028F5D121787F298B
:10274000F2D1052070BD7CB505460C460846FEF763
:1027500082FD08B110207CBD2846FEF7F1FF20B1B4
:102760000078222804D208207CBD43F202007CBD00
:10277000544890F82400400701D511207CBD2178F1
:10278000C80802D16078C20801D007207CBD890842
:1027900001D1800801D006207CBDADF80050207822
:1027A0008DF8020060788DF803000220ADF8040077
:1027B00068460AF0F7FA05F0BBF97CBD70B505462E
:1027C0000C460846FEF76DFD08B1102070BD21468D
:1027D00028460AF0CDFCBDE8704005F0A9B910B557
:1027E00005F046F9040000D1FFDF6078401C6070FE
:1027F00010BD1CB5ADF800008DF802308DF8031047
:102800008DF8042068460AF061FE05F091F91CBDC0
:102810000278520804D0012A02D043F20220704705
:10282000FEF70DBF70B50C0006460DD0FEF788FF11
:10283000050000D1FFDFA6802889208128896081DA
:102840006889A081A889E08170BD10B500231A466F
:1028500003E0845C2343521CD2B28A42F9D30BB109
:10286000002010BD012010BD00B530B1012803D0FB
:10287000022801D0FFDF002000BDFF2000BD0022A4
:102880000A8092B222F060020A800078062817D2ED
:10289000DFE800F0160306090C1142F0110007E012
:1028A00042F01D0009E042F0150006E042F0100081
:1028B00040F0020001E042F0100008800020704764
:1028C0000720704794010020FD480021016041600D
:1028D000018170472DE9FF4F93B09B46209F160062
:1028E00004460DD01046FEF7B6FC18B1102017B004
:1028F000BDE8F08F31460120FEF7E3FD0028F6D158
:1029000001258DF842504FF4C050ADF84000002230
:1029100010A9284603F03EFF0028E8D18DF8425068
:10292000A8464FF428500025ADF840001C22294647
:102930006846079508F0A9FD9DF81C000DF11C0ADA
:1029400020F00F00401C20F0F00010308DF81C002B
:1029500020788DF81D0061789DF81E000DF140096A
:1029600061F3420040F001008DF81E009DF8000068
:1029700008AA40F002008DF800002089ADF8300070
:10298000ADF832506089ADF83400CDF82CA0606805
:102990000E900AA9CDF82890684603F0F0FC0028B4
:1029A000A5D16068FEF79BFC40B16068FEF7A0FC13
:1029B00020B9607800F00300022801D0012000E077
:1029C0000020BF4C08AA0AA92072BDF82000208070
:1029D0008DF8428042F60120ADF840009DF81E00BF
:1029E00020F00600801C20F001008DF81E0002205F
:1029F000ADF83000ADF8340014A80E90684603F02E
:102A0000BEFC002889D1BDF82000608036B1211DB0
:102A1000304600F059F90028C2D109E0BBF1000F9F
:102A200005D008F0ADFAE8BB08F0AAFAD0BBA58043
:102A300017B1012F43D04AE08DF8428042F6A6201C
:102A4000ADF8400046461C2200216846079508F074
:102A50001CFD9DF81C00ADF8346020F00F00401CF8
:102A600020F0F00010308DF81C009DF81D0020F0C3
:102A7000FF008DF81D009DF81E0020F0060040F0BC
:102A80000100801C8DF81E009DF800008DF8446048
:102A900040F002008DF80000CDE90A9AADF83060F0
:102AA00011A800E011E00E9008AA0AA9684603F0F8
:102AB00066FC0028A6D1BDF82000E08008E008F000
:102AC0005FFA10B908F05CFA08B103200FE7E5805F
:102AD00000200CE73EB50446794D0820ADF8000013
:102AE000A88828B12046FEF7B6FB18B110203EBDDD
:102AF00006203EBD21460120FEF7E3FC0028F8D168
:102B00002088ADF804006088ADF80600A088ADF814
:102B10000800E088ADF80A00A88801AB6A460021E9
:102B200004F034F8BDF800100829E2D003203EBDBF
:102B30007FB5634D0446A88868B100200290082044
:102B4000ADF80800CDF80CD02046FEF784FB20B18C
:102B5000102004B070BD0620FBE7A98802AA4FF63A
:102B6000FF7004F055FA0028F3D1BDF808100829C9
:102B700001D00320EDE7BDF800102180BDF8021060
:102B80006180BDF80410A180BDF80610E180E0E787
:102B900001B582B00220ADF80000494802AB6A4698
:102BA0004088002103F0F2FFBDF80010022900D098
:102BB00003200EBD1CB5002100910221ADF80010CC
:102BC0000190FEF76EFB08B110201CBD3C486A4620
:102BD00041884FF6FF7004F01BFABDF8001002297F
:102BE000F3D003201CBDFEB5354C06461546207AB1
:102BF0000F46C00705D00846FEF72DFB18B1102080
:102C0000FEBD0F20FEBDF82D01D90C20FEBD3046C3
:102C1000FEF721FB18BB208801A903F0B2F80028B9
:102C2000F4D130788DF80500208801A903F08CFFDD
:102C30000028EBD100909DF800009DF8051040F0B1
:102C400002008DF80000090703D040F008008DF85D
:102C500000002088694603F014FF0028D6D1ADF8A3
:102C6000085020883B4602AA002103F08FFFBDF8E0
:102C70000810A942CAD00320FEBD7CB5054600203D
:102C8000009001900888ADF800000C462846019598
:102C9000FEF725FB18B92046FEF703FB08B110200C
:102CA0007CBD15B1BDF8000060B105486A460188D9
:102CB0004FF6FF7004F0ACF9BDF8001021807CBD28
:102CC000BC0100200C20FAE730B5044693B0002088
:102CD0000D4601460090142201A808F0D6FB1C22E4
:102CE000002108A808F0D1FB9DF80000CDF808D01D
:102CF00020F00F00401C20F0F00010308DF8000094
:102D00009DF8010006AA20F0FF008DF801009DF853
:102D1000200001A940F002008DF8200001208DF86C
:102D2000460042F60420ADF8440011A80190208826
:102D3000ADF83C006088ADF83E00A088ADF84000DA
:102D4000E088ADF842009DF8020020F00600801CEB
:102D500020F001008DF802000820ADF80C00ADF85D
:102D600010000FA8059008A803F009FB002803D164
:102D7000BDF818002880002013B030BD4FF0E021CE
:102D80004FF40040C1F88001BFF34F8FBFF36F8F46
:102D900000F021B810B5044600F01DF8002C09D051
:102DA000124A124812491432124B012C03D0022C41
:102DB00007D0FFDF10BD0224046011604FF04070A7
:102DC00004E00324046011604FF40000186010BD9B
:102DD00000B5FFDF00BD0548002101600160054925
:102DE0004FF06070091D08607047000000F500405A
:102DF0003C02002004F501400EF087B90449002090
:102E000008604FF0E0210220C1F880027047000006
:102E1000FC1F0040334901200860704770B50D2049
:102E200000F041F8304C0020C4F800010125C4F83E
:102E300004530D2000F048F825604FF0E0216014A5
:102E4000C1F8000170BD10B50D2000F02CF8264827
:102E5000012141600021C0F80011BDE810400D20A3
:102E600000F032B8204910B5D1F80001012801D096
:102E7000FFDF10BD1B48001D00680022C0B2C1F872
:102E80000021BDE810400EF07ABE10B5164800BF14
:102E9000D0F800110029FBD0FFF7E4FFBDE8104097
:102EA0000D2000F011B800280DDB00F01F020121F9
:102EB00091404009800000F1E020C0F88011BFF38C
:102EC0004F8FBFF36F8F7047002809DB00F01F02A0
:102ED000012191404009800000F1E020C0F88012FB
:102EE0007047000004D5004000D000404FF0E021C2
:102EF0004FF00070C1F8800101F5C071BFF34F8F32
:102F0000BFF36F8FC1F80001354B802283F8002496
:102F100041F8800C704700B502460420314903E0B7
:102F200001EBC0031B792BB1401EC0B2F8D2FFDF0A
:102F3000FF2000BD41F8302001EBC00100224A71A2
:102F40008A7101220A7100BD264A002102EBC000ED
:102F50000171704710B50446042800D3FFDF2148F3
:102F600000EBC4042079012800D0FFDF6079A1794B
:102F7000401CC0B2814200D060714FF0E0214FF0A0
:102F80000070C1F8000210BD70B50425154E164C36
:102F900016E0217806EBC1000279012A08D14279B6
:102FA00083799A4204D04279827156F83100804781
:102FB0002078401CC0B22070042801D3002020706B
:102FC0006D1EEDB2E5D270BD054810B590F8000455
:102FD0004009042800D0FFDFBDE81040D4E700001E
:102FE00019E000E0880400204C0000207047704782
:102FF00070470000100110013A0200001A020000A0
:103000002CFFFFFFDBE5B151009001000301FFFF42
:103010007000000090D76A00773D4B16B620AFF9DC
:10302000F4D1D1B6F33F7AC76170DB6D10B50446B9
:10303000FEF711F908B1102010BD2078C0F302107E
:10304000042807D86078072804D3A178102901D86C
:10305000814201D2072010BDE078410706D42179D2
:103060004A0703D4000701D4080701D5062010BD84
:10307000002010BD70B514460D46064604F03EFF14
:1030800080B10178182221F00F01891C21F0F00194
:10309000A03100F8081B214608F0CDF9BDE87040CA
:1030A00004F02FBF29463046BDE870401322FEF7DA
:1030B0004ABB2DE9F047064608A8904690E8300440
:1030C00089461F4614220021284608F0DEF9002117
:1030D000CAF80010B8F1000F03D0B9F1000F03D106
:1030E00014E03878C00711D02068FEF7DAF8C0BBCA
:1030F000B8F1000F07D12068123028602068143022
:1031000068602068A8602168CAF8001038788007D5
:1031100024D56068FEF7E3F818BBB9F1000F21D0A1
:10312000FEF79DFF0168C6F868118188A6F86C114A
:10313000807986F86E0101F034FAF84FEF6062682A
:1031400062B196F8680106F2691140081032FEF784
:10315000D2FA10223946606808F06DF90020BDE807
:10316000F08706E0606820B1E8606068C6F8640136
:10317000F4E71020F3E730B5054608780C4620F058
:103180000F00401C20F0F001103121700020607011
:1031900095F8230030B104280FD0052811D0062857
:1031A00014D0FFDF20780121B1EB101F04D295F875
:1031B000200000F01F00607030BD21F0F0002030D2
:1031C00002E021F0F00030302070EBE721F0F00059
:1031D0004030F9E7F0B591B0022715460C46064697
:1031E0003A46ADF80870082103AB08F027FA0490BE
:1031F000002810D004208DF804008DF80170E03410
:10320000099605948DF818500AA968460CF045FEF9
:1032100000B1FFDF012011B0F0BD2DE9F84F0646E7
:10322000808A0C4680B28246FEF78AFA0546BB4F7A
:103230003078203F4FF002094FF000080F287CD271
:10324000DFE800F07BA39D082C5B6A7CBADAFD976F
:1032500048979700012150460BF024F9040000D153
:10326000FFDF97F85C00C00701D0386E0BE0032148
:1032700004F11D000EF061FCD4F81D00A849B0FB5C
:10328000F1F201FB1200C4F81D0070686067B068BD
:10329000A0672878252872D0FFDF70E00121504612
:1032A0000BF000F9060000D1FFDF3078810702D56E
:1032B0002978252904D040F001003070BDE8F88F4E
:1032C00084F80090307F207106F11D002D36C4E98E
:1032D0000206F3E7012150460BF0E4F8050000D1A7
:1032E000FFDF2878C10604D5072020703D356560D2
:1032F000E4E740F008002870E0E7E87F000700D529
:10330000FFDF307CB28800F0010301B05046BDE819
:10331000F04F082108F02BBB05B9FFDF716821B120
:10332000102205F1240008F086F828212846FEF72F
:1033300076F8307A85F82000C0E7F7E001215046A2
:103340000BF0B0F8050000D1FFDF022105F1850088
:103350000EF0F3FB0420207005F5B4706060B5F842
:10336000850020826D4810387C356561C4E90270A3
:10337000A4E7012150460BF095F800B9FFDF324673
:1033800029465046BDE8F84F74E605B9FFDF2878B6
:10339000212893D93079012803D1E87F40F0080033
:1033A000E877324629465046FFF764FE2846BDE8D6
:1033B000F84F2321FEF733B83279A28004F10803D5
:1033C0000821504608F03AF9E06010B1052020705D
:1033D00074E74546012150460BF064F8040000D123
:1033E000FFDF04F1620102231022081F0AF0FFFE32
:1033F00005703179417061E7012150460BF052F8B8
:10340000040000D1FFDF94F8840000F003000128DD
:1034100059D1E87F10F0010003D194F8A010C9073A
:103420002AD0D4F8602132B394F88330117C63F34E
:1034300087011174AA7FD30963F3410100E071E0B1
:10344000D4F860211174D4F8602160F30001117484
:1034500090B1D4F86001102205F12401883407F0FE
:10346000EAFF207E40F001002076207820F0010065
:1034700004F8880919E0C0B994F88810C90714D075
:10348000D4F85C218AB194F88330117C63F387010E
:103490001174AA7FD309D4F85C2163F3410111743C
:1034A000D4F85C2160F30001117494F8880080075F
:1034B00009D594F87C00D4F86421400804F17D011A
:1034C0001032FEF718F98DF8009094F884006A46DF
:1034D00000F003008DF8010094F888108DF80210B8
:1034E00094F8A0008DF803002946504601F042F8F8
:1034F0002878252805D0212807D0FFDF2878222822
:1035000003D922212846FDF78AFF012150460AF0FF
:10351000DBFF00283FF4DDAEFFDFCFE6E80100204F
:1035200040420F00716881F80180C7E6FFDFC5E601
:1035300070B5FE4C002584F85C5025660CF079FCD3
:1035400004F11001204604F095FC84F8305070BD61
:1035500070B50D46FEF7F4F8040000D1FFDF4FF41C
:10356000B8720021284607F090FF2434012105F1AC
:10357000E0002C610CF05EFC002800D0FFDF70BD85
:103580000A46014602F1E0000CF075BC70B5054634
:10359000406886B00178082906D00B2933D00C2961
:1035A0002FD0FFDF06B070BD46883046FEF7C8F862
:1035B000040000D1FFDF20782128F3D028281BD178
:1035C000686802210C3000F0A0FFA8B168680821EB
:1035D000001D00F09AFF78B104F12401304609F093
:1035E0001CFF04F0A5FA00B1FFDF06B02046BDE8DD
:1035F00070402921FDF713BF06B0BDE8704004F00C
:1036000080BC01218171686886883046FEF798F891
:10361000040000D1FFDF20782128C3D068688179B9
:1036200009B1807808B1FFDFBCE704F06AFCA07F35
:10363000000622D5E07FC00705D094F8200000F0F6
:103640001F00102817D0052084F82300207829288F
:1036500015D02428A6D1314604200EF04DFD22219C
:103660002046FDF7DCFE012130460AF02DFF002840
:1036700098D0FFDF96E70620E6E70420E4E7012183
:1036800030460AF00FFF050000D1FFDF252120465C
:10369000FDF7C5FE03208DF80000694605F1E00046
:1036A0000CF0E0FB0228BFD00028BDD0FFDF79E797
:1036B0002DE9F04788B09A46164688468146FEF7BF
:1036C0003FF805003AD02878222837D3232835D070
:1036D000E87F000732D40027012148460AF0E2FEC5
:1036E000040005D10121002248460AF0D2FE04461A
:1036F000694600F066FF009800B9FFDF00983CB112
:10370000E03404612878222804D0242802D005E07F
:10371000076103E025212846FDF781FE009801217D
:103720004170C0F824908680C0E9028A01A90CF09B
:10373000B4FB022802D0002800D0FFDF08B00EE55D
:1037400070B586B00546FDF7FBFF0078222814D936
:10375000012128460AF0A6FE04002CD1FFDF2AE052
:10376000B4F85E0004F1620630440178427829B171
:1037700021462846FFF72EFDB0B913E7ADF8042027
:103780000821284602AB07F059FF03900028F4D027
:1037900005208DF80000694604F1E0000CF062FBA2
:1037A000022801D000B1FFDF02231022314604F1CC
:1037B0005E000AF052FDB4F860000028D0D1F1E6B6
:1037C00010B586B00446FDF7BBFF0078222811D95A
:1037D000012120460AF066FE040000D1FFDF06202A
:1037E0008DF80000694604F1E0000CF03BFB002876
:1037F00000D0FFDF06B010BD2DE9F84F0546007878
:103800000C460027010904F1080090463E46BA46DE
:10381000009002297ED0072902D00A2909D142E06E
:1038200068680178082905D00B292CD00C292AD0EA
:10383000FFDF72E114271C26002C6CD04088A0808A
:10384000FDF77EFF5FEA000900D1FFDF99F817005E
:1038500009F118014008009AFDF74DFF686880895A
:10386000208268684168C4F812108068C4F81600A5
:10387000A07E20F0060040F00100A07699F81E001E
:1038800040F020014FE01A270A26002CD5D080886E
:10389000A080FDF755FF050000D1FFDF2846009905
:1038A000FFF769FC39E10CB1A88BA080287A4FF0B2
:1038B000010B0B287ED006DC01287CD0022808D022
:1038C000032804D137E00D2876D00E2875D0FFDF0D
:1038D00023E11E270926002CAFD0A088FDF730FF7A
:1038E0005FEA000900D1FFDF287B00F00300012818
:1038F000207A1DD020F001002072297B890861F315
:1039000041002072297BC90861F382002072297B63
:10391000090901E0F7E0AEE061F3C300207299F815
:103920001E0040F0400189F81E10F6E0C80100209A
:1039300040F00100E0E713270D26002CA6D0A08858
:10394000FDF7FEFE81460121A0880AF0ABFD0500CF
:1039500000D1FFDF686F817801F003010129217A2E
:1039600050D021F00101217283789B0863F341015B
:1039700021728378DB0863F38201217283781B094B
:1039800063F3C3012172037863F306112172437854
:1039900063F3C711217284F809A0C178A17202797A
:1039A000E17A62F30001E1720279520862F34101A7
:1039B000E17203E029E067E04EE05FE002799208FF
:1039C00062F38201E1720279D20862F3C301E1720B
:1039D0004279217B62F3000121734279520862F33C
:1039E000410121734279920862F382012173407987
:1039F000C00860F3C301217399F8000023282AD975
:103A0000262139E041F00101ADE71827102694B3D3
:103A1000A088FDF795FE00900121A0880AF042FDE4
:103A20005FEA000900D1FFDFE868A06099F80000B4
:103A300040F0040189F8001099F80100800708D5CA
:103A400084F80CB000980078232866D927210098C4
:103A500052E084F80CA060E015270F265CB1A08826
:103A6000FDF76EFE81460622E868009907F06BFDBF
:103A700084F80EB085E042E048463DE0162709266E
:103A8000ECB3287B207248E0287B19270E26B4B3BC
:103A9000C4F808A0A4F80CA0012807D0022808D078
:103AA00003280CD004280AD0FFDF15E084F808B002
:103AB00001E002202072607A20F003000BE0697BB5
:103AC000042801F00F0141F080012172F3D1607AE6
:103AD00020F00300401C6072A088FDF731FE05460F
:103AE0000078212819D0232800D0FFDF0121A088E9
:103AF0000AF0EAFC22212846FDF791FC0DE0FFE7E1
:103B0000A8F800600EE00CB16888A080287A10B395
:103B1000012809D002283AD0FFDFA8F800600CB1D4
:103B200027806680002007E415270F26002CE7D0A9
:103B3000A088FDF705FE0121A0880AF0B3FC05006E
:103B400000D1FFDFD5F81D000622009907F0FBFC2D
:103B500084F80EA0E1E717270926002CD0D0A08812
:103B6000FDF7EEFD81460121A0880AF09BFC0500CF
:103B700000D1FFDF6878800701D5022000E0012036
:103B8000207299F800002328C7D9272174E7192744
:103B90000E26002CB4D0A088FDF7D2FD5FEA000904
:103BA00000D1FFDFC4F808A0A4F80CA084F808A096
:103BB000A07A40F00300A07299F81E10C90961F3C1
:103BC0008200A07299F81F2099F81E1012EAD11FE6
:103BD00005D099F8201001F01F01102925D020F000
:103BE0000800A07299F81F10607A61F3C300607238
:103BF000697A01F0030101298FD140F0040060725D
:103C0000E87A217B60F300012173AA7A607B62F37A
:103C100000006073EA7A520862F341012173A97AC5
:103C2000490861F34100607377E740F00800D8E786
:103C300010B5F84C30B10146102204F1200007F015
:103C4000FAFB012084F8300010BD10B5044600F0E6
:103C5000A8FCF04920461022BDE81040203107F0B2
:103C6000EABB70B5EB4D06004FF0000412D0FDF733
:103C7000F2FA08B110240BE00621304607F04AFCA6
:103C8000411C04D02866012085F85C0000E0072470
:103C9000204670BD0020F7E7007810F00F0204D036
:103CA000012A05D0022A0CD110E0000909D10AE04E
:103CB0000009012807D0022805D0032803D00428D2
:103CC00001D0072070470870002070470620704719
:103CD00005282AD2DFE800F003070F171F00087835
:103CE00020F0FF001EE0087820F00F00401C20F0BC
:103CF000F000103016E0087820F00F00401C20F093
:103D0000F00020300EE0087820F00F00401C20F07A
:103D1000F000303006E0087820F00F00401C20F062
:103D2000F0004030087000207047072070472DE9F0
:103D3000F043804687B00D464FF000090846FDF776
:103D4000D7FAA8B94046FDF7FBFC060003D030784F
:103D500022280BD104E043F2020007B0BDE8F08353
:103D600035B1B07FC10601D4000703D50820F4E7C0
:103D70001020F2E7F07F000701D50D20EDE70027C6
:103D8000012140460AF08EFB040006D101210022E9
:103D900040460AF07EFB040005D0694600F011FCA5
:103DA000009818B901E00420D7E7FFDF009802214E
:103DB000E0344170C0F82480446107810121017121
:103DC000297801F00102017E62F3010101762A786F
:103DD000520862F3820101762A78920862F3C301E5
:103DE00001762A78D20862F3041101762421304644
:103DF000FDF715FB01A900980CF04FF8022801D03F
:103E000000B1FFDF4846A8E72DE9FF4F0E46824983
:103E1000904697B09A4607C914AB4FF0000983E863
:103E200007001798FDF78CFC050006D02878262897
:103E300006D008201BB0BDE8F08F43F20200F9E77E
:103E400026B94046FFF7F2F80028F3D10121179870
:103E50000AF028FB040000D1FFDF852E27D007DC05
:103E6000EEB1812E1DD0822E1DD0832E08D11CE0F4
:103E7000862E1ED0882E1ED0892E1ED08A2E1ED0B1
:103E80000F2020710F281CD004F038F8D8B1012081
:103E90008DF83400201D0E902079B0B126E100206D
:103EA000EFE70120EDE70220EBE70320E9E705203B
:103EB000E7E70620E5E70820E3E70920E1E70A2035
:103EC000DFE70720B6E71120B4E798F80000D4E94F
:103ED0001D764208A87F002162F3C710A87798F8E2
:103EE00000008208E87F62F30000E87798F800009D
:103EF000C209607862F34100607098F8000002091E
:103F0000207862F34710207098F80000C2086078AB
:103F100062F30000607098F80100607198F800008A
:103F200000F00102B07862F30100B070AA7FD209FC
:103F300062F38200B070EA7F62F3C300B07062780F
:103F400062F30410B0702278C0F3C00052093270DE
:103F50006278C2F34002727098F80220F2707171B8
:103F60003171B978C1F3C00108405FEA000B2ED06F
:103F70005046FDF770F978BBDAF80C00FDF76BF9E5
:103F800050BBDAF81C00FDF766F928BBDAF80C0024
:103F9000A060DAF81C00E06060787A7842EA5001AC
:103FA00061F341006070B978C0B200EA111161F3A9
:103FB000000060700020207705F117006061681C28
:103FC000A061B07800F00300012806D046E06078D8
:103FD0007A7802EA5001E3E719E0B87800F00300CC
:103FE00001283BD1321D711D404600F099FA31790C
:103FF000387901408DF8281070797A7910408DF861
:10400000300001432AD05046FDF725F930B1102089
:1040100010E70000C8010020F42F00000AF1100092
:1040200004F5AE7304F18C028DE80D0000210AAB9B
:104030005A462046FFF73DF80028E9D104F5B07252
:1040400004F1A403CDF800A0CDE9013201210CABAD
:104050005A462046FFF72DF80028D9D1607880070E
:1040600022D4B078B978C0F38000C1F3800108434E
:104070001AD0307814AA397832F810204B00DA4080
:1040800002F00309B9F1030F01D14FF00209BBF1AE
:10409000000F09D0012801D0042805D1012901D041
:1040A000042901D14FF00409A87F40F08000A877CF
:1040B000E97F6BF30001E9776078800706D503207C
:1040C000A071BBF1000F11D100202CE00220B9F14A
:1040D000020F1AD0B9F1010F19D0B9F1040F2AD08B
:1040E0000020A071A87F20F08000A8772521284615
:1040F000FDF795F90DA904F1E0000BF0B3FE10B146
:10410000022800D0FFDF002094E6A071DCE7A07158
:104110000D22002104F1200007F0B7F9207840F0CB
:104120000200207001208DF84C0013AA2946179830
:1041300000F020FADAE70120A071D7E72DE9F0437B
:1041400087B09046894604460025FDF7F9FA070036
:1041500004D03878272804D00820FEE543F2020076
:10416000FBE5012120460AF09DF9040000D1FFDFA4
:10417000A6795FEA090005D0012821D0B9F1020F24
:1041800026D110E0B8F1000F22D1012E05D0022E69
:1041900005D0032E05D0FFDF2EE00C252CE00125F5
:1041A0002AE0022528E04046FDF755F8B0B9032E75
:1041B0000ED11022414604F11D0007F03CF91BE02E
:1041C000012E02D0022E03D104E0B8F1000F13D06B
:1041D0000720C2E54046FDF73EF808B11020BCE5D7
:1041E0001022002104F11D0007F04FF9062140467E
:1041F00007F090F9C4F81D002078252140F0020056
:1042000020703846FDF70BF92078C10713D020F055
:104210000100207002208DF8000004F11D000290C2
:104220008DF804506946C3300BF01CFE022803D001
:1042300010B1FFDF00E0257700208EE530B587B0B4
:104240000D460446FDF77CFA60B1012120460AF0D4
:1042500029F904000CD02846FCF7FDFF28B11020F6
:1042600007B030BD43F20200FAE72078400701D4DE
:104270000820F5E7294604F13D002022054607F015
:10428000DAF8207840F01000207001070FD520F0F8
:104290000800207007208DF80000694604F1E00056
:1042A00001950BF0DFFD022801D000B1FFDF0020F7
:1042B000D6E770B50D460646FDF742FA18B100780C
:1042C000272817D102E043F2020070BD01213046D9
:1042D0000AF0E8F8040000D1FFDFA079022809D134
:1042E0006078C00706D02A4621463046FEF772FFA6
:1042F00010B10FE0082070BDB4F860000E280BD29A
:1043000004F1620102231022081F09F070FF01214D
:1043100001704570002070BD112070BD70B506465B
:1043200014460D460846FCF796FF18B92046FCF7E0
:10433000B8FF08B1102070BDA6F57F40FF380ED041
:104340003046FDF7FDF938B1417822464B08811C13
:104350001846FDF7D0F907E043F2020070BD204691
:10436000FDF7E1FE0028F9D11021E01D0DF0E5FB7D
:10437000E21D294604F1170000F033F9002070BD5A
:104380002DE9F04104468AB015460E46002708463E
:10439000FCF7AEFF18B92846FCF7AAFF18B11020A9
:1043A0000AB0BDE8F0812046FDF7CAF95FEA0008CF
:1043B00004D098F80000272810D102E043F2020050
:1043C000EEE7012120460AF06DF8040000D1FFDF7E
:1043D0002078400702D56078800701D40820DFE705
:1043E000D4E91D01497801B18DB1407800B176B1B1
:1043F000ADB1EA1D06A8E16800F0F3F8102206A9A5
:1044000005F1170006F0EAFF18B1042707E00720BE
:10441000C6E71022E91D04F12D0007F00CF82EB1BB
:104420001022F11D04F11D0007F005F82078252168
:1044300040F0020020704046FCF7F1FF2078C107F1
:1044400015D020F00100207002208DF8000004F14A
:104450001D000290103003908DF804706946B3304F
:104460000BF000FD022803D010B1FFDF00E027773A
:10447000002095E770B50D4606460BB1072070BDCC
:10448000FDF75EF9040007D02078222802D3A07F30
:10449000800604D4082070BD43F2020070BDADB1A7
:1044A0002946304608F0B9FF03F042FB297C4A0850
:1044B000A17F62F3C711A177297CE27F61F300023B
:1044C000E277297C890884F8201004E0304608F05F
:1044D000C7FF03F02DFBA17F21F02001A17770BD64
:1044E00070B50D46FDF72CF9040005D02846FCF701
:1044F000D8FE20B1102070BD43F2020070BD2946E5
:104500002046FEF738FE002070BD04E010F8012BB5
:104510000AB100207047491E89B2F7D201207047C6
:1045200010B5C4780B7864F300030B70C47864088A
:1045300064F341030B70C478A40864F382030B7026
:10454000C478E40864F3C3030B700379117863F350
:104550000001117003795B0863F341011170037965
:104560009B0863F3820111700079C00860F3C301F6
:10457000117010BD70B51546064603F0BFFC04006F
:1045800000D1FFDF207820F00F00801C20F0F00029
:104590002030207066802868A060BDE8704003F07D
:1045A000B0BC10B5134C94F83000002808D104F1C9
:1045B0002001A1F110000BF097FC012084F83000DD
:1045C00010BD10B190F8B9202AB10A4890F8350012
:1045D00018B1002003E0B83001E00648343008602C
:1045E000704708B50023009313460A460AF059F9AC
:1045F00008BD0000C8010020F0B5007B059F1E46E5
:1046000014460D46012800D0FFDF0C2030803A20F0
:104610003880002C08D0287A032806D0287B01286F
:1046200000D0FFDF17206081F0BDA889FBE72DE9EE
:10463000F0470D4686B095F80C900E991446B9F1E6
:10464000010F0BD01022007B2E8A9046052807D040
:10465000062839D0FFDF06B0BDE8F0870222F2E776
:10466000E8890C2200EB400002EB40001880332068
:104670000880002CEFD0E8896081002720E00096B8
:10468000688808F1020301AA696900F097FF06EB48
:104690000800801C07EB470186B204EB4102BDF81D
:1046A00004009081F848007808B1012300E000235D
:1046B0000DF1060140460E320BF07FFC7F1CBFB2AD
:1046C0006089B842DBD8C6E734200880E889B9F1B0
:1046D000010F11D0122148430E301880002CBAD09F
:1046E000E88960814846B9F1010F00D002202073AB
:1046F00000270DF1040A1FE00621ECE70096688808
:1047000008F1020301AA696900F058FF06EB0800EE
:10471000801C86B2B9F1010F12D007EBC70004EB81
:104720004000BDF80410C18110220AF102011030CE
:1047300006F081FE7F1CBFB26089B842DED88AE7EE
:1047400007EB470104EB4102BDF80400D0810AF1F8
:104750000201404610320BF052FCEBE72DE9F04726
:104760000E4688B090F80CC096F80C80378AF58910
:104770000C20DFF81493109902F10C04BCF1030F24
:1047800008D0BCF1040F3DD0BCF1070F75D0FFDF9E
:1047900008B061E705EB850C00EB4C001880312078
:1047A0000880002AF4D0A8F1060000F0FF0A558125
:1047B00024E01622002101A806F067FE0097708809
:1047C000434601AA716900F0F9FEBDF8040020809B
:1047D000BDF80600E080BDF80800208199F80000CF
:1047E00008B1012300E00023A21C0DF10A0150468C
:1047F0000BF0E3FB07EB080087B20A346D1EADB285
:10480000D7D2C5E705EB850C00EB4C0018803220B1
:104810000880002ABCD0A8F1050000F0FF0A5581ED
:1048200037E000977088434601AA716900F0C6FE20
:104830009DF80600BDF80410E1802179420860F37C
:10484000000162F34101820862F38201C20862F34F
:10485000C301020962F30411420962F3451182099E
:1048600062F386112171C0096071BDF807002081D3
:1048700099F8000010B1012301E00EE00023224668
:104880000DF1090150460BF098FB07EB080087B2C9
:104890000A346D1EADB2C4D27AE7A8F1020084B228
:1048A00005FB08FC0CF10E00188035200880002A5A
:1048B000A7D05581948100971FFA8CF370880E322F
:1048C000716900F07BFE63E72DE9F84F1E460A9DF3
:1048D0000C4681462AB1607A00F58070D080E0896C
:1048E000108199F80C000C274FF000084FF00E0AC9
:1048F0000D2872D2DFE800F09D070E1B272F3745E9
:10490000546972727200214648460095FFF774FEA2
:10491000BDE8F88F207B9146082802D0032800D0FC
:10492000FFDF3780302009E0A9F80A80F0E7207B1C
:104930009146042800D0FFDF378031202880B9F16C
:10494000000FF1D1E4E7207B9146042800D0FFDF7F
:1049500037803220F2E7207B9146022800D0FFDF2B
:1049600037803320EAE7207B1746022800D0FFDF9C
:104970003420A6F800A02880002FC9D0A7F80A800C
:10498000C6E7207B1746042800D0FFDF3520A6F8B5
:1049900000A02880002FBBD04046A7F80A8012E074
:1049A000207B1746052802D0062800D0FFDF102004
:1049B000308036202880002FAAD0E0897881A7F89F
:1049C0000E80B9F80E00B881A2E7207B9146072837
:1049D00000D0FFDF37803720B0E72AE04FF0120029
:1049E00018804FF038001700288091D0E089788136
:1049F000A7F80E80A7F8108099F80C000A2805D0B7
:104A00000B2809D00C280DD0FFDF81E7207B0A2876
:104A100000D0FFDF01200AE0207B0B2800D0FFDF61
:104A2000042004E0207B0C2800D0FFDF0520387331
:104A30006EE7FFDF6CE770B50C460546FCF780FEBD
:104A400020B10078222804D2082070BD43F2020071
:104A500070BD0521284609F025FD206008B1002021
:104A600070BD032070BD30B44880087820F00F007E
:104A7000C01C20F0F000903001F8080B1DCA81E83E
:104A80001D0030BC03F03DBA100000202DE9FF47A7
:104A900084B00027824602970798904689461230D4
:104AA00004F0BFFB401D20F00306079828B907A9B2
:104AB0005046FFF7C0FF002854D1B9F1000F05D0D0
:104AC0000798017B19BB052504681BE098F80000D6
:104AD000092803D00D2812D0FFDF46E007990325EF
:104AE0004868B0B3497B42887143914239D98AB250
:104AF000B3B2011D09F067FB0446078002E0079C82
:104B0000042508340CB1208810B1032D29D02CE0E5
:104B100007980121123004F0B6FBADF80C000246F4
:104B200002AB2946504606F089FD070001D1A01CC2
:104B3000029007983A461230C8F80400A8F802A07C
:104B400003A94046029B04F0ABFBD8B10A2817D258
:104B500000E006E0DFE800F007091414100B0D1464
:104B60001412132014E6002012E6112010E608208B
:104B70000EE643F203000BE6072009E60D2007E6E8
:104B8000032005E6BDF80C002346CDE900702A4657
:104B90005046079900F022FD57B9032D08D1079818
:104BA000B3B2417B406871438AB2011D09F01FFB1B
:104BB000B9F1000FD7D0079981F80C90D3E72DE910
:104BC000FE4F91461A881C468A468046FAB102ABCF
:104BD000494606F033FD050019D04046A61C27883B
:104BE00009F0A5FD3246072629463B46009609F006
:104BF000D0F920882346CDE900504A465146404628
:104C000000F0ECFC002020800120BDE8FE8F002099
:104C1000FBE710B586B01C46AAB104238DF800301E
:104C20001388ADF808305288ADF80A208A788DF8DC
:104C30000E200988ADF80C1000236A462146FFF7C4
:104C400025FF06B010BD1020FBE770B50D4605210D
:104C500009F028FC040000D1FFDF294604F112000E
:104C6000BDE8704004F0F8BA2DE9F8430D468046DF
:104C7000002603F043F904462878102878D2DFE8AC
:104C800000F0773B34533131123131310831313159
:104C900031312879001FC0B2022801D0102810D16C
:104CA00014BBFFDF35E004B9FFDF0521404609F002
:104CB000F9FB007B032806D004280BD0072828D056
:104CC000FFDF072655E02879801FC0B2022820D0D8
:104CD00050B1F6E72879401FC0B2022819D0102839
:104CE00017D0EEE704B9FFDF13E004B9FFDF28793E
:104CF00001280ED1172137E00521404609F0D2FBEB
:104D0000070000D1FFDF07F11201404604F081FAED
:104D10002CB12A4621464046FFF7A5FE29E0132183
:104D20004046FDF7CBFC24E004B9FFDF05214046F7
:104D300009F0B8FB060000D1FFDF694606F112005A
:104D400004F071FA060000D0FFDFA988172901D20C
:104D5000172200E00A46BDF80000824202D901464F
:104D600002E005E01729C5D3404600F047FCD0E734
:104D7000FFDF3046BDE8F883401D20F0030219B183
:104D800002FB01F0001D00E000201044704713B545
:104D9000009858B10024684609F0BFF9002C04D1EE
:104DA000F749009A4A6000220A701CBD01240020C5
:104DB000F2E72DE9F0470C46154624220021204653
:104DC00006F063FB05B9FFDFA87860732888DFF879
:104DD000B0A3401D20F00301AF788946DAF8040043
:104DE00009F0B9F9060000D1FFDF4FF00008266096
:104DF000A6F8008077B109FB07F1091D0AD0DAF89F
:104E0000040009F0A8F9060000D1FFDF6660C6F8CB
:104E1000008001E0C4F80480298804F11200BDE894
:104E2000F04704F0E7B92DE9F047804601F11200A0
:104E30000D46814604F0F5F9401DD14F20F00302E4
:104E40006E7B14462968786809F0B0F93EB104FB1E
:104E500006F2121D03D06968786809F0A7F90520E9
:104E600009F0CCFA0446052009F0D0FA201A0128EE
:104E700002D1786809F064F949464046BDE8F04738
:104E800004F0CEB970B50546052109F00BFB04000E
:104E900000D1FFDF04F112012846BDE8704004F0A4
:104EA000B8B92DE9F04F91B04FF0000BADF828B034
:104EB000ADF804B047880C460546924605213846B1
:104EC00009F0F0FA060000D1FFDF24B1A780A4F8B2
:104ED00006B0A4F808B0297809220B20B2EB111F04
:104EE00073D12A7A04F1100138274FF00C084FF0E3
:104EF00012090291102A69D2DFE802F068F2F1F09B
:104F00008008D3898EA03DDCF3EEB7B7307B022852
:104F100000D0FFDFA88908EBC001ADF804103021F4
:104F2000ADF82810002C25D06081B5F80E80002740
:104F30001DE004EBC709317C89F80E10F189A9F84E
:104F40000C10CDF800806888042305AA296900F0B8
:104F500035FBBDF81410A9F8101008F10400BDF8D5
:104F600016107F1C1FFA80F8A9F81210BFB26089D2
:104F7000B842DED80CE1307B022800D0FFDFE9899F
:104F800008EBC100ADF804003020ADF8280095F81A
:104F90000C90002CA9F10400C0B20F90EAD06181FE
:104FA000B5F81080002725E0CDF8008068884B46D2
:104FB00003AA696900F002FB08EB09001FFA80F8F8
:104FC0006F48007818B1012302E0DDE0DAE0002349
:104FD00004EBC702009204A90C320F980AF0EDFF0F
:104FE000009ABDF80C007F1C1082009ABDF80E00DC
:104FF000BFB250826089B842D6D8C9E00AA80090F2
:1050000001AB224629463046FFF711FBC0E0307B5A
:10501000082805D0FFDF03E0307B082800D0FFDF41
:10502000E8891030ADF804003620ADF82800002CD7
:105030003FD0A9896181F189A18127E0307B0928CE
:1050400000D0FFDFA88901460C30ADF804003720FE
:10505000ADF82800002C2CD06181E8890090AB8944
:10506000688804F10C02296955E0E889392110307B
:1050700080B2ADF80400ADF82810002C72D0A989D8
:105080006181287A0E280AD002212173E989E18101
:10509000288A0090EB8968886969029A3BE00121BF
:1050A000F3E70AA8009001AB224629463046FFF7F5
:1050B00055FB6DE0307B0A2800D0FFDFADF804908F
:1050C000ADF828704CB3A9896181A4F810B0A4F898
:1050D0000EB0012020735BE020E002E030E038E019
:1050E00041E0307B0B2800D0FFDF288AADF8287024
:1050F0001230ADF8040084B104212173A9896181C3
:10510000E989E181298A2182688A00902B8A68884E
:1051100004F11202696900F051FA39E0307B0C2881
:1051200000D0FFDFADF80490ADF828703CB3052146
:105130002173A4F80AB0A4F80EB0A4F810B027E0C8
:105140000AA8009001AB224629463046FFF754FAE0
:105150001EE00AA8009001AB224629463046FFF720
:10516000B3FB15E034E03B21ADF80400ADF82810A6
:1051700074B30120E080A4F808B084F80AB007E016
:1051800010000020FFDF03E0297A012917D0FFDF9C
:10519000BDF80400AAF800006CB1BDF8280020801A
:1051A000BDF804006080BDF82800392803D03C28F1
:1051B00001D086F80CB011B00020BDE8F08F3C2182
:1051C000ADF80400ADF8281014B1697AA172DFE7D8
:1051D000AAF80000EFE72DE9F84356880F4680460D
:1051E00015460521304609F05DF9040000D1FFDFC6
:1051F000123400943B46414630466A6804F084F914
:10520000B8E570B50D46052109F04CF9040000D150
:10521000FFDF294604F11200BDE8704004F00EB82B
:1052200070B50D46052109F03DF9040000D1FFDFFE
:10523000294604F11200BDE8704004F02CB870B5A6
:105240000546052109F02EF9040000D1FFDF04F125
:10525000080321462846BDE870400422AFE470B53B
:105260000546052109F01EF9040000D1FFDF2146A3
:1052700028462368BDE870400522A0E470B50646C4
:10528000052109F00FF9040000D1FFDF04F112003D
:1052900003F0C7FF401D20F0030511E0011D008849
:1052A0000322431821463046FFF789FC00280BD023
:1052B000607BABB2684382B26068011D08F0CDFF2D
:1052C000606841880029E9D170BD70B50E46054679
:1052D00002F014FE040000D1FFDF0120207266728C
:1052E0006580207820F00F00C01C20F0F0003030E6
:1052F0002070BDE8704002F004BE602801D0072095
:1053000070470878C54900F0010008700020704718
:105310002DE9F0438BB00D461446814606A9FFF7F0
:105320008AFB002814D14FF6FF7601274FF420584E
:105330008CB103208DF800001020ADF8100007A8F4
:10534000059007AA204604A90AF05BFE78B1072061
:105350000BB0BDE8F0830820ADF808508DF80E7052
:105360008DF80000ADF80A60ADF80C800CE00698EE
:10537000A17801742188C1818DF80E70ADF80850B4
:10538000ADF80C80ADF80A606A4602214846069BDB
:10539000FFF77CFBDCE708B501228DF8022042F61E
:1053A0000202ADF800200A4603236946FFF731FCEC
:1053B00008BD08B501228DF8022042F60302ADF8BF
:1053C00000200A4604236946FFF723FC08BD00B508
:1053D00087B079B102228DF800200A88ADF8082044
:1053E0004988ADF80A1000236A460521FFF74EFBF5
:1053F00007B000BD1020FBE709B1072309E407202F
:10540000704770B588B00D461446064606A9FFF7EA
:1054100012FB00280ED17CB10620ADF808508DF8A3
:105420000000ADF80A40069B6A460821DC81304640
:10543000FFF72CFB08B070BD05208DF80000ADF81B
:105440000850F0E700B587B059B107238DF8003058
:10545000ADF80820039100236A460921FFF716FBE7
:10546000C6E71020C4E770B588B00C460646002594
:1054700006A9FFF7E0FA0028DCD1069801211230D6
:1054800003F001FF9CB12178062921D2DFE801F069
:10549000200505160318801E80B2C01EE28880B267
:1054A0000AB1A3681BB1824203D90C20C2E71020C5
:1054B000C0E7042904D0A08850B901E00620B9E76C
:1054C000012913D0022905D004291CD005292AD08E
:1054D0000720AFE709208DF800006088ADF80800CC
:1054E000E088ADF80A00A068039023E00A208DF858
:1054F00000006088ADF80800E088ADF80A00A068F8
:105500000A25039016E00B208DF800006088ADF8A6
:105510000800A088ADF80A00E088ADF80C00A0688B
:105520000B25049006E00C208DF8000060788DF8C3
:1055300008000C256A4629463046069BFFF7A6FA66
:1055400078E700B587B00D228DF80020ADF808107F
:1055500000236A461946FFF799FA49E700B587B074
:1055600071B102228DF800200A88ADF80820498820
:10557000ADF80A1000236A460621FFF787FA37E7DD
:10558000102035E770B586B0064601200D46ADF80F
:1055900008108DF80000014600236A463046FFF7E8
:1055A00075FA040008D12946304601F009FB0021B4
:1055B000304601F023FB204606B070BDF8B51C460E
:1055C00015460E46069F09F0A0F82346FF1DBCB203
:1055D00031462A46009408F0A8FCF8BD30B41146C4
:1055E000DDE902423CB1032903D0002330BC06F0C0
:1055F000BEB90123FAE71A8030BC704770B50C467B
:105600000546FFF722FB2146284601F0E8FA284626
:10561000BDE87040012101F0F1BA00001000002047
:1056200018B18178012938D101E010207047018834
:1056300042F60112881A914231D018DC42F601027A
:10564000A1EB020091422AD00CDC41B3B1F5C05F5E
:1056500025D06FF4C050081821D0A0F57060FF3835
:105660001BD11CE001281AD002280AD117E0B0F59E
:10567000807F14D008DC012811D002280FD0032825
:105680000DD0FF2809D10AE0B0F5817F07D0A0F541
:105690008070033803D0012801D0002070470F200C
:1056A00070470A281FD008DC0A2818D2DFE800F06B
:1056B000191B1F1F171F231D1F21102815D008DCC1
:1056C0000B2812D00C2810D00D2816D00F2806D188
:1056D0000DE011280BD084280BD087280FD0032091
:1056E00070470020704705207047072070470F2043
:1056F000704704207047062070470C20704743F223
:105700000200704738B50C46050041D06946FEF7E7
:10571000C3FA002819D19DF80010607861F30200E7
:1057200060706946681CFEF7B7FA00280DD19DF835
:105730000010607861F3C5006070A978C1F3410181
:10574000012903D0022905D0072038BD217821F096
:10575000200102E0217841F020012170410704D0AE
:10576000A978C90861F386106070607810F0380F6E
:1057700007D0A978090961F3C710607010F0380FDD
:1057800002D16078400603D5207840F040002070B8
:10579000002038BD70B504460020088015466068BA
:1057A000FFF7B0FF002816D12089A189884211D8BF
:1057B00060688078C0070AD0B1F5007F0AD840F24F
:1057C0000120B1FBF0F200FB1210288007E0B1F5D8
:1057D000FF7F01D90C2070BD01F20121298000203A
:1057E00070BD10B50478137864F300031370047867
:1057F000640864F3410313700478A40864F382031B
:1058000013700478E40864F3C30313700478240964
:1058100064F3041313700478640964F3451313707C
:105820000078800960F38613137031B10878C107DE
:1058300001D1800701D5012000E0002060F3C713EB
:10584000137010BD4278530702D002F0070306E040
:1058500012F0380F02D0C2F3C20300E001234A78ED
:1058600063F302024A70407810F0380F02D0C0F3A0
:10587000C20005E0430702D000F0070000E001206D
:1058800060F3C5024A7070472DE9F04F95B00D00E6
:10589000824613D012220021284605F0F6FD4FF66D
:1058A000FF7B05AA0121584605F0B7FB00242646D8
:1058B00037464FF420586FF4205972E0102015B08D
:1058C000BDE8F08F9DF81E0001280AD1BDF81C101C
:1058D00041450BD011EB09000AD001280CD0022859
:1058E0000CD0042C0ED0052C0FD10DE0012400E0CB
:1058F0000224BDF81A6008E0032406E00424BDF881
:105900001A7002E0052400E00624BDF81A10514583
:1059100047D12C74BEB34FF0000810AA4FF0070A0D
:10592000CDE90282CDE900A80DF13C091023CDF8A4
:10593000109042463146584605F03FFC08BBBDF882
:105940003C002A46C0B210A90AF059FBC8B9AE8182
:10595000CFB1CDE900A80DF1080C0AAE40468CE8A5
:105960004102132300223946584605F026FC40B96F
:10597000BDF83C00F11CC01EC0B22A1D0AF03FFB5E
:1059800010B103209BE70AE0BDF82900E881062C4E
:1059900005D19DF81E00A872BDF81C0028810020CA
:1059A0008DE705A805F045FB00288BD0FFF779FEB1
:1059B00085E72DE9F0471C46DDE90978DDF8209000
:1059C00015460E00824600D1FFDF0CB1208818B1C9
:1059D000D5B11120BDE8F087022D01D0012100E0F2
:1059E000002106F1140004F0E1F9A8F800000246D5
:1059F0003B462946504605F021FEC9F8000008B98B
:105A0000A41C3C600020E5E71320E3E7F0B4144653
:105A1000DDE904528DB1002314B1022C09D101E05B
:105A2000012306E00D7CEE0703D025F001050123DC
:105A30000D742146F0BC05F09ABF1A80F0BC704787
:105A40002DE9FE4F91461A881C468A468046FAB1D7
:105A500002AB494605F0F2FD050019D04046A61CF0
:105A6000278808F064FE3246072629463B46009602
:105A700008F08FFA20882346CDE900504A46514667
:105A80004046FFF7C3FF002020800120BDE8FE8FC5
:105A90000020FBE72DE9F04786B082460EA890462D
:105AA00090E8B000894604AA05A903A88DE807007C
:105AB0001E462A4621465046FFF77BFF039901B157
:105AC00001213970002818D1FA4904F1140204ABFD
:105AD0000860039805998DE80700424649465046FC
:105AE00004F017FDA8B1092811D2DFE800F005087D
:105AF0000510100A0C0C0E00002006B06AE71120F9
:105B0000FBE70720F9E70820F7E70D20F5E703207A
:105B1000F3E7BDF810100398CDE9000133462A469B
:105B200021465046FFF772FFE6E72DE9F04389B0C2
:105B30001646DDE910870D4681461C4614220021D9
:105B400003A805F0A2FC012002218DF810108DF8A9
:105B50000C008DF81170ADF8146064B1A278D20712
:105B600009D08DF81600E088ADF81A00A088ADF8CD
:105B70001800A068079008A80095CDE901104246DA
:105B800003A948466B68FFF785FF09B0BDE8F083BD
:105B9000F0B58BB0002406460694079407270894B6
:105BA00005A80994019400970294CDE903400D469D
:105BB00010232246304605F000FB78B90AA806A952
:105BC000019400970294CDE90310BDF8143000222F
:105BD0002946304605F08FF8002801D0FFF761FD17
:105BE0000BB0F0BD04F020BF2DE9FC410C4680460F
:105BF000002602F083F9054620780D287ED2DFE8E2
:105C000000F0BC0713B325BD49496383AF959B00E2
:105C1000A848006820B1417841F010014170ADE022
:105C2000404602F09BF9A9E00421404608F03AFC06
:105C3000070000D1FFDF07F11401404604F04BF8E4
:105C4000A5BB13214046FCF739FD97E004214046EF
:105C500008F028FC070000D1FFDFE088ADF8000065
:105C60000020B8819DF80000010704D5C00602D5C8
:105C7000A088B88105E09DF8010040067ED5A08887
:105C8000F88105B9FFDF22462946404601F0C0FCF5
:105C9000022673E0E188ADF800109DF801100906B6
:105CA0000FD5072803D006280AD00AE024E00421F3
:105CB000404608F0F7FB060000D1FFDFA088F08126
:105CC0000226CDB9FFDF17E00421404608F0EAFBC9
:105CD000070000D1FFDF07F1140004F0DCFE90F0B4
:105CE000010F02D1E079000648D5387C022640F049
:105CF0000200387405B9FFDF224600E03DE0294686
:105D0000404601F085FC39E00421404608F0CAFB1A
:105D1000017C002D01F00206C1F340016171017C9C
:105D200021F002010174E7D1FFDFE5E7022601213E
:105D3000404602F045F921E00421404608F0B2FB5C
:105D40000546606800902089ADF80400012269468C
:105D5000404602F056F9287C20F0020028740DE03D
:105D6000002DC9D1FFDFC7E7022600214046FFF71B
:105D700057FA002DC0D1FFDFBEE7FFDF3046BDE898
:105D8000FC813EB50C0009D001466B4601AA0020FB
:105D900005F098FA20B1FFF784FC3EBD10203EBD0F
:105DA00000202080A0709DF8050002A900F00700E7
:105DB000FDF78EFF50B99DF8080020709DF8050092
:105DC00002A9C0F3C200FDF783FF08B103203EBD66
:105DD0009DF8080060709DF80500C109A07861F386
:105DE0000410A0709DF80510890961F3C300A0702C
:105DF0009DF80410890601D5022100E0012161F31C
:105E000042009DF8001061F30000A07000203EBD2C
:105E100070B5144606460D4651EA040005D075B12A
:105E20000846FBF75CFA78B901E0072070BD294607
:105E3000304605F0AEFA10B1BDE8704031E454B11F
:105E40002046FBF74CFA08B1102070BD21463046C1
:105E5000BDE8704095E7002070BD2DE9FC5F0C4661
:105E600090460546002701780822007A3E46B2EBAC
:105E7000111F7DD104F10A0100910A31821E4FF0F9
:105E8000020A04F1080B0191092A72D2DFE802F03C
:105E9000EDE005F528287BAACE006888042108F0EB
:105EA00001FB060000D1FFDFB08928B15227072689
:105EB000C3E000002C02002051271026002C7DD0CA
:105EC0006888A0800120A071A88900220099FFF7AE
:105ED0009FFF002873D1A8892081288AE081D1E022
:105EE000B5F81290072824D1E87B000621D5512768
:105EF00009F1140086B2002CE1D0A8890022009993
:105F0000FFF786FF00285AD16888A08084F806A091
:105F1000A88920810120A073288A2082A4F81290E9
:105F2000A88A009068884B46A969019A01F04CFB49
:105F3000A8E0502709F1120086B2002C3ED0A889B3
:105F400000225946FFF764FF002838D16888A080F6
:105F5000A889E080287A072813D002202073288A95
:105F6000E081E87BC0096073A4F81090A88A01E082
:105F700085E082E0009068884B4604F11202A9692E
:105F8000D4E70120EAE7B5F81290512709F114008F
:105F900086B2002C66D06888042108F083FA834614
:105FA0006888A080A88900220099FFF731FF0028A7
:105FB0006ED184F806A0A889208101E052E067E054
:105FC0000420A073288A2082A4F81290A88A009046
:105FD00068884B46A969019A01F0F6FAA989ABF8DD
:105FE0000E104FE06888FBF7ABFB0746688804217A
:105FF00008F058FA064607B9FFDF06B9FFDF687BED
:10600000C00702D05127142601E0502712264CB3B6
:106010006888A080502F06D084F806A0287B5946B7
:1060200001F0E2FA2EE0287BA11DF9E7FE49A889DC
:106030004989814205D1542706269CB16888A080F1
:1060400020E053270BE06888A080A889E08019E051
:106050006888042108F026FA00B9FFDF55270826D2
:10606000002CF0D1A8F8006011E056270726002C7C
:10607000F8D06888A080002013E0FFDF02E001284C
:1060800008D0FFDFA8F800600CB1278066800020F0
:10609000BDE8FC9F57270726002CE3D06888A08026
:1060A000687AA071EEE7401D20F0030009B141437A
:1060B000091D01EB4000704713B5DB4A0020107149
:1060C000009848B10024684608F027F8002C02D157
:1060D000D64A009911601CBD01240020F4E770B578
:1060E0000D461446064686B05C220021284605F07F
:1060F000CCF904B9FFDFA0786874A278218828461B
:1061000001F09DFA0020A881E881228805F11401A0
:10611000304603F0C4FD6A460121304604F07DFF9D
:106120001AE000BF9DF80300000715D5BDF8061062
:106130003046FFF72DFD9DF80300BDF8061040F036
:1061400010008DF80300BDF80300ADF81400FF2324
:106150003046059A05F0E5F8684604F06AFF002825
:10616000E0D006B070BD10B50C4601F1140003F08C
:10617000CEFD0146627C2046BDE8104001F094BA95
:1061800030B50446A84891B04FF6FF75C18905AAFD
:10619000284604F042FF30E09DF81E00A0422AD0BD
:1061A00001282AD1BDF81C00B0F5205F03D042F6CB
:1061B0000101884221D1002002AB0AAA0CA901905A
:1061C00083E8070007200090BDF81A101023002272
:1061D000284604F0F2FF38B9BDF828000BAAC0B277
:1061E0000CA909F00CFF10B1032011B030BD9DF8CF
:1061F0002E00A04201D10020F7E705A804F019FF06
:106200000028C9D00520F0E770B50546042108F044
:1062100049F9040000D1FFDF04F114010C462846BF
:1062200003F059FD21462846BDE8704003F05ABDF1
:1062300070B58AB00C460646FBF782FA050014D00A
:106240002878222827D30CB1A08890B101208DF89E
:106250000C0003208DF8100000208DF8110054B1BF
:10626000A088ADF81800206807E043F202000AB0E9
:1062700070BD0920FBE7ADF81800059004213046F9
:1062800008F010F9040000D1FFDF04F1140003F05E
:1062900054FD000701D40820E9E701F02FFE60B1AA
:1062A00008A802210094CDE9011095F8232003A944
:1062B00030466368FFF7EEFBD9E71120D7E72DE9F9
:1062C000F04FB2F802A0834689B015468946504681
:1062D000FBF736FA07460421504608F0E3F800269B
:1062E000044605964FF002080696ADF81C6007B903
:1062F000FFDF04B9FFDF4146504605F066FC50B9A8
:1063000007AA06A905A88DE807004246214650467F
:106310006368FFF74EFB444807AB0660DDE90512F2
:1063200004F11400CDF80090CDE90320CDE901314E
:1063300097F82320594650466B6803F047FD060046
:106340000AD0022E04D0032E14D0042E00D0FFDF7A
:1063500009B03046BDE8F08FBDF81C000028F7D02A
:106360000599CDE900104246214650466368FFF783
:106370004DFBEDE7687840F008006870E8E72DE92C
:10638000F04F99B004464FF000082748ADF81C8044
:10639000ADF82080ADF82480A0F80880ADF8148016
:1063A000ADF81880ADF82C80ADF82880007916463D
:1063B0000D464746012808D0022806D0032804D0FD
:1063C000042802D0082019B0C4E72046FAF743FF9A
:1063D00070BB2846FAF73FFF50BB6068FAF788FFAA
:1063E00030BB606848B160892189884202D8B1F524
:1063F000007F01D90C20E6E780460EAA06A92846B0
:10640000FFF7C8F90028DED168688078C0F3410042
:10641000022808D19DF8190010F0380F03D0286920
:10642000FAF75DFF20B904E02C02002018000020DC
:1064300022E005A92069FFF765F90028C3D120698A
:1064400048B1607880079DF8150000F0380001D54C
:10645000F0B300E0E0BB9DF8140080060ED59DF877
:10646000150010F0380F03D06068FAF738FF18B93C
:106470006068FAF73DFF08B11020A4E70AA9606937
:10648000FFF740F900289ED1606940B19DF82900CE
:1064900000F0070101293CD110F0380F39D00BA9C9
:1064A000A069FFF72FF900288DD19DF828008006FC
:1064B0002FD49DF82C0080062BD4A06950B19DF8F4
:1064C0002D0000F00701012923D110F0380F00E062
:1064D0001FE01ED0E06818B10078D0B11C2818D297
:1064E0000FAA611C2046FFF77CF90121384661F3B1
:1064F0000F2082468DF85210B94642F603000F462F
:10650000ADF850000DF13F0218A9286809F079FD97
:1065100008B1072057E79DF8600015A9CDF8009055
:10652000C01CCDE9019100F0FF0B00230BF201220A
:10653000514614A804F09CFCF0BBBDF854000C902C
:10654000FE482A8929690092CDE901106B89BDF8BE
:1065500038202868069904F08BFC01007ED1207851
:106560004FF0020AC10601D480062BD5CDF80C905D
:10657000606950B90AA906A8FFF764F99DF82900D7
:1065800020F00700401C8DF829009DF8280008A97C
:1065900040F0C8008DF828008DF8527042F60210C5
:1065A000ADF8500003AACDF800A0CDE901210023E9
:1065B00040F2032214A800E01EE00A9904F058FCFF
:1065C00001004BD1DD484D4608385B460089ADF8E7
:1065D0003D000FA8CDE90290CDF80490CDF81090C1
:1065E0004FF007090022CDF80090BDF854104FF687
:1065F000FF7004F080FB10B1FFF753F8E3E69DF85D
:106600003C00000624D52946012060F30F218DF8B7
:1066100052704FF424500395ADF8500062789DF805
:106620000C00002362F300008DF80C006278CDF8B6
:1066300000A0520862F341008DF80C0003AACDE9D6
:10664000012540F2032214A804F012FC010005D138
:10665000606888B32069A8B905A900E084E006A8AD
:10666000FFF7F0F86078800706D49DF8150020F059
:1066700038008DF8150005E09DF8140040F040004A
:106680008DF814008DF8527042F60110ADF85000EC
:10669000208940F20121B0FBF1F201FB1202606897
:1066A00009ABCDF80080CDE90103002314A80599BA
:1066B00004F0DEFB010057D12078C00728D00395F5
:1066C000A06950B90BA906A8FFF7BCF89DF82D00EA
:1066D00020F00700401C8DF82D009DF82C008DF84F
:1066E000527040F040008DF82C0042F60310ADF8D7
:1066F000500007A903AACDF800A0CDE9012100238D
:1067000040F2032214A80B9904F0B2FB01002BD134
:10671000E06868B32946012060F30F218DF85270BC
:1067200042F60410ADF85000E068002302788DF8BE
:10673000582040788DF85900E06816AA4088ADF8D6
:106740005A00E06800798DF85C00E068C088ADF818
:106750005D00CDF80090CDE901254FF4027214A838
:1067600004F086FB010003D00C9800F0C9FF2AE674
:10677000724803210838017156B100893080BDF894
:1067800024007080BDF82000B080BDF81C00F080AF
:10679000002018E670B501258AB016460B46012880
:1067A00002D0022816D104E08DF80E504FF420508C
:1067B00003E08DF80E5042F60100ADF80C005BB11D
:1067C0000024601C60F30F2404AA08A9184609F0ED
:1067D00018FC18B107204AE5102048E504A99DF8E7
:1067E00020205648CDE90021801E0290002321463A
:1067F00003A802F2012204F03BFB10B1FEF751FFA7
:1068000035E54E4808380EB1C18831800571002049
:106810002DE5F0B593B0074601268DF83E6041F6B0
:106820000100ADF83C0012AA0FA93046FFF7B2FFF5
:10683000002849D1414C0025083CEFB31C2200211F
:1068400002A804F022FE9DF808008DF83E6040F09A
:1068500020008DF8080042F60520ADF83C000E95AA
:106860009DF83A00119520F00600801C8DF83A0042
:106870009DF838006A4620F0FF008DF838009DF83A
:10688000390009A920F0FF008DF839000420ADF887
:106890002C00ADF830000EA80A9011A80D900FA89A
:1068A0000990ADF82E5002A8FFF769FD00280BD122
:1068B000BDF80000608100E008E0BDF80400A081A0
:1068C000401CE0812571002013B0F0BD6581A581D9
:1068D000BDF84800F4E72DE9F74F1849A0B00024AF
:1068E000083917940A79A146012A04D0022A02D055
:1068F000082023B02EE5CA88824201D00620F8E79E
:1069000021988A46824201D10720F2E701202146E0
:1069100060F30F21ADF848004FF6FF780691ADF80F
:106920004A808DF86E0042F6020B8DF872401CA969
:10693000ADF86CB0ADF87040139101E03402002066
:10694000ADF8508012A804F0A3FB00252E462F4678
:106950000DAB072212A9404604F09DFB78B10A282E
:106960005DD195B38EB3ADF86450ADF866609DF817
:106970005E008DF8144019AC012864D06BE09DF8DE
:106980003A001FB3012859D1BDF8381059451FD11D
:1069900018A809A901940294CDE9031007200090DA
:1069A000BDF8361010230022404604F006FCB0BBB0
:1069B000BDF86000042801D006284AD1BDF8241093
:1069C000219881423AD10F2093E73AE0012835D14E
:1069D000BDF83800B0F5205F03D042F601018842CF
:1069E0002CD1BAF80600BDF83610884201D1012733
:1069F00000E0002705B19EB1219881421ED118A860
:106A000009AA01940294CDE90320072000900D46C5
:106A100010230022404604F0D0FB00B902E02DE034
:106A20004E460BE0BDF86000022801D0102810D1BE
:106A3000C0B217AA09A909F0E2FA50B9BDF8369018
:106A400086E7052055E705A917A8221D09F0D9FA00
:106A500008B103204DE79DF814000023001DC2B2C9
:106A60008DF8142022980092CDE901401BA80699C8
:106A700004F0FEF910B902228AF80420FEF711FE94
:106A800037E710B50B46401E88B084B205AA002136
:106A90001846FEF7A6FE00200DF1080C06AA05A96F
:106AA00001908CE807000720009001230022214676
:106AB0004FF6FF7004F01FF90446BDF818000128D6
:106AC00000D0FFDF2046FEF7ECFD08B010BDF0B5AA
:106AD000F74F044687B038790E46032804D00428BF
:106AE00002D0082007B0F0BD04AA03A92046FEF793
:106AF00051FE0500F6D160688078C0F3410002289D
:106B00000AD19DF80D0010F0380F05D02069FAF772
:106B1000E6FB08B11020E5E7208905AA21698DE888
:106B200007006389BDF810202068039904F0A0F9DC
:106B300010B1FEF7B6FDD5E716B1BDF814003080F0
:106B4000042038712846CDE7F8B50C0006460CD075
:106B500001464FF6FF7500236A46284604F0B2FB53
:106B600028B100BFFEF79DFDF8BD1020F8BD6946B5
:106B70002046FEF7C7FD0028F8D1A078314600F086
:106B800001032846009A04F0CCFBEBE730B587B050
:106B9000144600220DF1080C05AD01928CE82C0082
:106BA000072200920A46014623884FF6FF7004F040
:106BB000A2F8BDF814102180FEF773FD07B030BDB8
:106BC00070B50D46042107F06DFC040000D1FFDF15
:106BD000294604F11400BDE8704003F0A7B870B571
:106BE0000D46042107F05EFC040000D1FFDF2946BA
:106BF00004F11400BDE8704003F0BBB870B50D4659
:106C0000042107F04FFC040000D1FFDF294604F106
:106C10001400BDE8704003F0D3B870B505460421F8
:106C200007F040FC040000D1FFDF2146284623681E
:106C3000BDE870400122FEF703BF70B5064604218F
:106C400007F030FC040000D1FFDF04F1140003F072
:106C50005EF8401D20F0030511E0011D00880022B0
:106C6000431821463046FEF7EBFE00280BD0607C2F
:106C7000ABB2684382B2A068011D07F0EEFAA068CB
:106C800041880029E9D170BD70B50546042107F09F
:106C900009FC040000D1FFDF214628466368BDE8F7
:106CA00070400222FEF7CCBE70B50E46054601F0DC
:106CB00025F9040000D1FFDF012020726672658093
:106CC000207820F00F00001D20F0F00040302070F0
:106CD000BDE8704001F015B910B50446012900D097
:106CE000FFDF2046BDE810400121FEF799BA2DE9EB
:106CF000F04F97B04FF0000A0C008346ADF814A097
:106D0000D04619D0E06830B1A068A8B10188ADF8CC
:106D10001410A0F800A05846FAF712FD070043F23D
:106D2000020961D0387822285CD30421584607F044
:106D3000B9FB050005D103E0102017B0BDE8F08FC6
:106D4000FFDF05F1140002F0E2FF401D20F0030612
:106D5000A078012803D0022801D00720EDE7218880
:106D600007AA584604F059F930BB07A804F061F9A6
:106D700010BB07A804F05DF948B99DF8260001286A
:106D800005D1BDF82400A0F52451023902D04FF4FA
:106D90005050D2E7E068B0B1CDE902A007200090E2
:106DA00005AACDF804A00492A2882188BDF8143069
:106DB000584603F0A0FF10B1FEF773FCBDE7A168D1
:106DC000BDF8140008809DF81F00C00602D543F2EC
:106DD0000140B2E70B9838B1A1780078012905D0BD
:106DE00080071AD40820A8E74846A6E7C007F9D0CC
:106DF00002208DF83C00A8684FF00009A0B1697C22
:106E00004288714391420FD98AB2B3B2011D07F093
:106E1000DAF98046A0F800A006E003208DF83C00D7
:106E2000D5F800804FF001099DF8200010F0380FD0
:106E300000D1FFDF9DF820001E49C0F3C2000844C6
:106E400097F8231010F8010C884201D90F2074E73D
:106E50002088ADF8400014A90095CDE90191434682
:106E600007220FA95846FEF715FE002891D19DF87C
:106E7000500050B9A078012807D1687CB3B27043A4
:106E800082B2A868011D07F0B2F9002055E770B57D
:106E9000064615460C460846FEF7C2FB002805D1FB
:106EA0002A4621463046BDE8704073E470BD12E5C5
:106EB0002C020020148D010070B51E4614460D00F2
:106EC00009D044B1616831B138B1FC49C988814207
:106ED00003D0072070BD102070BD2068FEF7A0FB16
:106EE0000028F9D1324621462846BDE87040FFF718
:106EF00046BA70B515460C0006D038B1EF4909897D
:106F0000814203D0072070BD102070BD2068FEF7BD
:106F100087FB0028F9D129462046BDE87040D6E518
:106F200070B5064686B00D4614461046FAF7B9F914
:106F3000D0BB6068FAF7DCF9B0BBA6F57F40FF383C
:106F400003D03046FAF7FCFB80B128466946FEF7CD
:106F50009BFC00280CD19DF810100F2008293DD271
:106F6000DFE801F008060606060A0A0843F20200F6
:106F700006B070BD0320FBE79DF80210012908D17F
:106F8000BDF80010B1F5C05FF2D06FF4C052D1422D
:106F9000EED09DF8061001290DD1BDF80410A1F521
:106FA0002851062907D200E029E0DFE801F00303B9
:106FB00004030303DCE79DF80A1001290FD1BDF893
:106FC0000810B1F5245FD3D0A1F60211B1F500513C
:106FD000CED00129CCD0022901D1C9E7FFDF6068FA
:106FE00078B9002305AA2946304604F06BF910B1A0
:106FF000FEF757FBBCE79DF81400800601D4102073
:10700000B6E76188224628466368FFF7BFFDAFE711
:107010002DE9F043814687B0884614461046FAF7BA
:1070200040F918B1102007B0BDE8F083002306AA8C
:107030004146484604F046F918B100BFFEF731FB5F
:10704000F1E79DF81800C00602D543F20140EAE7D7
:107050000025072705A8019500970295CDE9035063
:1070600062884FF6FF734146484604F0A6F80600D2
:1070700013D16068FAF715F960B960680195CDE938
:10708000025000970495238862884146484604F0E0
:1070900094F80646BDF8140020803046CEE739B19A
:1070A000864B0A889B899A4202D843F203007047B4
:1070B0001DE610B586B0814C0423ADF81430638909
:1070C00043B1A4898C4201D2914205D943F2030015
:1070D00006B010BD0620FBE7ADF8101000210091AE
:1070E0000191ADF8003002218DF8021005A902913E
:1070F00004A90391ADF812206946FFF7F8FDE7E710
:107100002DE9FC4781460D460846FAF7A4F888BBEE
:107110004846FAF715FB5FEA00080AD098F8000025
:10712000222829D30421484607F0BCF9070005D1DD
:1071300003E043F20200BDE8FC87FFDF07F1140023
:1071400002F0FBFD06462878012803D0022804D06F
:107150000720F0E7B0070FD502E016F01C0F0BD0A8
:10716000A8792C1DC00709D0E08838B1A068FAF7CB
:1071700072F818B11020DEE70820DCE721882A78B1
:107180000720B1F5847F35D01EDC40F20315A1F253
:107190000313A94226D00EDCB1F5807FCBD003DCEF
:1071A000F9B1012926D1C6E7A1F58073013BC2D010
:1071B000012B1FD113E0012BBDD0022B1AD0032BC2
:1071C000B9D0042B16D112E0A1F20912082A11D26B
:1071D000DFE802F00B04041010101004ABE7022AE1
:1071E000A9D007E0012AA6D004E0320700E0F206A9
:1071F000002AA0DACDB200F081FE50B198F8230049
:10720000CDE90005FA89234639464846FEF78DFC4C
:1072100091E711208FE72DE9F04F8BB01F461546FF
:107220000C4683460026FAF78BFA28B1007822280C
:1072300005D208200BB081E543F20200FAE7B80856
:1072400001D00720F6E7032F00D100274FF6FF7982
:10725000CCB1022D73D32046FAF74AF830B904EBCB
:107260000508A8F10100FAF743F808B11020E1E79A
:10727000AD1E38F8028CAAB22146484604F075F9D2
:1072800040455CD1ADB20D49B80702D58889401C94
:1072900000E001201FFA80F8F80701D08F8900E094
:1072A0004F4605AA4146584603F0B7FE4FF0070A7D
:1072B0004FF00009DCB320460BE000002C02002058
:1072C000408810283BD8361D304486B2AE4236D2B4
:1072D000A01902884245F3D351E000BF9DF8170082
:1072E00002074CD594B304EB0608361DB8F80230FB
:1072F000B6B2102B23D89A19AA4220D8B8F8002089
:1073000091421CD1C0061CD5CDE900A90DF1080C95
:107310000AAAA11948468CE80700B8F80010002214
:10732000584603F0E8FC20B1FEF7BBF982E726E0FF
:1073300005E0B8F80200BDF82810884201D00B2003
:1073400078E7B8F80200304486B207E0FFE7C006ED
:1073500004D55846FEF71CFC002888D19DF817007C
:10736000BDF81A1020F010008DF81700BDF81700B6
:10737000ADF80000FF235846009A03F0D2FF05A89D
:1073800003F057FE18B9BDF81A10B942A6D9042166
:10739000584607F087F8040000D1FFDFA2895AB1F0
:1073A000CDE900A94D46002321465846FEF7BDFB16
:1073B0000028BBD1A5813DE700203BE72DE9FF4F29
:1073C0008BB01E4617000D464FF0000412D0B008D7
:1073D00002D007200FB0B1E4032E00D100265DB12A
:1073E0000846F9F77CFF28B93888691E0844F9F780
:1073F00076FF08B11020EDE7C74AB00701D5D18963
:1074000000E00121F0074FF6FF7802D0D089401E3E
:1074100000E0404686B206AA0B9803F0FEFD4FF04E
:1074200000094FF0070B0DF1140A38E09DF81B001E
:10743000000734D5CDF80490CDF800B0CDF8089011
:10744000CDE9039A434600220B9803F0B6FE60BBD9
:1074500005B3BDF814103A8821442819091D8A4241
:1074600030D3BDF81E2020F8022BBDF8142020F8E0
:10747000022BCDE900B9CDE90290CDF810A0BDF8FE
:107480001E10BDF8143000220B9803F096FE08B1D0
:1074900003209FE7BDF814002044001D84B206A815
:1074A00003F0C7FD20B10A2806D0FEF7FAF891E7ED
:1074B000BDF81E10B142B9D934B17DB13888A11CD4
:1074C000884203D20C2085E7052083E7224629461F
:1074D000404604F04AF8014628190180A41C3C806B
:1074E000002077E710B50446F9F7DBFE08B110205D
:1074F00010BD8948C0892080002010BDF0B58BB038
:107500000D4606461422002103A803F0BEFF012009
:107510008DF80C008DF8100000208DF81100ADF8EA
:1075200014503046FAF70CF948B10078222812D3EB
:107530000421304606F0B6FF040005D103E043F213
:1075400002000BB0F0BDFFDF04F11400074602F0AB
:10755000F4FB800601D40820F3E7207C022140F0F0
:107560000100207409A80094CDE90110072203A9A5
:1075700030466368FEF78EFA20B1217C21F00101CC
:107580002174DEE729463046FDF73BFE08A9384660
:1075900002F0C2FB00B1FFDFBDF82040172C01D282
:1075A000172000E02046A84201D92C4602E0172C03
:1075B00000D2172421463046FFF711FB2146304602
:1075C000FDF743FB0020BCE7F8B51C4615460E4608
:1075D000069F07F09AF82346FF1DBCB231462A46A3
:1075E000009406F0A2FCF8BD70B50C4605460E22CC
:1075F0000021204603F049FF002020802DB1012DFD
:1076000001D0FFDF70BD062000E00520A07170BD35
:1076100010B548800878134620F00F00001D20F0B8
:10762000F00080300C4608701422194604F108005E
:1076300003F001FF00F065FC3748046010BD2DE940
:10764000F047DFF8D890491D064621F003011746A0
:107650000C46D9F8000006F07EFD050000D1FFDFE2
:107660004FF000083560A5F800802146D9F80000E9
:1076700006F071FD050000D1FFDF7560A5F8008000
:107680007FB104FB07F1091D0BD0D9F8000006F00B
:1076900062FD040000D1FFDFB460C4F80080BDE8E3
:1076A000F087C6F80880FAE72DE9F0411746491D32
:1076B00021F00302194D064601681446286806F0B9
:1076C00075FD22467168286806F070FD3FB104FB25
:1076D00007F2121D03D0B168286806F067FD042088
:1076E00006F08CFE0446042006F090FE201A0128C5
:1076F00004D12868BDE8F04106F022BDBDE8F08164
:1077000010B50C4603F058FC00B1FFDF2046BDE881
:107710001040FDF7C6BF00002C020020180000201A
:1077200038B582880A800C46C188121D90B26A461C
:1077300005F07EFFBDF80000032800D30320C1B28E
:10774000208800F0A4FF38BD38B582880A800C4636
:10775000C188121D90B26A4605F06AFFBDF80000AC
:10776000022800D30220C1B2208800F090FF401C04
:10777000C0B238BD2DE9FF5F8B46F94982461446F9
:10778000D1E90101CDE902010BF1030222F003026C
:1077900001A84421019206F0C0FCF24E002C02D157
:1077A000F149019A8A60019901440191B57E05F180
:1077B000010504D1E8B208F0A5FB00B1FFDF019894
:1077C00000EB0510C01C20F00301019144B9727A4E
:1077D00000200870B08B80B203F04DFA00B1FFDFDB
:1077E0000198F16908440190214601A800F013FFB7
:1077F00080460198C01C20F003000190717A04B10A
:10780000002006F074FD019908440190214601A86A
:1078100000F048FFD34800273D4690F801900CE067
:10782000284600F0DBFE064681788088FDF7A4FA42
:1078300071786D1C00FB0177EDB24D45F0D10198D8
:10784000C01C20F00300019004B100203946FDF770
:107850009EFA0199002708440190C2483D4690F8DD
:1078600001900CE0284600F0B9FE0646C1788088F9
:10787000FEF719FC71786D1C00FB0177EDB24D45E8
:10788000F0D10198C01C20F00300019004B1002049
:107890003946FEF711FC019908440190B2480021D5
:1078A0004278084604F00BF8214601A800F072FE69
:1078B0000198C01D20F007000190DAF80010814205
:1078C00004D3A0EB0B01B1F5803F04DB4FF00408BB
:1078D000CAF8000004E0CAF80000B8F1000F03D0B5
:1078E000404604B0BDE8F09F4CBBFAF7BBFB9D4C93
:1078F000207E0090607E012823D0002318B3002250
:10790000984800210C30FAF7E5FF00B1FFDFE07E78
:10791000FEF77FFF00B1FFDF92484FF4F6720021BF
:10792000343003F0B2FD8F480421343080F8E9117F
:1079300080F8EA11062180F8EB1103210171002083
:10794000CFE70123DAE702AADAE770B5854C0646ED
:107950003434207804EB4015E078083598B9A01944
:1079600090F8E80100280FD0A0780F2800D3FFDF9F
:1079700020220021284603F088FD687866F3020083
:1079800068700120E070284670BD2DE9F041054681
:107990000C4600270078052190463E46B1EB101FAB
:1079A00000D0FFDF287A58B101280FD0FFDF00BFD9
:1079B000A8F800600CB1278066800020BDE8F08147
:1079C0000127092674B16888A08008E002271426E0
:1079D00044B16888A0802869E060A88A2082287B5A
:1079E0002072E5E7A8F80060E7E730B55D4C0120BC
:1079F000002120706170207260726176217621739F
:107A00000521A1821F21E182607358A121610A2111
:107A1000A176E076544D4FF4B060E0616868C11C17
:107A200021F00301814200D0FFDF6868606030BD53
:107A300030B54D4C1568636808339D4202D204206E
:107A4000136030BD474B5D785A6802EBC502107079
:107A500051700320D080172090800120D07090704A
:107A60005878401C5870606808306060002030BD55
:107A700070B506463B480024457807E0204600F0F4
:107A8000ADFD0178B14204D0641CE4B2AC42F5D142
:107A9000002070BDF7B5064608780C46F8B1FFF730
:107AA000E7FF0546202E06D0212E1AD0222E18D010
:107AB000232E14D110E000F09CFD0DB1697800E098
:107AC0000021401A81B2A0780144FF2907D830B1C3
:107AD000A088022805D202E06088172801D207207A
:107AE000FEBD65B9207802AA0121FFF7A1FF002899
:107AF000F6D12078FFF7BCFF050000D1FFDF202E74
:107B000008D0212E0ED0222E0FD0232E07D0FFDF3B
:107B10000020FEBDA0786870A088E880F8E7608843
:107B2000A880F5E7A078A870F2E7A078E870EFE702
:107B30001A283FD00DDC13283CD2DFE800F0253BAB
:107B40002A3B3B31312D2F373B3B333B3B3B3B39D2
:107B50000F00302802D00DDC1E282BD107207047E3
:107B6000188D0100680200201C0000206E5246356E
:107B7000780000003A3809281CD2DFE800F0151B15
:107B80000F1B1B1B1B1B07000020E8E743F2040030
:107B9000E5E743F20200E2E70420E0E70D20DEE73C
:107BA0000F20DCE70820DAE71120D8E71320D6E71A
:107BB0000620D4E70320D2E710B5007800F00100DA
:107BC00005F02CFDBDE81040B2E710B5007800F0DC
:107BD000010005F028FDBDE81040A9E70EB50178C9
:107BE00001F001018DF80010417801F001018DF8DC
:107BF00001100178C1F340018DF802104178C1F302
:107C000040018DF80310017889088DF8041041783F
:107C100089088DF8051081788DF80610C1788DF8E7
:107C2000071000798DF80800684605F0EFF9FFF7B6
:107C30007FFF0EBD2DE9F84FDFF8F883FE4C0026DC
:107C40001FE0012000F071FD0120FFF77EFE0546D8
:107C500044214746D8F8080006F07DFA686000B96C
:107C6000FFDF686805F0CCF8A8B12846F9F7BAFE3E
:107C7000284600F060FD20B944226968B86806F023
:107C800095FA94F9E9010428DBDA022006F0B6FB44
:107C900007460025A5E044226968D8F8080006F0E8
:107CA00085FAF2E7B8F802104046491C89B2A8F8F4
:107CB0000210B94201D3002141800221B8F802002C
:107CC00006F0F0FB002864D0B8F80200694605F021
:107CD0001FFCFFF72DFF00B1FFDF9DF8000078B11A
:107CE000B8F8020006F023FD5FEA000900D1FFDFCB
:107CF000484605F0AEFF18B1B8F8020003F053FF94
:107D0000B8F8020006F001FD5FEA000900D1FFDFCC
:107D1000484605F096FFE0BB0321B8F8020006F0E4
:107D2000C1FB5FEA000B47D1FFDF45E0DBF80C0049
:107D300010B10078FF2849D0022000F0F6FC0220A4
:107D4000FFF703FE8246484606F087F8CAF80400AB
:107D500000B9FFDFDAF8040006F04FF900210090C7
:107D60000170B8F802105046AAF8021003F046FE5F
:107D7000484606F044F900B9FFDF504600F0DBFC4E
:107D800018B99AF80100000704D50099CBF80C1037
:107D900012E024E0DBF80C0038B10178491C11F046
:107DA000FF01017008D1FFDF06E0002211464846BE
:107DB00000F0EEFB00B9FFDF94F9EA01022805DBD1
:107DC000B8F8020003F0F5FD0028AFD194F9E901FD
:107DD000042804DB484606F076F900B101266D1C44
:107DE000EDB2BD4204D294F9EA010228BFF65AAFBF
:107DF000002E7FF424AFBDE8F84F032000F095BCBF
:107E000010B58C4CE06008682061AFF2D710FBF72A
:107E100082F8607010BD88480021343801708548B0
:107E20000170864941609AE670B505464FF0805072
:107E30000C46D0F8A410491C05D1D0F8A810C943AD
:107E40000904090C0BD050F8A01F01F001012970A2
:107E5000416821608068A080287830B970BD062113
:107E6000204609F06AFE01202870607940F0C000C9
:107E7000607170BD70B54FF080540D46D4F880101D
:107E8000491C0BD1D4F88410491C07D1D4F88810B0
:107E9000491C03D1D4F88C10491C0CD0D4F88010A4
:107EA0000160D4F884104160D4F888108160D4F85F
:107EB0008C10C16002E0102109F03FFED4F8900060
:107EC000401C0BD1D4F89400401C07D1D4F8980082
:107ED000401C03D1D4F89C00401C09D054F8900FEA
:107EE000286060686860A068A860E068E86070BDAD
:107EF0002846BDE87040102109F01FBE4E480079A9
:107F000023E570B54C4CE07830B3207804EB40109A
:107F1000407A00F00700204490F9E801002800DCD6
:107F2000FFDF2078002504EB4010407A00F00700C6
:107F3000011991F8E801401E81F8E8012078401C01
:107F4000C0B220700F2800D12570A078401CA0700E
:107F500009F072FCE57070BDFFDF70BD3EB50546EF
:107F6000032106F09FFA0446284606F0CEFB05469C
:107F700004B9FFDFE06818B10078FF2800D1FFDF07
:107F800001AA6946284600F003FB60B9FFDF0AE05A
:107F9000002202A9284600F0FBFA00B9FFDF9DF895
:107FA000080000B1FFDF9DF80000411E8DF80010B1
:107FB000EED2E0680199884201D10020E0603EBD28
:107FC00070B50546A0F57F400C46FF3800D1FFDFB5
:107FD000012C01D0FFDF70BDFFF790FF040000D13E
:107FE000FFDF207820F00F00401D20F0F00050301F
:107FF000207065800020207201202073BDE8704051
:108000007FE72DE9F04116460D460746FFF776FF5C
:10801000040000D1FFDF207820F00F00401D20F089
:10802000F0005030207067800120207228682061A5
:10803000A88805E01C0000209C020020680D00209C
:10804000A0822673BDE8F0415BE77FB5FFF710FD26
:10805000040000D1FFDF02A92046FFF761FB0546BF
:1080600003A92046FFF770FB8DF800508DF8010042
:10807000BDF80800001DADF80200BDF80C00001DA1
:10808000ADF80400E088ADF80600684605F0AAFAED
:10809000002800D0FFDF7FBD2DE9F05FFE4F804656
:1080A000387808B108201DE44046F9F7FAF808B11D
:1080B000102017E4F94D287808B9FFF796FC6C7A80
:1080C000464600F096FAA04207D2201AC1B23246C4
:1080D0000020FFF7ADFC0028E5D17968BB46C91C3C
:1080E00021F0030179600027EC483E46B946BA46C4
:1080F0003C46457807E0204600F070FA4078641C62
:108100000644E4B27F1CAC42F5D10AEB870000EBD9
:10811000C600E24E00EB89005C46717A012200EB5A
:10812000C100DBF80410451829464046FFF722FB42
:10813000070012D00020FFF79BFC05000BD005F1D3
:108140000B00616820F00300884200D0FFDF7078E8
:10815000401E707065603846A5E7002229464046FB
:10816000FFF708FB00B1FFDFD8F8000060604FF6B2
:10817000FF70608001202070002094E72DE9F0411D
:108180000446C54817460E46007808B1082015E495
:108190000846F9F760F808B110200FE4BF4D2878C1
:1081A00008B9FFF722FC601E1E2807D8012C22D137
:1081B0003078FE281FD8A8760020E8E7A4F1200038
:1081C0001F2805D8E0B23A463146BDE8F04161E4E7
:1081D000A4F140001F2805D831462046BDE8F041F3
:1081E00000F0D1BAA4F1A0001F2804D80020A02CD0
:1081F00003D0A12C06D00720C9E7317801F0010196
:10820000E976C4E731680922F82901D38B0701D048
:108210001046BCE76B7B03F00303012B04D1EB8A10
:10822000D7339CB28C42F3D8E961B0E72DE9F0472F
:1082300081460E460846F9F734F848B94846F9F73A
:108240004EF828B909F1030020F00301494502D096
:108250001020BDE8F08791484FF0000A3430817853
:1082600069B14178804600EB4114083437883246C2
:108270000021204600F06DFA050004D027E0A6F8A2
:1082800000A00520E5E7B9F1000F24D03088B842FE
:1082900001D90C251FE0607800F00705284600F0A2
:1082A00044FA08EB0507324697F8E8014946401CB6
:1082B00087F8E801204607F5F47700F04AFA05460A
:1082C0003878401E3870032000F02FFA2DB10C2DA5
:1082D00001D0A6F800A02846BBE760786E4E00F0FB
:1082E0000701012923D002290CD0032933D0FFDF55
:1082F00098F801104046491CC9B288F801100F29AE
:1083000034D035E0616821B1000702D46088FFF7FE
:1083100025FE98F8EA014746012802D17078FAF75D
:1083200019FE97F9EA010428E2DBFFDFE0E7616864
:1083300019B14422B06805F039FF98F8E9014746C1
:10834000032802D17078FAF705FE97F9E9010428AD
:10835000CEDBFFDFCCE7C00602D56088FFF7FEFD6D
:1083600098F9EB010628C3DBFFDFC1E780F801A025
:108370008178491E8170617801F0070101EB0800E6
:1083800090F8E811491C80F8E811A4E770B50C4694
:108390000546F8F760FF18B92046F8F782FF08B1E4
:1083A000102070BD284607F0E4FD207008B10020C1
:1083B00070BD042070BD70B5054607F0F3FDC4B272
:1083C0002846F8F78CFF08B1102070BD35B1287829
:1083D0002C7018B1A04201D0072070BD2046FDF7D7
:1083E000CFFE052805D107F0E0FD012801D00020CF
:1083F00070BD0F2070BD70B5044615460E46084688
:10840000F8F729FF18B92846F8F74BFF08B11020F4
:1084100070BD022C03D0102C01D0092070BD2A465B
:108420003146204607F0EBFD0028F7D0052070BD4F
:1084300070B514460D460646F8F70DFF38B92846C4
:10844000F8F72FFF18B92046F8F749FF08B11020B8
:1084500070BD22462946304607F0D3FD0028F7D0EC
:10846000072070BD3EB50446F8F71BFF08B1102089
:108470003EBD684604F052FDFFF75AFB0028F7D1D5
:108480009DF806002070BDF808006080BDF80A0065
:10849000A08000203EBD00001C00002068020020DB
:1084A00070B505460C460846F8F719FF20B93CB1EF
:1084B0002068F8F7F6FE08B1102070BDA08828B13A
:1084C00021462846BDE87040FDF7B2BE092070BDC8
:1084D00070B504460D460846F8F7BDFE58BB601E51
:1084E0001E280ED8032C01D9072070BD04B9FFDF68
:1084F000E54800EB840050F8041C2846BDE87040B5
:108500000847A4F120001F2805D829462046BDE8C9
:108510007040F9F745BDA4F160001F2805D8294631
:108520002046BDE87040FCF7E8BEF02CDCD1A8681E
:10853000F8F791FE08B1102070BD284605F0AEF89E
:10854000BDE87040FFF7F4BA70B504460D46084622
:10855000F8F7A7FE30B9601E1E280FD82846F8F796
:108560007AFE08B1102070BD012C03D0022C01D07E
:10857000032C01D1062070BD072070BDA4F120009E
:108580001F28F9D829462046BDE87040F9F74ABDB2
:1085900005F026BB1CB500291FD102F098FFBB488F
:1085A00000224178C06804F07FFBB8481030C078E2
:1085B0008DF8000010B1012802D004E0012000E095
:1085C00000208DF80000684604F003FDAE48243812
:1085D0000068019001A804F02AFE1CBD30B5AC4D26
:1085E00004466878A04200D8FFDF686800EBC4004A
:1085F00030BD70B5A64800252C46467807E02046D9
:10860000FFF7ECFF4078641C2844C5B2E4B2B442E2
:10861000F5D1284670BD2DE9F04105469C484FF044
:108620000008427A9600FF2E01D94FF013082868FF
:10863000C01C20F003022A6051EA080121D19448AD
:10864000F3B20521203009F07DFC002408E0052C60
:108650000FD2DFE804F00503070709008D4804E0A6
:108660008D4802E08D4800E08D4809F08BFC0746FC
:1086700000E0FFDFA74200D0FFDF641CE4B2052C5E
:10868000E5D3286800EB0610286040467FE5021D10
:108690005143452900D245210844C01CB0FBF2F0EB
:1086A000C0B270472DE9FC5F064679484FF00008DC
:1086B0008B464746444690F8019022E02046FFF75B
:1086C0008DFF050000D1FFDF687869463844C7B2E6
:1086D0002846FFF725F8824601A92846FFF734F817
:1086E0000346BDF804005246001D81B2BDF80000EB
:1086F000001D80B205F054FF6A78641C00FB0288FC
:10870000E4B24C45DAD13068C01C20F00300306080
:10871000BBF1000F00D000204246394605F04EFF65
:10872000316808443060BDE8FC9F59493431087114
:108730000020C870704756493431CA782AB10A7887
:1087400001EB42110831814201D001207047002025
:1087500070472DE9F04106460078154600F00F04F9
:1087600000201080601E0F46052800D3FFDF46481A
:108770002A46183800EB8400394650F8043C30464D
:10878000BDE8F04118472DE9F041414E0C46402824
:1087900006D041281AD0422822D0432826D11AE0F8
:1087A00020786578012801D91320F0E4FF2D08D83E
:1087B00007F098FD074608F0F7FF381A401EA84258
:1087C00001DA1220E3E4208830810DE0BDE8F041B9
:1087D000084600F00DB80878022807D8307603E084
:1087E0000878022802D870760020D0E40720CEE472
:1087F00038B50446407800F00300012803D0022871
:108800000BD0072038BD606858B1F8F771FDD0B9BA
:108810006068F8F764FD20B915E06068F8F71BFDA3
:1088200088B969462046FBF737FA0028EAD1607814
:1088300000F00300022808D19DF8000028B160680C
:10884000F8F74DFD08B1102038BD6189F8290DD821
:10885000208988420AD8607800F003020C48012A77
:1088600006D1D731C26989B28A4201D2092038BD06
:1088700094E80E0000F10C0585E80E000AB900210D
:108880008182002038BD00003C8D01001C000020CA
:1088900068020020D51E00000DB90000AD91000057
:1088A000F7FC000070B50B2000F0B9F9082000F0CB
:1088B000B6F900210B2000F0D0F90021082000F0CB
:1088C000CCF9EE4C01256560A5600020C4F840019C
:1088D000C4F84401C4F848010B2000F0B1F90820A5
:1088E00000F0AEF90B2000F08DF9256070BD10B5D9
:1088F0000B2000F094F9082000F091F9DF480121E5
:1089000041608160DE490A68002AFCD10021C0F87C
:108910004011C0F84411C0F848110B2000F090F944
:10892000BDE81040082000F08BB910B50B2000F016
:1089300087F9BDE81040082000F082B900B530B1D9
:10894000012806D0022806D0FFDF002000BDCD4858
:1089500000BDCD4800BDCC48001D00BD70B5CB4961
:108960004FF000400860CA4DC00BC5F80803C94865
:1089700000240460C5F840410820C43500F04FF9D8
:10898000C5F83C41C448047070BD08B5BB4A00211D
:1089900028B1012811D002281CD0FFDF08BD4FF4F8
:1089A0008030C2F80803C2F84803B5483C30016083
:1089B000C2F84011BDE80840D0E74FF40030C2F8DB
:1089C0000803C2F84803AE4840300160C2F84411C1
:1089D000AD480CE04FF48020C2F80803C2F8480309
:1089E000A74844300160C2F84811A748001D00683C
:1089F000009008BD70B516460D460446022800D901
:108A0000FFDF00229D48012304F110018B4000EBA1
:108A10008401C1F8405526B1C1F84021C0F80433A3
:108A200003E0C0F80833C1F84021C0F8443370BDFA
:108A30002DE9F0411D46144630B1012833D00228FB
:108A400038D0FFDFBDE8F081891E002221F07F4190
:108A50001046FFF7CFFF012D23D000208E4D8C4F05
:108A6000012668703E618B4900203C390860022075
:108A7000091D0860874904203039086085483D3465
:108A8000046008206C6000F0DBF83004C7F80403D1
:108A9000082000F0B7F87D49F007091F08602E7024
:108AA000D0E70120DAE7012B02D00022012005E007
:108AB0000122FBE7012B04D000220220BDE8F04197
:108AC00098E70122F9E76E480068704770B56B4C73
:108AD000D4F840010025012809D1D4F80803C003C7
:108AE00005D54FF48030C4F80803C4F84051D4F8D9
:108AF000440101280CD1D4F80803800308D54FF4B1
:108B00000030C4F80803C4F84451012008F069FAA1
:108B1000D4F8480101280ED1D4F8080340030AD53F
:108B20004FF48020C4F80803C4F84851BDE87040F1
:108B3000022008F056BA70BD10B5574C207850B1DD
:108B4000FFF70CFF6078002807D000206070BDE8B8
:108B5000104008F046BA0320F9E710BD4FF0E021BD
:108B60004FF40010C1F800027047152000F068B8FB
:108B7000474901200861082000F062B844494FF4D9
:108B80007C10C1F8080300204FEA000201EB8003CB
:108B9000C3F84025C3F84021401CC0B20628F5D3D5
:108BA0007047410A43F609525143C0F3080010FBD5
:108BB00002F000F5807001EB5020704710B5430BB8
:108BC00048F2376463431B0C5C020C60334C03FBBC
:108BD0000400334B4CF2F72443435B0D13FB04F4C6
:108BE00004EB402000F580704012107008681844B3
:108BF000086010BD28484068704725490120C1F829
:108C000000027047002809DB00F01F02012191409B
:108C10004009800000F1E020C0F8001170470028F2
:108C20000DDB00F01F02012191404009800000F19E
:108C3000E020C0F88011BFF34F8FBFF36F8F7047F4
:108C4000002809DB00F01F0201219140400980004B
:108C500000F1E020C0F8801270474907090E002893
:108C600004DB00F1E02080F80014704700F00F00F2
:108C700000F1E02080F8141D7047000000B00040B3
:108C800004B500404081004044B1004008F5014077
:108C9000008000404085004030000020F7C2FFFF08
:108CA0006F0C010010B5EFF3108000F0010472B6F4
:108CB000F7484178491C41704078012801D108F0FB
:108CC000E3FD002C00D162B610BD70B5F04CA07869
:108CD00048B90125A570FFF7E5FF08F0E6FD20B1D2
:108CE000002008F0B0FD002070BD4FF08040E5701E
:108CF000C0F80453F7E770B5EFF3108000F00105FA
:108D000072B6E34C607800B9FFDF6078401E607097
:108D1000607808B908F0BCFD002D00D162B670BDC6
:108D2000DB4810B5817821B10021C1708170FFF757
:108D3000E2FF002010BD10B5044608F0B6FDD4498E
:108D40008978084000D001202060002010BD10B5B7
:108D5000FFF7A8FF08F0A9FD02220123CC49540720
:108D600028B1CC48026023610320087202E00A7235
:108D7000C4F804330020887110BD2DE9F84FDFF8E6
:108D800010934278817889F80420002689F805102C
:108D9000074689F806600078DFF8FCB2354620B156
:108DA000012811D0022811D0FFDF08F090FD4FF00C
:108DB000804498B108F092FDB0420FD1304608F0DF
:108DC00091FD0028FAD042E00126EEE7FFF76AFFA6
:108DD00058460168C907FCD00226E6E70120E0609A
:108DE000C4F80451AD490E600107D1F84412AB4AF2
:108DF000C1F3423124321160A849343108604FF088
:108E0000020AC4F804A3A060A5480168C94341F35D
:108E1000001101F10108016841F01001016001E059
:108E20000FF0C2FDD4F804010028F9D0304608F054
:108E300059FD0028FAD0B8F1000F04D19848016814
:108E400021F010010160C4F808A3C4F8045199F896
:108E500005004E4680B1387870B908F026FD80468E
:108E600008F02EFF6FF00042B8F1000F02D0C6E903
:108E7000032001E0C6E90302DBF80000C00701D0CF
:108E800008F00FFD387810B13572BDE8F88F4FF05B
:108E90001808C4F808830127A7614FF42070ADF8C3
:108EA000000000BFBDF80000411EADF80010F9D26F
:108EB000C4F80C51C4F810517548C01D08F09CFD51
:108EC0003570FFF744FF67617449307920310860DD
:108ED000C4F80483D9E770B5050000D1FFDF4FF077
:108EE00080424FF0FF30C2F808030021C2F80011A1
:108EF000C2F80411C2F80C11C2F81011644C617070
:108F000008F0DFFC10B10120A070607062480068BA
:108F1000C00701D008F0C5FC2846BDE870402CE72A
:108F20005B48007A002800D0012070472DE9FF5FE0
:108F30004FF080444FF0000AD4F80801D14657465C
:108F400010B14FF0010801E04FF0000808F027FDD4
:108F500078B1D4F8240100B101208246D4F81C0174
:108F600000B101208146D4F8200108B1012700E0BA
:108F70000027D4F8000100B101208346D4F8040191
:108F800000B101200390D4F80C0100B1012002903F
:108F9000D4F8100100B101203D4D01902878002641
:108FA0000090B8F1000F04D0C4F80861012008F067
:108FB0004AFCBAF1000F04D0C4F82461092008F07B
:108FC00042FCB9F1000F04D0C4F81C610A2008F07B
:108FD0003AFC27B1C4F820610B2008F034FC2C487F
:108FE000C01D08F011FD00B1FFDFDFF8A8800127E8
:108FF000BBF1000F10D0C4F80873E87818B1EE7018
:10900000002008F020FC287A022805D103202872CD
:109010000221C8F800102761039808B1C4F8046160
:10902000029850B1C4F80C61287A032800D0FFDF01
:10903000C8F800602F72FFF75EFE019838B1C4F8DF
:109040001061287A012801D100F054F86761009876
:1090500038B12E70287A012801D1FFF778FEFFF78A
:109060004AFE04B00A48BDE8F05FC01D08F0E2BC4B
:10907000074810B5C01D08F0C7FC054990B1012094
:1090800008704FF0E021C1F80002BDE8104009E689
:1090900038000020340C00400C040040180500404B
:1090A00010ED00E0087A012801D1FFF750FEBDE87D
:1090B0001040244808F0BEBC70B5224CE41FA078D4
:1090C00008B908F0E5FB01208507A861207A002691
:1090D000032809D1D5F80C0120B9002008F002FCC2
:1090E0000028F7D1C5F80C6126724FF0FF30C5F8A3
:1090F000080370BD70B5134CE41F6079F0B101280E
:1091000003D0A179401E814218DA08F0CEFB054653
:1091100008F0D6FD6179012902D9A179491CA17114
:109120000DB1216900E0E168411A022902DA11F16A
:10913000020F06DC0DB1206100E0E060BDE8704088
:1091400005E670BD3F0000200348044A01689142D3
:1091500001D100210160704750000020BEBAFECA54
:109160000E4A12680C498A420AD118470B4A126803
:10917000094B9A4204D101B508F07CFDBDE80140DD
:10918000074909680958084706480749054A064B30
:109190007047000000000000BEBAFECA5000002068
:1091A00004000020D00C0020D00C002070B50C462C
:1091B000054600F045FB21462846BDE8704001F019
:1091C00026BC0000F8B51D46DDE906470E000AD0B2
:1091D00005F0ADFA2346FF1DBCB231462A46009485
:1091E00004F0D7FEF8BDD0192246194602F023F943
:1091F0002046F8BD70B50D4604461022002102F04D
:1092000044F9258117206081A07B40F00A00A073FB
:1092100070BD4FF6FF720A800146022008F06CBF55
:10922000704700897047827BD30701D1920703D42E
:10923000808908800020704705207047827B920754
:1092400000D58181704701460020098841F6FE5211
:10925000114200D00120704700B50346807BC00753
:1092600001D0052000BD59811846FFF7ECFFC0076B
:1092700003D0987B40F004009873987B40F0010085
:109280009873002000BD827B520700D509B1408948
:10929000704717207047827B61F3C3028273704767
:1092A0002DE9FC5F0E46044601789646012000FA3F
:1092B00001F14DF6FF5201EA020962684FF6FF7BA9
:1092C0001188594502D10920BDE8FC9FB9F1000F72
:1092D00005D041F6FE55294201D00120F4E741EACC
:1092E000090111801D0014D000232B7094F800C0D8
:1092F000052103221F464FF0020ABCF10E0F76D261
:10930000DFE80CF0F909252F47646B77479193B498
:10931000D1D80420D8E7616820898B7B9B0767D56B
:1093200017284AD30B89834247D38989172901D348
:10933000814242D185F800A0A5F801003280616821
:1093400088816068817B21F002018173C6E004207E
:1093500028702089A5F801006089A5F803003180F4
:10936000BCE0208A3188C01D1FFA80F8414524D313
:10937000062028702089A5F801006089A5F803005F
:10938000A089A5F805000721208ACDE900016369BD
:1093900041E00CF0FF00082810D008202870208938
:1093A000A5F801006089A5F8030031806A1D6946AF
:1093B00004F10C0006F025FE10B15EE01020EDE790
:1093C00030889DF800100844308087E00A2028701B
:1093D0002089A5F80100328044E00C202870208903
:1093E000A5F801006089A5F8030031803AE082E029
:1093F00064E02189338800EB41021FFA82F843457B
:109400003BD3B8F1050F38D30E222A700BEA410185
:10941000CDE90010E36860882A467146FFF7D2FE66
:10942000A6F800805AE04020287060893188C01C6E
:109430001FFA80F8414520D32878714620F03F007C
:10944000123028702089A5F801006089CDE900025A
:1094500060882A46E368FFF7B5FEA6F80080287802
:1094600040063BD461682089888037E0A089328833
:10947000401D1FFA80F8424501D204273DE0162026
:1094800028702089A5F801006089A5F80300A0894B
:10949000CDE9000160882A4671462369FFF792FEF4
:1094A000A6F80080DEE718202870207A6870A6F8F9
:1094B00000A013E061680A88920401D405271CE02B
:1094C000C9882289914201D0062716E01E21297001
:1094D00030806068018821F400510180B9F1000FEB
:1094E0000BD0618878230022022008F05BFD6168C0
:1094F0002078887006E0338003276068018821EABD
:10950000090101803846DFE62DE9FF4F85B0174697
:10951000129C0D001E461CD03078C10703D000F00D
:109520003F00192801D9012100E000212046FFF762
:10953000AAFEA8420DD32088A0F57F41FF3908D0AC
:109540003078410601D4000605D5082009B0BDE8F1
:10955000F08F0720FAE700208DF800008DF8010059
:1095600030786B1E00F03F0C0121A81E4FF0050A59
:109570004FF002094FF0030B9AB2BCF1200F75D2E5
:10958000DFE80CF08B10745E7468748C749C74B596
:1095900074BA74C874D474E1747474F174EF74EEB2
:1095A00074ED748B052D78D18DF80090A0788DF82E
:1095B00004007088ADF8060030798DF801007078ED
:1095C00000F03F000C2829D00ADCA0F10200092895
:1095D00063D2DFE800F0126215621A621D62200099
:1095E000122824D004DC0E281BD01028DBD11BE06D
:1095F00016281FD01828D6D11FE02078800701E058
:1096000020784007002848DAEEE020780007F9E7E4
:109610002078C006F6E720788006F3E72078400639
:10962000F0E720780006EDE72088C005EAE720880B
:109630004005E7E720880005E4E72088C004E1E76B
:109640002078800729D5032D27D18DF800B0B6F8F2
:10965000010081E0217849071FD5062D1DD381B275
:109660007078012803D0022817D102E0C9E0022057
:1096700000E0102004228DF8002072788DF804207C
:10968000801CB1FBF0F2ADF8062092B242438A4250
:1096900003D10397ADF80890A6E079E020780007A1
:1096A00076D598B282088DF800A0ADF80420B0EB12
:1096B000820F6DD10297ADF8061095E02178C906AA
:1096C00066D5022D64D381B206208DF80000707833
:1096D00002285DD3B1FBF0F28DF80400ADF806204E
:1096E00092B242438A4253D1ADF808907BE0207891
:1096F00080064DD5072003E0207840067FD508205E
:109700008DF80000A088ADF80400ADF80620ADF893
:10971000081068E02078000671D50920ADF8042013
:109720008DF80000ADF8061002975DE02188C905AC
:1097300065D5022D63D381B20A208DF800007078C0
:1097400004285CD3C6E72088400558D5012D56D1A2
:109750000B208DF80000A088ADF8040044E021E063
:1097600026E016E0FFE72088000548D5052D46D302
:109770000C208DF80000A088ADF80400B6F80300B6
:109780006D1FADF80850ADF80600ADF80AA02AE04C
:1097900035E02088C00432D5012D30D10D208DF860
:1097A000000021E02088800429D4B6F80100E08080
:1097B000A07B000723D5032D21D3307800F03F0094
:1097C0001B2818D00F208DF80000208840F400508E
:1097D000A4F80000B6F80100ADF80400ED1EADF8E5
:1097E0000650ADF808B0039769460598FBF73CFAB8
:1097F000050008D016E00E208DF80000EAE70725E6
:1098000010E008250EE0307800F03F001B2809D05A
:109810001D2807D00220059908F06EFC208800F46E
:1098200000502080A07B400708D52046FFF70BFDA5
:10983000C00703D1A07B20F00400A073284685E672
:109840001FB5022806D101208DF8000088B26946B4
:10985000FBF70AFA1FBD0000F8B51D46DDE9064713
:109860000E000AD004F063FF2346FF1DBCB2314650
:109870002A46009404F08DFBF8BDD0192246194603
:1098800001F0D9FD2046F8BD2DE9FF4F8DB09B4674
:10989000DDE91B57DDF87CA00C46082B05D0E069FC
:1098A00001F0FEF850B11020D2E02888092140F0E4
:1098B000100028808AF80010022617E0E1690120D4
:1098C0008871E2694FF420519180E1698872E06902
:1098D00042F601010181E06900218173288811218C
:1098E00040F0200028808AF80010042638780A907A
:1098F0000A2038704FF0020904F118004D460C9010
:1099000001F0C6FBB04681E0BBF1100F0ED1022D75
:109910000CD0A9EB0800801C80B20221CDE9001018
:1099200005AB52461E990D98FFF796FFBDF816102D
:109930001A98814203D9F74800790F9004E003D1C7
:109940000A9808B138702FE04FF00201CDE90019F4
:109950000DF1160352461E990D98FFF77DFF1D98D5
:109960000088401B801B83B2C6F1FF00984200D2E2
:1099700003461E990BA8D9B15FF00002DDF878C04C
:10998000CDE9032009EB060189B2CDE901C10F98A9
:109990000090BDF8161000220D9801F00EFC3870F2
:1099A00070B1C0B2832807D0BDF8160020833AE01A
:1099B0000AEB09018A19E1E7022011B0BDE8F08F36
:1099C000BDF82C00811901F0FF08022D0DD09AF886
:1099D0000120424506D1BDF82010814207D0B8F1E0
:1099E000FF0F04D09AF801801FE08AF80180C9486F
:1099F00000680178052902D1BDF81610818009EBB5
:109A000008001FFA80F905EB080085B2DDE90C10AB
:109A100005AB0F9A01F03FFB28B91D980088411B48
:109A20004145BFF671AF022D13D0BBF1100F0CD121
:109A3000A9EB0800801C81B20220CDE9000105AB32
:109A400052461E990D98FFF707FF1D9805800020CC
:109A500038700020B1E72DE9F8439C46089E134674
:109A60000027B26B9AB3491F8CB2F18FA1F57F45E5
:109A7000FF3D05D05518AD882944891D8DB200E001
:109A800000252919B6F83C800831414520D82A44E0
:109A9000BCF8011022F8021BBCF8031022F8021BCC
:109AA000984622F8024B914604F02FFE4FF00C0C22
:109AB00041464A462346CDF800C004F036FAF58701
:109AC000B16B00202944A41D2144088003E001E07B
:109AD000092700E083273846BDE8F88310B50B88D6
:109AE000848F9C420CD9846BE018048844B184882C
:109AF00024F40044A41D23440B801060002010BDFA
:109B00000A2010BD2DE9F0478AB00025904689460D
:109B10008246ADF8185007274BE0059806888088E4
:109B2000000446D4A8F8006007A8019500970295A4
:109B3000CDE903504FF4007300223146504601F046
:109B40003CFB04003CD1BDF81800ADF8200005989E
:109B500004888188B44216D10A0414D40195029570
:109B6000039521F400410097049541F48043428815
:109B70002146504601F0BFF804000BD105988188BA
:109B800041F40041818005AA08A94846FFF7A6FFD5
:109B90000400DCD000970598029501950395049583
:109BA0000188BDF81C300022504601F0A4F80A2CB0
:109BB00006D105AA06A94846FFF790FF0400ACD0DD
:109BC000ADF8185004E00598818821F400418180A7
:109BD00005AA06A94846FFF781FF0028F3D00A2C02
:109BE00003D020460AB0BDE8F0870020FAE710B5A0
:109BF0000C46896B86B051B10C218DF80010A18FF5
:109C0000ADF80810A16B01916946FBF7EDFF00204C
:109C10004FF6FF71A063E187A08706B010BD2DE964
:109C2000F0410D460746896B0020069E1446002928
:109C300011D0012B0FD1324629463846FFF762FF7B
:109C4000002808D1002C06D0324629463846BDE807
:109C5000F04100F034BFBDE8F0812DE9FC4114462D
:109C6000DDE9087C0E46DDE90A15521DBCF800E06E
:109C700092B2964502D20720BDE8FC81ACF80020E4
:109C800017222A70A5F80160A5F803300522CDE956
:109C900000423B462A46FFF7DFFD0020ECE770B5A7
:109CA0000C46154648220021204601F0EEFB04F147
:109CB000080044F81C0F00204FF6FF71E06161843A
:109CC0002084A5841720E08494F82A0040F00A003C
:109CD00084F82A0070BD4FF6FF720A800146032007
:109CE00008F00ABA30B585B00C460546FFF77FFF8D
:109CF000A18E284629B101218DF800106946FBF795
:109D000073FF0020E0622063606305B030BDB0F8EF
:109D1000400070475400002090F84620920703D47A
:109D2000408808800020F4E70620F2E790F84620FB
:109D30009207EED5A0F84410EBE701460020098811
:109D40000A0700D5012011F0F00F01D040F0020009
:109D5000CA0501D540F004008A0501D540F008008D
:109D60004A0501D540F010000905D2D540F0200089
:109D7000CFE700B5034690F84600C00701D00620A3
:109D800000BDA3F842101846FFF7D7FF10F03E0FB2
:109D900005D093F8460040F0040083F8460013F81D
:109DA000460F40F001001870002000BD90F84620DA
:109DB000520700D511B1B0F84200AAE71720A8E772
:109DC00010F8462F61F3C3020270A2E72DE9FF4F9E
:109DD0009BB00E00DDE92B34DDE92978289D24D0E5
:109DE0002878C10703D000F03F00192801D90121CC
:109DF00000E000212046FFF7D9FFB04215D32878B4
:109E0000410600F03F010CD41E290CD0218811F42A
:109E10007F6F0AD13A8842B1A1F57F42FF3A04D060
:109E200001E0122901D1000602D504201FB0C5E5CA
:109E3000FA491D984FF0000A08718DF818A08DF8A6
:109E40003CA00FAA0A60ADF81CA0ADF850A029787C
:109E5000994601F03F02701F5B1C04F1180C4FF093
:109E6000060E4FF0040BCDF858C01F2A7ED2DFE853
:109E700002F07D7D107D267DAC7DF47DF37DF27D4D
:109E8000F17DF47DF07D7D7DEF7DEE7D7D7D7D7DC1
:109E9000ED0094F84610B5F80100890701D5032EAE
:109EA00002D08DF818B01EE34FF40061ADF85010E9
:109EB000608003218DF83C10ADF84000D4E2052EFF
:109EC000EFD1B5F801002083ADF81C00B5F8031000
:109ED000618308B1884201D9012079E10020A07294
:109EE00020814FF6FF702084169801F0D1F80520EC
:109EF00089F800000220029083460AAB1D9A169949
:109F00001B9801F0C8F890BB9DF82E00012804D0E2
:109F1000022089F80100102003E0012089F80100E7
:109F200002200590002203A90BA806F06AF8E8BBFE
:109F30009DF80C00059981423DD13988801CA1EB28
:109F40000B01814237DB02990220CDE900010DF1BE
:109F50002A034A4641461B98FFF77EFC02980BF104
:109F6000020B801C81B217AA029101E09CE228E05A
:109F700003A90BA806F045F802999DF80C00CDE95D
:109F8000000117AB4A4641461B98FFF765FC9DF858
:109F90000C000AAB0BEB00011FFA81FB02991D9A22
:109FA000084480B2029016991B9800E003E001F08B
:109FB00072F80028B6D0BBF1020F02D0A7F800B0AB
:109FC0004FE20A208DF818004BE200210391072E82
:109FD000FFF467AFB5F801002083ADF81C00B5F8B9
:109FE0000320628300283FF477AF90423FF674AFBE
:109FF0000120A072B5F8050020810020A073E0695F
:10A0000000F04EFD78B9E16901208871E2694FF4F2
:10A0100020519180E1698872E16942F6010008816E
:10A02000E06900218173F01F20841E986062072080
:10A030006084169801F02CF8072089F800000120B0
:10A04000049002900020ADF82A0028E019E29FE178
:10A0500035E1E5E012E2A8E080E043E00298012863
:10A0600014D0E0698079012803D1BDF82800ADF84B
:10A070000E00049803ABCDE900B04A4641461B9858
:10A08000FFF7EAFB0498001D80B20490BDF82A0097
:10A09000ADF80C00ADF80E00059880B202900AAB46
:10A0A0001D9A16991B9800F0F6FF28B90298398876
:10A0B000001D05908142D1D20298012881D0E0692B
:10A0C0008079012803D1BDF82800ADF80E0004986E
:10A0D00003ABCDE900B04A4641461B98FFF7BCFBF5
:10A0E0000298BDE1072E02D0152E7FF4DAAEB5F846
:10A0F00001102183ADF81C10B5F8032062830029FC
:10A100003FF4EAAE91423FF6E7AE0121A1724FF073
:10A11000000BA4F808B084F80EB0052E07D0C0B22A
:10A12000691DE26905F06BFF00287FF44AAF4FF626
:10A13000FF70208401A906AA14A8CDF800B081E818
:10A1400085032878214600F03F031D9A1B98FFF7EE
:10A150009BFB8246208BADF81C0082E10120032E80
:10A16000C3D14021ADF85010B5F801102183ADF8EE
:10A170001C100AAAB8F1000F00D00023CDE9020399
:10A1800004921D98CDF80480009038880022401E6B
:10A1900083B21B9801F011F88DF8180090BB0B20CA
:10A1A00089F80000BDF8280035E04FF0010C052EBD
:10A1B0009BD18020ADF85000B5F801102183B5F88F
:10A1C00003002084ADF81C10B0F5007F03D90720F0
:10A1D0008DF8180087E140F47C4222840CA8B8F185
:10A1E000000F00D00023CDE90330CDE9018C1D988C
:10A1F00000903888401E83B21B9800F0DEFF8DF877
:10A20000180018B18328A8D10220BFE00D2189F8D9
:10A210000010BDF83000401C22E100005400002076
:10A22000032E04D248067FF53CAE002018E1B5F8B5
:10A230000110ADF81C102878400602D58DF83CE0DE
:10A2400002E007208DF83C004FF000080320CDE924
:10A2500002081E9BCDF810801D980193A6F1030BF8
:10A2600000901FFA8BF342461B9800F044FD8DF8D6
:10A2700018008DF83C80297849060DD52088C00546
:10A2800006D5208BBDF81C10884201D1C4F824806B
:10A2900040468DF81880E3E0832801D14FF0020A90
:10A2A0004FF48070ADF85000BDF81C002083A4F876
:10A2B00020B01E986062032060841321CDE0052E3B
:10A2C000FFF4EFADB5F80110ADF81C10A28F6AB322
:10A2D000A2F57F43FE3B29D008228DF83C2000BF29
:10A2E0004FF0000B0523CDE9023BDDF878C0CDF837
:10A2F00010B01D9A80B2CDF804C040F40043009223
:10A30000B5F803201B9800F0F6FC8DF83CB04FF434
:10A3100000718DF81800ADF85010832810D0F8B1F6
:10A32000A18FA1F57F40FE3807D0DCE00B228DF82D
:10A330003C204FF6FE72A287D2E7A4F83CB0D2E0F0
:10A3400000942B4631461E9A1B98FFF784FB8DF82C
:10A35000180008B183284BD1BDF81C00208353E7B7
:10A3600000942B4631461E9A1B98FFF774FB8DF81C
:10A370001800E8BBE18FA06B0844831D8DE88803BB
:10A380004388828801881B98FFF767FC824668E053
:10A3900095F80180022E70D15FEA080002D0B8F172
:10A3A000010F6AD109208DF83C0007A800908DF8B4
:10A3B00040804346002221461B98FFF730FC8DF871
:10A3C00042004FF0000B8DF843B050B9B8F1010FC7
:10A3D00012D0B8F1000F04D1A18FA1F57F40FF3852
:10A3E0000AD0A08F40B18DF83CB04FF4806000E0FF
:10A3F00037E0ADF850000DE00FA91B98FBF7F4FB18
:10A4000082468DF83CB04FF48060ADF85000BAF150
:10A41000020F06D0FC480068C07928B18DF81800FA
:10A4200027E0A4F8188044E0BAF1000F03D081209F
:10A430008DF818003DE007A8009043460122214610
:10A440001B98FFF7ECFB8DF8180021461B98FFF7CF
:10A45000CEFB9DF8180020B9192189F800100120C1
:10A4600038809DF83C0020B10FA91B98FBF7BCFB7E
:10A470008246BAF1000F33D01BE018E08DF818E0E7
:10A4800031E02078000712D5012E10D10A208DF876
:10A490003C00E088ADF8400003201B9907F02CFE3B
:10A4A0000820ADF85000C0E648067FF5FAAC4FF042
:10A4B000040A2088BDF8501008432080BDF85000E1
:10A4C00080050BD5A18FA1F57F40FE3806D11E98DF
:10A4D000E06228982063A6864FF0030A5046A5E460
:10A4E0009DF8180078B1012089F80000297889F8D2
:10A4F0000110BDF81C10A9F802109DF8181089F879
:10A500000410052038802088BDF850108843208032
:10A51000E4E72DE9FF4F8846087895B00121814096
:10A520004FF20900249C0140ADF820102088DDF88E
:10A530008890A0F57F424FF0000AFF3A06D039B16B
:10A54000000705D5012019B0BDE8F08F0820FAE713
:10A55000239E4FF0000B0EA886F800B018995D46B8
:10A560000988ADF83410A8498DF81CB0179A0A7103
:10A570008DF838B0086098F8000001283BD0022818
:10A5800009D003286FD1307820F03F001D303070A3
:10A59000B8F80400E08098F800100320022904D1E4
:10A5A000317821F03F011B31317094F846100907D2
:10A5B00059D505ABB9F1000F13D0002102AA82E8EA
:10A5C0000B000720CDE90009BDF83400B8F80410ED
:10A5D000C01E83B20022159800F0EFFD0028D1D1F3
:10A5E00001E0F11CEAE7B8F80400A6F80100BDF8A4
:10A5F0001400C01C04E198F805108DF81C1098F8A0
:10A600000400012806D04FF4007A02282CD0032839
:10A61000B8D16CE12188B8F8080011F40061ADF8F8
:10A62000201020D017281CD3B4F84010814218D332
:10A63000B4F84410172901D3814212D1317821F0A6
:10A640003F01C91C3170A6F801000321ADF8341098
:10A65000A4F8440094F8460020F0020084F8460074
:10A6600065E105257EE177E1208808F1080700F41F
:10A67000FE60ADF8200010F0F00F1BD010F0C00FFE
:10A6800003D03888228B9042EBD199B9B878C007B3
:10A6900010D0B9680720CDE902B1CDF804B0009020
:10A6A000CDF810B0FB88BA883988159800F023FBE4
:10A6B0000028D6D12398BDF82010401C80294ED008
:10A6C00006DC10290DD020290BD0402987D124E0A9
:10A6D000B1F5807F6ED051457ED0B1F5806F97D1B6
:10A6E000DEE0C80601D5082000E0102082460DA952
:10A6F00007AA0520CDE902218DF83800ADF83CB05D
:10A70000CDE9049608A93888CDE90001534607220F
:10A7100021461598FFF7B8F8A8E09DF81C20012104
:10A720004FF00A0A002A9BD105ABB9F1000F00D007
:10A730000020CDE902100720CDE90009BDF8340062
:10A740000493401E83B2218B0022159800F035FD42
:10A750008DF81C000B203070BDF8140020E09DF82F
:10A760001C2001214FF00C0A002A22D113ABB9F1B1
:10A77000000F00D00020CDE902100720CDE900092C
:10A780000493BDF83400228C401E83B2218B1598AF
:10A7900000F013FD8DF81C000D203070BDF84C004A
:10A7A000401CADF8340005208DF83800208BADF842
:10A7B0003C00BCE03888218B88427FF452AF9DF882
:10A7C0001C004FF0120A00281CD1606AA8B1B878AA
:10A7D000C0073FF446AF00E018E0BA680720CDE9B3
:10A7E00002B2CDF804B00090CDF810B0FB88BA8862
:10A7F000159800F080FA8DF81C00132030700120AD
:10A80000ADF8340093E00000540000203988208B1C
:10A810008142D2D19DF81C004FF0160A0028A06B8F
:10A8200008D0E0B34FF6FF7000215F46ADF808B0E6
:10A83000019027E068B1B978C907BED1E18F0DABAF
:10A840000844821D03968DE80C02438882880188A3
:10A8500009E0B878C007BCD0BA680DAB03968DE8A4
:10A860000C02BB88FA881598FFF7F7F905005ED04F
:10A87000072D72D076E0019005AA02A92046FFF7C5
:10A880002DF90146E28FBDF80800824201D000296F
:10A89000F1D0E08FA16B084407800198E08746E083
:10A8A0009DF81C004FF0180A40B1208BC8B13888C1
:10A8B000208321461598FFF79AF938E004F1180033
:10A8C0000090237E012221461598FFF7A8F98DF804
:10A8D0001C000028EDD1192030700120ADF83400A3
:10A8E000E7E7052521461598FFF781F93AE020882A
:10A8F00000F40070ADF8200050452DD1A08FA0F5D8
:10A900007F41FE3901D006252CE0D8F808004FF031
:10A91000160A48B1A063B8F80C10A1874FF6FF7172
:10A92000E187A0F800B002E04FF6FF70A087BDF805
:10A93000200030F47F611AD078230022032015997B
:10A9400007F030FB98F8000020712088BDF8201037
:10A95000084320800EE000E007252088BDF8201085
:10A9600088432080208810F47F6F1CD03AE0218833
:10A97000814321809DF8380020B10EA91598FBF77E
:10A9800033F905469DF81C000028EBD086F801A09D
:10A9900001203070208B70809DF81C0030710520E4
:10A9A000ADF83400DEE7A18EE1B118980DAB008858
:10A9B000ADF834002398CDE90304CDE90139206BCB
:10A9C0000090E36A179A1598FFF700FA05460120F0
:10A9D0008DF838000EA91598FBF706F900B1054669
:10A9E000A4F834B094F8460040070AD52046FFF793
:10A9F000A4F910F03E0F04D114F8460F20F0040023
:10AA000020701898BDF83410018028469BE500B5E9
:10AA100085B0032806D102208DF8000088B269466F
:10AA2000FBF7E2F805B000BD10B5384C0B78226892
:10AA3000012B02D0022B2AD111E013780BB1052B88
:10AA400001D10423137023688A889A802268CB88F6
:10AA5000D38022680B891381498951810DE08B884D
:10AA600093802268CB88D38022680B8913814B891D
:10AA700053818B899381096911612168FBF7B4F8CF
:10AA8000226800210228117003D0002800D0812004
:10AA900010BD832010BD806B002800D001207047BE
:10AAA0008178012909D10088B0F5205F03D042F6F2
:10AAB0000101884201D10020704707207047F0B59E
:10AAC00087B0002415460E460746ADF8184011E041
:10AAD00005980088288005980194811DCDE90241E0
:10AAE000072104940091838842880188384600F049
:10AAF00002F930B905AA06A93046FEF7EFFF002893
:10AB0000E6D00A2800D1002007B0F0BD5400002094
:10AB100010B58B7883B102789A4205D10B885BB16E
:10AB200002E08B79091D4BB18B789A42F9D1B0F8CC
:10AB300001300C88A342F4D1002010BD812010BD4B
:10AB4000072826D012B1012A27D103E0497801F065
:10AB5000070102E04978C1F3C20105291DD2DFE8EF
:10AB600001F00318080C12000AB1032070470220FC
:10AB7000704704280DD250B10DE0052809D2801E7F
:10AB8000022808D303E0062803D0032803D00520B9
:10AB90007047002070470F20704781207047C0B277
:10ABA00082060BD4000607D5FA48807A4143C01DBF
:10ABB00001EBD00080B27047084670470020704714
:10ABC00070B513880B800B781C0625D5F14CA47A40
:10ABD000844204D843F010000870002070BD9568CE
:10ABE00000F0070605EBD0052D78F54065F304135A
:10ABF0000B701378D17803F0030341EA032140F28C
:10AC00000123B1FBF3F503FB15119268E41D00FB72
:10AC1000012000EBD40070BD906870BD37B51446BC
:10AC2000BDF804101180117841F0040111709DF8F5
:10AC300004100A061ED5D74AA368C1F30011927A00
:10AC4000824208D8FE2811D1D21DD20849421846A6
:10AC500000F01BFC0AE003EBD00200F00703012523
:10AC600010789D40A843994008431070207820F048
:10AC7000100020703EBD2DE9F0410746C81C0E466D
:10AC800020F00300B04202D08620BDE8F081C14D23
:10AC9000002034462E60AF802881AA72E8801AE036
:10ACA000E988491CE980810614D4E17800F00300AA
:10ACB00041EA002040F20121B0FBF1F201FB120158
:10ACC0002068FFF76CFF2989084480B22881381A70
:10ACD0003044A0600C3420784107E1D40020D4E750
:10ACE000AC4801220189C08800EB400002EB8000E3
:10ACF000084480B270472DE9FF4F89B01646DDE960
:10AD0000168A0F46994623F44045084600F054FB46
:10AD1000040002D02078400703D401200DB0BDE824
:10AD2000F08F099803F088FB02902078000606D582
:10AD30009848817A0298814201D88720EEE722461E
:10AD400001A90298FFF73CFF834600208DF80C0014
:10AD50004046B8F1070F1AD001222146FFF7F0FE56
:10AD60000028DBD12078400611D502208DF80C0098
:10AD7000ADF81070BDF80400ADF81200ADF8146025
:10AD80001898ADF81650CDF81CA0ADF818005FEA81
:10AD9000094004D500252E46A84601270CE021785D
:10ADA000E07801F0030140EA012040F20121B0FB0C
:10ADB000F1F2804601FB12875FEA494009D5B845A8
:10ADC00007D1A178207901F0030140EA0120B042C7
:10ADD00001D3BE4201D90720A0E7A8191FFA80F9C4
:10ADE000B94501D90D2099E79DF80C0028B103A9B8
:10ADF0000998FAF7F7FE002890D1B84507D1A07856
:10AE00004FEA192161F30100A07084F804901A98A8
:10AE100000B10580199850EA0A0027D0199830B17E
:10AE20000BEB06002A46199900F005FB0EE00BEB30
:10AE300006085746189E099803F067FC2B46F61D36
:10AE4000B5B239464246009503F06FF8224601A993
:10AE50000298FFF7B5FE9DF80400224620F010008E
:10AE60008DF80400DDE90110FFF7D8FE002055E75A
:10AE70002DE9FF4FDFF81C91824685B0B9F8061026
:10AE8000D9F8000001EB410100EB810440F2012000
:10AE9000B2FBF0F1174600FB1175DDE9138B4E464E
:10AEA00029460698FFF77BFE0346FFF719FF184473
:10AEB000B1880C30884202D9842009B02FE7069867
:10AEC000C6B2300603D5B00601D50620F5E7B9F8BD
:10AED0000620521C92B2A9F80620BBF1000F01D047
:10AEE000ABF80020B00602D5C4F808800AE0B9F833
:10AEF00008201A4492B2A9F80820D9F80000891A4B
:10AF00000844A0602246FE200699FFF787FEE770FE
:10AF100025712078390A61F301002A0AA17840F0EE
:10AF2000040062F30101A17020709AF802006071C0
:10AF3000BAF80000E08000252573300602D599F8A4
:10AF40000A7000E00127B00601D54FF000084E4618
:10AF500000244FF007090FE0CDE902580195CDF824
:10AF600000900495F1882046129B089AFFF7C3FED3
:10AF70000028A2D1641CE4B2BC42EDD300209CE7BF
:10AF800000B5FFF7ADFE03490C308A88904203D923
:10AF9000842000BDA8040020CA88086802EB420390
:10AFA00000EB8300521C037823F004030370CA8073
:10AFB000002101730846ECE72DE9F047804600F0D8
:10AFC000FBF9070005D000264446F74D40F2012961
:10AFD00016E00120BDE8F087204600F0EDF9027888
:10AFE000C17802F0030241EA0222B2FBF9F309FB45
:10AFF00013210068FFF7D3FD3044641C86B2A4B26D
:10B00000E988601E8142E7DCA8F10100E880288918
:10B01000801B288100203870DCE710B5144631B160
:10B02000491E218003F008FAA070002010BD012005
:10B0300010BD70B50446DC48C188036801E0401CBF
:10B0400020802088884207D200EB400213EB820266
:10B0500002D015786D07F2D580B2884216D2AAB117
:10B060005079A072D08820819178107901F0030185
:10B0700040EA0120A081A078E11CFFF7A1FD20613A
:10B080002088401C2080E080002070BD0A2070BD18
:10B090000121018270472DE9FF4F85B04FF6FF79FE
:10B0A0008246A3F8009048681E460D4680788DF8C9
:10B0B000060048680088ADF8040000208DF80A00FA
:10B0C000088A0C88A04200D304462C8251E03878CC
:10B0D000400708D4641C288AA4B2401C288208F1C6
:10B0E0000100C0B246E0288A401C2882781D6968A9
:10B0F000FFF70EFDD8BB3188494501D1601E308075
:10B100003188A1EB080030806888A04238D3B87835
:10B11000397900F0030041EA002801A9781DFFF702
:10B12000F7FC20BB298949452ED0002239460798D3
:10B13000FFF706FDD8B92989414518D1E96803917F
:10B14000B5F80AC0D7F808B05046CDF800C003F0F3
:10B15000DCFADDF800C05A460CF1070C1FFA8CFC33
:10B1600043460399CDF800C002F0A9FE60B1641C0B
:10B17000A4B200208046204600F01EF90700A6D1A8
:10B18000641E2C820A2098E674807879B071F88861
:10B19000B0803978F87801F0030140EA012070812D
:10B1A000A6F80C80504603F047F93A4606F108012C
:10B1B000FFF706FD306100207FE62DE9FF4F87B0E5
:10B1C00081461C469246DDF860B0DDF85480089850
:10B1D00000F0F2F8050002D02878400702D40120E0
:10B1E0000BB09CE5484603F027F92978090605D5F8
:10B1F0006D49897A814201D88720F1E7CAF30906AF
:10B200002A4601A9FFF7DCFC0746149807281CD042
:10B2100000222946FFF794FC0028E1D12878400657
:10B2200013D501208DF808000898ADF80C00BDF882
:10B230000400ADF80E00ADF81060ADF8124002A9A0
:10B240004846FAF7CFFC0028CAD12978E87801F0FF
:10B25000030140EA0121AA78287902F0030240EABA
:10B260000220564507D0B1F5007F04D9611E814206
:10B2700001DD0B20B4E7864201D90720B0E7801B2F
:10B2800085B2A54200D92546BBF1000F01D0ABF82D
:10B290000050179818B1B9192A4600F0CCF8B8F147
:10B2A000000F0DD03E4448464446169F03F03FFA37
:10B2B0002146FF1DBCB232462B46009402F069FEC7
:10B2C00000208DE72DE9F04107461D461646084649
:10B2D00000F072F8040002D02078400701D4012069
:10B2E000D3E4384603F0A8F82178090605D52E499D
:10B2F000897A814201D88720C7E422463146FFF788
:10B300005FFC65B12178E07801F0030140EA01209B
:10B31000B0F5007F01D8012000E000202870002057
:10B32000B3E42DE9F04107461D461646084600F0F5
:10B3300043F8040002D02078400701D40120A4E49F
:10B34000384603F079F82178090605D51649897A37
:10B35000814201D8872098E422463146FFF75EFCFF
:10B36000FF2D14D02178E07801F0030240EA02209A
:10B3700040F20122B0FBF2F302FB130015B900F218
:10B38000012080B2E070000A60F30101217000200A
:10B390007BE410B50C4600F00FF810B101784907B6
:10B3A00004D4012010BD0000A8040020C188218021
:10B3B0004079A0700020F5E70749CA88824209D386
:10B3C00040B1096800EB40006FF00B0202EB800017
:10B3D0000844704700207047A804002070B5044658
:10B3E0000D4621462B460AB9002070BD01E0491CDC
:10B3F0005B1C501E021E03D008781E78B042F6D0A7
:10B4000008781E78801BF0E730B50C4601462346CD
:10B41000051B954206D202E0521E9D5C8D54002A07
:10B42000FAD107E004E01D780D70491C5B1C521E28
:10B43000002AF8D130BDF0B50E460146334680EA09
:10B44000030404F00304B4B906E002B9F0BD13F834
:10B45000017B01F8017B521E01F00307002FF4D19C
:10B460000C461D4602E080CD80C4121F042AFAD289
:10B4700021462B4600BF04E013F8014B01F8014BB5
:10B48000521E002AF8D100BFE0E7F0B50C46014695
:10B49000E6B204E002B9F0BD01F8016B521E01F002
:10B4A0000307002FF6D10B46E5B245EA052545EA2C
:10B4B000054501E020C3121F042AFBD2194602E011
:10B4C00001F8016B521E002AFAD100BFE3E710B564
:10B4D00006F0B3FFF7F752FC06F05AFEBDE8104045
:10B4E00006F0ECBE202801D20120704700207047F2
:10B4F00001224FF0A043824011B1C3F80C257047E0
:10B50000C3F8082570474FF0A04101228240C1F8DE
:10B510001825704770B50346002002466FF02F05CE
:10B520000EE09C5CA4F130060A2E02D34FF0FF30EF
:10B5300070BD00EB800005EB4000521C2044D2B2ED
:10B540008A42EED370BD30B50A230BE0B0FBF3F4B2
:10B5500003FB1404B0FBF3F08D183034521E05F8D1
:10B56000014CD2B2002AF1D130BD30B500234FF6E4
:10B57000FF7510E0040A44EA002084B2C85C604011
:10B58000C0F30314604005EA00344440E0B25B1CA1
:10B5900084EA40109BB29342ECD330BD70B51446A0
:10B5A0000B880122A240134207D113430B800123D1
:10B5B0000922011D02F01BFE047070BD2DE9FF4F32
:10B5C00081B00878DDE90E7B9A4691460E46400729
:10B5D0002CD4019803F0ABF8040000D1FFDF07F191
:10B5E000040820461FFA88F102F006FA050000D18F
:10B5F000FFDF204629466A4602F051FC0098A0F879
:10B600000370A0F805A0284602F0F7FC017869F362
:10B6100006016BF3C711017020461FFA88F102F092
:10B620002EFA00B9FFDF019801F0ECFA06EB0900F1
:10B63000017E491C017605B0BDE8F08F2DE9F84F79
:10B640000E469A4691460746032102F02BFF044618
:10B65000808CDFF8AC85002518B198F80000B04266
:10B660001ED1384603F063F8070000D1FFDF09F16F
:10B670000401384689B202F0BFF9050010D03846FF
:10B6800029466A4602F00BFC009800210A46018018
:10B69000817001F026FB0098C01DCAF8000021E06F
:10B6A00098F80000B04216D104F1220734F8301F98
:10B6B000012000FA06F911EA090F00D0FFDF208807
:10B6C000012340EA090020800922391D384602F092
:10B6D000A9FD067006E0324604F1300104F12200B3
:10B6E000FFF75CFF092188F800102846BDE8F88FB5
:10B6F000FEB515460C46064602AB0C220621FFF7A6
:10B700009DFF002827D00299607812220A70801CC1
:10B71000487008224A80A0700298298805238180F9
:10B720006988C180A9880181E988418100250C20B0
:10B73000CDE90005062221463046FFF73FFF2946A6
:10B74000002266F31F41F023104606F02BFC6078C0
:10B75000801C60700120FEBD10B50446032102F07C
:10B76000A1FE014600F110022046BDE81040BFE7EF
:10B770002DE9FE43814650781646884640B1FFDFEA
:10B780003168C8F804107168C8F80810BDE8FE8375
:10B79000B778022417B1022F13D0FFDF251D2A46E8
:10B7A00002AB07214846FFF749FF0028E8D002987E
:10B7B0000121022F0170317841704480878002D0CE
:10B7C00005E00624EAE7B188C180F1880181002400
:10B7D000CDE900540523072241464846FFF7EEFE17
:10B7E00088F80440D2E710B50446032102F05AFE5F
:10B7F0000146021D2046BDE81040B9E72DE9F041A1
:10B800000E46054686B014465088032102F04AFED3
:10B8100000218DF80010042E17D36A78002A14D066
:10B820002B7802274FF6FF78012B2AD0122B01D05C
:10B83000132B0DD00391049169788DF80C10638857
:10B84000014603AA1846FFF793FF06B0BDE8F08152
:10B8500083789342F9D102781307F6D5062EF4D1F6
:10B8600022F008020270608860F31F41002006F099
:10B8700043FC8DF80070ADF80280A888ADF8040094
:10B8800017E0062EE1D383789342DED102781307C6
:10B89000DBD522F008020270608860F31F410020AF
:10B8A00006F02AFC8DF80070A888ADF80200ADF80B
:10B8B0000480608822466946F6F735FBC5E7D04A22
:10B8C000002009211170704770B50C4615463422CE
:10B8D00000212046FFF7D9FD0120607009220021D8
:10B8E00004F11800FFF7D1FD05B9FFDF29782078B2
:10B8F00061F30100207070BD7047002110B560F346
:10B900001F41002006F0F8FB002010BDFEB50646E2
:10B910000F0CFCF7F3FA050007D06F8003213846BF
:10B9200002F0C0FD040008D106E003B03846BDE8CF
:10B93000F0401321F6F7C2BEFFDF0EB1FFDFFEBD00
:10B9400020782A4620F00800207002208DF80000A0
:10B950004FF6FF70ADF80200ADF8040069463846B6
:10B96000F6F7E1FAFEBD00B5FFDF002000BD2DE9CE
:10B97000FC410C461E4617468046032102F092FD0C
:10B980000546092C0AD2DFE804F005050505050582
:10B9900009090700042303E0062301E0FFDF002379
:10B9A000CDE90076224629464046FFF707FEBDE86E
:10B9B000FC8138B50546A0F57F40FF381CD02846ED
:10B9C00002F0A3FE040000D1FFDF204602F045FA9A
:10B9D000002810D001466A46204602F060FA00981E
:10B9E0000321B0F80540284602F05CFD052C03D188
:10B9F000007908B1002038BD012038BDF8B50446F3
:10BA0000408802F082FE050000D1FFDF6A4628462A
:10BA1000616800F0E5F801460098091F8BB230F824
:10BA2000032F028042884280018899420CD1042A67
:10BA30000BD0052A19D0062A06D1636864880A4605
:10BA4000011D2046F7F734FEF8BD001D0E460546E1
:10BA5000014622463046F9F7BEFB0828F4D12246BB
:10BA600029463046FAF72BFCF8BD2246001DFFF7A9
:10BA7000C5FEF8BD70B50D460646032102F012FD65
:10BA8000040004D02078000704D5112070BD43F2D3
:10BA9000020070BD2A4621463046FFF729FE18B93C
:10BAA0002868206168686061207840F00800207094
:10BAB000002070BD2DE9F04F0E4691B08046032165
:10BAC00002F0F0FC0446404602F031FE074600203A
:10BAD000079008900990ADF830000A90029003900A
:10BAE000049004B9FFDF0DF10809FFB9FFDF1DE085
:10BAF00038460BA9002202F073F89DF82C0000F0E4
:10BB00007F05092D00D3FFDF6019017E491E0176F4
:10BB10009DF82C00000609D52A460CA907A8FFF7B6
:10BB20003DFD19F80510491C09F80510761EF6B2FE
:10BB3000DED204F13000324D04F1220BDFF8C4A054
:10BB400004F12607069010E05846069900F04AF8DE
:10BB500006462870092800D3FFDF5AF82610404611
:10BB60008847608CC05DB04202D0A08C0028EBD129
:10BB700009202870234D4E4624350EE00CA907A855
:10BB800000F030F80446375D55F8240000B9FFDFB7
:10BB900055F82420394640469047BDF81E0000283D
:10BBA000ECD111B048E510B5032102F07BFC040094
:10BBB00000D1FFDF0922002104F11800FFF765FC26
:10BBC000207840F00400207010BD10B50C46032111
:10BBD00002F068FC2044007E002800D0012010BD47
:10BBE00002F05DB910B50C4601230922011D02F0D7
:10BBF00034FB00782188012282409143218010BDCE
:10BC00005C000020488D0100F64A137882F88730E6
:10BC1000A2F8880082F88610012082F8840092F849
:10BC2000600008B192F85C0082F88A00704710B595
:10BC30000B46114658B11846FFF7E6FFEA48806800
:10BC4000008802F062FDBDE8104002F015BABDE8C0
:10BC500010404FF6FF70D7E770B5002604464670D7
:10BC6000E14D1120207029682022A01C6431FFF7CB
:10BC7000E2FB0121A171286800F8626F807800283A
:10BC800011D1D848B0F86620A0F88E20AA68537B5E
:10BC900080F8903080F88C10108802F036FDBDE8F6
:10BCA000704002F0F8B970BDCF4910B5096891F83D
:10BCB00092300022012B0DD091F88C30012B18D03E
:10BCC00091F86230012B1ED091F88430012B1DD0E9
:10BCD000002010BD42701623037051F8933FC0F846
:10BCE00002304B68C0F806300B7A837201F8012CE1
:10BCF0001BE0427005230370D1F88E30C0F802308B
:10BD000081F88C2011E0FFF7A7FF0EE091F8623078
:10BD1000012BF8D042701323037051F8863FC0F80E
:10BD200002308B88C38001F8022C012010BDAE4880
:10BD3000006890F8621011B1B0F8660070474FF6D5
:10BD4000FF70704770B5A84C206800B9FFDF20680D
:10BD5000417811B10C25284670BD00259C2229464A
:10BD6000FFF793FB2168FF2008707F2081F83600E1
:10BD700013204884282081F86100012081F85800B0
:10BD8000002081F85B0006F052FF06F029FAE2E796
:10BD900070B5954C0546206800B9FFDF216800208A
:10BDA00048706560FFF7CEFF002800D0FFDF70BD50
:10BDB0008D4909680978814201D10120704700202E
:10BDC0007047894800B5016891F82400498CC0F398
:10BDD0008002C0F340031A4400F00100104413290C
:10BDE00015D004DC102909D0122904D10FE015293F
:10BDF00008D01D2904D0FFDF002000BD7B4903E0EF
:10BE00007B4800BD7949083131F8100000BD774901
:10BE10000839F9E7744840F271210068806A4843A4
:10BE200070477148006890F83500002800D0012064
:10BE3000704710B56B4C207B00F04DFD40B1207D6C
:10BE400004F115010AF0E2FE082801D0012010BD1E
:10BE5000207B30B1022804D00120BDE8104007F05B
:10BE60004ABA0020F9E75F49087370475E490968DC
:10BE700081F83000704770B506465A4890F82D009A
:10BE80000AF052FE050018D010210BF002F900282C
:10BE900013D1554C012032462168C87628461C3102
:10BEA00007F036FAD4E900101C310BF045FB60684E
:10BEB000BDE8704001210BF04EBB70BD2DE9F04193
:10BEC000484C074694F82D000AF0ABFE064694F85D
:10BED0002F0004F10E0528B126B194F82D000AF0C8
:10BEE000C6FDA0B194F83000002824D094F82E00AC
:10BEF000002820D0607B294600F0FEFCA8B10AF0A3
:10BF000038FF3A462946BDE8F04107F001BA012062
:10BF100060733A462946304607F0FAF994F82D1036
:10BF20002846BDE8F0410AF013BF39462846BDE86F
:10BF3000F04107F022BABDE8F08170B52A4C2168C3
:10BF4000087BB0B1022814D0012048730E3107F0ED
:10BF5000BCF92068007B00F0BEFC216881F82F004E
:10BF6000082081F82D00487B0E3100F0BCFC40B960
:10BF700001E00020E9E72168487B0E3100F0BCFCBD
:10BF800000B10120216881F82E0091F82F0018B926
:10BF900091F82200400706D5087D15310AF036FEDB
:10BFA000216881F82D0020680025456004F0F1FB30
:10BFB000216888600020FFF781FF2068C57690F82F
:10BFC0002200400703D5BDE87040002053E770BD54
:10BFD000054A1268137B0370D2F80E000860508A7D
:10BFE00088807047B404002060000020A08D01000C
:10BFF0009089130078B5FF490446FF4D407B0873D4
:10C000002A68207810706088ADF8000080B200F0D7
:10C010000101C0F3400341EA4301C0F3800341EA58
:10C020008301C0F3C00341EAC301C0F3001341EA36
:10C030000311C0F3401341EA4311C0F3801041EAF9
:10C0400080105084E07D012825D0022825D0FFDF14
:10C05000286880F85A60217B80F82410418C1D29C3
:10C060001DD061688162617D80F83510A17BC1B10E
:10C07000022916D00121017554F80F1FC0F81510C0
:10C08000A188A0F81910217B012900D0002180F897
:10C090003410002078BD0126DAE70226D8E7002117
:10C0A000E0E70021E7E7D448006890F82200C0F3F9
:10C0B0008000704700B5FFF7F6FF08B1002000BD13
:10C0C0001F2000BD00B5FFF7F5FF002800D00120BC
:10C0D00000BDC94900220968CA654B8C1D2B02D0DE
:10C0E00081F86000704781F860207047C24A0023E1
:10C0F000126882F8593042F8481F9080012050742D
:10C100007047BD4A0023126882F85830A2F85400E4
:10C1100042F8501F012010727047B749096881F832
:10C120005B007047B448006890F95B007047B24804
:10C13000006890F8220000F001007047AE480068E7
:10C1400090F82200C0F34000704700207047AA48D2
:10C15000006890F82200C0F3C000704701207047CB
:10C16000012070470120704770B500F0D9FBA24C48
:10C170002068C16D491CC16590F83300002530B1BD
:10C1800006F055FD06F02CF8206880F83350206842
:10C19000457090F8371009B102201AE090F860104D
:10C1A000B1B1C06D814213D8022007F025FD20688F
:10C1B00090F82200C00704D0A06843220188012023
:10C1C00003E043224FF6FF710020BDE870402EE5EA
:10C1D0000020BDE8704007F00FBD10B501280DD05C
:10C1E00002280DD004280FD0FFDF8348006890F8A4
:10C1F0005A10BDE81040252006F09DB9252000E02A
:10C20000262006F079FAF0E72720FAE70246002018
:10C21000D30701D0CB0705D0930705D58B0703D4EF
:10C2200002207047012070475207FCD54907FAD415
:10C23000042070472DE9F0416F4C86B0206800B9AA
:10C24000FFDF20684178E9BB0178FF2942D0002553
:10C2500080F83150A0F85650857080F83750284645
:10C2600006F046FC182265496846FFF7E4F8684680
:10C2700006F032FC06F06BF9206890F95B0006F0DE
:10C280002BFA5E481D3806F02DFA5C48203806F07F
:10C2900014FC606806F02FFC2068002190F8240050
:10C2A000FFF7B4FFFFF799FF206880F82C5006F0E5
:10C2B00019FC206890F85A10002006F0D7FA0F21D8
:10C2C000052000E006E006F0DEF9206890F82E1068
:10C2D00051B902E00C2006B02DE690F82F1019B9E4
:10C2E00090F8220040072BD504F053FA80462068CE
:10C2F0004146806804F04EFF414F064690FBF7F040
:10C3000007FB10604142404603F017FF2168886038
:10C3100096FBF7F04A68104448600AF073FC216805
:10C320004A6890420CD8C1E901580120FFF7C6FDC8
:10C33000206890F82200400702D50120FFF79BFDFE
:10C340002068417B0E3006F090F9206890F8581074
:10C3500039B1B0F85410A0F84410016D016480F8B0
:10C36000585090F8591031B1B0F84C108187816C59
:10C37000816380F859500AF0B2FC032160680AF02A
:10C38000E5FC216881F833000020A4E71A498860A1
:10C3900070472DE9F041184C0746002620683146C9
:10C3A000C57E6068068000F0B2FA2068408C1328D1
:10C3B0003FD004DC102860D0122804D15BE015289F
:10C3C00040D01D283ED0FFDF00F0B5FA2068418C38
:10C3D0001D2907D0152905D0B0F84420016C6068EC
:10C3E0000BF0C0F8206890F82C1090F82400FFF7AC
:10C3F0000DFF07E0B404002060000020B08D0100B4
:10C4000040420F0005463FB1FFF7E7FE01224FF41F
:10C410009671002006F0C8FA206890F82C10294385
:10C4200080F82C1090F824208A434FF0010129D085
:10C430002DE0002160680BF053F80121606800F0E6
:10C4400066FAC1E7012160680BF04AF801216068D3
:10C4500000F05DFAD4E9001025B11C310BF06CF846
:10C46000012104E015310BF067F82068017D606858
:10C470000BF071F8A8E7062100E0022160680BF0DC
:10C480002FF8A1E7428C1D2A0BD080F831104170A3
:10C49000418C13290ED007DC10290AD0122907D1AC
:10C4A00008E080F82C60F2E7152903D01D2901D09F
:10C4B000FFDF40E590F85A20BDE8F0410121084631
:10C4C00006F007BCF74810B50068417841B900781C
:10C4D000FF2805D00021084600F03BFA002010BDDF
:10C4E00000F01EFA0C2010BD2DE9F041ED4D044680
:10C4F000174628680E4690F8620000B1FFDF2968F1
:10C50000002F81F864704ED12088A1F86600608801
:10C51000A1F87C00A088A1F87E00E088A1F8800046
:10C5200094F8540181F8820091F82F0020B1487BE3
:10C530000E3100F0E1F940B9296891F8300060B19E
:10C54000487B0E3100F0CFF938B12868D0F80E10D2
:10C550000167418AA0F8741003E028680767A0F813
:10C5600074706968FF2E0878C0F380106076D1F887
:10C570000300C4F81A00B1F80710E18314D0296849
:10C5800001F16A02C1F87600E08BA1F87A0030462A
:10C5900069310AF050FB00B9FFDF286810F8691F05
:10C5A00041F002010170C6E42868C0F87670A0F876
:10C5B0007A70617E80F86910D4F81A1040F86A1F0A
:10C5C000E18B8180B7E470B5FFF7C1FDB54C012563
:10C5D00038B13C22FF21A068FFF786FF206880F871
:10C5E0006250206890F82200C00704D0A0683C2266
:10C5F0000188012003E03C224FF6FF710020FFF785
:10C6000016FB206880F8375070BDA649096881F88C
:10C610003200704770B5002507F055FA50B1A14CB3
:10C6200020684178012908D0022901D0032936D099
:10C63000FFDF70BDBDE8704096E581780029F8D134
:10C64000418C102913D090F8330020B105F0BAFDC9
:10C65000402006F0D9FA206890F82210490710D43B
:10C6600090F83510012904D0032902D002E00021FE
:10C6700019E0102590F85A2045F00E01002006F030
:10C6800028FB206890F8340008B106F001FB002177
:10C69000962006F05CFA21680220487070BD81780F
:10C6A0000029FBD18178BDE87040012000F051B92C
:10C6B0005AE510B57B4C206890F8340008B100F0C2
:10C6C0005CF9206890F8330018B106F0B0FA05F074
:10C6D00087FD07F0F8F988B120684078022800D07B
:10C6E000FFDF0021012000F034F9206841780029A3
:10C6F00003D04078012800D0FFDF10BDBDE8104016
:10C7000032E510B50AF082FA04460AF034FB38B17B
:10C7100020460AF009FA18B110210AF0BAFC08B153
:10C72000002010BD012010BD2DE9F047DFF8749105
:10C730000E460746032809D0FFF7F9FC0446D9F84E
:10C74000000090F8320020B1012003E0FFF7F6FC72
:10C7500004460020804605F0C1FF0546032F2CD07B
:10C760005FF0010734EA080453D0D9F800004C46C2
:10C7700090F8330068B10AF098FA30700146FF284B
:10C7800007D06068C01C0AF06DFA30780AF097FA9A
:10C79000054360680178C1F3801221680B7D9A42DD
:10C7A00005D10622C01C1531FEF718FE38B1002055
:10C7B0003178FF290BD0D8B903E00227D2E7012056
:10C7C000F6E7206890F82D00884211D008E038B1D3
:10C7D000616811F8030BC0F38010FFF792FF38B1C6
:10C7E0000020216891F82210490703D5A0B910E074
:10C7F0000120F6E785B92C4890F8350008B1B84219
:10C8000007D1616811F8030BC0F38010FFF779FFBF
:10C8100010B10020BDE8F0870120FBE72DE9F041D1
:10C82000204C0746002520684078022800D0FFDF12
:10C83000206890F8340008B100F09FF860680AF0B2
:10C8400071FE06469FB105F01AFF80B160680AF0DC
:10C85000A9FE60B1062E0AD2DFE806F00909090335
:10C86000090600F0CDF801E000F096F800B90125C6
:10C87000206890F8330018B106F0D9F905F0B0FC43
:10C880001DB10021012000F064F8206841780029E2
:10C8900006D04178012903D04078032800D0FFDF7B
:10C8A00007E6000060000020B404002070B59D4E33
:10C8B00005460C463068807800280BD105F0EFFD66
:10C8C00003463068214690F85A202846BDE870405B
:10C8D00007F076BB70BD022803D0032801D00020EA
:10C8E000704701207047012802D14879800901D0A2
:10C8F0000020704701207047012806D148790121A6
:10C90000B1EB901F01D101207047002070470278E1
:10C91000202322F0200203EA41110A4302707047EB
:10C9200010B506F064F906F042F906F091F8BDE89A
:10C93000104006F0C8B810B57A4C7B4960680AF020
:10C94000F5FD79480E38417B6068BDE810400AF07B
:10C95000F9BD744A10B5126892F831303BB1508C71
:10C960001D2800D1FFDFBDE81040FFF7FDBB002907
:10C9700002D1BDE810400CE510BD10B5694C20682F
:10C98000363006F090F918B921687F2081F836001A
:10C99000BDE8104006F072B938B5FF208DF80000F0
:10C9A000012569460520FFF7BFFE30B35D4C2068C6
:10C9B000807808BB6268A0681278417BC2F340129D
:10C9C00011404173012100F049F800229DF8001048
:10C9D000A068FFF789FD2068012100F8621F8278B6
:10C9E00081880120FFF723F9216800204870FFF7B4
:10C9F00097FF012007F000F900E00025284638BD28
:10CA000038B5FF208DF80000012569460320FFF7A7
:10CA10008BFE444C002820681BD090F8341031B1B4
:10CA200090F8920018B99DF8000000F046F8606890
:10CA30000021018004210AF053FDFFF77CFF2068EC
:10CA4000828F816B60680AF09DFD21680320487029
:10CA500002E0807800B90025284638BD314B10B57A
:10CA60005A6852F80F4FC0F80E4094884482947967
:10CA70000475D47944751489C48254894480948996
:10CA80008480D489C48014698460147D0473547DC7
:10CA900004F01F040476527D520980F8542180F876
:10CAA000381080F83910196891F8612080F83A2020
:10CAB00091F85B1080F83B1010BD70B5194C012245
:10CAC000216881F892200A7881F89320FF280DD000
:10CAD00001F1950294310AF0AEF800B9FFDF206849
:10CAE00010F8941F41F0020101700CE060680278B8
:10CAF000C2F3801281F89420D0F8032041F8952FDA
:10CB0000B0F807008880256895F836009B357F28A7
:10CB100000D1FFDF206810F8361F29707F210170D7
:10CB200070BD000060000020C20400202DE9FC4719
:10CB30000C460646694600F00EFE002860D1FFF75D
:10CB4000F6F8B0425CD02146304608F052FC28BBD3
:10CB5000019D95F8F400403518B9287F08B10120EF
:10CB600000E00020814695F837004FF000084FF0B4
:10CB7000010AA0B195F83800800710D584F801802B
:10CB800084F800A084F80280A68095F83910A1717D
:10CB9000698F2181A98F618185F837802DE030462A
:10CBA00001F0C5FD070000D1FFDF384600F0F1FFBE
:10CBB00040B184F801800D212170A680E08084F8C6
:10CBC00002A01AE0304601F0A0FD070000D1FFDF0F
:10CBD000B9F1000F14D0384601F033F880B1304677
:10CBE00006F0EEFA84F801800A21217084F80280B0
:10CBF000A680697FA17185F81C800120BDE8FC87B3
:10CC00000020FBE71CB5694600F0A5FD00B1FFDF81
:10CC1000684600F0ADFDF84900208968A1F8BA0027
:10CC20001CBD2DE9FC4104460E46062001F0E6FB42
:10CC300000250746A846064417E02088401C80B21D
:10CC40002080B04202D34046A4F8008080B2B842AF
:10CC500004D3B04202D20020BDE8FC81694600F056
:10CC60007AFD0028F8D06D1CEDB2AE42E5D84FF643
:10CC7000FF7020801220EFE710B506F013FB09F0DB
:10CC800000FFDE484FF6FF71002241818181027072
:10CC900003218173C17381700423C3701B238380BC
:10CCA000C3800181827410BD70B5D34C0D466060A5
:10CCB000217006F083FA00F067FDFFF7DDFF2078B2
:10CCC00009F096F9284607F00DF8CC482838FFF708
:10CCD0005FF82178606808F042FCBDE8704009F018
:10CCE000D0BE10B501240AB1002010BD21B1012928
:10CCF00003D00024204610BD02210AF083FCF9E78E
:10CD0000887800B90320C97801B90321107019701F
:10CD10000020704730B587B004460088694600F0AF
:10CD20001AFD002806D1A08830B1012804D00228BD
:10CD300002D0122007B030BD05AB04AA21466846D8
:10CD4000FFF7DEFF0400F5D10199012081F883018E
:10CD5000019991F8B211002539B9019991F8821120
:10CD600019B9019991F8651009B13A2415E00199B2
:10CD7000039581F8820101989DF8102080F88421A4
:10CD8000019B9DF8140083F885018DF80C208DF827
:10CD90000D0003AA01200AF0ACFA019880F8835133
:10CDA0002046C7E710B504460020A17801B901204C
:10CDB000E2780AB940F0020000F0FAFC002803D142
:10CDC0002046BDE81040A5E710BD10B50446FEF7AB
:10CDD0006BFF002813D0207813280FD1A07868B1FA
:10CDE000A088062101F05EFB40B1008806F0E8F95A
:10CDF000A088062101F068FB00B1FFDF012010BD13
:10CE00002DE9F041060000D1FFDF7C4802210C3003
:10CE10008046FFF706FF00B1FFDF784C0620A789A8
:10CE200001F0ECFA0546A089A84203D13046FFF78D
:10CE3000CCFF20B9A0893146FFF778FE38B13046E3
:10CE400000F0C6FC0028EED10120BDE8F0810221EF
:10CE50004046FFF7E6FE10B9A089B842E3D10020B2
:10CE6000F3E710B500F058FC08B10C2010BD09F034
:10CE700043FE002010BD10B50446007818B101280B
:10CE800001D0122010BD00F052FC20B109F0AAFE22
:10CE900008B10C2010BD207800F028FCE21D04F140
:10CEA0001703611CBDE8104009F048BE10B50446E8
:10CEB00000F032FC08B10C2010BD207818B1012818
:10CEC00001D0122010BD00F011FC611C09F0EEFD34
:10CED00008B1002010BD072010BD10B509F086FE76
:10CEE00008B1002010BD302010BD10B5044600F080
:10CEF0001EFC08B10C2010BD204609F06FFE00207A
:10CF000010BD10B500F013FC20B109F06BFE08B1A4
:10CF10000C2010BD09F054FE002010BDFF218170CF
:10CF20004FF6FF718180344949680A7882718A8896
:10CF300002814988418101214170002070471CB560
:10CF40000024022A19D015DC12F10C0F15D009DCCF
:10CF500012F1280F11D012F1140F0ED012F1100F90
:10CF60000FD10AE012F1080F07D012F1040F04D01C
:10CF70003AB902E0D31E052B03D8012804D00328B8
:10CF800006D0122420461CBD1046FFF7C6F8F9E76C
:10CF900008461446694600F0DEFB08B10224F1E7BA
:10CFA000019880F83B400024ECE710B513460122BD
:10CFB0000AF08BF8002010BD10B5044600F0B7FB56
:10CFC00008B10C2010BD2146002006F06CF90020AD
:10CFD00010BD10B5044607F018F820B1207806F00F
:10CFE0008DFE002010BD0C2010BD10B5044600F0D1
:10CFF0009EFB28B10C2010BD6C000020780500209D
:10D000002146012006F04FF90020F4E738B5044628
:10D010004FF6FF70ADF80000A079E179884216D094
:10D020002079FEF75FFA90B16079FEF75BFA70B194
:10D030000022A07911460AF047FF40B90022E079AA
:10D0400011460AF041FF10B9207A072801D91220B1
:10D0500038BD06F0EDFF48B900216846FFF7E1FD55
:10D0600020B1204605F03EFA002038BD0C2038BD26
:10D070002DE9FC41817804461A2925D00EDC1629B9
:10D080002DD2DFE801F02C2C2C2C2C212C2C2C2C3C
:10D090002C2C2C2C2C2C2C2C2C2121212A291ED060
:10D0A0000BDCA1F11E010C2919D2DFE801F01818E0
:10D0B0001818181818181818180D3A3904290ED20B
:10D0C000DFE801F00D020D022088B0F5706F06D286
:10D0D0000127694600F03FFB18B10220BCE5122091
:10D0E000BAE5019D68462E4605F5AC7506F259165F
:10D0F00000F024FB08B1287808B10C20ACE52F70B3
:10D10000A0783070684600F033FB0020A4E51CB521
:10D110000C46694600F01FFB002118B12160217107
:10D1200002201CBD0198024610F1400080F840101A
:10D1300093682360137B237190F84030002BF5D166
:10D1400000201CBD10B5044600F0F1FA20B109F032
:10D1500049FD08B10C204EE7207800F0C7FAE279CB
:10D16000611C09F014FE08B1002044E7022042E7E8
:10D170001CB50C46694600F0EEFA002805D101986E
:10D18000B0F84000401C208000201CBDF0B5448851
:10D190008188C288038945898089A71F40F67B461C
:10D1A000B74215D28F1FB74212D28C4210D8B2F5B7
:10D1B000FA7F0DD2A3F10A04361FB44208D2521CE2
:10D1C0004A43B2EB830F03DA854201D80020F0BD59
:10D1D0003020F0BDF8B515460E46044606F028FF8F
:10D1E00008B10C20F8BD204600F01DFB0028F9D145
:10D1F000A078C1064FF01100F4D5E17D0329F1D0EC
:10D20000FEF790FF3070A07555B9FF208DF8000033
:10D2100069460020FEF775FF69460020FEF766FFAD
:10D220002046BDE8F840FEF7E5BE0022D2E70078D0
:10D23000C10801D012207047F64988740020704759
:10D2400010B504460078C00704D1608810B1FEF71D
:10D2500039FF80B12078618800F00102607800F029
:10D260002DFB002806D1FEF725FF01466088884285
:10D2700003D90720BFE61220BDE66168FEF741FF33
:10D280000020B8E610B504460078C00704D16088D5
:10D2900010B1FEF753FF70B12078618800F00102F1
:10D2A000607800F00BFB002804D160886168FEF70D
:10D2B0001DFF00209FE612209DE67CB504464078C5
:10D2C0004225012808D8A078FEF772FD20B1207809
:10D2D0001225012802D090B128467CBDFEF737FF09
:10D2E00020B1A0880028F7D08028F5D8FEF736FFB7
:10D2F00060B160780028EFD02078012808D006F0CF
:10D300004FF8044606F0C4FC002878D00C207CBD01
:10D31000FEF78FFD10B9FEF718FF60B306F088FE28
:10D320000028F3D1FEF703FDA0F57F41FF39EDD1D1
:10D33000FEF703FEA68842F210704643A079FEF77E
:10D34000C8FEFEF7F4FEC0B10022062101A801F0DC
:10D350007BF8040051D0B04800218460204609F0D9
:10D36000F9FD2046FFF712F8FEF7FAFEA94D58B175
:10D37000288901210CE012207CBD3146002006F0F6
:10D38000C0FC88B3FFDF44E0FEF7ECFE01462889CD
:10D3900006F051FD0146A0620022204606F003F887
:10D3A000FEF7DEFE38B9FEF7DDFE0246214601201B
:10D3B00009F09DFFD0B1974A21460E32012009F0B5
:10D3C00098FFE8780090AB78EA88A988208801F077
:10D3D00025F900B1FFDF208805F0F1FE3146204637
:10D3E00006F08FFC00B1FFDF13E008E00621BDF876
:10D3F000040001F069F800B1FFDF09207CBD44B1F1
:10D40000208805F0DDFE2088062101F05DF800B1DE
:10D41000FFDF00207CBD00214FE770B50D460621DF
:10D4200001F040F8040003D094F85B0110B10AE069
:10D43000022070BD94F84D00142801D0152802D1A7
:10D4400094F89C0108B10C2070BD1022294604F507
:10D45000AE70FDF7F0FF012084F85B01002070BD85
:10D4600010B5062101F01EF818B190F85B1111B14A
:10D4700007E00220BFE590F84D10142903D01529CC
:10D4800001D00C20B7E5022180F85B110020B2E545
:10D490002DE9FC410D464BF680321221954213D8FE
:10D4A00095B1694600F057F900280CD1019EB41CD3
:10D4B000403627882A463946304609F00CFD208838
:10D4C000B842F6D1002009E6084607E61CB5044636
:10D4D0000088694600F03FF9002808D10199A37837
:10D4E000084691F82C2040319A4201D10C201CBDF5
:10D4F0007F220A728A720022CA72E17880F82D10A7
:10D50000217980F82E10A17880F82C1010461CBDCF
:10D510001CB50C46694600F01EF9002806D101989A
:10D5200090F85C0000B10120207000201CBD7CB58B
:10D530000D461446694600F00EF9002805D1019801
:10D5400090F82C00012801D00C207CBD019890F8A7
:10D550004810297090F84900207000207CBD70B5FB
:10D560000D461646062100F09DFF18B38188012460
:10D57000C388428804EB4104AC4217D842F21074CD
:10D580006343A4106243B3FBF2F2521E94B24FF411
:10D59000FA72944200D91446A54200D22C46491C86
:10D5A000641CB4FBF1F24A43521E91B290F88821F8
:10D5B0001AB901E0022070BD01843180002070BDE5
:10D5C00010B50C46062100F06DFF48B180F8C74049
:10D5D00024B190F8C51009B106F044FC00200AE51A
:10D5E000022008E5017899B1417889B141881B2969
:10D5F0000ED381881B290BD3C188022908D3054982
:10D600000268283941F82A2F406848600020704796
:10D6100012207047780500206C00002010B506F03D
:10D62000DBFB0020E7E410B506F0D9FB0020E2E4C4
:10D6300070B514460A46064600250121104606F03C
:10D64000FAFB002800D8284605460121304600F0A4
:10D6500054F806460121002000F04FF8311801224D
:10D6600096318D4206D901F19600691AB1FBF0F0AE
:10D67000401C82B22280002070BD10B5044600F02C
:10D6800056F808B10C20B6E4601C09F06DFB207858
:10D6900000F00100FEF7EAFB0020ACE410B5044600
:10D6A000062000F09DFE08B10C20A4E42078C007FD
:10D6B00010D00022607811460AF006FC08B1122052
:10D6C00099E4A06808F0A6FA6078616808F0ABFAFF
:10D6D000002090E4002008F09DFA00210846F5E7BC
:10D6E00010B5006804F0D8FE002084E418B10228C8
:10D6F00001D0012070470020704710B5012904D0E7
:10D70000022905D0FFDF204675E4C000503001E05B
:10D7100080002C3084B2F6E710B506F089FC20B109
:10D72000FEF77FFB08B1012065E4002063E410B53B
:10D7300006F07EFC002800D001205CE4416891F8EE
:10D74000F40091F85C1021B918B1042801D001202F
:10D7500070470020704710B50C46062100F0A2FE6D
:10D76000606018B101202070002044E4022042E4EF
:10D77000416891F8C520002A05D0002281F8C52013
:10D78000406806F06FBB704708B54FF6FF70ADF804
:10D79000000006E00621BDF8000000F095FE00B193
:10D7A000FFDF00216846FFF73CFA0028F2D008BDF1
:10D7B00070B514460546012200F094F8002806D101
:10D7C00021462846BDE87040002200F08BB870BDAD
:10D7D0001FB55D49897CC90702D10178172902D09C
:10D7E000002004B007E44088ADF8000002A9FFF76C
:10D7F000B2FF00B1FFDF039810F8341F8DF802105C
:10D8000040788DF803000020ADF8040001B9FFDF77
:10D810009DF8030000B9FFDF6846FFF7C3FA00B1C7
:10D82000FFDF0120DDE738B504460078EF2841D856
:10D830006088ADF80000009800F061F888B3618856
:10D84000080708D4D4E90120824233D8202A31D3F2
:10D85000B0F5804F2ED8207B18B307282AD8607BDC
:10D8600028B1012803D0022801D0032822D14A0779
:10D8700003D4022801D0032805D1A07B08B10128D8
:10D8800018D1480707D4607D28B1012803D00228A9
:10D8900001D003280ED1C806E07D03D5012809D1A7
:10D8A00004E007E0012801D0032803D1E07E18B18D
:10D8B000012801D0122038BD002038BD70B50C46BB
:10D8C0000546FF2904D8FEF74BFC18B11F2C01D9DF
:10D8D000122070BD2846FEF76BFA08B1002070BD1B
:10D8E000422070BD0AB1012200E00222024202D1B0
:10D8F000880802D109B1002070471120704780B21A
:10D90000C1060BD401071CD481064FEAC07101D5B2
:10D91000B9B900E099B1800713D410E0410610D4E2
:10D9200081060ED4C1074FEA807104D0002902DBC2
:10D93000400704D405E0010703D4400701D40120C7
:10D9400070470020704700007805002030B505883A
:10D9500025F4004421448CB24FF4004194420AD291
:10D96000121B92B21B339A4201D2A94307E005F47D
:10D970000041214303E0A21A92B2A943114301805E
:10D9800030BD0844083050434A31084480B27047E3
:10D9900070B51D4616460B46044629463046049A85
:10D9A000FFF7EFFF0646B34200D2FFDF2822002137
:10D9B0002046FDF76AFD4FF6FF70A082283EB0B208
:10D9C00065776080B0F5004F00D9FFDF618805F111
:10D9D0003C00814200D2FFDF60880835401B3438AC
:10D9E00080B220801B2800D21B2020800020A0773E
:10D9F00070BD8161886170472DE9F05F0D46C18877
:10DA0000044600F12809008921F4004620F400486A
:10DA100000F063FB10B10020BDE8F09F4FF0000A5A
:10DA20004FF0010BB0450CD9617FA8EB0600401AFE
:10DA30000838854219DC09EB060000210580418089
:10DA40001AE06088617F801B471A083F0DD41B2FA6
:10DA500000DAFFDFBD4201DC294600E0B9B2681AF6
:10DA60000204120C04D0424502DD84F817A0D2E76C
:10DA700009EB06000180428084F817B0CCE770B54E
:10DA8000044600F12802C088E37D20F400402BB159
:10DA900010440288438813448B4201D2002070BD99
:10DAA00000258A4202D30180458008E0891A0904D2
:10DAB000090C418003D0A01D00F01FFB08E0637F2C
:10DAC00000880833184481B26288A01DFFF73EFF2A
:10DAD000E575012070BD70B5034600F12804C588C6
:10DAE000808820F400462644A84202D100201882F3
:10DAF00070BD98893588A84206D3401B75882D1AB9
:10DB00002044ADB2C01E05E02C1AA5B25C7F2044B3
:10DB10003044401D0C88AC4200D90D809C8924B152
:10DB2000002414700988198270BD0124F9E770B5CA
:10DB3000044600F12801808820F400404518208A1E
:10DB4000002825D0A189084480B2A08129886A884C
:10DB50001144814200D2FFDF2888698800260844EA
:10DB6000A189884212D1A069807F2871698819B182
:10DB7000201D00F0C2FA08E0637F288808331844AB
:10DB800081B26288201DFFF7E1FEA6812682012076
:10DB900070BD2DE9F041418987880026044600F1D7
:10DBA0002805B94219D004F10A0800BF21F4004049
:10DBB0002844418819B1404600F09FFA08E0637F8D
:10DBC00000880833184481B262884046FFF7BEFEE1
:10DBD000761C6189B6B2B942E8D13046BDE8F08121
:10DBE0002DE9F04104460B4627892830A68827F402
:10DBF0000041B4F80A8001440D46B74201D100202B
:10DC0000ECE70AB1481D106023B1627F691D184618
:10DC1000FDF711FC2E88698804F1080021B18A19EA
:10DC200096B200F06AFA06E0637F628808339919B9
:10DC300089B2FFF78BFE474501D1208960813046CC
:10DC4000CCE78188C088814201D101207047002043
:10DC5000704701898088814201D1012070470020EE
:10DC6000704770B58588C38800F1280425F4004208
:10DC700023F4004114449D421AD08389058A5E1919
:10DC800025886388EC18A64214D313B18B4211D3B4
:10DC90000EE0437F08325C192244408892B2801A19
:10DCA00080B22333984201D211B103E08A4201D1FC
:10DCB000002070BD012070BD2DE9F0478846C18865
:10DCC0000446008921F4004604F1280720F40045A9
:10DCD00007EB060900F001FA002178BBB54204D930
:10DCE000627FA81B801A002503E06088627F801B8A
:10DCF000801A083823D4E28962B1B9F80020B9F853
:10DD000002303BB1E81A2177404518DBE0893844FE
:10DD1000801A09E0801A217740450ADB607FE1899B
:10DD20000830304439440844C01EA4F81280BDE8CD
:10DD3000F087454503DB01202077E7E7FFE76182B5
:10DD40000020F4E72DE9F74F044600F12805C088CC
:10DD5000884620F4004A608A05EB0A0608B140456F
:10DD600002D20020BDE8FE8FE08978B13788B6F88E
:10DD7000029007EB0901884200D0FFDF207F4FF0BF
:10DD8000000B50EA090106D088B33BE00027A07FD2
:10DD9000B9463071F2E7E18959B1607F2944083012
:10DDA00050440844B4F81F1020F8031D94F82110C3
:10DDB0008170E28907EB080002EB0801E181308005
:10DDC000A6F802B002985F4650B1637F30880833EE
:10DDD000184481B26288A01DFFF7B8FDE78121E0F9
:10DDE000607FE18908305044294408442DE0FFE772
:10DDF000E089B4F81F102844C01B20F8031D94F8D4
:10DE00002110817009EB0800E28981B202EB080061
:10DE1000E081378071800298A0B1A01D00F06DF9FB
:10DE2000A4F80EB0A07F401CA077A07D08B1E088C8
:10DE3000A08284F816B000BFA4F812B084F817B01E
:10DE400001208FE7E0892844C01B30F8031DA4F8A7
:10DE50001F10807884F82100EEE710B5818800F16A
:10DE6000280321F400442344848AC288A14212D0AA
:10DE7000914210D0818971B9826972B11046FFF761
:10DE8000E8FE50B91089283220F400401044197976
:10DE90000079884201D1002010BD184610BD00F164
:10DEA0002803407F08300844C01E1060088808B965
:10DEB000DB1E136008884988084480B270472DE94A
:10DEC000F04100F12806407F1C4608309046431878
:10DED00008884D88069ADB1EA0B1C01C80B2904213
:10DEE00014D9801AA04200DB204687B298183A461F
:10DEF0004146FDF773FA002816D1E01B84B2B844FE
:10DF0000002005E0ED1CADB2F61EE8E7101A80B265
:10DF10000119A94206D8304422464146BDE8F041E5
:10DF2000FDF75CBA4FF0FF3058E62DE9F04100F103
:10DF30002804407F1E460830904643180025088874
:10DF40004F88069ADB1E90B1C01C80B2904212D955
:10DF5000801AB04200DB304685B299182A46404606
:10DF6000FDF769FA701B86B2A844002005E0FF1C8B
:10DF7000BFB2E41EEAE7101A80B28119B94206D88E
:10DF8000211832464046FDF756FAA81985B22846B0
:10DF900024E62DE9F04100F12804407F1E460830B8
:10DFA00090464318002508884F88069ADB1E90B1DA
:10DFB000C01C80B2904212D9801AB04200DB3046B9
:10DFC00085B298182A464146FDF735FA701B86B28D
:10DFD000A844002005E0FF1CBFB2E41EEAE7101AC7
:10DFE00080B28119B94206D8204432464146FDF735
:10DFF00022FAA81985B22846F0E5401D704710B5F1
:10E00000044600F12801C288808820F400431944A6
:10E01000904206D0A28922B9228A12B9A28A9042DD
:10E0200001D1002010BD0888498831B1201D00F0C1
:10E0300064F800202082012010BD637F62880833CD
:10E04000184481B2201DFFF781FCF2E70021C18155
:10E0500001774182C1758175704703881380C28939
:10E0600042B1C28822F4004300F128021A440A6037
:10E07000C08970470020704710B50446808AA0F51B
:10E080007F41FF3900D0FFDFE088A082E08900B146
:10E090000120A07510BD4FF6FF71818200218175AE
:10E0A000704710B50446808AA0F57F41FF3900D142
:10E0B000FFDFA07D28B9A088A18A884201D1002075
:10E0C00010BD012010BD8188828A914201D1807DDE
:10E0D00008B1002070470120704720F4004221F46D
:10E0E00000439A4207D100F4004001F40041884205
:10E0F00001D0012070470020704730B504460088E9
:10E100000D4620F40040A84200D2FFDF21884FF4E2
:10E11000004088432843208030BD70B50C00054680
:10E1200009D0082C00D2FFDF1DB1A1B2286800F091
:10E1300044F8201D70BD0DB100202860002070BD86
:10E140000021026803E093881268194489B2002A0A
:10E15000F9D100F032B870B500260D460446082902
:10E1600000D2FFDF206808B91EE0044620688188DD
:10E17000A94202D001680029F7D181880646A94248
:10E1800001D100680DE005F1080293B20022994226
:10E1900009D32844491B02608180216809682160F5
:10E1A0000160206000E00026304670BD00230B6057
:10E1B0008A8002680A600160704700234360021D84
:10E1C000018102607047F0B50F460188408815460E
:10E1D0000C181E46AC4200D3641B3044A84200D940
:10E1E000FFDFA019A84200D9FFDF3819F0BD2DE9E3
:10E1F000F041884606460188408815460C181F469F
:10E20000AC4200D3641B3844A84200D9FFDFE019B8
:10E21000A84200D9FFDF70883844708008EB040002
:10E22000BDE8F0812DE9F041054600881E461746FD
:10E23000841B8846BC4200D33C442C806888304410
:10E24000B84200D9FFDFA019B84200D9FFDF6888C3
:10E250003044688008EB0400E2E72DE9F0410688CD
:10E260001D460446701980B2174688462080B84281
:10E2700001D3C01B20806088A84200D2FFDF701944
:10E28000B84200D9FFDF6088401B608008EB0600C1
:10E29000C6E700002DE9F041BF4D04469046A8783E
:10E2A0000E46A04200D8FFDF05EB8607786A50F8DB
:10E2B000240000B1FFDFB868002816D0304600F017
:10E2C00032F90146B868FFF746FF05000CD0786ABE
:10E2D000072E40F8245000D3FFDFB04842462946BD
:10E2E00050F82630204698472846BDE8F0812DE9B1
:10E2F000F84305000C46009524D00026E81C20F0C9
:10E300000300A84200D0FFDFDFF88C8200273146EF
:10E3100088F8007088F8014088F8024088F80340C7
:10E3200088F8044088F8054088F80640684600F000
:10E3300003F9002042460099C91C21F00301009115
:10E3400016B10FE00126D9E702EB800359620021E4
:10E3500006E000BFD3F824C04CF82170491CC9B2B4
:10E36000A142F7D30099401C01EB8401C0B2009197
:10E370000728E0D3481BBDE8F88310B50446F2F740
:10E3800090FF08B1102010BD2078834A618802EB0D
:10E39000800092780EE0436A53F8213043B14A1C62
:10E3A0006280A180406A50F82100A060002010BD6A
:10E3B000491C89B28A42EED86180052010BD70B533
:10E3C00005460C460846F2F76CFF08B1102070BDF8
:10E3D000072D01D3072070BD25700020608070BD1F
:10E3E0000EB56946FFF7EBFF00B1FFDF6846FFF7A8
:10E3F000C4FF08B100200EBD01200EBD10B50446BB
:10E40000072800D3FFDF6448005D10BD3EB5054618
:10E4100000246946FFF7D3FF18B1FFDF01E0641C59
:10E42000E4B26846FFF7A9FF0028F8D02846FFF7B6
:10E43000E5FF001BC0B23EBD57498978814201D932
:10E44000C0B27047FF2070472DE9F04106291BD16B
:10E45000514C00273B464FF6FF7604EB810514F83C
:10E4600001C00AE0DC19D5F824E0A4B25EF824E08B
:10E47000BEF1000F04D05B1C9BB29C45F2D8344621
:10E4800004802046B44201D100202EE7BDE8F041CF
:10E4900000E7A0F57F43FF3B01D0072901D300200F
:10E4A0007047F7E6A0F57F42FF3A0BD0072909D263
:10E4B000394A9378834205D902EB8101496A51F8C0
:10E4C00020007047002070472DE9F04104460D46BA
:10E4D000A4F57F4143F20200FF3902D0072D01D39A
:10E4E000072002E72C494FF000088A78A242F8D9A9
:10E4F00001EB8506726A52F82470002FF1D027488C
:10E5000039461C3050F8252020469047716A28462D
:10E5100041F8248000F007F802463946B068FFF75A
:10E5200045FE0020E1E61D49383131F810004FF674
:10E53000FC71C01C084070472DE9F843164E884610
:10E54000054600242868C01C20F0030028602046EF
:10E55000FFF7E9FF315D4843B8F1000F01D0002219
:10E5600000E02A680146009232B100274FEA0D0010
:10E57000FFF7D3FD1FB106E001270020F8E706EB07
:10E580008401009A8A602968641C0844E4B2286007
:10E59000072CD7D3EFE600008C050020C88D0100C2
:10E5A00070B50E461D46114600F0D5F804462946C2
:10E5B000304600F0D9F82044001D70BD2DE9F0412F
:10E5C00090460D4604004FF0000610D00027E01CD6
:10E5D00020F00300A04200D0FFDFE5B1414600205B
:10E5E000FFF79BFD0C3000EB850617B113E0012708
:10E5F000EDE7624F04F10C00AA003C6025726060F8
:10E6000000EB8500206000216068FCF73EFF41467A
:10E610003868FFF782FD3046BDE8F0812DE9FF4FF5
:10E62000564C804681B020689A46934600B9FFDF79
:10E630002068027A424503D9416851F8280020B188
:10E6400043F2020005B0BDE8F08F5146029800F099
:10E6500082F886B258460E9900F086F885B2701995
:10E66000001D87B22068A14639460068FFF773FD98
:10E6700004001FD0678025802946201D0E9D074677
:10E680005A4601230095FFF783F920883146384424
:10E690000123029ACDF800A0FFF77AF92088C1196A
:10E6A0003846FFF7A6F9D9F800004168002041F884
:10E6B0002840C7E70420C5E770B5304C0546206800
:10E6C00000B9FFDF2068017AA9420ED9426852F8EA
:10E6D000251051B1002342F825304A880068FFF721
:10E6E00065FD216800200A7A08E043F2020070BD4F
:10E6F0004B6853F8203033B9401CC0B28242F7D87F
:10E700000868FFF71DFD002070BD70B51B4E054663
:10E710000024306800B9FFDF3068017AA94204D9CB
:10E72000406850F8250000B1041D204670BD70B54A
:10E73000124E05460024306800B9FFDF3068017AC8
:10E74000A94206D9406850F8251011B131F8040BE0
:10E750004418204670BD10B50A460121FFF711F993
:10E76000C01C20F0030010BD10B50A460121FFF7C0
:10E7700008F9C01C20F0030010BD00007800002044
:10E7800070B50446C2F110052819FCF754FE15F0C7
:10E79000FF0109D0491ECAB28020A0542046BDE81E
:10E7A00070400021FCF771BE70BD30B505E05B1E06
:10E7B000DBB2CC5CD55C6C40C454002BF7D130BDCF
:10E7C00010B5002409E00B78521E44EA430300F818
:10E7D000013B11F8013BD2B2DC09002AF3D110BD94
:10E7E0002DE9F04389B01E46DDE9107990460D0011
:10E7F000044622D002460846F949FEF7D6FB10220D
:10E8000021463846FFF7DCFFE07B000606D5F44AD8
:10E810003946102310320846FFF7C7FF1022394649
:10E820004846FFF7CDFFF87B000606D5EC4A49467F
:10E83000102310320846FFF7B8FF102200212046AF
:10E84000FCF723FE0DE0103EB6B208EB06011023E4
:10E8500022466846FFF7A9FF224628466946FEF78A
:10E86000A4FB102EEFD818D0F2B241466846FFF74D
:10E8700087FF10234A46694604A8FFF796FF102336
:10E88000224604A96846FFF790FF224628466946BB
:10E89000FEF78BFB09B0BDE8F08310233A464146F2
:10E8A000EAE770B59CB01E460546134620980C4614
:10E8B0008DF80800202219460DF10900FCF7BBFD78
:10E8C000202221460DF12900FCF7B5FD17A913A858
:10E8D000CDE90001412302AA31462846FFF780FF17
:10E8E0001CB070BD2DE9FF4F9FB014AEDDE92D5473
:10E8F00010AFBB49CDE90076202320311AA8FFF7DD
:10E900006FFF4FF000088DF808804FF001098DF877
:10E91000099054F8010FCDF80A00A088ADF80E0058
:10E9200014F8010C1022C0F340008DF8100055F8C7
:10E93000010FCDF81100A888ADF8150015F8010CED
:10E940002C99C0F340008DF8170006A88246FCF70A
:10E9500072FD0AA8834610222299FCF76CFDA0489C
:10E960003523083802AA40688DF83C80CDE900764E
:10E970000E901AA91F98FFF733FF8DF808808DF8C5
:10E9800009902068CDF80A00A088ADF80E0014F8B0
:10E99000010C1022C0F340008DF810002868CDF85B
:10E9A0001100A888ADF8150015F8010C2C99C0F3DA
:10E9B00040008DF817005046FCF73DFD58461022E8
:10E9C0002299FCF738FD86483523083802AA4068AA
:10E9D0008DF83C90CDE900760E901AA92098FFF7AB
:10E9E000FFFE23B0BDE8F08FF0B59BB00C460546A6
:10E9F000DDE922101E461746DDE92032D0F801C0BD
:10EA0000CDF808C0B0F805C0ADF80CC00078C0F370
:10EA100040008DF80E00D1F80100CDF80F00B1F8DC
:10EA20000500ADF8130008781946C0F340008DF8D2
:10EA300015001088ADF8160090788DF818000DF1CB
:10EA400019001022FCF7F7FC0DF1290010223146C5
:10EA5000FCF7F1FC0DF1390010223946FCF7EBFC14
:10EA600017A913A8CDE90001412302AA214628468F
:10EA7000FFF7B6FE1BB0F0BDF0B5A3B017460D46CC
:10EA800004461E46102202A82899FCF7D4FC06A8CA
:10EA900020223946FCF7CFFC0EA820222946FCF79D
:10EAA000CAFC1EA91AA8CDE90001502302AA3146CA
:10EAB00016A8FFF795FE1698206023B0F0BDF0B5BC
:10EAC00089B00446DDE90E070D463978109EC1F382
:10EAD00040018DF8001031789446C1F340018DF863
:10EAE00001101968CDF802109988ADF806109979CF
:10EAF0008DF808100168CDF809108188ADF80D1067
:10EB000080798DF80F0010236A46614604A8FFF74C
:10EB10004CFE2246284604A9FEF747FAD6F8010023
:10EB20000090B6F80500ADF80400D7F80100CDF864
:10EB30000600B7F80500ADF80A0000200390102386
:10EB40006A46214604A8FFF730FE2246284604A95B
:10EB5000FEF72BFA09B0F0BD1FB51C6800945B6886
:10EB6000019313680293526803920246084669466D
:10EB7000FEF71BFA1FBD10B588B00446106804905C
:10EB80005068059000200690079008466A4604A940
:10EB9000FEF70BFABDF80000208008B010BD1FB5CD
:10EBA0001288ADF800201A88ADF8022000220192E8
:10EBB00002920392024608466946FEF7F6F91FBD27
:10EBC0007FB5074B14460546083B9A1C6846FFF77D
:10EBD000E6FF224669462846FFF7CDFF7FBD0000CD
:10EBE000168E010070B5044600780E46012813D039
:10EBF000052802D0092813D10EE0A06861690578C4
:10EC0000042003F079FA052D0AD07823002204208D
:10EC1000616903F0C7F903E00420616903F06CFA4D
:10EC200031462046BDE8704001F08AB810B500F1C9
:10EC30002D03C2799C78411D144064F30102C27116
:10EC4000D2070DD04A795C7922404A710A791B7942
:10EC50001A400A718278C9788A4200D9817010BD41
:10EC600000224A71F5E74178012900D00C2101709A
:10EC700070472DE9F04F93B04FF0000B0C690D4633
:10EC80008DF820B0097801260C2017464FF00D08AA
:10EC90004FF0110A4FF008091B2975D2DFE811F077
:10ECA0001B00C40207031F035E037103A303B80321
:10ECB000F9031A0462049504A204EF042D05370534
:10ECC00055056005F3053606390668068406FE0616
:10ECD0002207EB06F00614B120781D282AD0D5F8BB
:10ECE00008805FEA08004FD001208DF82000686A94
:10ECF00002220D908DF824200A208DF82500A869A5
:10ED00000A90A8880028EED098F8001091B10F2939
:10ED100010D27DD2DFE801F07C1349DEFCFBFAF96A
:10ED2000F8F738089CF6F50002282DD124B1207898
:10ED30000C2801D00026F0E38DF82020CBE1042040
:10ED4000696A03F0D9F9A8880728EED1204600F0B7
:10ED5000F2FF022809D0204600F0EDFF032807D972
:10ED6000204600F0E8FF072802D20120207004E0CE
:10ED7000002CB8D020780128D7D198F80400C11F02
:10ED80000A2902D30A2061E0C4E1A070D8F800107B
:10ED9000E162B8F80410218698F8060084F8320081
:10EDA000012028700320207044E00728BDD1002CEA
:10EDB00099D020780D28B8D198F8031094F82F2016
:10EDC000C1F3C000C2F3C002104201D0062000E02F
:10EDD0000720890707D198F805100142D2D198F889
:10EDE00006100142CED194F8312098F8051020EA9F
:10EDF00002021142C6D194F8322098F806109043CE
:10EE00000142BFD198F80400C11F0A29BAD200E01C
:10EE100008E2617D81427CD8D8F800106160B8F8C2
:10EE20000410218198F80600A072012028700E209D
:10EE3000207003208DF82000686A0D9004F12D00E9
:10EE40000990601D0A900F300B9022E12875FCE3B9
:10EE5000412891D1204600F06EFF042802D1E078CD
:10EE6000C00704D1204600F066FF0F2884D1A88C8B
:10EE7000D5F80C8080B24FF0400BE669FFF745FCF7
:10EE8000324641465B464E46CDF80090FFF74DF8BE
:10EE90000B208DF82000686A0D90E0690990002130
:10EEA00008A8FFF79FFE2078042806D0A07D58B15F
:10EEB000012809D003280AD04AE305202070032046
:10EEC00028708DF82060CEE184F800A032E712208F
:10EED0002070EAE11128BCD1204600F02CFF042864
:10EEE00002D1E078C00719D0204600F024FF0628A0
:10EEF00005D1E078C00711D1A07D02280ED02046B0
:10EF000008E0CCE084E072E151E124E103E1E9E0D2
:10EF100019E0B0E100F00FFF11289AD1102208F19A
:10EF2000010104F13C00FCF786FA607801286ED0FC
:10EF300012202070E078C00760D0A07D0028C8D0E3
:10EF40000128C6D05AE0112890D1204600F0F3FEE7
:10EF5000082804D0204600F0EEFE132886D104F1E4
:10EF60006C00102208F101010646FCF764FA2078D3
:10EF700008280DD014202070E178C8070DD0A07D9E
:10EF800002280AD06278022A04D00328A1D035E0F2
:10EF90000920F0E708B1012837D1C80713D0A07DB8
:10EFA00002281DD000200090D4E9062133460EA887
:10EFB000FFF777FC10220EA904F13C00FCF70EFAD3
:10EFC000C8B1042042E7D4E90912201D8DE80700EA
:10EFD00004F12C0332460EA8616BFFF770FDE9E7E0
:10EFE000606BC1F34401491E0068C84000F0010095
:10EFF00040F08000D7E72078092806D185F80090F6
:10F000008DF8209036E32870EFE30920FBE79EE1BE
:10F01000112899D1204600F08EFE0A2802D1E0780E
:10F02000C00704D1204600F086FE15288CD104F1DB
:10F030003C00102208F101010646FCF7FCF920789B
:10F040000A2816D016202070D4E90932606B611DA1
:10F050008DE80F0004F15C0304F16C0247310EA847
:10F06000FFF7C2FC10220EA93046FCF7B7F918B121
:10F07000F9E20B20207073E22046FFF7D7FDA0785D
:10F08000216AC0F110020B1800211846FCF7FDF9A7
:10F0900026E3394608A8FFF7A5FD06463CE202280C
:10F0A000B7D1204600F047FE042804D3204600F0E4
:10F0B00042FE082809D3204600F03DFE0E2829D341
:10F0C000204600F038FE122824D2A07D0228A0D1CC
:10F0D0000E208DF82000686A0D9098F801008DF8D8
:10F0E0002400F5E3022894D1204600F024FE0028F5
:10F0F00010D0204600F01FFE0128F9D0204600F075
:10F100001AFE0C28F4D004208DF8240098F8010091
:10F110008DF8250060E21128FCD1002CFAD020786F
:10F120001728F7D16178606A022912D05FF00001D8
:10F1300001EB4101182606EBC1011022405808F1ED
:10F140000101FCF778F90420696A00F0E7FD2670F8
:10F15000F0E50121ECE70B28DCD1002CDAD0207897
:10F160001828D7D16078616A02281CD05FF00000AF
:10F1700000EB4002102000EBC2000958B8F8010073
:10F1800008806078616A02280FD0002000EB4002FE
:10F19000142000EBC2000958404650F8032F0A60C3
:10F1A0004068486039E00120E2E70120EEE71128DD
:10F1B000B0D1002CAED020781928ABD16178606A2C
:10F1C000022912D05FF0000101EB41011C2202EB89
:10F1D000C1011022405808F10101FCF72CF904206C
:10F1E000696A00F09BFD1A20B6E00121ECE70828CF
:10F1F00090D1002C8ED020781A288BD1606A98F894
:10F200000120017862F347010170616AD8F8022099
:10F2100041F8012FB8F8060088800420696A00F0E0
:10F220007DFD90E2072011E63878012894D118225C
:10F2300004F114007968FCF7FEF8E079C10894F84D
:10F240002F0001EAD001E07861F30000E070217D39
:10F25000002974D12178032909D0C00725D00320C3
:10F2600028708DF82090686A0D90412008E3607D39
:10F27000A178884201D90620E8E502262671E179C5
:10F28000204621F0E001E171617A21F0F001617224
:10F29000A17A21F0F001A172FFF7C8FC2E708DF861
:10F2A0002090686A0D900720EAE20420ABE63878E7
:10F2B00005289DD18DF82000686A0D90B8680A90E5
:10F2C0000720ADF824000A988DF830B0616801601D
:10F2D00021898180A17A817104202070F8E2397837
:10F2E000052985D18DF82010696A0D91391D09AE67
:10F2F0000EC986E80E004121ADF824108DF830B01B
:10F300001070A88CD7F80C8080B24026A769FFF750
:10F310000EFA41463A463346C846CDF80090FEF70D
:10F3200038FE002108A8FFF75DFCE07820F03E00E1
:10F33000801CE0702078052802D00F200CE04AE104
:10F34000A07D20B1012802D0032802D002E10720CD
:10F35000BEE584F80080EDE42070EBE4102104F1B8
:10F360005C0002F0EAFB606BB0BBA07D18B1012825
:10F3700001D00520FDE006202870F8486063A063F6
:10F38000C2E23878022894D1387908B12875B7E3F9
:10F39000A07D022802D0032805D022E0B86800280A
:10F3A000F5D060631CE06078012806D0A07994F85D
:10F3B0002E10012805D0E94806E0A17994F82E0026
:10F3C000F7E7B8680028E2D06063E078C00701D0B2
:10F3D000012902D0E14803E003E0F8680028D6D014
:10F3E000A06306200FE68DF82090696A0D91E17800
:10F3F0004846C90709D06178022903D1A17D29B106
:10F40000012903D0A17D032900D00720287033E112
:10F4100038780528BBD1207807281ED084F800A0B2
:10F4200005208DF82000686A0D90B8680A90ADF844
:10F4300024A08DF830B003210170E178CA070FD005
:10F44000A27D022A1AD000210091D4E9061204F10B
:10F450005C03401CFFF725FA6BE384F80090DFE7BC
:10F46000D4E90923211D8DE80E0004F12C0304F1D9
:10F470005C02401C616BFFF722FB5AE3626BC1F335
:10F480004401491E1268CA4002F0010141F08001A6
:10F49000DAE738780528BDD18DF82000686A0D902C
:10F4A000B8680A90ADF824A08DF830B0042100F8B7
:10F4B000011B102204F15C01FBF7BDFF002108A82D
:10F4C000FFF790FB2078092801D0132044E70A2099
:10F4D00020709AE5E078C10742D0A17D012902D0D1
:10F4E000022927D038E0617808A8012916D004F154
:10F4F0006C010091D4E9061204F15C03001DFFF7D2
:10F50000BBFA0A20287003268DF82080686A0D90C7
:10F51000002108A8FFF766FBE1E2C7E204F15C0105
:10F520000091D4E9062104F16C03001DFFF7A4FA51
:10F530000026E9E7C0F3440114290DD24FF0006121
:10F5400001EBB0104FEAB060E0706078012801D0A4
:10F550001020BDE40620FFE6607801283FF4B6AC39
:10F560000A2050E5E178C90708D0A17D012903D11F
:10F570000B202870042030E028702EE00E20287028
:10F580006078616B012818D004F15C0304F16C020F
:10F590000EA8FFF7E1FA2046FFF748FBA0780EAE71
:10F5A000C0F1100230440021FBF76FFF06208DF8F8
:10F5B0002000686A09960D909BE004F16C0304F149
:10F5C0005C020EA8FFF7C8FAE8E73978022903D1F0
:10F5D00039790029D0D0297592E28DF82000686A27
:10F5E0000D9056E538780728F6D1D4E909216078DE
:10F5F000012808D004F16C00CDE90002029105D188
:10F6000004F16C0304E004F15C00F5E704F15C0331
:10F6100004F14C007A680646216AFFF763F96078C6
:10F62000012822D1A078216AC0F110020B18002114
:10F630001846FBF72AFFD4E90923606B04F12D017A
:10F640008DE80F0004F15C0300E05BE204F16C0262
:10F6500031460EA8FFF7C8F910220EA904F13C00AC
:10F66000FBF7BCFE08B10B20ACE485F8008000BFBE
:10F670008DF82090686A0D908DF824A009E53878FF
:10F680000528A9D18DF82000686A0D90B8680A9005
:10F69000ADF824A08DF830B080F8008061780129A1
:10F6A0001AD0D4E9092104F12D03A66B0391009629
:10F6B000CDE9013204F16C0304F15C0204F14C0168
:10F6C000401CFFF791F9002108A8FFF78BFA60783A
:10F6D000012805D015203FE6D4E90912631DE4E7AF
:10F6E0000E20287006208DF82000686ACDF824B01E
:10F6F0000D90A0788DF82800CBE438780328C0D18D
:10F70000E079C00770D00F202870072065E73878AF
:10F7100004286BD11422391D04F11400FBF78BFE71
:10F72000616A208CA1F80900616AA078C871E1794A
:10F73000626A01F003011172616A627A0A73616A96
:10F74000A07A81F8240016205DE485F800A08DF8E9
:10F750002090696A50460D9192E00000168E0100DB
:10F760003878052842D1B868A8616178606A0229B2
:10F7700001D0012100E0002101EB4101142606EB3C
:10F78000C1014058082102F0D8F96178606A022965
:10F7900001D0012100E0002101EB410106EBC10194
:10F7A000425802A8E169FFF70BFA6078626A022802
:10F7B00001D0012000E0002000EB4001102000EB10
:10F7C000C1000223105802A90932FEF7EEFF626A57
:10F7D000FD4B0EA80932A169FFF7E1F96178606A73
:10F7E000022904D0012103E044E18DE0BFE00021C3
:10F7F00001EB4101182606EBC101A27840580EA981
:10F80000FBF719FE6178606A022901D0012100E04E
:10F81000002101EB410106EBC1014158A0780B1812
:10F82000C0F1100200211846FBF72FFE05208DF8CD
:10F830002000686A0D90A8690A90ADF824A08DF8A0
:10F8400030B0062101706278616A022A01D001227B
:10F8500000E0002202EB420206EBC202401C895883
:10F860001022FBF7E8FD002108A8FFF7BBF91220E2
:10F87000C5F818B028708DF82090686A0D900B209C
:10F880008DF8240005E43878052870D18DF8200023
:10F89000686A0D90B8680A900B20ADF824000A98A9
:10F8A000072101706178626A022901D0012100E01C
:10F8B000002101EB4103102101EBC30151580988DC
:10F8C000A0F801106178626A022902D0012101E0EA
:10F8D0002FE1002101EB4103142101EBC301515839
:10F8E0000A6840F8032F4968416059E019202870E0
:10F8F00001208DF8300074E6162028708DF830B0A5
:10F90000002108A8FFF76EF9032617E114202870DC
:10F91000AEE6387805282AD18DF82000686A0D9067
:10F92000B8680A90ADF824A08DF830B080F8009047
:10F930006278616A4E46022A01D0012200E000226C
:10F9400002EB42021C2303EBC202401C8958102226
:10F95000FBF771FD002108A8FFF744F91520287076
:10F960008DF82060686A0D908DF8246039E680E09B
:10F97000387805287DD18DF82000686A0D90B86828
:10F980000A90ADF82490092101706169097849084D
:10F990004170616951F8012FC0F802208988C18047
:10F9A00020781C28A8D1A1E7E078C00702D04FF04A
:10F9B000060C01E04FF0070C607802280AD000BF67
:10F9C0004FF0000000EB040101F1090105D04FF0F8
:10F9D000010004E04FF00100F4E74FF000000B7865
:10F9E000204413EA0C030B7010F8092F02EA0C02F2
:10F9F000027004D14FF01B0C84F800C0D2B394F80D
:10FA000001C0BCF1010F00D09BB990F800C0E046E6
:10FA10005FEACC7C04D028F001060670102606E0D0
:10FA20005FEA887C05D528F00206067013262E7042
:10FA3000032694F801C0BCF1020F00D092B991F8EE
:10FA400000C05FEACC7804D02CF001060E701721BC
:10FA500006E05FEA8C7805D52CF002060E701921BD
:10FA6000217000260078D0BBCAB3C3BB1C20207015
:10FA700035E012E002E03878062841D11A2015E47A
:10FA8000207801283CD00C283AD02046FFF7EBF82C
:10FA900009208DF82000686A0D9031E0387805283B
:10FAA00005D00620387003261820287046E005206F
:10FAB0008DF82000696A0D91B9680A910221ADF8AC
:10FAC000241001218DF830100A990870287D4870A3
:10FAD000394608A8FFF786F8064618202870012E38
:10FAE0000ED02BE001208DF82000686A0D900320D5
:10FAF0008DF82400287D8DF8250085F814B012E0DB
:10FB0000287D80B11D202070172028708DF820904E
:10FB1000686A0D9002208DF82400394608A8FFF786
:10FB200061F806460AE00CB1FE2020709DF8200026
:10FB300020B1002108A8FFF755F80CE413B03046B7
:10FB4000BDE8F08F2DE9F04387B00C464E690021E7
:10FB50008DF8041001202578034602274FF007098D
:10FB60004FF0050C85B1012D53D0022D39D1FE2067
:10FB700030708DF80030606A059003208DF8040025
:10FB8000207E8DF8050063E02179012925D0022926
:10FB90002DD0032928D0042923D1B17D022920D1D9
:10FBA00031780D1F042D04D30A3D032D01D31D29E7
:10FBB00017D12189022914D38DF80470237020896C
:10FBC0009DF80410884201E00E8E010018D2082032
:10FBD0008DF80000606A059057E070780128EBD03E
:10FBE000052007B0BDE8F0831D203070E4E7717890
:10FBF0000229F5D131780C29F3D18DF80490DDE795
:10FC0000083402F804CB94E80B0082E80B000320D0
:10FC1000E7E71578052DE4D18DF800C0656A0595F4
:10FC2000956802958DF8101094F80480B8F1010FD2
:10FC300013D0B8F1020F2DD0B8F1030F1CD0B8F1DA
:10FC4000040FCED1ADF804700E202870207E6870AD
:10FC500000216846FEF7C6FF0CE0ADF804700B20EB
:10FC60002870207E002100F01F0068706846FEF7B3
:10FC7000B9FF37700020B4E7ADF804708DF810308C
:10FC800085F800C0207E6870277011466846FEF730
:10FC9000A9FFA6E7ADF804902B70207F6870607F05
:10FCA00000F00100A870A07F00F01F00E870E27F64
:10FCB0002A71C0071CD094F8200000F0070068717A
:10FCC00094F8210000F00700A87100216846FEF7B3
:10FCD00089FF2868F062A8883086A87986F8320003
:10FCE000A069407870752879B0700D203070C1E738
:10FCF000A9716971E9E700B587B004280CD101202A
:10FD00008DF800008DF80400002005918DF80500A5
:10FD100001466846FEF766FF07B000BD70B50C46A9
:10FD2000054602F0E9F921462846BDE870407823EF
:10FD3000002202F037B908B1007870470C207047F4
:10FD400070B50C0005784FF000010CD021702146F1
:10FD5000F3F763FA69482178405D884201D10320B6
:10FD600070BD022070BDF3F758FA002070BD027913
:10FD7000012A05D000220A704B78012B02D003E043
:10FD8000042070470A758A6102799300521C02713F
:10FD9000C15003207047F0B587B00F4605460124D7
:10FDA000287905EB800050F8046C7078411E022918
:10FDB0000AD252493A46083901EB8000314650F8E0
:10FDC000043C2846984704460CB1012C11D12879EF
:10FDD000401E10F0FF00287101D00324E0E70A2044
:10FDE0008DF80000706A0590002101966846FFF7C3
:10FDF000A7FF032CD4D007B02046F0BD70B5154640
:10FE00000A46044629461046FFF7C5FF064674B168
:10FE10002078FE280BD1207C30B1002028702946A4
:10FE200004F10C00FFF7B7FF2046FEF71CFF304639
:10FE300070BD704770B50E4604467C220021FBF76A
:10FE400024FB0225012E03D0022E04D0052070BD14
:10FE50000120607000E065702046FEF704FFA57584
:10FE6000002070BD28B1027C1AB10A4600F10C01D5
:10FE7000C4E70120704710B5044686B0042002F0A4
:10FE80003BF92078FE2806D000208DF80000694656
:10FE90002046FFF7E7FF06B010BD7CB50E460021F7
:10FEA0008DF804104178012903D0022903D00024E1
:10FEB00005E0046900E044690CB1217C89B16D461C
:10FEC00001462846FFF753FF032809D13246294649
:10FED0002046FFF793FF9DF80410002900D004206E
:10FEE0007CBD04F10C05EBE730B40C460146034A37
:10FEF000204630BC024B0C3AFEF751BE548E010036
:10FF00000E8E010070B50D46040011D085B122019E
:10FF100000212846FBF7B9FA102250492846FBF782
:10FF20008AFA4F480121017044704560002070BD7D
:10FF3000012070BD70B505460024494E11E070687F
:10FF4000AA7B00EB0410817B914208D1C17BEA7B44
:10FF5000914204D10C222946FBF740FA30B1641CCF
:10FF6000E4B230788442EAD3002070BD641CE0B271
:10FF700070BD70B50546FFF7DDFF002805D1384C90
:10FF800020786178884201D3002070BD616810221A
:10FF900001EB00102946FBF74EFA2078401CC0B256
:10FFA000207070BD2E48007870472D4908780128D0
:10FFB00002D0401E08700020704770B50D46002129
:10FFC000917014461180022802D0102815D105E046
:10FFD000288890B10121A17010800CE0284613B14F
:10FFE000FFF7C7FF01E0FFF7A5FFA07010F0FF0FBC
:10FFF00003D0A8892080002070BD012070BD00239F
:020000040001F9
:10000000DBE770B5054614460E0009D000203070BD
:10001000A878012806D003D911490A7890420AD954
:10002000012070BD24B1287820702888000A507003
:10003000022008700FE064B14968102201EB001142
:1000400020461039FBF7F7F9287820732888000A32
:10005000607310203070002070BD0000638E0100BE
:100060007C0000202DE9F04190460C460746002513
:10007000C2EB4811FE48072F00EB410607D2DFE82C
:1000800007F00707070704040400012500E0FFDF6D
:1000900006F81470002D13D0F5487C3000EB880171
:1000A00091F827001F2803D006EB4000447001E0C0
:1000B00081F8264006EB44021F20507081F827404B
:1000C000BDE8F081F0B51F4614460E4605461F2ACE
:1000D00000D1FFDFE648C7EB471100EB410CE449D4
:1000E0000CEB44007C3101EB87021F2E07D00CEB98
:1000F000460140784B78487018461F210AE092F874
:100100002530407882F82500F6E701460CEB4100E7
:1001100005704078A142F8D192F827401F2C03D0F7
:100120000CEB4404637001E082F826300CEB4104D0
:100130001F23637082F82710F0BD30B50D46CD4BFC
:1001400044190022181A72EB020100D2FFDFCA48DC
:10015000854200DDFFDFC8484042854200DAFFDF0C
:10016000C448401C844207DA002C01DB204630BD25
:10017000C048401C201830BDBE48C043FAE710B547
:1001800004460168407ABD4A52F82020114450B11B
:100190000220084420F07F40F8F703FD94F908108E
:1001A000BDE81040C9E70420F3E72DE9F047B04E61
:1001B0007C3696F82D50DFF8B89206EB850090F863
:1001C000264036E0C5EB451109EB41074FF0070823
:1001D00017F81400012806D004282ED005282ED0A8
:1001E000062800D0FFDF01F045F9014607EB440087
:1001F000427806EB850080F8262090F82720A2425E
:1002000002D11F2280F82720084601F03EF92A4635
:1002100021460120FFF726FF9948414600EB0410D4
:1002200002682046904796F82D5006EB850090F81E
:1002300026401F2CC6D1BDE8F087022000E0032035
:100240008046D0E710B58A4C1F217C3484F82510F5
:1002500084F8261084F82710002084F8280084F8F9
:100260002D0084F82E10411EA16044F8100B20745C
:10027000607420736073A0738249E0772075087002
:10028000487000217A4A103C02F81100491CC9B29A
:100290001F29F9D30120F8F778FB0020F8F775FB48
:1002A000012084F82200F2F721FE7748F2F733FEAE
:1002B000744CA41E20707548F2F72DFE6070BDE8E6
:1002C0001040F8F7EFBA10B5F8F711FB6D4CA41E0B
:1002D0002078F2F739FE6078F2F736FEBDE810407C
:1002E00001F000B91F2070470020F8F727BB70B558
:1002F000054601240E46AC405AB1FFF7F5FF014612
:10030000634800EBC500C0F81015C0F814656148DB
:1003100001E06048001D046070BD2DE9F34F544DAD
:1003200000247C3505EB810A89B09AF825001F2846
:1003300023D0611E02915249009401EB0017391D30
:1003400003AB07C983E8070005F11400A046018943
:10035000ADF81C10807A8DF81E009DF81500C8B10C
:100360000226464951F820400399A219114421F070
:100370007F41019184B102210FE00120F8F705FBD4
:100380000020F8F702FBF8F7D0FA01F0ABF885F897
:100390002F40A9E00426E4E700218DF81810022878
:1003A00001D0012820D1039801190998081A801C4E
:1003B0009DF81C1020F07F4001B1022135318142AF
:1003C0000BD203208DF815000398C4F13201401AB6
:1003D00020F07F40322403900CE095F8240018B9F7
:1003E00001F063FA002863D0322C03D214B101F07B
:1003F0006DF801E001F076F8224A107818B39346C0
:100400005278039B121B00219DF818409946012841
:100410001AD0032818D000208DF81E00002A04DD11
:10042000981A039001208DF818009DF81C0000B167
:1004300002210398184A20F07F40039003AB0998EB
:1004400001F05CF810B110E00120E5E79DF81D0017
:1004500018B99BF80000032829D08DF81C80CDF82E
:100460000C908DF818408DF81E809DF8180015E04E
:10047000BC070020FF7F841E0020A107748E0100AE
:10048000CC05002086000020531E0100AB010100B6
:1004900000F0014004F50140FFFF3F0058B1039810
:1004A0000123811900221846F8F7C2FA06E000205D
:1004B0000BB0BDE8F08F0120F8F767FA97F90C2030
:1004C000012300200199F8F7B3FAF87BC00701D0A7
:1004D000F8F793FB012085F82F008AF82880202266
:1004E0006946FE48FAF7A7FF0120E1E72DE9F05F32
:1004F000DFF8E883064608EB860090F825501F2DAC
:1005000021D0A8F17C01C6EB46102C4601EB400738
:10051000A1F5F879DFF8C8B305E0A24607EB4A0079
:1005200044781F2C0AD0F8F7CEFA09EB04135A4688
:1005300001211B1D00F0E2FF0028EED0AC4202D0EA
:10054000334652461EE0E74808B1AFF30080F8F7A3
:10055000BAFA98F82F206AB1D8F80C20411C891AF1
:100560000902CA1701EB12610912002902DD0020FD
:10057000BDE8F09F3146FFF7D0FE08B10120F7E754
:1005800033462A461F210420FFF79CFDEFE72DE9A3
:10059000F041D24C2569F8F796FA401B0002C117CA
:1005A00000EB1160001200D4FFDF94F8220000B1CC
:1005B000FFDF012784F8227094F82E001F2800D155
:1005C000FFDF94F82E601F2084F82E00002584F8A9
:1005D0002F5084F8205084F82150C34825600078BB
:1005E000022835D0032833D000202077A068401C93
:1005F00005D04FF0FF30A0600120F8F7C6F90020C9
:10060000F8F7C3F9F8F7BAFAF8F7B2FAF8F78DF98C
:1006100007F0F6FCB548056005604FF0E0214FF4A7
:100620000040B846C1F88002F2F7E8FB94F82D705C
:100630003846FFF75BFF0028FAD0A849C7EB471000
:100640007C3901EB400010F81600022802D006E0C9
:100650000120CAE73A4631460620FFF703FD84F839
:10066000238004EB870090F826001F2804D09E48C2
:10067000801E4078F2F76EFC207F002803D0F8F748
:100680006DFA257765771BE5944910B591F82D2013
:10069000924B0024C2EB42117C3B03EB410100BFB3
:1006A00011F814302BB1641CE4B21F2CF8D31F20B6
:1006B00010BD8F4901EB041108600020C87321466A
:1006C0000120FFF7CFFC204610BD10B5012801D056
:1006D000032800D181B3814A92F82D307F4C00224B
:1006E000C3EB43137C3C04EB430300BF13F81240FD
:1006F0000CB1082010BD521CD2B21F2AF6D37A4A80
:1007000048B1022807D0072917D2DFE801F0160602
:10071000080A0C0E100000210AE01B2108E03A2113
:1007200006E0582104E0772102E0962100E0B5219F
:1007300051701070002010BDFFE70720FBE76A48EA
:1007400010B54078F8F72DFA80B2F4E710B51F28FD
:1007500015D2624991F82D20C2EB4213A1F17C021F
:1007600002EB430414F810304BB191F82D30C3EB79
:10077000431302EB430212F81020012A01D000209B
:10078000D9E791F82D2001460020FFF76BFC0120EE
:10079000D1E710B5F8F797F9BDE81040F8F701BABE
:1007A0002DE9F0410E464D4F01781F257C3FC3EBEC
:1007B00043130C4607EB430303E0254603EB4504D4
:1007C0006478944202D01F2CF7D108E01F2C06D089
:1007D000A14206D103EB41014978017007E00020F6
:1007E0006EE403EB440003EB450140784870414F51
:1007F0007EB127B1002140F22D40AFF30080307868
:10080000A04206D127B100214FF48660AFF30080EB
:10081000357027B1002140F23540AFF30080012050
:100820004EE410B542680B689A1A1202D41702EB14
:100830001462121216D4497A91B1427A82B92E4AC0
:10084000006852F82110126819441044001D891CD8
:10085000081A0002C11700EB11600012322801DBF8
:10086000012068E7002066E72DE9F0478146204E29
:10087000C1EB411006F5F8719846144601EB4007AC
:1008800013E000BF06EB0415291D4846FFF7C9FF1A
:1008900068B988F80040A97B99F80A00814201D81C
:1008A0000020C8E407EB440044781F2CEAD1012063
:1008B000C1E42DE9F047824608480E4600EB860069
:1008C000DFF82C8090F825401F201070C1EB4610F7
:1008D0009946154608F5F87110E000003808002028
:1008E000FFFF3F00000000008600002000F50040F0
:1008F000CC05002000000000748E010001EB4007D1
:100900000BE000BF08EB04105146001DFFF789FF04
:1009100028B107EB44002C7044781F2CF2D12978C1
:1009200089F800104B46224631465046BDE8F04754
:100930009AE72DE9FC410E4607460024FE4D08E0EB
:100940009DF8000005EB00108168384600F0EAFDD4
:1009500001246B4601AA31463846FFF7AAFF00285A
:10096000EED02046BDE8FC8170B50446C0EB4411D2
:100970000125F248A54300EB4101C5EB451200EB10
:1009800042003E22FAF757FDED4E26B100214FF40A
:100990009360AFF30080E9487C3000EB850100EB09
:1009A0008400D0F82500C1F8250026B1002140F2CE
:1009B0009C40AFF30080284670BD8A4203D00346B6
:1009C0000520FFF77FBB1F2908D0DC4AC0EB401091
:1009D00002EB400000EB410040787047D7497C3182
:1009E00001EB800090F825007047D34901EB00101F
:1009F000001DFFF7C4BB7CB51D46134604460E46DA
:100A000000F1080221461846F8F7D8F894F90800D2
:100A10000F2804DD1F3820722068401C206096B12A
:100A20000220C84951F82610461820686946801BE4
:100A300020F07F40206094F908002844C01C1F2843
:100A400003DA012009E00420EBE701AAF8F7B6F881
:100A50009DF8040010B10098401C00900099206897
:100A600031440844C01C20F07F4060607CBDFEB56E
:100A70000C46064609786079907220791F46154623
:100A8000507279B1217900222846A368FFF7B3FF9D
:100A9000AA4928467C3191F82E201F2A0AD00969DC
:100AA000491D0DE0D4E90223217903B02846BDE8B1
:100AB000F040A0E7A4494978052900D20521314436
:100AC00021F07F4100F02EFD39462846FFF731FF27
:100AD000D4E9023221796846FFF78DFF2B460021C9
:100AE0003046019A00F00AFD002806D103B03146D5
:100AF0002846BDE8F04000F015BDFEBD2DE9FE4FD3
:100B0000814600F0CBFC38B15FF0000799F8000097
:100B100020B10020BDE8FE8F0127F7E7874D884C04
:100B20004FF0000A7C3524B1002140F2FF40AFF3C2
:100B3000008095F82D8085F823A0002624B100219F
:100B400040F20450AFF300801FB94046FFF70CFF9E
:100B5000804624B1002140F20C50AFF30080F7F73B
:100B6000B2FF43466A464946FFF781FF24B10021A0
:100B700040F21250AFF3008095F82E001F280CD0E1
:100B800029690098401A0002C21700EB1260001297
:100B900003D5684600F0C6FC012624B1002140F2CE
:100BA0001C50AFF3008095F823000028BBD124B17E
:100BB000002140F22250AFF30080F7F784FF6B462C
:100BC000624A002100F09AFC0028A3D027B94146D0
:100BD0006846FFF7AEFE064326B16846FFF7CFFA38
:100BE000C9F8080024B1002140F23550AFF300806D
:100BF00001208FE72DE9F04F89B08B46824600F047
:100C00004DFC4E4C7C3428B39BF80000002710B1FB
:100C1000012800D0FFDF4A4D25B1002140F2F750F6
:100C2000AFF300804449012001EB0A18A946079060
:100C30005FEA090604D0002140F2FF50AFF30080C4
:100C4000079800F022FC94F82D50002084F823002F
:100C500067B119E094F82E0001271F2800D1FFDFAB
:100C60009BF800000028D6D0FFDFD4E72846FFF726
:100C70007BFE054626B1002140F20960AFF30080FB
:100C800094F823000028D3D126B1002140F213604C
:100C9000AFF30080F7F717FF2B4602AA59460790DB
:100CA000FFF7E5FE98F80F005FEA060900F0010083
:100CB0008DF8130004D0002140F21D60AFF30080D6
:100CC0003B462A4602A9CDF800A0079800F035FC63
:100CD000064604EB850090F828000090B9F1000F5B
:100CE00004D0002140F22460AFF3008000F0C2FB8A
:100CF0000790B9F1000F04D0002140F22A60AFF351
:100D0000008094F82300002892D1B9F1000F04D09C
:100D1000002140F23260AFF300800DF1080C9CE836
:100D20000E00C8E90112C8F80C30BEB35FEA09062C
:100D300012D000210CE00000CC050020BC070020F0
:100D400000000000748E010086000020FFFF3F00BD
:100D500040F23F60AFF300800098B84312D094F89F
:100D60002E001F280ED126B1002140F24460AFF3BF
:100D700000802846FFF7BAFB20B99BF80000D8B3E3
:100D8000012849D0B9F1000F04D0002140F2616080
:100D9000AFF30080284600F066FB01265FEA0905F4
:100DA00004D0002140F26A60AFF30080079800F0A1
:100DB0006CFB25B1002140F26E60AFF300808EB174
:100DC00094F82D0004EB800090F826001F2809D02D
:100DD00025B1002140F27560AFF30080F9484078FA
:100DE000F2F7B8F825B1002140F27A60AFF3008045
:100DF00009B03046BDE8F08FFFE7B9F1000F04D02D
:100E0000002140F24C60AFF3008094F82D20514651
:100E10000420FFF727F9C0E7002E3FF409AF0021B7
:100E200040F25760AFF3008002E72DE9F84FE64D3E
:100E3000814695F82D004FF00008E44C4FF0010B6F
:100E4000474624B100214FF4D160AFF300805846EB
:100E500000F01BFB85F8237024B1002140F28D6067
:100E6000AFF3008095F82D00FFF77EFD064695F85C
:100E7000230028B1002CE4D0002140F293604DE023
:100E800024B1002140F29760AFF30080CE49C6EB59
:100E900046107C3901EB400111F81900032856D1A6
:100EA000334605EB830A4A469AF82500904201D161
:100EB000012000E0002000900AF125000021FFF74A
:100EC0006FFC01460098014203D001228AF82820D5
:100ED000AF77E1B324B1002140F29C60AFF3008012
:100EE000324649460120FFF7BDF89AF828A024B100
:100EF000002140F2A760AFF3008000F0BBFA834608
:100F000024B1002140F2AC60AFF3008095F82300DB
:100F100038B1002C95D000214FF4D660AFF300809B
:100F20008FE7BAF1000F07D095F82E001F2803D1E4
:100F30003046FFF7DBFAE0B124B1002140F2C46093
:100F4000AFF30080304600F08EFA4FF0010824B174
:100F5000002140F2CD60AFF30080584600F095FAD2
:100F600024B1002140F2D160AFF300804046BDE8DB
:100F7000F88F002CF1D0002140F2BF60AFF3008069
:100F8000E6E70120F7F7DABC8E48007870472DE9D4
:100F9000F0418D4C94F82E001F2821D194F82D603B
:100FA00004EB860797F825501F2D00D1FFDF8649F7
:100FB000C6EB46107C3901EB400000EB4500407861
:100FC00007F8250F0120F87084F82300294684F8DB
:100FD0002E50324602202234FFF744F800202070C1
:100FE0001EE42DE9F0417A4E774C012538B10128F5
:100FF00021D0022879D003287DD0FFDF10E400F053
:1010000065FAFFF7C4FF207E00B1FFDF84F82150AE
:101010000020F7F7BAFCA168481C04D00123002285
:101020001846F7F705FD14F82E0F217806EB01118D
:101030000A68012154E0FFF7AAFF0120F7F7A5FC99
:1010400094F8210050B1A068401C07D014F82E0F6E
:10105000217806EB01110A68062141E0207EDFF8C5
:101060006481002708F10208012803D002281ED05D
:10107000FFDFB5E7A777F7F771FD98F800000328C1
:1010800001D165772577607D524951F8200094F8A9
:10109000201051B948B161680123091A002218468D
:1010A000F7F7C6FC022020769AE7277698E784F8BF
:1010B000205000F00BFAA07F50B198F80100616851
:1010C0000123091A00221846F7F7B2FC257600E042
:1010D000277614F82E0F217806EB01110A680021FB
:1010E000BDE8F041104700E005E036480078BDE873
:1010F000F041F1F72FBFFFF74AFF14F82E0F2178C8
:1011000006EB01110A680521EAE710B52E4C94F8A8
:101110002E001F2800D1FFDF14F82E0F21782C4A53
:1011200002EB01110A68BDE81040042110477CB5AC
:10113000254C054694F82E001F2800D1FFDFA0683B
:10114000401C00D0FFDF94F82E00214901AA01EBDA
:101150000010694690F90C002844F7F72FFD9DF91F
:1011600004000F2801DD012000E000200099084460
:101170006168084420F07F41A16094F821000028B4
:1011800007D002B00123BDE8704000221846F7F7EF
:101190004FBC7CBD30B5104A0B1A541CB3EB940FF6
:1011A0001ED3451AB5EB940F1AD3934203D9101AE4
:1011B00043185B1C14E0954210D9511A0844401C96
:1011C00043420DE0840000203808002000000000A9
:1011D000CC050020748E0100FF7F841EFFDF0023FA
:1011E000184630BD0123002201460220F7F720BC3B
:1011F0000220F7F7CABBF7F766BC2DE9FE4FF24CA9
:1012000005468A4694F82E001F2800D1FFDFEE4ED7
:1012100094F82E10A0462046A6F51B7202EB01148E
:101220001F218DF8001090F82D10376900EB810117
:10123000D8F8000091F82590284402AA01A90C369C
:10124000F7F7BCFC9DF90800002802DD0198401C5E
:101250000190A0680199642D084453D3DB4B002210
:101260005B1B72EB02014DD36168411A21F07F4193
:10127000B1F5800F46D220F07F40706086F80AA05A
:1012800098F82D1044466B464A463046FFF7ECFA74
:10129000B8B3A068401C10D0F7F715FCA168081A75
:1012A0000002C11700EB1160001202282CDD0120A2
:1012B000F7F76BFB4FF0FF30A06094F82D009DF81E
:1012C00000201F210F34FFF778FBA17FBE4AC1EB3E
:1012D00041117C3A02EB4101E27F01EB420148708F
:1012E00054F80F0C284444F80F0C012020759DF889
:1012F00000001F2803D0B6484078F1F72BFE0120EC
:1013000008E401E0002005E47760FBE72DE9F04701
:10131000AD4C074694F82D00A4F17C06C0EB4010BC
:1013200006EB400010F8170000B9FFDF94F82D50CD
:10133000A046A84C24B1002140F6E800AFF300809D
:10134000C5EB451040F6F40940F6FD0A06EB4006F1
:1013500016F81700012819D0042811D005280FD03D
:1013600006280DD01CB100214846AFF3008007F0DD
:101370001BFB002CECD000215046AFF30080E7E7C8
:101380002A4639460120FEF76DFEF2E74FF0010ACA
:101390004FF00009454624B1002140F60410AFF398
:1013A0000080504600F071F885F8239024B10021A8
:1013B00040F60910AFF3008095F82D00FFF7D4FA3E
:1013C000064695F8230028B1002CE4D0002140F611
:1013D0000F101FE024B1002140F61310AFF300807E
:1013E00005EB860000F1270133463A462630FFF729
:1013F000D7F924B1002140F61710AFF3008000F0B8
:1014000039F8824695F8230038B1002CC3D000216A
:1014100040F61D10AFF30080BDE785F82D60012078
:1014200085F82300504600F030F8002C04D000214D
:1014300040F62A10AFF30080BDE8F08730B50446CF
:1014400061480D4690F82D005F49C0EB40107C3993
:1014500001EB400010F8140000B9FFDF5E4800EB1C
:101460000410C57330BD584981F82D00012081F862
:101470002300704710B5594808B1AFF30080EFF36F
:10148000108000F0010072B610BD10B5002804D124
:10149000534808B1AFF3008062B610BD51480068F0
:1014A000C005C00D10D0103840B2002804DB00F198
:1014B000E02090F8000405E000F00F0000F1E020CB
:1014C00090F8140D400970470820704710B53E4C45
:1014D00094F82400002804D1F7F7E4FB012084F8F5
:1014E000240010BD10B5384C94F82400002804D016
:1014F000F7F701FC002084F8240010BD10B51C682B
:101500005B68241A181A24F07F4420F07F40A1421F
:1015100006D8B4F5800F03D2904201D8012010BD47
:10152000002010BDD0E90032D21A21F07F431144CF
:1015300021F07F41C0E9003170472DE9FC4184462C
:10154000214815460F46C2EB45117C38089C00EB3C
:10155000410616F81400012804D0022802D0002009
:10156000BDE8FC813B46204A01216046FFF7C6FFEB
:10157000F0B101AB6A4629463846FFF79AF9B8B18F
:101580009DF804209DF800102846FFF716FA06EB98
:10159000440148709DF800001F280DD006EB400064
:1015A00044702A4621460320FEF75CFD0120D7E760
:1015B0002A4621460420F7E70348012100EB850075
:1015C00000F8254FC170ECE738080020FF1FA10785
:1015D0008400002000000000CC0500200000000076
:1015E0000000000004ED00E0FFFF3F002DE9F041A6
:1015F000044680074FF000054FF001060CD56B48FC
:101600000560066000F0E8F920B16948016841F41E
:101610008061016024F00204E0044FF0FF3705D53B
:1016200064484660C0F8087324F48054600003D511
:101630006148056024F08044E0050FD55F48C0F89C
:101640000052C0F808735E490D60091D0D605C4AC8
:1016500004210C321160066124F48074A00409D5C1
:1016600058484660C0F80052C0F8087356480560F4
:1016700024F40054C4F38030C4F3C031884200D055
:10168000FFDF14F4404F14D050484660C0F8087390
:101690004F488660C0F80052C0F808734D490D608D
:1016A0000A1D16608660C0F808730D60166024F489
:1016B000404420050AD5484846608660C0F8087353
:1016C000C0F848734548056024F4006406F072FCD5
:1016D0004348044200D0FFDFBDE8F081F0B50022AE
:1016E000202501234FEA020420FA02F1C9072DD078
:1016F00051B2002910DB00BF4FEA51174FEA8707AC
:1017000001F01F0607F1E02703FA06F6C7F880612B
:10171000BFF34F8FBFF36F8F0CDB00BF4FEA511742
:101720004FEA870701F01F0607F1E02703FA06F6E4
:10173000C7F8806204DB01F1E02181F8004405E094
:1017400001F00F0101F1E02181F8144D02F10102D5
:10175000AA42C9D3F0BD10B5224C20600846F7F765
:10176000BAFB2068FFF742FF2068FFF7B7FF06F0DB
:1017700059F800F092F906F01DFC06F05CFBF1F759
:10178000B5FBBDE8104006F001B910B5154C206856
:10179000FFF72CFF2068FFF7A1FF06F00BFCF7F71F
:1017A0008BFC0020206010BD0A207047FC1F004009
:1017B0003C17004000C0004004E5014000800040AC
:1017C0000485004000D0004004D5004000E0004007
:1017D00000F0004000F5004000B0004008B50040B7
:1017E000FEFF0FFD8800002070B526490A680AB385
:1017F0000022154601244B685B1C4B600C2B00D368
:101800004D600E7904FA06F30E681E420FD0EFF316
:10181000108212F0010272B600D001220C689C43C3
:101820000C6002B962B649680160002070BD521CAC
:101830000C2AE0D3052070BD4FF0E0214FF480006A
:10184000C1F800027047EFF3108111F0010F72B67A
:101850004FF0010202FA00F20A48036842EA03026A
:10186000026000D162B6E7E70648002101604160EE
:1018700070470121814003480068084000D00120E2
:10188000704700008C00002001208107086070472D
:101890000121880741600021C0F80011184801703B
:1018A000704717490120087070474FF08040D0F80A
:1018B0000001012803D012480078002800D0012040
:1018C000704710480068C00700D0012070470D48DD
:1018D0000C300068C00700D0012070470948143060
:1018E00000687047074910310A68D20306D50968B5
:1018F00001F00301814201D10120704700207047AF
:1019000094000020080400404FF08050D0F83001CF
:101910000A2801D0002070470120704700B5FFF76A
:10192000F3FF20B14FF08050D0F8340108B100200F
:1019300000BD012000BD4FF08050D0F830010E28CE
:1019400001D000207047012070474FF08050D0F840
:101950003001062803D0401C01D000207047012030
:1019600070474FF08050D0F830010D2801D0002092
:101970007047012070474FF08050D0F830010828A0
:1019800001D000207047012070474FF08050D0F800
:101990003001102801D0002070470120704700B5A9
:1019A000FFF7F3FF30B9FFF7DCFF18B9FFF7E3FFEC
:1019B000002800D0012000BD00B5FFF7C6FF38B1F8
:1019C0004FF08050D0F83401062803D3401C01D0DA
:1019D000002000BD012000BD00B5FFF7B6FF48B1F3
:1019E0004FF08050D0F83401062803D3401C01D0BA
:1019F000012000BD002000BD002101700846704795
:101A00000146002008707047EFF3108101F00101DA
:101A100072B60278012A01D0012200E000220123DF
:101A2000037001B962B60AB1002070474FF400504C
:101A30007047E9E7EFF3108111F0010F72B64FF034
:101A40000002027000D162B600207047F2E7000089
:101A50002DE9F04115460E460446002700F0EBF84C
:101A6000A84215D3002341200FE000BF94F8422084
:101A7000A25CF25494F84210491CB1FBF0F200FB56
:101A800012115B1C84F84210DBB2AB42EED301278B
:101A900000F0DDF83846BDE8F081724910B58020CD
:101AA00081F800047049002081F8420081F841006B
:101AB000433181F8420081F84100433181F842000E
:101AC00081F841006948FFF797FF6848401CFFF71D
:101AD00093FFF1F79FF9BDE8104000F0B8B840203F
:101AE0007047614800F0A7B80A4601465E48AFE774
:101AF000402070475C48433000F09DB80A460146DC
:101B000059484330A4E7402101700020704710B5C8
:101B100004465548863000F08EF82070002010BD35
:101B20000A460146504810B58630FFF791FF08B1CC
:101B3000002010BD42F2070010BD70B50C460646ED
:101B4000412900D9FFDF4A480068103840B200F050
:101B500054F8C5B20D2000F050F8C0B2854201D350
:101B6000012504E0002502E00DB1F1F78EF92246CF
:101B700031463D48FFF76CFF0028F5D070BD2DE9D8
:101B8000F0413A4F0025064617F1040757F8254063
:101B9000204600F041F810B36D1CEDB2032DF5D3D3
:101BA0003148433000F038F8002825D02E4800F0A6
:101BB00033F8002820D02C48863000F02DF800287B
:101BC0001AD0F1F740F92948FFF71EFFB0F5005F82
:101BD00000D0FFDFBDE8F0412448FFF72BBF94F8A9
:101BE00041004121265414F8410F401CB0FBF1F292
:101BF00001FB12002070D3E74DE7002804DB00F161
:101C0000E02090F8000405E000F00F0000F1E02073
:101C100090F8140D4009704710F8411F4122491CEB
:101C2000B1FBF2F302FB13114078814201D1012094
:101C300070470020704710F8411F4078814201D35F
:101C4000081A02E0C0F141000844C0B2704710B564
:101C50000648FFF7D9FE002803D1BDE81040F1F790
:101C6000DDB810BD0DE000E06808002098000020FD
:101C700004ED00E0114908784A78401CC0B2904257
:101C800000D0087070472DE9F0414FF0E0260B4C72
:101C900006F08AFE40BF20BF677820786070D6F8D3
:101CA0000052EFF77AFB854305D1D6F8040210B94C
:101CB0002078B842ECD00020BDE8F081A8000020D8
:101CC0002DE9F04101264FF0E02231034FF00008EA
:101CD0004046C2F88011BFF34F8FBFF36F8F204C87
:101CE000C4F800010C2000F02EF81E4D2868C043F7
:101CF00040F30017286840F010002860C4F804631F
:101D000026607F1C02E000BF06F04EFED4F8000102
:101D10000028F9D01FB9286820F010002860124868
:101D200005686660C4F80863C4F800810C2000F000
:101D30000AF82846BDE8F08110B50446FFF7C0FF59
:101D40002060002010BD002809DB00F01F020121E7
:101D500091404009800000F1E020C0F880127047F7
:101D600000C0004010ED00E008C500402DE9F0473C
:101D7000FF4C0646FF21A06800EB06121170217887
:101D8000FF2910D04FF0080909EB011109EB0617E4
:101D90004158C05900F0F4F9002807DDA168207807
:101DA00001EB061108702670BDE8F08794F80080FA
:101DB00045460DE0A06809EB05114158C05900F0F7
:101DC000DFF9002806DCA068A84600EB08100578BB
:101DD000FF2DEFD1A06800EB061100EB08100D708D
:101DE0000670E1E7F0B5E24B0446002001259A6851
:101DF0000C269B780CE000BF05EB0017D75DA742CF
:101E000004D106EB0017D7598F4204D0401CC0B252
:101E10008342F1D8FF20F0BD70B5FFF7ECF9D44C48
:101E200008252278A16805EB0212895800F0A8F96C
:101E3000012808DD2178A06805EB01114058BDE8B4
:101E40007040FFF7CFB9FFF79FF8BDE87040F1F79A
:101E500081B82DE9F041C64C2578FFF7CCF9FF2D6C
:101E60006ED04FF00808A26808EB0516915900F0F3
:101E700087F90228A06801DD80595DE000EB0511BB
:101E800009782170022101EB0511425C5AB1521E02
:101E90004254815901F5800121F07F41815128464A
:101EA000FFF764FF34E00423012203EB051302EB88
:101EB000051250F803C0875CBCF1000F10D0BCF5D0
:101EC000007F10D9CCF3080250F806C00CEB423C5E
:101ED0002CF07F4C40F806C0C3589A1A520A09E009
:101EE000FF2181540AE0825902EB4C3222F07F42FA
:101EF0008251002242542846FFF738FF0C21A06887
:101F000001EB05114158E06850F82720384690470A
:101F10002078FF2814D0FFF76EF92278A16808EB2B
:101F200002124546895800F02BF9012893DD2178EB
:101F3000A06805EB01114058BDE8F041FFF752B928
:101F4000BDE8F081F0B51D4614460E460746FF2B4E
:101F500000D3FFDFA00700D0FFDF8548FF2100226C
:101F6000C0E90247C5700671017042708270104668
:101F7000012204E002EB0013401CE154C0B2A8426D
:101F8000F8D3F0BD70B57A4C064665782079854265
:101F900000D3FFDFE06840F825606078401C607087
:101FA000284670BD2DE9FF5F1D468B460746FF247E
:101FB000FFF721F9DFF8B891064699F80100B84219
:101FC00000D8FFDF00214FF001084FF00C0A99F80C
:101FD0000220D9F808000EE008EB0113C35CFF2BC8
:101FE0000ED0BB4205D10AEB011350F803C0DC450B
:101FF0000CD0491CC9B28A42EED8FF2C02D00DE0A9
:102000000C46F6E799F803108A4203D1FF2004B08A
:10201000BDE8F09F1446521C89F8022008EB041119
:102020000AEB0412475440F802B00421029B00223C
:10203000012B01EB04110CD040F801204FF4007883
:1020400008234FF0020C454513D9E905C90D02D00C
:1020500002E04550F2E7414606EB413203EB041340
:1020600022F07F42C250691A0CEB0412490A8154D3
:102070000BE005B9012506EB453103EB041321F014
:102080007F41C1500CEB0411425499F80050204696
:10209000FFF76CFE99F80000A84201D0FFF7BCFEE4
:1020A0003846B4E770B50C460546FFF7A4F8064677
:1020B00021462846FFF796FE0446FF281AD02C4DED
:1020C000082101EB0411A8684158304600F058F887
:1020D00000F58050C11700EBD14040130221AA68DF
:1020E00001EB0411515C09B100EB4120002800DC38
:1020F000012070BD002070BD2DE9F0478846814663
